:100000000C94970C0C94C80C0C94C80C0C94C80C51
:100010000C94C80C0C94C80C0C94C80C0C94C80C10
:100020000C94C80C0C94C80C0C94C80C0C94C80C00
:100030000C94C80C0C94C80C0C94C80C0C94C80CF0
:100040000C94C80C0C9457760C94C80C0C94C80CE7
:100050000C94C80C0C94C80C0C94638B0C940B92ED
:100060000C94C80C0C94D8490C94C80C0C94C80C73
:100070000C94C80C0C94C80C0C94C80C0C94C80CB0
:100080000C943C730C94C80C0C94C80C0C94C80CC5
:100090000C94C80C0C94C80C0C94C80C0C94C80C90
:1000A0000C94C80C0C94C80C0C946A730C94C80C77
:1000B0000C94C80C0C94C80C0C94C80C0C94987339
:1000C0000C94C80C0C94C80C0C94C80C0C94C80C60
:1000D0000C94C80C0C94C80C0C94C80C0C94C80C50
:1000E0000C94C80CB88BC58BE18BEE8B088C0A8CFA
:1000F0000C8C0E8C168C46934B9350935A936493AE
:10010000DD936E9376937E93889392939C93AB93B7
:10011000B593DD93BF93C993D393FF930294F19367
:10012000F593FB93399406940A94109414941894BC
:100130001E942294269439942C9430943494084A32
:10014000D73B3BCE016E84BCBFFDC12F3D6C7431EB
:100150009ABD56833DDA3D00C77F11BED9E4BB4C42
:100160003E916BAAAABE000000803F05A84CCDB20C
:10017000D44EB93836A9020C50B9918688083CA6ED
:10018000AAAA2ABE000000803F000C94B88B0C94F1
:10019000D3930C9464930C94FB930C94BF930C94A2
:1001A000088C0C9410940C949C930C94C58B0C9418
:1001B0000E8C0C94EE8B0C9414940C94DD930C9494
:1001C00039940C946E930C942C940C940A8C0C948B
:1001D00046930C94168C0C9430940C9418940C94B4
:1001E00050930C944B930C94AB930C94D4490C9473
:1001F00002940C947E930C940C8C0C9422940C948A
:1002000006940C940A940C945A930C9434940C9481
:10021000F1930C941E940C94B5930C9488930C94C5
:1002200092930C94E18B0C94FF930C94C9930C94CF
:1002300076930C94F5930C9426940A007A70726F5E
:1002400062655F7A6F66667365743A20000A0045DE
:100250004550524F4D204552524F520020440020ED
:1002600049002020204D3330312050005049442097
:1002700073657474696E67733A00205A00205900E0
:1002800020204D323036205800486F6D65206F6653
:100290006673657420286D6D293A00204500205A48
:1002A0000020580020420020540020204D323035DC
:1002B000205300416476616E6365642076617269E3
:1002C00061626C65733A20533D4D696E20666565C9
:1002D000647261746520286D6D2F73292C20543D44
:1002E0004D696E2074726176656C20666565647216
:1002F00061746520286D6D2F73292C20423D6D6936
:100300006E696D756D207365676D656E74207469B7
:100310006D6520286D73292C20583D6D6178696DBD
:10032000756D205859206A65726B20286D6D2F738A
:10033000292C20205A3D6D6178696D756D205A20F9
:100340006A65726B20286D6D2F73292C2020453D26
:100350006D6178696D756D2045206A65726B202826
:100360006D6D2F73290020540020204D3230342031
:100370005300416363656C65726174696F6E3A2006
:10038000533D616363656C65726174696F6E2C20A7
:10039000543D7265747261637420616363656C655A
:1003A000726174696F6E00204500205A0020590068
:1003B00020204D3230312058004D6178696D756DC7
:1003C00020416363656C65726174696F6E20286D8E
:1003D0006D2F7332293A00204500205A0020590021
:1003E00020204D3230332058004D6178696D756D95
:1003F0002066656564726174657320286D6D2F7366
:10040000293A00204500205A0020590020204D396B
:100410003220580053746570732070657220756EB9
:1004200069743A0053657474696E67732053746F0E
:1004300072656400494E464F3E004543484F3E00BA
:100440004552524F523E005072696E74657220736D
:10045000746F707065642064756520746F206572B8
:10046000726F72732E2046697820746865206572F9
:10047000726F7220616E6420757365204D39393951
:1004800020746F20726573746172742E2028546515
:100490006D70657261747572652069732072657321
:1004A00065742E20536574206974206166746572CA
:1004B0002072657374617274696E67290050726985
:1004C0006E7465722068616C7465642E206B696C53
:1004D0006C28292063616C6C656421006F6B00528D
:1004E0006573656E643A2000456E6473746F7020A6
:1004F0006E6F7420707265737365642061667465D5
:100500007220686F6D696E6720646F776E2E205A57
:100510002D6D696E20737769746368206F72205A3D
:100520002D6F66667365742D73656E736F722062CE
:10053000726F6B656E3F310A00456E6473746F7045
:10054000207374696C6C20707265737365642061CC
:1005500066746572206261636B696E67206F6666A0
:100560002E205A2D6D696E20737769746368206F31
:1005700072205A2D6F66667365742D73656E736F86
:100580007220737475636B3F320A00456E64737436
:100590006F70206E6F742070726573736564206174
:1005A0006674657220686F6D696E6720646F776E20
:1005B0002E205A2D6D696E20737769746368206FE1
:1005C00072205A2D6F66667365742D73656E736F36
:1005D000722062726F6B656E3F310A000A00207AEA
:1005E0003A200020793A200020783A2000426564C1
:1005F000002200556E6B6E6F776E20636F6D6D61BC
:100600006E643A2022005A204F6666736574203A61
:1006100020007A5F6D61783A20007A5F6D696E3AEA
:1006200020005A204F6666736574005A204F666634
:10063000736574206F6B007A5F6D61783A20007A81
:100640005F6D696E3A2000795F6D61783A200079BC
:100650005F6D696E3A2000785F6D61783A200078AE
:100660005F6D696E3A2000205A3A0020593A002006
:10067000436F756E7420583A200020463A0020459A
:100680003A00205A3A0020593A00583A0046495256
:100690004D574152455F4E414D453A4D61726C692F
:1006A0006E20666F72206D6F737466756E20507267
:1006B0006F3B204D414348494E455F545950453AA0
:1006C0006D6F737466756E2050726F20455854526A
:1006D000554445525F434F554E543A312055554984
:1006E000443A30303030303030302D303030302DF2
:1006F000303030302D303030302D30303030303000
:100700003030303030300A0020423A0020453A0084
:10071000543A0020573A0020453A00543A0020420B
:10072000403A0020403A00202F003A002054002098
:100730002F0020423A00202F006F6B20543A0025F2
:1007400069206D696E2C20256920736563000A009D
:10075000454550524F4D204552524F52000A0063BA
:10076000757272656E745F6F66667365743A2000A9
:1007700077726974655F656570726F6D5F777269B6
:1007800074655F666C6167000A007A70726F6265FB
:100790005F6F66667365745F73656E736F723A2020
:1007A000005A2050524F4245204F46465345542050
:1007B0004552524F520A000A007A70726F62655FAA
:1007C0006F66667365745F73656E736F723A20004F
:1007D0000A00205A3A200020593A200020583A2096
:1007E00000426564000A004175746F5F6C65766550
:1007F000696E672066696E6973680020643A20003C
:1008000020623A200045716E20636F6566666963F9
:1008100069656E74733A20613A20004155544F2047
:100820004C4556454C494E47204552524F520A00BE
:10083000486F6D6520582F59206265666F7265207C
:100840005A00456E6473746F70207374696C6C2009
:10085000707265737365642061667465722062618D
:10086000636B696E67206F66662E205A2D6D617806
:100870002073776974636820737475636B3F0A0033
:10088000456E6473746F70207374696C6C20707241
:100890006573736564206166746572206261636B61
:1008A000696E67206F66662E205A2D6D696E207303
:1008B000776974636820737475636B3F0A00456ED3
:1008C0006473746F70207374696C6C2070726573DC
:1008D000736564206166746572206261636B696E22
:1008E00067206F66662E20592D6D617820737769B9
:1008F00074636820737475636B3F0A00456E64739C
:10090000746F70207374696C6C207072657373659A
:1009100064206166746572206261636B696E672032
:100920006F66662E20592D6D696E2073776974632A
:100930006820737475636B3F0A00456E6473746F4F
:1009400070207374696C6C207072657373656420B9
:100950006166746572206261636B696E67206F66A1
:10096000662E20582D6D6178207377697463682036
:10097000737475636B3F0A00456E6473746F702007
:100980007374696C6C207072657373656420616642
:10099000746572206261636B696E67206F66662E94
:1009A00020582D6D696E20737769746368207374A5
:1009B00075636B3F0A00456E6473746F70206E6FD1
:1009C000742070726573736564206166746572204B
:1009D000686F6D696E6720646F776E2E20582D6D7D
:1009E0006178206F7220592D6D617820737769745A
:1009F00063682062726F6B656E3F0A00456E6473B8
:100A0000746F70206E6F74207072657373656420EC
:100A1000616674657220686F6D696E6720646F77B8
:100A20006E2E205A2D6D617820737769746368206B
:100A300062726F6B656E3F0A000A00454550524F67
:100A40004D204552524F52000A004155544F4C45DB
:100A500056454C494E47204552524F52000A0041DC
:100A600055544F4C4556454C494E47204552524FE0
:100A700052000A00454550524F4D204552524F52A8
:100A8000004D313132000A0020463A0020453A003C
:100A9000205A3A0020593A00583A004D313030007F
:100AA0005072696E7465722073746F707065642023
:100AB00064756520746F206572726F72732E2046A4
:100AC000697820746865206572726F7220616E6447
:100AD00020757365204D39393920746F2072657324
:100AE000746172742E202854656D7065726174751E
:100AF00072652069732072657365742E2053657466
:100B00002069742061667465722072657374617205
:100B100074696E6729006F6B004E6F204C696E65BB
:100B2000204E756D62657220776974682063686510
:100B3000636B73756D2C204C617374204C696E650A
:100B40003A20004E6F20436865636B73756D2077A4
:100B5000697468206C696E65206E756D6265722CB3
:100B6000204C617374204C696E653A20006368659F
:100B7000636B73756D206D69736D617463682C2090
:100B80004C617374204C696E653A20004C696E6547
:100B9000204E756D626572206973206E6F74204CF3
:100BA000617374204C696E65204E756D6265722BA1
:100BB000312C204C617374204C696E653A20004DD5
:100BC000313130002020506C616E6E657242756666
:100BD00066657242797465733A20002046726565D5
:100BE000204D656D6F72793A20004A756E20323162
:100BF00020323031360028693377617465722C20D9
:100C00006D6F737466756E2053265420436F2E2CBF
:100C10004C74642E2900207C20417574686F723AF0
:100C200020004A756E203231203230313620313189
:100C30003A32373A333200204C6173742055706475
:100C4000617465643A200020312E302E30004D61F1
:100C5000726C696E20666F72206D6F737466756E4C
:100C60002050726F0020536F667477617265205256
:100C70006573657400205761746368646F67205200
:100C800065736574002042726F776E206F757420F3
:100C90005265736574002045787465726E616C20CE
:100CA000526573657400506F776572557000737488
:100CB000617274000A0020463A0020453A00205A2A
:100CC0003A0020593A00583A000101010000A040C2
:100CD0000000A0400000404000005C43000036439C
:100CE00000002A4300005C4300003643000020431C
:100CF00000005C4300003643000020430000000079
:100D000000000000000020C1494E464F3E00574100
:100D1000524E3E004543484F3E004552524F523ED0
:100D20000020746F6F206C6F6E6720657874727529
:100D300073696F6E2070726576656E7465640020ED
:100D4000636F6C6420657874727573696F6E207060
:100D5000726576656E746564005741524E3E0020A0
:100D60005A3A0020593A0020583A00656E6473746C
:100D70006F7073206869743A200024F4D43050C333
:100D80008E20C2A24017828B7011127A910D816C55
:100D9000D90AA861E108C7586607615143061E4B8E
:100DA0005D05C145A7041A411104093D9803713935
:100DB00031034036DB0265339102D4305402802E79
:100DC0001D02632CEE01752AC501B028A001102771
:100DD00081018F2564012B244B01E0223401AC21D9
:100DE0001F018D200D01801FFC00841EED00971D4A
:100DF000DF00B81CD200E61BC600201BBC00641A32
:100E0000B200B219A8000A19A0006A189900D117F7
:100E1000910040178B00B516840031167E00B31583
:100E200079003A157300C7146F0058146A00EE1366
:100E300066008813630025135E00C7125B006C1206
:100E4000570015125400C111510070114F002111AB
:100E50004B00D61049008D10470046104400021088
:100E60004200C00F4000800F3E00420F3C00060FC2
:100E70003B00CB0E3800930E37005C0E3500270E7A
:100E80003400F30D3200C10D3100900D3000600DC3
:100E90002E00320D2D00050D2C00D90C2B00AE0CB0
:100EA0002900850C29005C0C2700350C27000E0C4E
:100EB0002600E80B2400C40B2400A00B23007D0BAC
:100EC00023005A0B2100390B2100180B2000F80ACF
:100ED0001F00D90A1E00BB0A1E009D0A1D00800AC1
:100EE0001D00630A1C00470A1B002C0A1B00110A84
:100EF0001A00F7091A00DD091900C4091900AB0925
:100F00001900920917007B091800630917004C09A2
:100F1000160036091600200916000A091500F50802
:100F20001500E0081400CC081400B8081400A40848
:100F30001400900813007D0812006B081300580875
:100F4000120046081200340811002308110012088C
:100F5000110001081100F0071000E0071000D00791
:100F60001000C0071000B0070F00A1071000910784
:100F70000E0083070F0074070F0065070E00570768
:100F80000E0049070E003B070D002E070E0020073C
:100F90000D0013070D0006070D00F9060C00ED0605
:100FA0000D00E0060C00D4060C00C8060C00BC06C0
:100FB0000C00B0060C00A4060B0099060C008D0670
:100FC0000B0082060B0077060B006C060B00610617
:100FD0000A0057060B004C060A0042060A003806B3
:100FE0000A002E060A0024060A001A060A00100645
:100FF000090007060A00FD050900F4050900EB05D4
:101000000900E2050900D9050900D0050900C70556
:101010000900BE050900B5050800AD050800A505D5
:1010200009009C050800940508008C05080084054B
:1010300008007C050800740508006C0507006505BC
:1010400008005D050700560508004E050700470526
:1010500007004005080038050700310507002A058C
:101060000700230507001C050600160507000F05ED
:1010700007000805060002050700FB040600F5044A
:101080000700EE040600E8040600E2040700DB04A3
:101090000600D5040600CF040600C9040600C304F8
:1010A0000600BD040600B7040600B1040500AC0448
:1010B0000600A6040600A00405009B040600950493
:1010C0000500900406008A040500850405008004DC
:1010D00006007A04050075040500700405006B0421
:1010E000050066040500610405005C040500570462
:1010F0000500520405004D040500480405004304A2
:1011000005003E0404003A040500350405003004DF
:1011100004002C04050027040400230405001E0419
:1011200004001A04040016040500110404000D0450
:101130000400090405000404040000040400FC0386
:101140000400F8030400F4030400F0030400EC03BB
:101150000400E8030400E4030400E0030400DC03EB
:101160000400D8030400D4030400D0030400CC031B
:101170000400C8030300C503030024F404D9201BA2
:10118000C40C5C0E9804C4095F0265077101F40584
:10119000F900FB04B30048048700C1036900580349
:1011A000550003034500BE023A0084023100530299
:1011B0002A002902250004022000E4011C00C801C5
:1011C0001900AF0117009801140084011300710188
:1011D00010006101100051010E0043010D003601A5
:1011E0000B002B010B0020010B00150109000C0165
:1011F000090003010800FB000800F3000800EB00F1
:101200000700E4000600DE000600D8000600D20059
:101210000600CC000500C7000500C2000500BD00A7
:101220000400B9000400B5000400B1000400AD00E2
:101230000400A9000400A5000300A20003009F0011
:1012400004009B0003009800030095000200930037
:101250000300900003008D0002008B000300880053
:1012600002008600020084000300810002007F006B
:1012700002007D0002007B0002007900020077007E
:10128000010076000200740002007200010071008B
:1012900002006F0002006D0001006C0002006A0095
:1012A000010069000200670001006600010065009E
:1012B00001006400020062000100610001006000A2
:1012C00001005F0002005D0001005C0001005B00A6
:1012D00001005A00010059000100580001005700A8
:1012E00001005600010055000100540001005300A8
:1012F00000005300010052000100510001005000A5
:1013000001004F0001004E0000004E0001004D00A2
:1013100001004C0001004B0000004B0001004A009E
:10132000010049000100480000004800010047009A
:101330000100460000004600010045000000450095
:10134000010044000100430000004300010042008E
:101350000000420001004100000041000100400087
:1013600001003F0000003F0001003E0000003E0081
:1013700001003D0000003D0001003C0000003C0079
:1013800000003C0001003B0000003B0001003A006F
:1013900000003A0001003900000039000100380067
:1013A000000038000000380001003700000037005E
:1013B0000100360000003600000036000100350054
:1013C000000035000000350001003400000034004A
:1013D000000034000100330000003300000033003F
:1013E0000100320000003200000032000100310034
:1013F000000031000000310001003000000030002A
:101400000000300001002F0000002F0000002F001E
:1014100000002F0001002E0000002E0000002E0012
:1014200001002D0000002D0000002D0000002D0007
:1014300001002C0000002C0000002C0000002C00FB
:1014400001002B0000002B0000002B0000002B00EF
:1014500001002A0000002A0000002A0000002A00E3
:1014600001002900000029000000290000002900D7
:1014700000002900010028000000280000002800CA
:1014800000002800000028000100270000002700BD
:1014900000002700000027000000270001002600B0
:1014A00000002600000026000000260000002600A4
:1014B0000100250000002500000025000000250097
:1014C0000000250000002500010024000000240089
:1014D000000024000000240000002400010023007C
:1014E0000000230000002300000023000000230070
:1014F0000000230000002300010022000000220061
:101500000000220000002200000022000000220053
:101510000100210000002100000021000000210046
:101520000000210000002100000021000100200037
:10153000000020000000200000002000000020002B
:1015400000002000000020000000200001001F001B
:1015500000001F0000001F0000001F0000001F000F
:1015600000001F0000001F0001001E0000001E0000
:1015700000001E0000001E0000004543484F3E00D2
:10158000484541544552204552524F520A00546535
:101590006D706572617475726520686561746564EB
:1015A00020626564207377697463686564206F6680
:1015B000662E204D415854454D502074726967671E
:1015C00065726564202121003A2045787472756443
:1015D0006572207377697463686564206F66662E30
:1015E000204D494E54454D502074726967676572AD
:1015F00065642021003A2045787472756465722014
:101600007377697463686564206F66662E204D4148
:101610005854454D5020747269676765726564203F
:101620002100202D20496E76616C696420657874F4
:101630007275646572206E756D626572202100504E
:101640004944204175746F74756E652066696E69D2
:1016500073686564212050757420746865206C611E
:101660007374204B702C204B6920616E64204B6496
:1016700020636F6E7374616E74732066726F6D2079
:1016800061626F766520696E746F20436F6E666964
:101690006775726174696F6E2E680050494420410D
:1016A00075746F74756E65206661696C6564212060
:1016B00074696D656F75740020403A006F6B20543B
:1016C0003A006F6B20423A00504944204175746FD4
:1016D00074756E65206661696C6564212054656D62
:1016E000706572617475726520746F6F20686967C8
:1016F0006800204B643A2000204B693A2000204BC0
:10170000703A200020436C61737369632050494430
:1017100020002054753A2000204B753A2000206D9F
:1017200061783A2000206D696E3A200020643A20EA
:101730000020626961733A20004552524F523E00C8
:101740001000C90260012C01A0012201E001180172
:1017500020020E0180020401F002FA006003F00092
:101760000004E600C004DC00A005D200C006C800EA
:101770003008BE00C009B400C00BAA00200EA000B3
:10178000E010960040148C0000188200401C780085
:10179000C0206E0060256400002A5A00702E5000A0
:1017A00050324600C0353C0080383200C03A280034
:1017B000603C1E00A03D1400703E0A00003F000087
:1017C0000A00207A3A200020793A200020783A2036
:1017D0000000000A0B02090C0D0E080703040100AB
:1017E00000000000000000000000000000000000F9
:1017F00000000000000000000000000000121110B6
:1018000000000000000000000000000000000000D8
:101810000000000000000001021020200808102035
:10182000401020408002010201080402010102046C
:10183000081020408080402010080402018004022B
:101840000180402010080402010804020101020482
:101850000810204080010204081020408005050582
:1018600005070508080808020202020A0A08080417
:101870000404040101010101010101030303030345
:10188000030303040707070C0C0C0C0C0C0C0C02D4
:1018900002020206060606060606060B0B0B0B0BDB
:1018A0000B0B0B000020002300260029002C002F2A
:1018B00000320000010000030106010901000022BE
:1018C00000250028002B002E00310034000201000A
:1018D00000050108010B0100002100240027002A57
:1018E000002D003000330001010000040107010A4F
:1018F000014E414E494E495459494E46CDCCCC3DFE
:101900000AD7233C17B7D13877CC2B329595E624EC
:101910001FB14F0A000020410000C84200401C4691
:1019200020BCBE4CCA1B0E5AAEC59D74D4491124AE
:101930001FBECFEFD1E2DEBFCDBF00E00CBF14E091
:10194000A0E0B2E0E6E3F3E401E00BBF02C00790E1
:101950000D92AC39B107D9F72EE0ACE9B4E001C083
:101960001D92A735B207E1F719E1CEE2D9E100E017
:1019700006C022970109FE010BBF0E94299ACC32B2
:10198000D10780E00807A9F70E94D3940C9499A18D
:101990000C940000EF92FF920F931F93CF93DF936D
:1019A0001F92CDB7DEB78C017B01460FF701619125
:1019B0007F01F8018081918149830E94D2A0F801C2
:1019C0008081918101969183808349814E11EECF70
:1019D0000F90DF91CF911F910F91FF90EF9008959D
:1019E000EF92FF920F931F93CF93DF931F92CDB788
:1019F000DEB78C017B01460FF8018081918149831C
:101A00000E94CAA0F70181937F01F8018081918132
:101A100001969183808349814E11EECF0F90DF9123
:101A2000CF911F910F91FF90EF900895CF93DF9387
:101A3000CDB7DEB72C970FB6F894DEBF0FBECDBF83
:101A400028E532E03C872B872AE0AE014F5F5F4FED
:101A50000E946F9E4AE0BE016F5F7F4FCE010B96E2
:101A60000E94CA0C61E070E080E090E00E948492E5
:101A70008B859C858C599F4F9C878B874AE0BE0144
:101A80006F5F7F4FCE010B960E94CA0C61E070E041
:101A900080E090E00E9484928B859C858C599F4FBA
:101AA0009C878B874AE0BE016F5F7F4FCE010B960C
:101AB0000E94CA0C2C960FB6F894DEBF0FBECDBFA5
:101AC000DF91CF910895CF93DF93CDB7DEB72C97F9
:101AD0000FB6F894DEBF0FBECDBF2CE632E03C87D8
:101AE0002B872AE0AE014F5F5F4F0E946F9E4AE056
:101AF000BE016F5F7F4FCE010B960E94CA0C61E062
:101B000070E080E090E00E9484928B859C858C59E7
:101B10009F4F9C878B874AE0BE016F5F7F4FCE014E
:101B20000B960E94CA0C61E070E080E090E00E9499
:101B300084928B859C858C599F4F9C878B874AE02C
:101B4000BE016F5F7F4FCE010B960E94CA0C2C9690
:101B50000FB6F894DEBF0FBECDBFDF91CF910895D1
:101B6000CF93DF93CDB7DEB72C970FB6F894DEBFD7
:101B70000FBECDBF20E832E03C872B872AE0AE01C4
:101B80004F5F5F4F0E946F9E4AE0BE016F5F7F4FC5
:101B9000CE010B960E94CA0C61E070E080E090E0FC
:101BA0000E9484928B859C858C599F4F9C878B8744
:101BB0004AE0BE016F5F7F4FCE010B960E94CA0CB8
:101BC00061E070E080E090E00E9484928B859C85CB
:101BD0008C599F4F9C878B874AE0BE016F5F7F4F78
:101BE000CE010B960E94CA0C2C960FB6F894DEBF5D
:101BF0000FBECDBFDF91CF910895CF93DF93CDB7C7
:101C0000DEB72C970FB6F894DEBF0FBECDBF24E928
:101C100032E03C872B872AE0AE014F5F5F4F0E9486
:101C20006F9E4AE0BE016F5F7F4FCE010B960E9410
:101C3000CA0C61E070E080E090E00E9484928B85A5
:101C40009C858C599F4F9C878B874AE0BE016F5FB4
:101C50007F4FCE010B960E94CA0C61E070E080E0DD
:101C600090E00E9484928B859C858C599F4F9C8725
:101C70008B874AE0BE016F5F7F4FCE010B960E94BB
:101C8000CA0C2C960FB6F894DEBF0FBECDBFDF9105
:101C9000CF910895CF93DF93CDB7DEB72C970FB6D2
:101CA000F894DEBF0FBECDBF28EA32E03C872B8719
:101CB0002AE0AE014F5F5F4F0E946F9E4AE0BE0177
:101CC0006F5F7F4FCE010B960E94CA0C61E070E0FF
:101CD00080E090E00E9484928B859C858C599F4F78
:101CE0009C878B874AE0BE016F5F7F4FCE010B96CA
:101CF0000E94CA0C61E070E080E090E00E94849253
:101D00008B859C858C599F4F9C878B874AE0BE01B1
:101D10006F5F7F4FCE010B960E94CA0C2C960FB6B8
:101D2000F894DEBF0FBECDBFDF91CF910895CF9362
:101D3000DF9300D01F92CDB7DEB784E893E09A839B
:101D4000898322E0AE014D5F5F4F61E070E080E08B
:101D500090E00E946F9E42E0BE016D5F7F4FCE011A
:101D600001960E94CA0C0F900F900F900F90DF9178
:101D7000CF9108958F929F92AF92BF92CF92DF92B0
:101D8000EF92FF92CF93DF93CDB7DEB72C970FB6CC
:101D9000F894DEBF0FBECDBF88E592E09C878B87AD
:101DA0004AE0BE016F5F7F4FCE010B960E94F00CA0
:101DB0004AE050E060E070E0CE0101960E94E89CAD
:101DC0006B017C0161E070E080E090E00E94849211
:101DD0008B859C858C599F4F9C878B874AE0BE01E1
:101DE0006F5F7F4FCE010B960E94F00C4AE050E0EF
:101DF00060E070E0CE0101960E94E89C4B015C011E
:101E000061E070E080E090E00E9484928B859C8588
:101E10008C599F4F9C878B874AE0BE016F5F7F4F35
:101E2000CE010B960E94F00C4AE050E060E070E0BA
:101E3000CE0101960E94E89CC814D904EA04FB0470
:101E4000A9F0C616D706E806F90681F086169706A9
:101E5000A806B90649F087ECC82E85E3D82E8AE398
:101E6000E82E82E4F82E02C075016401C701B601B4
:101E70002C960FB6F894DEBF0FBECDBFDF91CF9189
:101E8000FF90EF90DF90CF90BF90AF909F908F909A
:101E900008958F929F92AF92BF92CF92DF92EF926E
:101EA000FF92CF93DF93CDB7DEB72C970FB6F894A0
:101EB000DEBF0FBECDBF8CE692E09C878B874AE0E9
:101EC000BE016F5F7F4FCE010B960E94F00C4AE07F
:101ED00050E060E070E0CE0101960E94E89C6B014A
:101EE0007C0161E070E080E090E00E9484928B854C
:101EF0009C858C599F4F9C878B874AE0BE016F5F02
:101F00007F4FCE010B960E94F00C4AE050E060E05B
:101F100070E0CE0101960E94E89C4B015C0161E0FB
:101F200070E080E090E00E9484928B859C858C59C3
:101F30009F4F9C878B874AE0BE016F5F7F4FCE012A
:101F40000B960E94F00C4AE050E060E070E0CE0199
:101F500001960E94E89CC814D904EA04FB04A9F085
:101F6000C616D706E806F90681F086169706A80673
:101F7000B90649F097ECC92E95E3D92E9AE3E92EDC
:101F800092E4F92E02C075016401C701B6012C96D6
:101F90000FB6F894DEBF0FBECDBFDF91CF91FF909B
:101FA000EF90DF90CF90BF90AF909F908F9008956B
:101FB0008F929F92AF92BF92CF92DF92EF92FF9259
:101FC000CF93DF93CDB7DEB72C970FB6F894DEBF73
:101FD0000FBECDBF80E892E09C878B874AE0BE01B0
:101FE0006F5F7F4FCE010B960E94F00C4AE050E0ED
:101FF00060E070E0CE0101960E94E89C6B017C01DC
:1020000061E070E080E090E00E9484928B859C8586
:102010008C599F4F9C878B874AE0BE016F5F7F4F33
:10202000CE010B960E94F00C4AE050E060E070E0B8
:10203000CE0101960E94E89C4B015C0161E070E0DA
:1020400080E090E00E9484928B859C858C599F4F04
:102050009C878B874AE0BE016F5F7F4FCE010B9656
:102060000E94F00C4AE050E060E070E0CE01019682
:102070000E94E89CC814D904EA04FB04A9F0C6161F
:10208000D706E806F90681F086169706A806B9066F
:1020900049F027ECC22E25E3D22E2AE3E22E22E4D9
:1020A000F22E02C075016401C701B6012C960FB66D
:1020B000F894DEBF0FBECDBFDF91CF91FF90EF90C0
:1020C000DF90CF90BF90AF909F908F9008958F92A8
:1020D0009F92AF92BF92CF92DF92EF92FF92CF93F7
:1020E000DF93CDB7DEB72C970FB6F894DEBF0FBEE7
:1020F000CDBF84E992E09C878B874AE0BE016F5F89
:102100007F4FCE010B960E94F00C4AE050E060E059
:1021100070E0CE0101960E94E89C6B017C0161E0B9
:1021200070E080E090E00E9484928B859C858C59C1
:102130009F4F9C878B874AE0BE016F5F7F4FCE0128
:102140000B960E94F00C4AE050E060E070E0CE0197
:1021500001960E94E89C4B015C0161E070E080E028
:1021600090E00E9484928B859C858C599F4F9C8720
:102170008B874AE0BE016F5F7F4FCE010B960E94B6
:10218000F00C4AE050E060E070E0CE0101960E9461
:10219000E89CC814D904EA04FB04A9F0C616D706C3
:1021A000E806F90681F086169706A806B90649F0F2
:1021B00037ECC32E35E3D32E3AE3E32E32E4F32E8D
:1021C00002C075016401C701B6012C960FB6F894E0
:1021D000DEBF0FBECDBFDF91CF91FF90EF90DF90BC
:1021E000CF90BF90AF909F908F9008958F929F92C5
:1021F000AF92BF92CF92DF92EF92FF92CF93DF9395
:10220000CDB7DEB72E970FB6F894DEBF0FBECDBFA9
:1022100088EA92E09E878D874AE0BE016F5F7F4F1C
:10222000CE010D960E94F00C4AE050E060E070E0B4
:10223000CE0101960E94E89C6B017C0161E070E098
:1022400080E090E00E9484928D859E858C599F4FFE
:102250009E878D874AE0BE016F5F7F4FCE010D964E
:102260000E94F00C4AE050E060E070E0CE01019680
:102270000E94E89C4B015C0161E070E080E090E02E
:102280000E9484928D859E858C599F4F9E878D8755
:102290004AE0BE016F5F7F4FCE010D960E94F00CA9
:1022A0004AE050E060E070E0CE0101960E94E89CB8
:1022B000C814D904EA04FB0461F0C616D706E80680
:1022C000F90639F086169706A806B90659F475017D
:1022D000640187ECC81685E3D8068AE3E80682E441
:1022E000F80621F584E893E09E878D8742E0BE01E1
:1022F000655F7F4FCE010D960E94F00C42E050E0EA
:1023000060E070E0CE010B960E94E89C672B682B82
:10231000692B49F447ECC42E45E3D42E4AE3E42E5E
:1023200042E4F42E03C0C12CD12C760184E893E062
:102330009E878D8742E0BE01655F7F4FCE010D967F
:102340000E94F00C42E050E060E070E0CE010B969D
:102350000E94E89CC701B6012E960FB6F894DEBF26
:102360000FBECDBFDF91CF91FF90EF90DF90CF9068
:10237000BF90AF909F908F900895CF93DF9300D040
:102380001F92CDB7DEB784E893E09C838B8342E055
:10239000BE016F5F7F4FCE0103960E94F00C42E0BA
:1023A00050E060E070E0CE0101960E94E89C21E0E0
:1023B000672B682B692B09F020E0822F0F900F907C
:1023C0000F900F90DF91CF9108950F931F93CF93AC
:1023D000DF93CDB7DEB768970FB6F894DEBF0FBEB8
:1023E000CDBF80E390E3A0E3B0E08D839E83AF8315
:1023F000B88704E610E0188F0F8B44E0BE016B5FD6
:102400007F4FCE0147960E94CA0C40E16EEE7CE001
:10241000CE0147960E94CA0C40E16EEF7CE0CE01EF
:1024200047960E94CA0C40E16EED7CE0CE014796D3
:102430000E94CA0C44E066ED7CE0CE0147960E9403
:10244000CA0C44E062ED7CE0CE0147960E94CA0CC3
:1024500044E06AED7CE0CE0147960E94CA0C44E05D
:1024600062EC7CE0CE0147960E94CA0C44E06EE02C
:102470007DE0CE0147960E94CA0C44E06EEC7CE001
:10248000CE0147960E94CA0C44E06AEC7CE0CE0183
:1024900047960E94CA0C44E066EC7CE0CE01479669
:1024A0000E94CA0C4CE060EC75E0CE0147960E9499
:1024B000CA0C88EC90E09E8B8D8B86E490E09C8B20
:1024C0008B8B8FEF90E09A8B898B2CED30E0388BE3
:1024D0002F871E870D879C878B8742E0BE016B5E2E
:1024E0007F4FCE0147960E94CA0C42E0BE016D5E4E
:1024F0007F4FCE0147960E94CA0C42E0BE016F5E3C
:102500007F4FCE0147960E94CA0C42E0BE01615F38
:102510007F4FCE0147960E94CA0C42E0BE01635F26
:102520007F4FCE0147960E94CA0C42E0BE01655F14
:102530007F4FCE0147960E94CA0C44E069EB75E0DC
:10254000CE0147960E94CA0C44E06FEA72E0CE01C9
:1025500047960E94CA0C44E06BEA72E0CE014796AF
:102560000E94CA0C44E067EA72E0CE0147960E94DE
:10257000CA0C80E290E09A87898742E0BE01675FDB
:102580007F4FCE0147960E94CA0C86E591E3A0E3F7
:10259000B0E089839A83AB83BC83188F0F8B44E0B0
:1025A000BE016F5F7F4FCE0147960E94CA0CEAE3DF
:1025B000F4E08491882341F09091C00095FFFCCF16
:1025C0008093C6003196F5CFE4E2F4E0849188234D
:1025D00041F09091C00095FFFCCF8093C6003196EA
:1025E000F5CF8091C00085FFFCCF8AE08093C600C4
:1025F00068960FB6F894DEBF0FBECDBFDF91CF91C6
:102600001F910F910895CF93DF93CAE3D4E0FE01A9
:102610008491882341F09091C00095FFFCCF809376
:10262000C6003196F5CFE4E1F4E08491882341F0CF
:102630009091C00095FFFCCF8093C6003196F5CFF6
:102640008091C00085FFFCCF8AE08093C600FE0128
:102650008491EAE3F4E0882349F09091C00095FF6B
:10266000FCCF8093C60031968491F5CF4091EE0C5B
:102670005091EF0C6091F00C7091F10C8CE094E0B3
:102680000E940B1A4091F20C5091F30C6091F40CE3
:102690007091F50C89E094E00E940B1A4091F60CC1
:1026A0005091F70C6091F80C7091F90C86E094E071
:1026B0000E940B1A4091FA0C5091FB0C6091FC0C9B
:1026C0007091FD0C83E094E00E940B1A8091C00091
:1026D00085FFFCCF8AE08093C600FE018491EAE387
:1026E000F4E0882349F09091C00095FFFCCF8093DF
:1026F000C60031968491F5CFE9EEF3E0849188230A
:1027000041F09091C00095FFFCCF8093C6003196B8
:10271000F5CF8091C00085FFFCCF8AE08093C60092
:10272000FE018491EAE3F4E0882349F09091C0002F
:1027300095FFFCCF8093C60031968491F5CF4091F0
:10274000FE0C5091FF0C6091000D7091010D80EE18
:1027500093E00E940B1A4091020D5091030D60917D
:10276000040D7091050D8DED93E00E940B1A4091C0
:10277000060D5091070D6091080D7091090D8AEDBD
:1027800093E00E940B1A40910A0D50910B0D60913D
:102790000C0D70910D0D87ED93E00E940B1A809146
:1027A000C00085FFFCCF8AE08093C600FE018491C3
:1027B000EAE3F4E0882349F09091C00095FFFCCF54
:1027C0008093C60031968491F5CFE9EBF3E08491D4
:1027D000882341F09091C00095FFFCCF8093C60004
:1027E0003196F5CF8091C00085FFFCCF8AE08093C1
:1027F000C600FE018491EAE3F4E0882349F0909159
:10280000C00095FFFCCF8093C60031968491F5CF30
:102810004091DE0C5091DF0C6091E00C7091E10C66
:1028200080EB93E00E941D1A4091E20C5091E30C62
:102830006091E40C7091E50C8DEA93E00E941D1A02
:102840004091E60C5091E70C6091E80C7091E90C16
:102850008AEA93E00E941D1A4091EA0C5091EB0C19
:102860006091EC0C7091ED0C87EA93E00E941D1AC8
:102870008091C00085FFFCCF8AE08093C600FE01F6
:102880008491EAE3F4E0882349F09091C00095FF39
:10289000FCCF8093C60031968491F5CFE2E7F3E058
:1028A0008491882341F09091C00095FFFCCF8093E4
:1028B000C6003196F5CF8091C00085FFFCCF8AE03D
:1028C0008093C600FE018491EAE3F4E0882349F096
:1028D0009091C00095FFFCCF8093C6003196849103
:1028E000F5CF4091D60C5091D70C6091D80C7091D7
:1028F000D90C89E693E00E940B1A4091D20C5091BA
:10290000D30C6091D40C7091D50C86E693E00E94B4
:102910000B1A8091C00085FFFCCF8AE08093C6002F
:10292000FE018491EAE3F4E0882349F09091C0002D
:1029300095FFFCCF8093C60031968491F5CFE3EBF1
:10294000F2E08491882341F09091C00095FFFCCF84
:102950008093C6003196F5CF8091C00085FFFCCFF3
:102960008AE08093C600FE018491EAE3F4E08823C4
:1029700049F09091C00095FFFCCF8093C60031963E
:102980008491F5CF4091DA0C5091DB0C6091DC0C16
:102990007091DD0C8AEA92E00E940B1A4091C20C01
:1029A0005091C30C6091C40C7091C50C87EA92E001
:1029B0000E940B1A40910E0D50910F0D6091100D59
:1029C0007091110D84EA92E00E941D1A4091CE0C84
:1029D0005091CF0C6091D00C7091D10C81EA92E0B3
:1029E0000E940B1A4091CA0C5091CB0C6091CC0CF8
:1029F0007091CD0C8EE992E00E940B1A4091C60CAA
:102A00005091C70C6091C80C7091C90C8BE992E091
:102A10000E940B1A8091C00085FFFCCF8AE0809352
:102A2000C600FE018491EAE3F4E0882349F0909126
:102A3000C00095FFFCCF8093C60031968491F5CFFE
:102A4000E9E8F2E08491882341F09091C00095FF7D
:102A5000FCCF8093C6003196F5CF8091C00085FFF2
:102A6000FCCF8AE08093C600FE018491EAE3F4E0A3
:102A7000882349F09091C00095FFFCCF8093C60059
:102A800031968491F5CF4091C0055091C105609178
:102A9000C2057091C30580E892E00E940B1A409134
:102AA000C4055091C5056091C6057091C7058DE7B5
:102AB00092E00E940B1A4091C8055091C90560919F
:102AC000CA057091CB058AE792E00E940B1A8091AB
:102AD000C00085FFFCCF8AE08093C600FE01849190
:102AE000EAE3F4E0882349F09091C00095FFFCCF21
:102AF0008093C60031968491F5CFECE6F2E08491A4
:102B0000882341F09091C00095FFFCCF8093C600D0
:102B10003196F5CF8091C00085FFFCCF8AE080938D
:102B2000C600FE01C491EAE3F4E0CC2349F08091B1
:102B3000C00085FFFCCFC093C6003196C491F5CF8D
:102B40004091AF025091B0026091B1027091B20217
:102B500082E692E00E940B1A6091AB027091AC0287
:102B60008091AD029091AE020E940C8EAB01BC012F
:102B70008FE592E00E940B1A6091A7027091A80263
:102B80008091A9029091AA020E941A8EAB01BC0109
:102B90008CE592E00E940B1A8091C00085FFFCCF6B
:102BA0008AE08093C600DF91CF910895AF92BF92E3
:102BB000CF92DF92EF92FF920F931F93CF93DF9309
:102BC000CDB7DEB7E0970FB6F894DEBF0FBECDBF2E
:102BD00080E1E3EBF2E0DE01919601900D928A959F
:102BE000E1F780E1E3ECF2E0DE01519601900D9215
:102BF0008A95E1F780E1E3EDF2E0DE0111960190C4
:102C00000D928A95E1F76E0121E2C20ED11C5EEEB3
:102C1000E52E5CE0F52E8E010F5E1F4F6EEF7CE01F
:102C2000AE014F5F5F4FEEEDAE2EECE0BE2E20E02A
:102C300030E0F60181919191A191B1916F01F7017D
:102C400081939193A193B1937F01F8018191919127
:102C5000A191B1918F01FB0181939193A193B193C4
:102C6000BF01FA0181919191A191B191AF01F5015B
:102C700081939193A193B1935F012F5F3F4F2430D4
:102C80003105B9F60E94A36080E090EAACE0B6E4BA
:102C90008093D60C9093D70CA093D80CB093D90CFA
:102CA0008093D20C9093D30CA093D40CB093D50CFA
:102CB0001092DA0C1092DB0C1092DC0C1092DD0CEE
:102CC00080E29EE4A0E0B0E080930E0D90930F0DA3
:102CD000A093100DB093110D1092C20C1092C30C62
:102CE0001092C40C1092C50C80E090E0A0EAB1E410
:102CF0008093CE0C9093CF0CA093D00CB093D10CBA
:102D00008DEC9CECACECBEE38093CA0C9093CB0CA6
:102D1000A093CC0CB093CD0C80E090E0A0EAB0E49E
:102D20008093C60C9093C70CA093C80CB093C90CA9
:102D30001092C8051092C9051092CA051092CB05D1
:102D40001092C4051092C5051092C6051092C705D1
:102D50001092C0051092C1051092C2051092C305D1
:102D60000E94F610673CF5E37F07FAE38F07F2E471
:102D70009F07B1F00E94A69620E034E244E759E4B0
:102D80000E940B9620E030E0A9010E942B956093F1
:102D9000B9057093BA058093BB059093BC0529C013
:102DA00046E554E060E070E080E494E00E941D1A83
:102DB0008091C00085FFFCCF8AE38093C600EFE4DA
:102DC000F2E08491882341F09091C00095FFFCCF00
:102DD0008093C6003196F5CFEDE4F2E0849188232C
:102DE00041F09091C00095FFFCCF8093C6003196D2
:102DF000F5CFE4E3F4E08491882341F09091C000A2
:102E000095FFFCCF8093C6003196F5CFECE3F2E05E
:102E10008491882341F09091C00095FFFCCF80936E
:102E2000C6003196F5CF4091B9055091BA05609131
:102E3000BB057091BC0522E030E082EE95E00E9477
:102E40000B4CEAE3F2E08491882341F09091C000BA
:102E500095FFFCCF8093C6003196F5CF80E090E0DF
:102E6000ACEAB1E48093AF029093B002A093B102B8
:102E7000B093B2026AE979E989E99FE30E94058E7D
:102E80006093AB027093AC028093AD029093AE025C
:102E900060E070E08CE593E40E94138E6093A702DB
:102EA0007093A8028093A9029093AA020E94E982DB
:102EB00080E090E0A0E8BFE38093A3029093A40297
:102EC000A093A502B093A602E0960FB6F894DEBFD9
:102ED0000FBECDBFDF91CF911F910F91FF90EF906B
:102EE000DF90CF90BF90AF900895CF93DF93CDB791
:102EF000DEB768970FB6F894DEBF0FBECDBF84E68D
:102F000090E0988F8F8B86E591E3A0E3B0E0898312
:102F10009A83AB83BC8344E0BE016B5F7F4FCE01DD
:102F200047960E94F00C43E050E0BE016B5F7F4F7C
:102F3000CE0101960E94619E892B09F0ADC040E14F
:102F40006EEE7CE0CE0147960E94F00C40E16EEF01
:102F50007CE0CE0147960E94F00C40E16EED7CE0F3
:102F6000CE0147960E94F00C0E94A36044E066EDFB
:102F70007CE0CE0147960E94F00C44E062ED7CE0DC
:102F8000CE0147960E94F00C44E06AED7CE0CE0151
:102F900047960E94F00C44E062EC7CE0CE0147963C
:102FA0000E94F00C44E06EE07DE0CE0147960E9466
:102FB000F00C44E06EEC7CE0CE0147960E94F00CF1
:102FC00044E06AEC7CE0CE0147960E94F00C44E0BD
:102FD00066EC7CE0CE0147960E94F00C4CE060EC81
:102FE00075E0CE0147960E94F00C42E0BE016B5E98
:102FF0007F4FCE0147960E94F00C42E0BE016D5E0D
:103000007F4FCE0147960E94F00C42E0BE016F5EFA
:103010007F4FCE0147960E94F00C42E0BE01615FF7
:103020007F4FCE0147960E94F00C42E0BE01635FE5
:103030007F4FCE0147960E94F00C42E0BE01655FD3
:103040007F4FCE0147960E94F00C44E069EB75E09B
:10305000CE0147960E94F00C44E06FEA72E0CE0188
:1030600047960E94F00C44E06BEA72E0CE0147966E
:103070000E94F00C44E067EA72E0CE0147960E949D
:10308000F00C42E0BE01675F7F4FCE0147960E9481
:10309000F00C0E94E98202C00E94D61568960FB615
:1030A000F894DEBF0FBECDBFDF91CF910895FC0134
:1030B00065917591859194910895CF932091240203
:1030C0003091250237FD31C0C5E0C29FC001C39FCA
:1030D000900D112460E070E083569B4F0E9487742E
:1030E00060911E0270911F022091240230912502EE
:1030F000C29FC001C39F900D112483569B4F0E9415
:10310000CE746CE271E080E090E00E9484922091A5
:10311000240230912502C29FC001C39F900D11244B
:1031200083569B4FCF910C948D74CF910895CF937C
:10313000209124023091250237FD31C0C5E0C29FA5
:10314000C001C39F900D112460E070E083569B4F37
:103150000E94877460911C0270911D0220912402CC
:1031600030912502C29FC001C39F900D1124835648
:103170009B4F0E94CE746CE271E080E090E00E9470
:1031800084922091240230912502C29FC001C39FE6
:10319000900D112483569B4FCF910C948D74CF9139
:1031A0000895CF92DF92EF92FF920F931F93CF93E8
:1031B000DF93CDB7DEB7EC970FB6F894DEBF0FBE46
:1031C000CDBFFC01048115812681378130584081B3
:1031D0005181628173817058C12CD12C80E8E82E16
:1031E0008FE3F82ECE010D960E94218E63EE72E0E1
:1031F000CE010D960E949F8FCD84DE84EF84F888E7
:1032000009891A892B893C894D895E896F89788D56
:10321000CE0149960E949B9084E2FE017996A8E631
:10322000B2E001900D928A95E1F7CE0101960E94DD
:10323000CF5E69817A818B819C816093CC0570938C
:10324000CD058093CE059093CF052D813E814F8192
:1032500058852093D0053093D1054093D2055093E3
:10326000D305E984FA840B851C85E092D405F0929D
:10327000D5050093D6051093D705E8EDCE2EE5E0F1
:10328000DE2E0E947E5FEC960FB6F894DEBF0FBE76
:10329000CDBFDF91CF911F910F91FF90EF90DF9005
:1032A000CF90089580910F0290911002A091110289
:1032B000B091120280938F0590939005A093910591
:1032C000B093920580914602909147029093DD055C
:1032D0008093DC0584E690E0909347028093460259
:1032E0000E9455926093B0047093B1048093B2042D
:1032F0009093B30481E00C94467680E00E94467679
:1033000080918F0590919005A0919105B0919205C3
:1033100080930F0290931002A0931102B0931202B7
:103320008091DC059091DD059093470280934602E1
:103330000E9455926093B0047093B1048093B204DC
:103340009093B30408954F925F926F927F928F9201
:103350009F92AF92BF92CF92DF92EF92FF920F9324
:103360001F9340900F0250901002609011027090D5
:103370001202812CF0E89F2EFBEBAF2EF5E4BF2E5E
:1033800080920F0290921002A0921102B09212024B
:103390006093CC057093CD058093CE059093CF05B7
:1033A0002093D0053093D1054093D2055093D30597
:1033B000E092D405F092D5050093D6051093D70579
:1033C000E8EBF5E0FF93EF93812C912CA8ECAA2E6B
:1033D000A2E4BA2EB8EDCB2EB5E0DB2E0E948454C9
:1033E0000E94308040920F025092100260921102AF
:1033F000709212020F900F901F910F91FF90EF901B
:10340000DF90CF90BF90AF909F908F907F906F9004
:103410005F904F900895FC012491222341F0309158
:10342000C00035FFFCCF2093C6000196F4CF22E008
:1034300030E082EE95E00C940B4CFC0124912223A9
:1034400041F03091C00035FFFCCF2093C6000196BB
:10345000F4CF2AE030E082EE95E00C945A4BCF9303
:10346000DF931F921F92CDB7DEB78091510E9091DE
:10347000520E9E012F5F3F4F009719F427553E4093
:1034800002C0281B390B3A83298389819A810F90C6
:103490000F90DF91CF9108950A9A129A0895FF92A2
:1034A0000F931F93CF93DF9369E070E08DE994E071
:1034B0000E948774C0E2D2E006E112E085E0F82EB7
:1034C0002991399137FD0CC0F80160817181F29E1C
:1034D000C001F39E900D112483569B4F0E94CE7421
:1034E0000C5F1F4FF2E0C632DF0751F76CE271E06C
:1034F00080E090E00E948492209124023091250285
:1035000045E0429FC001439F900D112483569B4F7D
:10351000DF91CF911F910F91FF900C948D740E94B9
:1035200090860E94B880E4E1FDE08491882341F018
:103530009091C00095FFFCCF8093C6003196F5CFE7
:10354000E6ECFCE08491882341F09091C00095FF67
:10355000FCCF8093C6003196F5CF4091CC055091B9
:10356000CD056091CE057091CF0522E030E082EE6E
:1035700095E00E940B4CE2ECFCE08491882341F042
:103580009091C00095FFFCCF8093C6003196F5CF97
:103590004091D0055091D1056091D2057091D3052D
:1035A00022E030E082EE95E00E940B4CEEEBFCE076
:1035B0008491882341F09091C00095FFFCCF8093C7
:1035C000C6003196F5CF4091D4055091D505609154
:1035D000D6057091D70522E030E082EE95E00E949A
:1035E0000B4CEAEBFCE08491882341F09091C00001
:1035F00095FFFCCF8093C6003196F5CF4091D8055A
:103600005091D9056091DA057091DB0522E030E038
:1036100082EE95E00E940B4CE6EBFCE0849188235F
:1036200041F09091C00095FFFCCF8093C600319689
:10363000F5CFE0916C0682E6E89FF0011124E35992
:10364000F94F20E030E040E752E4608971898289D7
:1036500093890E94D998AB01BC0122E030E082EE50
:1036600095E00E940B4CE4EBFCE08491882341F050
:103670009091C00095FFFCCF8093C6003196F5CFA6
:103680007894FFCF2F923F924F925F926F927F92EA
:103690008F929F92AF92BF92CF92DF92EF92FF9262
:1036A0000F931F93CF93DF9300D01F92CDB7DEB758
:1036B0001C01FC01E753F34F74909C01220F331F50
:1036C000220F331F3C832B83F901E453FA4F1082FE
:1036D0001182128213820E944D8181111EC0E090DE
:1036E000D405F090D5050091D6051091D70520910D
:1036F000D0053091D1054091D2055091D30560910C
:10370000CC057091CD058091CE059091CF05E8ED67
:10371000CE2EE5E0DE2E0E947E5F8B819C8188525A
:10372000934F0E9457184B015C01672D772767FD67
:103730007095872F972F0E94A6962B013C010B8135
:103740001C810D551A4F20E030E040EC5FE3C501CD
:10375000B4010E94D998A30192010E94D998F8015E
:103760006083718382839383EB81FC81E85BFD4FEF
:1037700080819181A281B38180930F029093100286
:10378000A0931102B09312020E944D8181113FC09B
:1037900020E030E040E752E460910F0270911002A7
:1037A00080911102909112020E940B964B015C01D4
:1037B000E090AB05F090AC050091AD051091AE0521
:1037C0002091A7053091A8054091A9055091AA051F
:1037D0006091A3057091A4058091A5059091A6051F
:1037E000E8EBF5E0FF93EF93BFEACB2EB5E0DB2EDD
:1037F0000E9484540E9430800E9432760F900F9075
:10380000811105C00E944D81882309F463C2EB81B8
:10381000FC81E453FA4F10821182128213820E94BB
:103820004D8181111EC0E090D405F090D505009126
:10383000D6051091D7052091D0053091D105409142
:10384000D2055091D3056091CC057091CD05809142
:10385000CE059091CF05A8EDCA2EA5E0DA2E0E94E4
:103860007E5F2B813C812453334F3A832983C901E6
:103870000E9457180B811C810D551A4F9058A301B7
:1038800092010E94D998F8016083718382839383A7
:103890000E944D81811109C120E030E040E752E4EF
:1038A00060910F02709110028091110290911202AA
:1038B0000E940B964B015C01E090AB05F090AC05CB
:1038C0000091AD051091AE052091A7053091A80596
:1038D0004091A9055091AA056091A3057091A40596
:1038E0008091A5059091A605E8EBF5E0FF93EF9395
:1038F000FFEACF2EF5E0DF2E0E9484540E94308034
:103900000F900F90F1E02F16310409F44BC022E024
:103910002216310409F487C02114310409F0C5C00E
:103920008091090186FD1CC040E554E060E070E034
:103930008AE19DE00E941D1A8091C00085FFFCCFA6
:103940008AE38093C600E8E7F9E084918823F1F0E8
:103950009091C00095FFFCCF8093C6003196F5CFC3
:103960001C99A3C041E554E060E070E08AE19DE06D
:103970000E941D1A8091C00085FFFCCF8AE38093CE
:10398000C600EAE3F9E08491811104C00E943F7609
:103990000E948F1A9091C00095FFFCCF8093C600C3
:1039A0003196F1CF8091090186FD1CC042E554E0BB
:1039B00060E070E08AE19DE00E941D1A8091C000E5
:1039C00085FFFCCF8AE38093C600ECEFF8E084919A
:1039D0008823E1F29091C00095FFFCCF8093C60050
:1039E0003196F5CF8091090187FD5FC043E554E032
:1039F00060E070E08AE19DE00E941D1A8091C000A5
:103A000085FFFCCF8AE38093C600EEEBF8E084915B
:103A1000882309F4BBCF9091C00095FFFCCF809321
:103A2000C6003196F4CF8091090184FD1DC044E5A4
:103A300054E060E070E08AE19DE00E941D1A8091F0
:103A4000C00085FFFCCF8AE38093C600E0E8F8E081
:103A50008491882309F49ACF9091C00095FFFCCF00
:103A60008093C6003196F4CF8091090185FD1DC079
:103A700045E554E060E070E08AE19DE00E941D1A97
:103A80008091C00085FFFCCF8AE38093C600E2E40A
:103A9000F8E08491882309F479CF9091C00095FFD4
:103AA000FCCF8093C6003196F4CF89819A810E9421
:103AB00057180B811C810D551A4F9B01AC010E94B8
:103AC0002B95A30192010E94D998F801608371831C
:103AD0008283938320E030E040E05FE3EB81FC8170
:103AE000E85BFD4F60817181828193810E94D9984A
:103AF00060930F0270931002809311029093120250
:103B00000E944D81811136C020E030E040E752E450
:103B100060910F0270911002809111029091120237
:103B20000E940B964B015C01E090AB05F090AC0558
:103B30000091AD051091AE052091A7053091A80523
:103B40004091A9055091AA056091A3057091A40523
:103B50008091A5059091A605E8EBF5E0FF93EF9322
:103B6000EFEACE2EE5E0DE2E0E9484540E943080E3
:103B70000F900F900E944D81811149C08B819C81D3
:103B80008C51934F0E9457182B813C8124533A4FFC
:103B900079010B811C8100541A4FF8012081318179
:103BA000428153810E942B95F70160837183828348
:103BB00093838B819C818450934F0E9457182B8153
:103BC0003C812E5C3D4F7901F80120813181428199
:103BD00053810E942B95F7016083718382839383C5
:103BE0008B819C818051934F0E9457182B813C817F
:103BF0002A5D3D4F7901F801208131814281538155
:103C00000E942B95F70160837183828393830E94C6
:103C10004D81811111C0EB81FC81ED55FA4FAB81D3
:103C2000BC81A453BA4F8D919D910D90BC91A02D54
:103C300080839183A283B38310920F0210921002AB
:103C400010921102109212020E944D81811102C045
:103C50000E943F760E944D81811105C081E0F101F3
:103C6000E354FA4F8083F101EE0FFF1FDF01A05EE6
:103C7000BD4F2D913C9137FD10C0EE0FFF1FEA5E46
:103C8000FD4F6081718145E0429FC001439F900DCF
:103C9000112483569B4F0E94CE74F2E02F163104FC
:103CA00009F056C00F900F900F900F90DF91CF91B9
:103CB0001F910F91FF90EF90DF90CF90BF90AF904A
:103CC0009F908F907F906F905F904F903F902F903C
:103CD0000C945D1822E022163104E9F445E554E025
:103CE00060E070E08AE19DE00E941D1A8091C000B2
:103CF00085FFFCCF8AE38093C600ECEFF9E0849166
:103D0000882309F445CE9091C00095FFFCCF8093A5
:103D1000C6003196F4CF4FE454E060E070E08AE1F1
:103D20009DE00E941D1A8091C00085FFFCCF8AE3B0
:103D30008093C600E6EBF9E08491882309F428CE4D
:103D40009091C00095FFFCCF8093C6003196F4CFD0
:103D50000F900F900F900F90DF91CF911F910F91C7
:103D6000FF90EF90DF90CF90BF90AF909F908F909B
:103D70007F906F905F904F903F902F9008954F925B
:103D80005F926F927F928F929F92AF92BF92CF92EB
:103D9000DF92EF92FF920F931F9388E692E00E94CA
:103DA00071906091500270915102809152029091F5
:103DB000530260930F02709310028093110290934C
:103DC000120220E030E040E752E40E940B964B01E3
:103DD0005C012091D0053091D1054091D2055091E0
:103DE000D3056091CC057091CD058091CE05909161
:103DF000CF05E8EBF5E0FF93EF9308EDC02E05E06B
:103E0000D02EE12CF12C00EA11EC0E9484540E9487
:103E10003080809109010F900F9084FF25C0E091C0
:103E2000CD0DF091CE0D848981111DC04DE454E07B
:103E300060E070E08AE19DE00E941D1A8091C00060
:103E400085FFFCCF8AE38093C600EBE8F5E0849120
:103E5000882309F48AC09091C00095FFFCCF80931D
:103E6000C6003196F4CF148A82E00E9497802B011D
:103E70003C012091D0053091D1054091D20550915F
:103E8000D3056091CC057091CD058091CE059091C0
:103E9000CF0518EDC12E15E0D12E830172010E94CD
:103EA0007E5F84ED9CE00E9457189B01AC01C3012A
:103EB000B2010E942B952B013C0120E030E040E74D
:103EC00052E460910F027091100280911102909162
:103ED00012020E940B964B015C012091D00530919B
:103EE000D1054091D2055091D3056091CC057091D8
:103EF000CD058091CE059091CF05E8EBF5E0FF93DD
:103F0000EF93830172010E9484540E94308080915B
:103F100009010F900F9084FD2AC061E070E080E0FD
:103F200090E00E9484928091090184FD20C04EE4BB
:103F300054E060E070E08AE19DE00E941D1A8091EB
:103F4000C00085FFFCCF8AE38093C600E9E3F5E07B
:103F50008491882341F09091C00095FFFCCF80931D
:103F6000C6003196F5CF0E943F760E948F1A20E05E
:103F700030E040E85EE36091500270915102809120
:103F80005202909153020E94D9984B015C016093B8
:103F90000F0270931002809311029093120284ED2D
:103FA0009CE00E9457186B017C0120E030E040E764
:103FB00052E4C501B4010E940B964B015C01A701BC
:103FC0009601C701B6010E942B959B01AC01C3016C
:103FD000B2010E942A957B018C012091D00530917D
:103FE000D1054091D2055091D3056091CC057091D7
:103FF000CD058091CE059091CF05E8EBF5E0FF93DC
:10400000EF93B8EDCB2EB5E0DB2E0E9484540E94D6
:104010003080809109010F900F9084FF25C0E091BE
:10402000CD0DF091CE0D848981111DC04DE454E079
:1040300060E070E08AE19DE00E941D1A8091C0005E
:1040400085FFFCCF8AE38093C600E8EEF4E084911C
:10405000882309F48ACF9091C00095FFFCCF80930C
:10406000C6003196F4CF148A82E00E9497807B01CB
:104070008C016093D4057093D5058093D6059093F9
:10408000D7052091D0053091D1054091D2055091AE
:10409000D3056091CC057091CD058091CE059091AE
:1040A000CF05A8EDCA2EA5E0DA2E0E947E5F1F91F3
:1040B0000F91FF90EF90DF90CF90BF90AF909F90C7
:1040C0008F907F906F905F904F9008950E944C1A50
:1040D00040E052EC61E070E082EE95E00E94114A0F
:1040E000EEEAFCE08491882341F09091C00095FFB6
:1040F000FCCF8093C6003196F5CF8091C00085FF3C
:10410000FCCF8AE08093C60084E19DE0FC0124910D
:10411000222341F03091C00035FFFCCF2093C60030
:104120003196F5CF24B720FF14C0E6EAFCE03491C5
:10413000332341F04091C00045FFFCCF3093C600CF
:104140003196F5CF3091C00035FFFCCF3AE0309387
:10415000C60021FF14C0E6E9FCE03491332341F0AE
:104160004091C00045FFFCCF3093C6003196F5CF9B
:104170003091C00035FFFCCF3AE03093C60022FFFB
:1041800014C0E5E8FCE03491332341F04091C000D5
:1041900045FFFCCF3093C6003196F5CF3091C0007B
:1041A00035FFFCCF3AE03093C60023FF14C0E5E7AB
:1041B000FCE03491332341F04091C00045FFFCCF37
:1041C0003093C6003196F5CF3091C00035FFFCCF5B
:1041D0003AE03093C60025FF14C0E5E6FCE02491E8
:1041E000222341F03091C00035FFFCCF2093C60060
:1041F0003196F5CF2091C00025FFFCCF2AE0209317
:10420000C60014BEEEE4FCE02491222341F030917C
:10421000C00035FFFCCF2093C6003196F5CFE7E410
:10422000FCE02491222341F03091C00035FFFCCF07
:104230002093C6003196F5CF2091C00025FFFCCF1A
:104240002AE02093C600FC012491E4E1FDE0222352
:1042500049F03091C00035FFFCCF2093C600319665
:104260002491F5CFE7E3FCE02491222341F0309143
:10427000C00035FFFCCF2093C6003196F5CFE2E2B7
:10428000FCE02491222341F03091C00035FFFCCFA7
:104290002093C6003196F5CFE6E1FCE0249122237D
:1042A00041F03091C00035FFFCCF2093C60031961D
:1042B000F5CFE6EFFBE02491222341F03091C000DE
:1042C00035FFFCCF2093C6003196F5CF2091C0007A
:1042D00025FFFCCF2AE02093C600EAEEFBE0249104
:1042E000222341F03091C00035FFFCCF2093C6005F
:1042F0003196F5CF2091C00025FFFCCF2AE0209316
:10430000C600FC018491E4E1FDE0882349F090912E
:10431000C00095FFFCCF8093C60031968491F5CF05
:10432000EBEDFBE08491882341F09091C00095FF74
:10433000FCCF8093C6003196F5CF0E942F1A4AE039
:1043400050E0BC0182EE95E00E942B4BE4ECFBE0D8
:104350008491882341F09091C00095FFFCCF809319
:10436000C6003196F5CF4AE050E060E276E082EE9A
:1043700095E00E942B4B8091C00085FFFCCF8AE026
:104380008093C6001092C0041092C1040E94751759
:104390000E94CE850E941D530E94FD910E94A17F24
:1043A0000C944F1A8091B4049091B50460E070E0D1
:1043B00001960C94779B8091B4049091B5044AE0E7
:1043C00050E060E070E001960C94E89C682F77273D
:1043D00067FD70952091BE043091BF0440E6429F76
:1043E000C001439F900D11248E539B4F0E94569EF7
:1043F0009093B5048093B40421E0892B09F420E064
:10440000822F08954F925F926F927F928F929F9228
:10441000AF92BF92CF92DF92EF92FF920F931F93D2
:10442000CF93DF93CDB7DEB760970FB6F894DEBFBA
:104430000FBECDBF0E94BA0E2B013C010E94490F56
:104440004B015C010E94D80F6B017C010E94671038
:104450006D877E878F87988B0E94F610673C25E3D7
:1044600072072AE3820722E49207F9F00E94A696D7
:1044700020E034E244E759E40E940B9620E030E06B
:10448000A9010E942B956093B9057093BA0580939A
:10449000BB059093BC0587EC481685E358068AE374
:1044A000680682E4780659F587C146E554E060E085
:1044B00070E08AE19DE00E941D1A8091C00085FF96
:1044C000FCCF8AE38093C600E4E7FAE08491882376
:1044D00041F09091C00095FFFCCF8093C6003196CB
:1044E000F5CFE2E7FAE08491882309F485C0909142
:1044F000C00095FFFCCF8093C6003196F4CF97ECB7
:10450000891695E399069AE3A90692E4B90609F497
:1045100053C1A7ECCA16A5E3DA06AAE3EA06A2E4A9
:10452000FA0609F449C18D859E85AF85B889873C17
:104530009543AA43B24409F43FC10E94308088E603
:1045400092E00E947190C301B2010E94A69620E001
:1045500034E244E759E40E940B9669837A838B83A3
:104560009C83C501B4010E94A69620E034E244E792
:1045700059E40E940B966D837E838F839887C701D1
:10458000B6010E94A69620E034E244E759E40E9476
:104590000B9669877A878B879C87CE0101960E944C
:1045A000D1188090D4059090D505A090D605B090F4
:1045B000D70520E030E046E153E4C501B4010E9494
:1045C000049618165CF147E554E060E070E08AE17B
:1045D0009DE00E941D1A8091C00085FFFCCF8AE3F8
:1045E0008093C600EFE5FAE08491811107C0EDE504
:1045F000FAE0849181110AC00E948F1A9091C00044
:1046000095FFFCCF8093C6003196EECF9091C0000D
:1046100095FFFCCF8093C6003196EBCF6D857E85EC
:104620008F8598890E94A69620E034E244E759E4F9
:104630000E940B962091B9053091BA054091BB05B7
:104640005091BC050E942B956B017C019B01AC0134
:10465000C501B4010E942A956093D4057093D505D5
:104660008093D6059093D70520E030E046E153E4EF
:104670000E94049618161CF4EFEEF2E030C047E5F5
:1046800054E060E070E08AE19DE00E941D1A809194
:10469000C00085FFFCCF8AE38093C600EAE4FAE01D
:1046A0008491882341F09091C00095FFFCCF8093C6
:1046B000C6003196F5CFE8E4FAE08491882309F446
:1046C0009BCF9091C00095FFFCCF8093C6003196A0
:1046D000F4CF9091C00095FFFCCF8093C6008191EC
:1046E0008111F7CF22E030E0B701A60182EE95E01C
:1046F0000E940B4C8091C00085FFFCCF8AE0809324
:10470000C600E090D405F090D5050091D605109133
:10471000D7052091D0053091D1054091D205509117
:10472000D3056091CC057091CD058091CE05909117
:10473000CF05F8EDCF2EF5E0DF2E0E947E5F80E002
:1047400090E0A1E6B5E480930F0290931002A0934D
:104750001102B0931202E090D405F090D5050091BB
:10476000D6051091D7052091D0053091D105409103
:10477000D2055091D3056091CC057091CD05809103
:10478000CE059091CF050E947E5F60960FB6F8949B
:10479000DEBF0FBECDBFDF91CF911F910F91FF9074
:1047A000EF90DF90CF90BF90AF909F908F907F90D1
:1047B0006F905F904F90089546E554E060E070E0A0
:1047C0008AE19DE00E941D1A8091C00085FFFCCF08
:1047D0008AE38093C600EBE3FAE08491882341F0FA
:1047E0009091C00095FFFCCF8093C6003196F5CF25
:1047F000E9E3FAE08491882309F4FECE9091C000A9
:1048000095FFFCCF8093C6003196F4CF0E9455925D
:104810006093B0047093B1048093B2049093B30496
:10482000ECEDF4E08491882341F09091C00095FF75
:10483000FCCF8093C6003196F5CF8091C00085FFF4
:10484000FCCF8AE08093C600089582EE95E00E9436
:10485000634AEFEDF4E08491882341F09091C00029
:1048600095FFFCCF8093C6003196F5CF4091870528
:10487000509188056091890570918A054F5F5F4F5F
:104880006F4F7F4F2AE030E082EE95E00E94044BAC
:104890008091C00085FFFCCF8AE08093C6000C9415
:1048A00006248F929F92AF92BF92CF92DF92EF92A7
:1048B000FF920F931F93CF93DF93A6E4EA2EA4E019
:1048C000FA2E0CEC15E0C3EAD5E0BEEDCB2EB5E038
:1048D000DB2EF70181917F010E94E621882319F1E7
:1048E0000E94D2214B015C01F6018081811103C03D
:1048F0006091820501C061E070E080E090E00E947C
:10490000A696F80120813181428153810E94D99875
:104910009B01AC01C501B4010E942B95688379838A
:104920008A839B8309C0F80180819181A281B38130
:1049300088839983AA83BB830C5F1F4F2496FFEF64
:10494000CF1ADF0A8AE4E81684E0F80611F686E456
:104950000E94E6218823D9F00E94D2216B017C01BC
:1049600060939305709394058093950590939605B5
:1049700020E030E0A9010E940798181644F4C09284
:104980000F02D0921002E0921102F0921202DF9117
:10499000CF911F910F91FF90EF90DF90CF90BF903C
:1049A000AF909F908F9008950E94512489E40E94B7
:1049B000E621882359F00E94D221609397057093D5
:1049C00098058093990590939A0508C010929705D1
:1049D000109298051092990510929A058AE40E9407
:1049E000E621882359F00E94D22160939B057093A1
:1049F0009C0580939D0590939E05089510929B05BC
:104A000010929C0510929D0510929E050895CF92DC
:104A1000DF92EF92FF92CF93DF93EC01C0903202CE
:104A2000D0903302E0903402F0903502A701960155
:104A3000688179818A819B810E94049687FF04C0E6
:104A4000C882D982EA82FB82C0903602D0903702B7
:104A5000E0903802F0903902A70196016C817D81C7
:104A60008E819F810E94049687FF04C0CC82DD82E4
:104A7000EE82FF82C0903A02D0903B02E0903C026E
:104A8000F0903D02A7019601688579858A859B850E
:104A90000E94049687FF04C0C886D986EA86FB86F2
:104AA000C0902602D0902702E0902802F0902902C0
:104AB000A7019601688179818A819B810E9407986C
:104AC000181624F4C882D982EA82FB82C0902A0296
:104AD000D0902B02E0902C02F0902D02A7019601BD
:104AE0006C817D818E819F810E940798181624F425
:104AF000CC82DD82EE82FF82C0902E02D0902F0207
:104B0000E0903002F0903102A70196016885798526
:104B10008A859B850E940798181624F4C886D98632
:104B2000EA86FB86DF91CF91FF90EF90DF90CF90E8
:104B300008952F923F924F925F926F927F928F9241
:104B40009F92AF92BF92CF92DF92EF92FF920F931C
:104B50001F93CF93DF93CDB7DEB72C970FB6F894A2
:104B6000DEBF0FBECDBF83EA95E00E94072581E03E
:104B70000E94467620E030E040E253E460913E0E31
:104B800070913F0E8091400E9091410E0E940798C7
:104B900018160CF055C12091CC053091CD054091EF
:104BA000CE055091CF0529833A834B835C832093B4
:104BB000A3053093A4054093A5055093A605409006
:104BC000D0055090D1056090D2057090D3054092E9
:104BD000A7055092A8056092A9057092AA05809138
:104BE000D4059091D505A091D605B091D7058D83B8
:104BF0009E83AF83B8878093AB059093AC05A09359
:104C0000AD05B093AE0520E030E040E85FE3609191
:104C1000D8057091D9058091DA059091DB050E9445
:104C20002A956093AF057093B0058093B10590937A
:104C3000B205B8EB2B2EB5E03B2E3F922F92812C84
:104C4000912C10EFA12E11E4B12E0FEAC02E05E039
:104C5000D02EED80FE800F811885A301920169811D
:104C60007A818B819C810E9484546091A30570910C
:104C7000A4058091A5059091A6056093CC0570933D
:104C8000CD058093CE059093CF058090A705909099
:104C9000A805A090A905B090AA058092D005909291
:104CA000D105A092D205B092D305C090AB05D090AB
:104CB000AC05E090AD05F090AE05C092D405D09261
:104CC000D505E092D605F092D7052091AF05309139
:104CD000B0054091B1055091B20529833A834B83C9
:104CE0005C832093D8053093D9054093DA0550931F
:104CF000DB0520E030E040E251E40E942B952B01DF
:104D00003C016093A3057093A4058093A50590933F
:104D1000A60520E030E040E251E4C501B4010E9464
:104D20002A956D837E838F8398876093A705709300
:104D3000A8058093A9059093AA0520E030E040E8FB
:104D40005FE3C701B6010E942B9569877A878B873D
:104D50009C876093AB057093AC058093AD059093F1
:104D6000AE0520E030E040EA50E469817A818B8131
:104D70009C810E942A956093AF057093B005809343
:104D8000B1059093B2053F922F92812C912C86E130
:104D9000A82E83E4B82E9FEAC92E95E0D92EE98487
:104DA000FA840B851C852D813E814F815885C30176
:104DB000B2010E9484548091A3059091A405A09112
:104DC000A505B091A6058093CC059093CD05A09341
:104DD000CE05B093CF058091A7059091A805A0912D
:104DE000A905B091AA058093D0059093D105A09311
:104DF000D205B093D3058091AB059091AC05A091FD
:104E0000AD05B091AE058093D4059093D505A093E0
:104E1000D605B093D7058091AF059091B005A091CC
:104E2000B105B091B2058093D8059093D905A093B0
:104E3000DA05B093DB050F900F900F900F90B2C082
:104E400020E030E040E251E46091CC057091CD0566
:104E50008091CE059091CF050E942B952B013C01AE
:104E60006093A3057093A4058093A5059093A60570
:104E700020E030E040E251E46091D0057091D1052E
:104E80008091D2059091D3050E942B9569837A83F6
:104E90008B839C836093A7057093A8058093A905D5
:104EA0009093AA0520E030E040E85FE36091D405EC
:104EB0007091D5058091D6059091D7050E942B95CC
:104EC0006093AB057093AC058093AD059093AE05F0
:104ED0000091D8051091D9052091DA053091DB05B4
:104EE0000093AF051093B0052093B1053093B20540
:104EF00028EB35E03F932F93812C912CF6E1AF2ED8
:104F0000F3E4BF2EAFEACA2EA5E0DA2E7B018C01B6
:104F100029813A814B815C81C301B2010E94845492
:104F20008091A3059091A405A091A505B091A60537
:104F30008093CC059093CD05A093CE05B093CF057B
:104F40008091A7059091A805A091A905B091AA0507
:104F50008093D0059093D105A093D205B093D3054B
:104F60008091AB059091AC05A091AD05B091AE05D7
:104F70008093D4059093D505A093D605B093D7051B
:104F80008091AF059091B005A091B105B091B205A7
:104F90008093D8059093D905A093DA05B093DB05EB
:104FA0000F900F9090916B0680916C069813FACF3A
:104FB00088E692E00E94719080910F029091100219
:104FC000A0911102B091120280938F0590939005E9
:104FD000A0939105B093920580914602909147026B
:104FE0009093DD058093DC0584E690E09093470282
:104FF000809346020E9455926093B0047093B1046E
:105000008093B2049093B30481E00E94467680912D
:10501000CC059091CD05A091CE05B091CF058093A0
:10502000A3059093A405A093A505B093A605809130
:10503000D0059091D105A091D205B091D305809370
:10504000A7059093A805A093A905B093AA05809100
:10505000D4059091D505A091D605B091D705809340
:10506000AB059093AC05A093AD05B093AE058091D0
:10507000D8059091D905A091DA05B091DB05809310
:10508000AF059093B005A093B105B093B20510920F
:105090000F02109210021092110210921202169A30
:1050A0001092BD05469A1092BE05409A1092BF0517
:1050B000139A82E090E00E94421BE090D405F090A9
:1050C000D5050091D6051091D7052091D0053091D6
:1050D000D1054091D2055091D3056091CC057091D6
:1050E000CD058091CE059091CF05E8EDCE2EE5E07F
:1050F000DE2E0E947E5F80E00E94467680918F05C2
:1051000090919005A0919105B091920580930F0226
:1051100090931002A0931102B09312028091DC05CB
:105120009091DD0590934702809346020E9455922C
:105130006093B0047093B1048093B2049093B3046D
:105140000E943F76169A1092BD05469A1092BE05AF
:10515000409A1092BF05139A2C960FB6F894DEBFB2
:105160000FBECDBFDF91CF911F910F91FF90EF90B8
:10517000DF90CF90BF90AF909F908F907F906F9077
:105180005F904F903F902F9008954F925F926F9253
:105190007F928F929F92AF92BF92CF92DF92EF92C7
:1051A000FF920F931F93CF93DF93CDB7DEB728976E
:1051B0000FB6F894DEBF0FBECDBF83EA95E00E9424
:1051C00007250E9455926093B0047093B1048093B8
:1051D000B2049093B3042091A3053091A4054091AB
:1051E000A5055091A60529833A834B835C83609182
:1051F000CC057091CD058091CE059091CF050E9490
:1052000004964090A7055090A8056090A90570905D
:10521000AA052091AB053091AC054091AD055091A8
:10522000AE052D833E834F83588781118BC0A30128
:1052300092016091D0057091D1058091D205909135
:10524000D3050E94049681117DC020E030E040E744
:1052500052E460910F0270911002809111029091BE
:1052600012020E940B964B015C0188EB95E09F9324
:105270008F932FEAC22E25E0D22EED80FE800F8183
:105280001885A301920169817A818B819C810E949A
:1052900084540F900F908091A3059091A405A09144
:1052A000A505B091A6058093CC059093CD05A0935C
:1052B000CE05B093CF058091A7059091A805A09148
:1052C000A905B091AA058093D0059093D105A0932C
:1052D000D205B093D3058091AB059091AC05A09118
:1052E000AD05B091AE058093D4059093D505A093FC
:1052F000D605B093D7058091AF059091B005A091E8
:10530000B105B091B2058093D8059093D905A093CB
:10531000DA05B093DB0528960FB6F894DEBF0FBE12
:10532000CDBFDF91CF911F910F91FF90EF90DF9054
:10533000CF90BF90AF909F908F907F906F905F9035
:105340004F9008956091460270914702882777FD3B
:105350008095982F0E94A69620910F0230911002FE
:1053600040911102509112020E94D99820E030E041
:1053700040E752E40E940B9620E030E048EC52E413
:1053800070CFAF92BF92CF92DF92EF92FF920F93C6
:105390001F93CF93DF93D82F20919B0530919C05CD
:1053A00040919D0550919E056091970570919805DB
:1053B0008091990590919A050E941498C62F172FF5
:1053C000082FF92E6091460270914702882777FDD9
:1053D0008095982F0E94A69620910F02309110027E
:1053E00040911102509112020E94D99820E030E0C1
:1053F00040E752E40E940B9620E030E048EC52E493
:105400000E940B962091B8052F93DF93FF920F9384
:105410001F93CF935B016C0132E0E32E01E020E0AB
:1054200047E955E063EA75E08CEC95E00E940D4C8D
:105430008091A3059091A405A091A505B091A60522
:105440008093CC059093CD05A093CE05B093CF0566
:105450008091A7059091A805A091A905B091AA05F2
:105460008093D0059093D105A093D205B093D30536
:105470008091AB059091AC05A091AD05B091AE05C2
:105480008093D4059093D505A093D605B093D70506
:105490008091AF059091B005A091B105B091B20592
:1054A0008093D8059093D905A093DA05B093DB05D6
:1054B0000E9455926093B0047093B1048093B2043B
:1054C0009093B3040F900F900F900F900F900F9048
:1054D000DF91CF911F910F91FF90EF90DF90CF90D0
:1054E000BF90AF900895F8940E949086169A1092FB
:1054F000BD05469A1092BE05409A1092BF05139AB8
:1055000060E088E10E943A9441EB54E060E070E092
:105510008AE19DE00E941D1A8091C00085FFFCCFAA
:105520008AE38093C600EDEBF4E08491882341F098
:105530009091C00095FFFCCF8093C6003196F5CFC7
:105540008091C00085FFFCCF8AE08093C600FFCF2A
:105550002F923F925F926F927F928F929F92AF9223
:10556000BF92CF92DF92EF92FF920F931F93CF9350
:10557000DF9340E6742E52E0E52EF12C68E8262EEB
:105580006AE0362E72E6672EE6E8CE2EEAE0DE2EE0
:10559000F0EAAF2EFAE0BF2EA6E18A2EABE09A2EFB
:1055A00080916306909164062091650630916606AD
:1055B000821B930B8F779927892B09F4F1C2809175
:1055C000BA049091BB0402970CF0EAC282EE95E017
:1055D0000E94474A8093B9042091B7043091B804DF
:1055E0008A3061F08D3051F08A3321F49091B60405
:1055F000992321F02F3531050CF4F5C12115310522
:1056000019F41092B604CCC28091BC049091BD04F0
:10561000789E8001799E100D1124F801E20FF31F8E
:10562000EE53FB4F10822091B6042111D7C1FC012B
:10563000E054FB4F1082E801CE53DB4F6EE470E084
:10564000CE010E94569E0097E9F19093B504809395
:10565000B4048C1B9D0B800F911F4AE050E060E06A
:1056600070E08D539B4F0E94E89C60938B05709374
:105670008C0580938D0590938E0520918705309140
:1056800088054091890550918A052F5F3F4F4F4F04
:105690005F4F0091BC041091BD046217730784072B
:1056A000950709F4BFC1709EC001719E900D112431
:1056B0006FEB7BE08E539B4F0E943C9E892B09F041
:1056C000B1C141C26AE270E0CE010E94569E892BB0
:1056D00009F444C0EEE0FDE08491882341F090910C
:1056E000C00095FFFCCF8093C6003196F5CFE9E16D
:1056F000FBE08491882341F09091C00095FFFCCF9E
:105700008093C6003196F5CF40918705509188056A
:105710006091890570918A052AE030E082EE95E07B
:105720000E94044B8091C00085FFFCCF8AE08093EB
:10573000C6001092B8041092B70432C280918B0553
:1057400090918C05A0918D05B0918E058093870571
:1057500090938805A0938905B0938A058091BC0435
:105760009091BD04789EE001799ED00D11248E01A8
:105770000E531B4F67E470E0C8010E94569E0097CD
:1057800009F441C09093B5048093B404801B910B3D
:105790008C0F9D1F60E070E08D539B4F0E94779BA4
:1057A0000E9473966430710570F58091A204811196
:1057B00014C0F4018491E6E1FBE0882349F0909164
:1057C000C00095FFFCCF8093C60031968491F5CF41
:1057D0008091C00085FFFCCF13C0F5018491E0EA01
:1057E000FAE0882349F09091C00095FFFCCF8093A8
:1057F000C60031968491F5CF8091C00085FFFCCF23
:105800008AE08093C6002091BC043091BD04729E52
:10581000C001739E900D11246BE97AE08E539B4F6B
:105820000E943C9E892B09F4B4C00E94B880E4E138
:10583000FDE08491882341F09091C00095FFFCCF5A
:105840008093C6003196F5CFE8E9FAE08491882389
:1058500041F09091C00095FFFCCF8093C600319637
:10586000F5CF4091CC055091CD056091CE0570915A
:10587000CF0522E030E082EE95E00E940B4CE4E997
:10588000FAE08491882341F09091C00095FFFCCF0D
:105890008093C6003196F5CF4091D0055091D10547
:1058A0006091D2057091D30522E030E082EE95E060
:1058B0000E940B4CE0E9FAE08491882341F090913A
:1058C000C00095FFFCCF8093C6003196F5CF409184
:1058D000D4055091D5056091D6057091D70522E089
:1058E00030E082EE95E00E940B4CECE8FAE0849107
:1058F000882341F09091C00095FFFCCF8093C600B3
:105900003196F5CF4091D8055091D9056091DA05CF
:105910007091DB0522E030E082EE95E00E940B4CB6
:10592000F1018491E8E8FAE0882349F09091C00001
:1059300095FFFCCF8093C60031968491F5CFE0911E
:105940006C066E9EF0011124E359F94F20E030E01F
:1059500040E752E460897189828993890E94D998CD
:10596000AB01BC0122E030E082EE95E00E940B4CDE
:10597000F6018491E6E8FAE0882349F09091C000AE
:1059800095FFFCCF8093C60031968491F5CF0E949D
:105990004581C091BC04D091BD047C9EC0017D9E18
:1059A000900D112461E87AE08E539B4F0E943C9E3B
:1059B000892B11F00E94732ACE010196B7010E9433
:1059C000BB999093BD048093BC048091BA049091DC
:1059D000BB0401969093BB048093BA041092B80460
:1059E0001092B704DDCD8B3319F491E09093B60497
:1059F0009091B6049111D4CD4091BC045091BD0456
:105A0000B9016F5F7F4F7093B8046093B704749EC1
:105A1000F001759EF00D1124E20FF31FEE53FB4FC2
:105A20008083BECD709EE001719ED00D11248E0149
:105A30000E531B4F6AE270E0C8010E94569E009709
:105A400091F5EEE0FDE08491882341F09091C00053
:105A500095FFFCCF8093C6003196F5CFE3E4FBE0E1
:105A60008491882341F09091C00095FFFCCF8093F2
:105A7000C6003196F5CF4091870550918805609119
:105A8000890570918A052AE030E082EE95E00E9457
:105A9000044B8091C00085FFFCCF8AE08093C60054
:105AA0000E94252446CE20E0512CFE01E20FF11D7C
:105AB000EE53FB4F30813A3219F02F5F5326F5CF6A
:105AC0009093B5048093B404801B910B8C0F9D1FA1
:105AD00060E070E08D539B4F0E94779B0E9473960D
