:100000000C94120C0C946A8B0C949B8B0C94CC8BE0
:100010000C94FD8B0C942E8C0C945F8C0C94908C17
:100020000C94C18C0C94430C0C94430C0C94430C16
:100030000C94430C0C94430C0C94430C0C94430C04
:100040000C94430C0C949A700C94430C0C94430C39
:100050000C94430C0C94430C0C94B5850C94F28CCA
:100060000C94430C0C941B440C94430C0C94430CC4
:100070000C94430C0C94430C0C94430C0C94430CC4
:100080000C947F6D0C94430C0C94430C0C94430C17
:100090000C94430C0C94430C0C94430C0C94090DDD
:1000A0000C94430C0C94430C0C94AD6D0C94430CC9
:1000B0000C94430C0C94430C0C94430C0C94DB6D8B
:1000C0000C94430C0C94430C0C94430C0C94430C74
:1000D0000C94430C0C94430C0C94430C0C94430C64
:1000E0000C94430CFE850B86278634864E865086FC
:1000F000528654865C861F8BE98AF18AFD8A0A8BB8
:100100002B8B388B5C8B528B548B568B588B5E8B26
:10011000608B1B8E208E258E2F8E398EB28E438E55
:100120004B8E538E5D8E678E718E808E8A8EB28ED0
:10013000948E9E8EA88ED48ED78EC68ECA8ED08E6A
:100140000E8FDB8EDF8EE58EE98EED8EF38EF78ED1
:10015000FB8E0E8F018F058F098F084AD73B3BCE50
:10016000016E84BCBFFDC12F3D6C74319ABD5683B6
:100170003DDA3D00C77F11BED9E4BB4C3E916BAA6E
:10018000AABE000000803F05A84CCDB2D44EB938BD
:1001900036A9020C50B9918688083CA6AAAA2ABEA4
:1001A000000000803F000C94258E0C94FD8A0C9476
:1001B00017440C9434860C945E8B0C9454860C94E7
:1001C000718E0C941F8B0C94058F0C94678E0C947D
:1001D000D08E0C944B8E0C94098F0C94450C0C947F
:1001E0009E8E0C942F8E0C94700C0C94DC0C0C9442
:1001F000018F0C94ED8E0C94600C0C94E98A0C9495
:100200006F0C0C94948E0C945C8B0C94C68E0C9496
:10021000F18A0C942B8B0C949D0C0C94D78E0C941F
:10022000608B0C94528B0C94538E0C941B8E0C94FC
:1002300050860C940A8B0C948A8E0C94388B0C94F8
:10024000FE850C94208E0C944D0C0C94CA8E0C944C
:1002500022240C9452860C94E98E0C94398E0C94C2
:10026000DF8E0C94DB8E0C94E58E0C94F78E0C9440
:100270005C860C94F38E0C94808E0C94FB8E0C9404
:100280005D8E0C94438E0C94588B0C94568B0C946E
:10029000B28E0C9427860C94D48E0C944E860C94BB
:1002A000A88E0C940E8F0C94548B0C940B862044C7
:1002B000002049002020204D33303120500050498B
:1002C000442073657474696E67733A00205A002085
:1002D000590020204D323036205800486F6D65207F
:1002E0006F666673657420286D6D293A002045009D
:1002F000205A0020580020420020540020204D3277
:100300003035205300416476616E63656420766108
:10031000726961626C65733A20533D4D696E206667
:100320006565647261746520286D6D2F73292C20BA
:10033000543D4D696E2074726176656C206665650A
:10034000647261746520286D6D2F73292C20423DE5
:100350006D696E696D756D207365676D656E74206E
:1003600074696D6520286D73292C20583D6D617866
:10037000696D756D205859206A65726B20286D6D06
:100380002F73292C20205A3D6D6178696D756D2081
:100390005A206A65726B20286D6D2F73292C2020DE
:1003A000453D6D6178696D756D2045206A65726B9C
:1003B00020286D6D2F73290020540020204D3230ED
:1003C00034205300416363656C65726174696F6EBC
:1003D0003A20533D616363656C65726174696F6E49
:1003E0002C20543D7265747261637420616363658F
:1003F0006C65726174696F6E00204500205A0020A0
:10040000590020204D3230312058004D6178696DFF
:10041000756D20416363656C65726174696F6E20F0
:10042000286D6D2F7332293A00204500205A002094
:10043000590020204D3230332058004D6178696DCD
:10044000756D2066656564726174657320286D6DD5
:100450002F73293A00204500205A002059002020FF
:100460004D393220580053746570732070657220C6
:10047000756E69743A0053657474696E67732053BE
:10048000746F726564004543484F3E005072696E58
:100490007465722073746F70706564206475652074
:1004A000746F206572726F72732E204669782074A3
:1004B0006865206572726F7220616E642075736565
:1004C000204D39393920746F2072657374617274EC
:1004D0002E202854656D706572617475726520698F
:1004E000732072657365742E2053657420697420BF
:1004F00061667465722072657374617274696E6787
:1005000029005072696E7465722068616C7465644C
:100510002E206B696C6C28292063616C6C656421EA
:10052000006F6B00526573656E643A2000456E641F
:1005300073746F70206E6F7420707265737365646E
:1005400020616674657220686F6D696E6720646FE4
:10055000776E2E205A2D6D696E20737769746368EB
:10056000206F72205A2D6F66667365742D73656EE9
:10057000736F722062726F6B656E3F0A00456E6426
:1005800073746F70207374696C6C20707265737310
:100590006564206166746572206261636B696E6771
:1005A000206F66662E205A2D6D696E2073776974F0
:1005B0006368206F72205A2D6F66667365742D73A1
:1005C000656E736F7220737475636B3F0A00456EBE
:1005D0006473746F70206E6F7420707265737365CE
:1005E0006420616674657220686F6D696E6720644F
:1005F0006F776E2E205A2D6D696E20737769746344
:1006000068206F72205A2D6F66667365742D73654E
:100610006E736F722062726F6B656E3F0A000A0024
:10062000207A3A200020793A200020783A200042AF
:100630006564002200556E6B6E6F776E20636F6D80
:100640006D616E643A2022005A204F6666736574AD
:10065000203A20007A5F6D61783A20007A5F6D69F8
:100660006E3A20005A204F6666736574005A204F18
:100670006666736574206F6B007A5F6D61783A20EF
:10068000007A5F6D696E3A2000795F6D61783A207B
:1006900000795F6D696E3A2000785F6D61783A206D
:1006A00000785F6D696E3A2000205A3A0020593A6E
:1006B0000020436F756E7420583A200020463A009F
:1006C00020453A00205A3A0020593A00583A00464C
:1006D00049524D574152455F4E414D453A4D617229
:1006E0006C696E20666F72206D6F737466756E2014
:1006F00050726F3B204D414348494E455F5459501D
:10070000453A6D6F737466756E2050726F20455850
:100710005452554445525F434F554E543A3120553B
:100720005549443A30303030303030302D30303070
:10073000302D303030302D303030302D30303030C2
:1007400030303030303030300A0020423A0020451E
:100750003A00543A0020573A0020453A00543A00F3
:100760002042403A0020403A00202F003A00205416
:1007700000202F0020423A00202F006F6B20543AB7
:10078000002569206D696E2C202569207365630042
:100790000A0063757272656E745F6F666673657466
:1007A0003A20000A007A70726F62655F6F66667346
:1007B00065745F73656E736F723A20000A00205A89
:1007C0003A200020593A200020583A20004265641F
:1007D000000A004175746F5F6C657665696E67200D
:1007E00066696E6973680020643A200020623A20CE
:1007F0000045716E20636F656666696369656E7436
:10080000733A20613A2000486F6D6520582F5920B7
:100810006265666F7265205A00456E6473746F700E
:10082000207374696C6C20707265737365642061E9
:1008300066746572206261636B696E67206F6666BD
:100840002E205A2D6D617820737769746368207348
:100850007475636B3F0A00456E6473746F70207328
:1008600074696C6C20707265737365642061667462
:100870006572206261636B696E67206F66662E2009
:10088000592D6D617820737769746368207374756E
:10089000636B3F0A00456E6473746F7020737469F4
:1008A0006C6C207072657373656420616674657228
:1008B000206261636B696E67206F66662E20582D1B
:1008C0006D61782073776974636820737475636BE6
:1008D0003F0A00456E6473746F70206E6F742070F1
:1008E00072657373656420616674657220686F6DEC
:1008F000696E6720646F776E2E20582D6D617820A9
:100900006F7220592D6D6178207377697463682048
:1009100062726F6B656E3F0A00456E6473746F7030
:10092000206E6F74207072657373656420616674E5
:10093000657220686F6D696E6720646F776E2E2018
:100940005A2D6D6178207377697463682062726FC5
:100950006B656E3F0A004D313132000A0020463A85
:100960000020453A00205A3A0020593A00583A00EF
:100970004D313030005072696E7465722073746F3F
:10098000707065642064756520746F206572726F85
:1009900072732E2046697820746865206572726FC4
:1009A0007220616E6420757365204D393939207469
:1009B0006F20726573746172742E202854656D7097
:1009C00065726174757265206973207265736574F0
:1009D0002E205365742069742061667465722072DC
:1009E000657374617274696E6729006F6B004E6F76
:1009F000204C696E65204E756D6265722077697452
:100A00006820636865636B73756D2C204C6173742B
:100A1000204C696E653A20004E6F20436865636B19
:100A200073756D2077697468206C696E65206E75CA
:100A30006D6265722C204C617374204C696E653A4E
:100A40002000636865636B73756D206D69736D61FC
:100A50007463682C204C617374204C696E653A2075
:100A6000004C696E65204E756D6265722069732059
:100A70006E6F74204C617374204C696E65204E75E6
:100A80006D6265722B312C204C617374204C696E41
:100A9000653A20004D31313000555053212121213C
:100AA000213F3F002020506C616E6E65724275667A
:100AB00066657242797465733A20002046726565F6
:100AC000204D656D6F72793A20004D61722032348D
:100AD00020323031360028693377617465722C20FA
:100AE0006D6F737466756E2053265420436F2E2CE1
:100AF0004C74642E2900207C20417574686F723A12
:100B000020004D61722032342032303136203137AE
:100B10003A31343A303400204C617374205570649B
:100B2000617465643A200020312E302E30004D6112
:100B3000726C696E20666F72206D6F737466756E6D
:100B40002050726F0020536F667477617265205277
:100B50006573657400205761746368646F67205221
:100B600065736574002042726F776E206F75742014
:100B70005265736574002045787465726E616C20EF
:100B8000526573657400506F7765725570007374A9
:100B9000617274002A2A2A2A55505320454E442A4D
:100BA0002A2A2A000A0020463A0020453A00205A04
:100BB0003A0020593A00583A002A2A2A2A55505316
:100BC0002053544152542A2A2A2A000101010000CC
:100BD000A0400000A0400000404000005E43000034
:100BE00034430000204300005E4300003443000013
:100BF000204300005E430000344300002043000017
:100C000000000000000000000000494E464F3E007A
:100C10005741524E3E004543484F3E004552524FC9
:100C2000523E0020746F6F206C6F6E672065787481
:100C3000727573696F6E2070726576656E74656427
:100C40000020636F6C6420657874727573696F6ED1
:100C50002070726576656E746564005741524E3E31
:100C600000205A3A0020593A0020583A00656E6434
:100C700073746F7073206869743A200024F4D43060
:100C800050C38E20C2A24017828B7011127A910D30
:100C9000816CD90AA861E108C7586607615143060B
:100CA0001E4B5D05C145A7041A411104093D980377
:100CB000713931034036DB0265339102D43054027E
:100CC000802E1D02632CEE01752AC501B028A001FB
:100CD000102781018F2564012B244B01E022340170
:100CE000AC211F018D200D01801FFC00841EED0032
:100CF000971DDF00B81CD200E61BC600201BBC00FD
:100D0000641AB200B219A8000A19A0006A18990062
:100D1000D117910040178B00B516840031167E0064
:100D2000B31579003A157300C7146F0058146A00A0
:100D3000EE1366008813630025135E00C7125B0084
:100D40006C12570015125400C111510070114F0060
:100D500021114B00D61049008D1047004610440069
:100D600002104200C00F4000800F3E00420F3C00C6
:100D7000060F3B00CB0E3800930E37005C0E35009B
:100D8000270E3400F30D3200C10D3100900D3000FC
:100D9000600D2E00320D2D00050D2C00D90C2B00FE
:100DA000AE0C2900850C29005C0C2700350C2700AF
:100DB0000E0C2600E80B2400C40B2400A00B23001B
:100DC0007D0B23005A0B2100390B2100180B20004A
:100DD000F80A1F00D90A1E00BB0A1E009D0A1D004A
:100DE000800A1D00630A1C00470A1B002C0A1B0016
:100DF000110A1A00F7091A00DD091900C4091900BF
:100E0000AB091900920917007B0918006309170044
:100E10004C09160036091600200916000A091500AB
:100E2000F5081500E0081400CC081400B8081400F8
:100E3000A4081400900813007D0812006B0813002A
:100E40005808120046081200340811002308110047
:100E50001208110001081100F0071000E00710004F
:100E6000D0071000C0071000B0070F00A107100046
:100E700091070E0083070F0074070F0065070E002F
:100E800057070E0049070E003B070D002E070E0006
:100E900020070D0013070D0006070D00F9060C00D2
:100EA000ED060D00E0060C00D4060C00C8060C0090
:100EB000BC060C00B0060C00A4060B0099060C0042
:100EC0008D060B0082060B0077060B006C060B00EC
:100ED00061060A0057060B004C060A0042060A008B
:100EE00038060A002E060A0024060A001A060A001E
:100EF0001006090007060A00FD050900F4050900AF
:100F0000EB050900E2050900D9050900D005090033
:100F1000C7050900BE050900B5050800AD050800B4
:100F2000A50509009C050800940508008C0508002B
:100F3000840508007C050800740508006C0507009E
:100F4000650508005D050700560508004E05070009
:100F50004705070040050800380507003105070070
:100F60002A050700230507001C05060016050700D3
:100F70000F0507000805060002050700FB04060030
:100F8000F5040700EE040600E8040600E20407008A
:100F9000DB040600D5040600CF040600C9040600E1
:100FA000C3040600BD040600B7040600B104050032
:100FB000AC040600A6040600A00405009B0406007D
:100FC00095040500900406008A04050085040500C8
:100FD000800406007A04050075040500700405000D
:100FE0006B04050066040500610405005C0405004F
:100FF00057040500520405004D040500480405008F
:10100000430405003E0404003A04050035040500CD
:10101000300404002C040500270404002304050008
:101020001E0404001A040400160405001104040040
:101030000D04040009040500040404000004040075
:10104000FC030400F8030400F4030400F0030400AC
:10105000EC030400E8030400E4030400E0030400DC
:10106000DC030400D8030400D4030400D00304000C
:10107000CC030400C8030300C503030024F404D90F
:10108000201BC40C5C0E9804C4095F026507710143
:10109000F405F900FB04B30048048700C1036900AC
:1010A0005803550003034500BE023A008402310094
:1010B00053022A002902250004022000E4011C003A
:1010C000C8011900AF011700980114008401130032
:1010D000710110006101100051010E0043010D006B
:1010E00036010B002B010B0020010B00150109003C
:1010F0000C01090003010800FB000800F3000800D0
:10110000EB000700E4000600DE000600D800060041
:10111000D2000600CC000500C7000500C200050093
:10112000BD000400B9000400B5000400B1000400D3
:10113000AD000400A9000400A5000300A200030004
:101140009F0004009B00030098000300950002002C
:1011500093000300900003008D0002008B00030049
:101160008800020086000200840003008100020063
:101170007F0002007D0002007B0002007900020077
:101180007700010076000200740002007200010086
:10119000710002006F0002006D0001006C0002008F
:1011A0006A0001006900020067000100660001009A
:1011B000650001006400020062000100610001009E
:1011C000600001005F0002005D0001005C000100A2
:1011D0005B0001005A0001005900010058000100A5
:1011E00057000100560001005500010054000100A5
:1011F00053000000530001005200010051000100A3
:10120000500001004F0001004E0000004E000100A0
:101210004D0001004C0001004B0000004B0001009C
:101220004A00010049000100480000004800010098
:101230004700010046000000460001004500000094
:10124000450001004400010043000000430001008C
:101250004200000042000100410000004100010086
:10126000400001003F0000003F0001003E00000080
:101270003E0001003D0000003D0001003C00000078
:101280003C0000003C0001003B0000003B0001006E
:101290003A0000003A000100390000003900010066
:1012A000380000003800000038000100370000005E
:1012B0003700010036000000360000003600010053
:1012C000350000003500000035000100340000004A
:1012D000340000003400010033000000330000003F
:1012E0003300010032000000320000003200010033
:1012F000310000003100000031000100300000002A
:1013000030000000300001002F0000002F0000001E
:101310002F0000002F0001002E0000002E00000012
:101320002E0001002D0000002D0000002D00000007
:101330002D0001002C0000002C0000002C000000FB
:101340002C0001002B0000002B0000002B000000EF
:101350002B0001002A0000002A0000002A000000E3
:101360002A000100290000002900000029000000D7
:1013700029000000290001002800000028000000CA
:1013800028000000280000002800010027000000BD
:1013900027000000270000002700000027000100B0
:1013A00026000000260000002600000026000000A5
:1013B0002600010025000000250000002500000097
:1013C0002500000025000000250001002400000089
:1013D000240000002400000024000000240001007C
:1013E0002300000023000000230000002300000071
:1013F0002300000023000000230001002200000061
:101400002200000022000000220000002200000054
:101410002200010021000000210000002100000046
:101420002100000021000000210000002100010037
:10143000200000002000000020000000200000002C
:10144000200000002000000020000000200001001B
:101450001F0000001F0000001F0000001F00000010
:101460001F0000001F0000001F0001001E00000000
:101470001E0000001E0000001E0000004543484FF3
:101480003E0054656D7065726174757265206865A3
:10149000617465642062656420737769746368654C
:1014A00064206F66662E204D415854454D5020747F
:1014B0007269676765726564202121003A2045786A
:1014C00074727564657220737769746368656420EB
:1014D0006F66662E204D494E54454D5020747269FA
:1014E0006767657265642021003A204578747275DB
:1014F000646572207377697463686564206F6666DB
:101500002E204D415854454D5020747269676765CF
:10151000726564202100202D20496E76616C69641B
:10152000206578747275646572206E756D6265727F
:10153000202100504944204175746F74756E6520F8
:1015400066696E69736865642120507574207468DB
:1015500065206C617374204B702C204B6920616E88
:1015600064204B6420636F6E7374616E74732066C5
:10157000726F6D2061626F766520696E746F2043B3
:101580006F6E66696775726174696F6E2E68005060
:101590004944204175746F74756E65206661696C8D
:1015A0006564212074696D656F75740020403A0090
:1015B0006F6B20543A006F6B20423A005049442030
:1015C0004175746F74756E65206661696C65642120
:1015D0002054656D706572617475726520746F6FEB
:1015E000206869676800204B643A2000204B693A04
:1015F0002000204B703A200020436C6173736963B4
:101600002050494420002054753A2000204B753A60
:101610002000206D61783A2000206D696E3A20002C
:1016200020643A200020626961733A2000455252DA
:101630004F523E001000C90210012C01400122014E
:1016400070011801B0010E01F00104015002FA000E
:10165000B002F0003003E600D003DC009004D200BA
:101660007005C800A006BE000008B400B009AA00BA
:10167000D00BA000600E960060118C000015820057
:1016800020197800C01D6E00A0226400B0275A0007
:10169000902C500000314600E0343C0010383200FD
:1016A000903A2800603C1E00A03D1400803E0A00D5
:1016B000203F00000A00207A3A200020793A2000DA
:1016C00020783A200000000A0B02090C0D0E0807D2
:1016D0000304010000000000000000000000000002
:1016E00000000000000000000000000000000000FA
:1016F00000121110000000000000000000000000B7
:101700000000000000000000000000010210202086
:101710000808102040102040800201020108040245
:1017200001010204081020408080402010080402BB
:101730000180040201804020100804020108040214
:10174000010102040810204080010204081020401A
:101750008005050505070508080808020202020AB7
:101760000A08080404040401010101010101010344
:1017700003030303030303040707070C0C0C0C0CFF
:101780000C0C0C0202020206060606060606060BF2
:101790000B0B0B0B0B0B0B0000200023002600296A
:1017A000002C002F00320000010000030106010997
:1017B0000100002200250028002B002E00310034FB
:1017C0000002010000050108010B010000210024B6
:1017D0000027002A002D0030003300010100000422
:1017E0000107010A014E414E494E495459494E469E
:1017F000CDCCCC3D0AD7233C17B7D13877CC2B3290
:101800009595E6241FB14F0A000020410000C84210
:1018100000401C4620BCBE4CCA1B0E5AAEC59D746F
:10182000DC0C174411241FBECFEFD1E2DEBFCDBFC9
:1018300000E00CBF14E0A0E0B2E0E6EFF8E301E066
:101840000BBF02C007900D92AC38B107D9F72FE05B
:10185000ACE8B4E001C01D92A430B207E1F718E192
:10186000C4E2D8E100E006C022970109FE010BBFE7
:101870000E94FE94C032D10780E00807A9F70E94B9
:10188000A88F0C94799C0C9400008091BB0490E08C
:101890002091BC04821B910908952091BC04809181
:1018A000BB04281750F4E22FF0E0E354FB4F808193
:1018B00090E02F5F2093BC0408958FEF9FEF089571
:1018C000E091BC048091BB04E81730F4F0E0E354ED
:1018D000FB4F808190E008958FEF9FEF089508956A
:1018E000CF92DF92EF92FF920F931F93CF93DF93EC
:1018F0007C01CB018A0120919804222389F0EB011D
:101900006B01C40ED51ECC15DD0569F06991D701B8
:10191000ED91FC910190F081E02DC7011995F3CF75
:10192000642F0E94E00CC801DF91CF911F910F91AD
:10193000FF90EF90DF90CF900895CF93DF931F92A9
:10194000CDB7DEB76983209198042223D1F020918E
:101950009904203240F021E030E0FC0133832283FF
:1019600080E090E015C080919A04E82FF0E0E55601
:10197000FB4F998190838F5F80939A0480939904A1
:1019800005C061E0CE0101960E94E00C81E090E08C
:101990000F90DF91CF910895FC011382128248EEDF
:1019A00053E060E070E044835583668377838BED7A
:1019B00092E09183808308958CE894E00C94CC0CA1
:1019C000613298F420914A05243089F46093FF0431
:1019D000FC0181E095E0DC012A2F281B261718F472
:1019E00021912D93F9CF80E0089581E0089582E060
:1019F000089585ED8093BC008091BC0084FDFCCFF0
:101A000010924A05089585EC8093BC0010924A0517
:101A100008951F920F920FB60F9211240BB60F92DA
:101A20002F933F934F935F936F937F938F939F93E6
:101A3000AF93BF93EF93FF938091B900887F803677
:101A400009F49CC068F5883209F45BC090F48031D9
:101A500009F454C038F4882309F4F5C0883009F437
:101A60004DC0F5C0883109F44CC0803209F45DC026
:101A7000EEC0803409F468C048F4803309F455C0DE
:101A8000883309F0E4C08093DD04A8C0803509F4F0
:101A90004FC0883509F45DC0883409F0D8C0D5C07E
:101AA000883909F4C6C0A8F4883709F467C038F447
:101AB000883609F463C0803709F460C0C8C088382C
:101AC00009F4B7C0803909F45FC0803809F0BFC09D
:101AD0005BC0803B09F485C038F4803A09F466C0E5
:101AE000883A09F47EC0B3C0803C09F4A6C0883CA3
:101AF00009F4A3C0883B09F489C0A9C080914905B5
:101B000010C09091220580912105981770F5E09101
:101B1000220581E08E0F80932205F0E0ED5DFA4F03
:101B200080818093BB0085EC85C08093DD048DC0EF
:101B3000E091220581E08E0F809322058091BB0009
:101B4000F0E0ED5DFA4F80839091220580912105B0
:101B50006DC0E091220581E08E0F80932205809177
:101B6000BB00F0E0ED5DFA4F808380914805811164
:101B70006CC081E08093470584EA60C083E0809375
:101B80004A051092DE04CFCF8091DE04803208F047
:101B900050C0E091DE0481E08E0F8093DE048091DE
:101BA000BB00F0E0E152FB4F8083BDCF8091DE04AB
:101BB000803230F4E091DE04F0E0E152FB4F10821D
:101BC0000E94F90C6091DE0470E0E0914305F09111
:101BD00044058FED94E019951092DE040E94030DE8
:101BE00036C084E080934A05109200051092FF04ED
:101BF000E0914505F091460519958091FF0481110A
:101C000005C081E08093FF0410920105E09100057A
:101C100081E08E0F80930005F0E0EF5FFA4F808146
:101C20008093BB00909100058091FF04981708F401
:101C30007ACF85E88093BC000AC085EC8093BC0015
:101C400010924A0504C01092DD040E94F90CFF9125
:101C5000EF91BF91AF919F918F917F916F915F9124
:101C60004F913F912F910F900BBE0F900FBE0F9091
:101C70001F901895EF92FF920F931F93CF93DF93CE
:101C80001F92CDB7DEB78C017B01460FF701619142
:101C90007F01F8018081918149830E94B29BF80104
:101CA0008081918101969183808349814E11EECF8D
:101CB0000F90DF91CF911F910F91FF90EF900895BA
:101CC000EF92FF920F931F93CF93DF931F92CDB7A5
:101CD000DEB78C017B01460FF80180819181498339
:101CE0000E94AA9BF70181937F01F8018081918175
:101CF00001969183808349814E11EECF0F90DF9141
:101D0000CF911F910F91FF90EF900895CF93DF93A4
:101D1000CDB7DEB72C970FB6F894DEBF0FBECDBFA0
:101D200022E632E03C872B872AE030E0AE014F5FAD
:101D30005F4F0E9444994AE0BE016F5F7F4FCE0122
:101D40000B960E943A0E2C960FB6F894DEBF0FBE8B
:101D5000CDBFDF91CF910895CF93DF93CDB7DEB79D
:101D60002C970FB6F894DEBF0FBECDBF2CE632E045
:101D70003C872B872AE030E0AE014F5F5F4F0E9427
:101D800044994AE0BE016F5F7F4FCE010B960E94DF
:101D90003A0E2C960FB6F894DEBF0FBECDBFDF9182
:101DA000CF910895CF93DF93CDB7DEB72C970FB6C1
:101DB000F894DEBF0FBECDBF26E732E03C872B870D
:101DC0002AE030E0AE014F5F5F4F0E9444994AE045
:101DD000BE016F5F7F4FCE010B960E943A0E2C968C
:101DE0000FB6F894DEBF0FBECDBFDF91CF9108953F
:101DF000CF93DF93CDB7DEB72C970FB6F894DEBF45
:101E00000FBECDBF20E832E03C872B872AE030E0D0
:101E1000AE014F5F5F4F0E9444994AE0BE016F5F81
:101E20007F4FCE010B960E943A0E2C960FB6F89477
:101E3000DEBF0FBECDBFDF91CF910895CF93DF936B
:101E4000CDB7DEB72C970FB6F894DEBF0FBECDBF6F
:101E500024E932E03C872B872AE030E0AE014F5F77
:101E60005F4F0E9444994AE0BE016F5F7F4FCE01F1
:101E70000B960E943A0E2C960FB6F894DEBF0FBE5A
:101E8000CDBFDF91CF910895CF93DF93CDB7DEB76C
:101E90002C970FB6F894DEBF0FBECDBF82E692E05E
:101EA0009C878B874AE0BE016F5F7F4FCE010B9608
:101EB0000E94600E4AE050E060E070E0CE010196C2
:101EC0000E94BD972C960FB6F894DEBF0FBECDBF13
:101ED000DF91CF910895CF93DF93CDB7DEB72C97E5
:101EE0000FB6F894DEBF0FBECDBF8CE692E09C87A4
:101EF0008B874AE0BE016F5F7F4FCE010B960E9439
:101F0000600E4AE050E060E070E0CE0101960E9471
:101F1000BD972C960FB6F894DEBF0FBECDBFDF91F4
:101F2000CF910895CF93DF93CDB7DEB72C970FB63F
:101F3000F894DEBF0FBECDBF86E792E09C878B870B
:101F40004AE0BE016F5F7F4FCE010B960E94600E8C
:101F50004AE050E060E070E0CE0101960E94BD973B
:101F60002C960FB6F894DEBF0FBECDBFDF91CF9198
:101F70000895CF93DF93CDB7DEB72C970FB6F894C3
:101F8000DEBF0FBECDBF80E892E09C878B874AE022
:101F9000BE016F5F7F4FCE010B960E94600E4AE03C
:101FA00050E060E070E0CE0101960E94BD972C9653
:101FB0000FB6F894DEBF0FBECDBFDF91CF9108956D
:101FC000CF93DF93CDB7DEB72C970FB6F894DEBF73
:101FD0000FBECDBF84E992E09C878B874AE0BE01AB
:101FE0006F5F7F4FCE010B960E94600E4AE050E07B
:101FF00060E070E0CE0101960E94BD972C960FB66E
:10200000F894DEBF0FBECDBFDF91CF9108950F933F
:102010001F93CF93DF93CDB7DEB768970FB6F894D1
:10202000DEBF0FBECDBF80E390E3A0E3B0E08D83C1
:102030009E83AF83B88704E610E0188F0F8B44E0CF
:10204000BE016B5F7F4FCE0147960E943A0E40E182
:1020500067E97DE0CE0147960E943A0E40E167EACB
:102060007DE0CE0147960E943A0E40E167E87DE0B0
:10207000CE0147960E943A0E44E06FE77DE0CE0124
:1020800047960E943A0E44E06BE77DE0CE0147960A
:102090000E943A0E44E063E87DE0CE0147960E943C
:1020A0003A0E44E06BE67DE0CE0147960E943A0E80
:1020B00044E067EB7DE0CE0147960E943A0E44E093
:1020C00067E77DE0CE0147960E943A0E44E063E761
:1020D0007DE0CE0147960E943A0E44E06FE67DE037
:1020E000CE0147960E943A0E4CE069E776E0CE01B9
:1020F00047960E943A0E88EC90E09E8B8D8B86E48A
:1021000090E09C8B8B8B8FEF90E09A8B898B2CEDE2
:1021100030E0388B2F871E870D879C878B8742E0A6
:10212000BE016B5E7F4FCE0147960E943A0E42E0A1
:10213000BE016D5E7F4FCE0147960E943A0E42E08F
:10214000BE016F5E7F4FCE0147960E943A0E42E07D
:10215000BE01615F7F4FCE0147960E943A0E42E07A
:10216000BE01635F7F4FCE0147960E943A0E42E068
:10217000BE01655F7F4FCE0147960E943A0E44E054
:1021800066E676E0CE0147960E943A0E44E063EAA6
:1021900072E0CE0147960E943A0E44E06FE972E089
:1021A000CE0147960E943A0E44E06BE972E0CE0100
:1021B00047960E943A0E80E290E09A87898742E033
:1021C000BE01675F7F4FCE0147960E943A0E86E5BB
:1021D00091E3A0E3B0E089839A83AB83BC83188F3B
:1021E0000F8B44E0BE016F5F7F4FCE0147960E9488
:1021F0003A0EE6E8F4E08491882341F09091C00023
:1022000095FFFCCF8093C6003196F5CFE6E7F4E06A
:102210008491882341F09091C00095FFFCCF80937A
:10222000C6003196F5CF8091C00085FFFCCF8AE0D3
:102230008093C60068960FB6F894DEBF0FBECDBF80
:10224000DF91CF911F910F910895CF93DF93C6E84F
:10225000D4E0FE018491882341F09091C00095FF65
:10226000FCCF8093C6003196F5CFE6E6F4E084918A
:10227000882341F09091C00095FFFCCF8093C60069
:102280003196F5CF8091C00085FFFCCF8AE0809326
:10229000C600FE018491E6E8F4E0882349F09091BD
:1022A000C00095FFFCCF8093C60031968491F5CF96
:1022B0004091970D5091980D6091990D70919A0DE4
:1022C0008EE594E00E94601C40919B0D50919C0D06
:1022D00060919D0D70919E0D8BE594E00E94601CB5
:1022E00040919F0D5091A00D6091A10D7091A20D94
:1022F00088E594E00E94601C4091A30D5091A40DCC
:102300006091A50D7091A60D85E594E00E94601C7A
:102310008091C00085FFFCCF8AE08093C600FE015B
:102320008491E6E8F4E0882349F09091C00095FF9D
:10233000FCCF8093C60031968491F5CFEBE3F4E0B7
:102340008491882341F09091C00095FFFCCF809349
:10235000C6003196F5CF8091C00085FFFCCF8AE0A2
:102360008093C600FE018491E6E8F4E0882349F0FA
:102370009091C00095FFFCCF8093C6003196849168
:10238000F5CF4091A70D5091A80D6091A90D7091C6
:10239000AA0D82E394E00E94601C4091AB0D509125
:1023A000AC0D6091AD0D7091AE0D8FE294E00E9486
:1023B000601C4091AF0D5091B00D6091B10D7091C6
:1023C000B20D8CE294E00E94601C4091B30D5091DC
:1023D000B40D6091B50D7091B60D89E294E00E9444
:1023E000601C8091C00085FFFCCF8AE08093C6000E
:1023F000FE018491E6E8F4E0882349F09091C00062
:1024000095FFFCCF8093C60031968491F5CFEBE029
:10241000F4E08491882341F09091C00095FFFCCFB7
:102420008093C6003196F5CF8091C00085FFFCCF28
:102430008AE08093C600FE018491E6E8F4E08823F8
:1024400049F09091C00095FFFCCF8093C600319673
:102450008491F5CF4091870D5091880D6091890D41
:1024600070918A0D82E094E00E94721C40918B0D65
:1024700050918C0D60918D0D70918E0D8FEF93E0CA
:102480000E94721C40918F0D5091900D6091910DA2
:102490007091920D8CEF93E00E94721C4091930D0D
:1024A0005091940D6091950D7091960D89EF93E088
:1024B0000E94721C8091C00085FFFCCF8AE080934F
:1024C000C600FE018491E6E8F4E0882349F090918B
:1024D000C00095FFFCCF8093C60031968491F5CF64
:1024E000E4ECF3E08491882341F09091C00095FFE3
:1024F000FCCF8093C6003196F5CF8091C00085FF58
:10250000FCCF8AE08093C600FE018491E6E8F4E007
:10251000882349F09091C00095FFFCCF8093C600BE
:1025200031968491F5CF40917F0D5091800D60914F
:10253000810D7091820D8BEB93E00E94601C4091A5
:102540007B0D50917C0D60917D0D70917E0D88EB1F
:1025500093E00E94601C8091C00085FFFCCF8AE060
:102560008093C600FE018491E6E8F4E0882349F0F8
:102570009091C00095FFFCCF8093C6003196849166
:10258000F5CFE5E0F3E08491882341F09091C0001D
:1025900095FFFCCF8093C6003196F5CF8091C000A7
:1025A00085FFFCCF8AE08093C600FE018491E6E8B7
:1025B000F4E0882349F09091C00095FFFCCF809310
:1025C000C60031968491F5CF4091830D5091840DD2
:1025D0006091850D7091860D8CEF92E00E94601CD9
:1025E00040916B0D50916C0D60916D0D70916E0D61
:1025F00089EF92E00E94601C4091B70D5091B80D98
:102600006091B90D7091BA0D86EF92E00E94721C34
:102610004091770D5091780D6091790D70917A0D00
:1026200083EF92E00E94601C4091730D5091740DF5
:102630006091750D7091760D80EF92E00E94601CA4
:1026400040916F0D5091700D6091710D7091720DF0
:102650008DEE92E00E94601C8091C00085FFFCCF4F
:102660008AE08093C600FE018491E6E8F4E08823C6
:1026700049F09091C00095FFFCCF8093C600319641
:102680008491F5CFEBEDF2E08491882341F09091B5
:10269000C00095FFFCCF8093C6003196F5CF8091A6
:1026A000C00085FFFCCF8AE08093C600FE018491C4
:1026B000E6E8F4E0882349F09091C00095FFFCCF54
:1026C0008093C60031968491F5CF40917906509160
:1026D0007A0660917B0670917C0682ED92E00E9402
:1026E000601C40917D0650917E0660917F0670913E
:1026F00080068FEC92E00E94601C40918106509110
:10270000820660918306709184068CEC92E00E94B0
:10271000601C8091C00085FFFCCF8AE08093C600DA
:10272000FE018491E6E8F4E0882349F09091C0002E
:1027300095FFFCCF8093C60031968491F5CFEEEBE8
:10274000F2E08491882341F09091C00095FFFCCF86
:102750008093C6003196F5CF8091C00085FFFCCFF5
:102760008AE08093C600FE01C491E6E8F4E0CC2341
:1027700049F08091C00085FFFCCFC093C600319620
:10278000C491F5CF4091A3025091A4026091A5029B
:102790007091A60284EB92E00E94601C60919F02FF
:1027A0007091A0028091A1029091A2020E94E38602
:1027B000AB01BC0181EB92E00E94601C60919B0226
:1027C00070919C0280919D0290919E020E94F186E0
:1027D000AB01BC018EEA92E00E94601C8091C000B7
:1027E00085FFFCCF8AE08093C600DF91CF910895EA
:1027F000AF92BF92CF92DF92EF92FF920F931F930F
:10280000CF93DF93CDB7DEB7E0970FB6F894DEBF76
:102810000FBECDBF80E1E7EAF2E0DE0191960190C4
:102820000D928A95E1F780E1E7EBF2E0DE01519647
:1028300001900D928A95E1F780E1E7ECF2E0DE018C
:10284000119601900D928A95E1F76E0181E2C80E12
:10285000D11C87E9E82E8DE0F82E8E010F5E1F4F08
:1028600067EA7DE0AE014F5F5F4F97E8A92E9DE0DC
:10287000B92E24E030E0F60181919191A191B191BE
:102880006F01F70181939193A193B1937F01F801B7
:1028900081919191A191B1918F01FB0181939193CC
:1028A000A193B193BF01FA0181919191A191B1914D
:1028B000AF01F50181939193A193B1935F012150F1
:1028C0003109C9F60E94E65A80E090E8ABE3B5E42E
:1028D00080937F0D9093800DA093810DB093820D16
:1028E00080937B0D90937C0DA0937D0DB0937E0D16
:1028F0001092830D1092840D1092850D1092860D0A
:1029000080E29EE4A0E0B0E08093B70D9093B80D14
:10291000A093B90DB093BA0D10926B0D10926C0D7F
:1029200010926D0D10926E0D80E090E0A0EAB1E47F
:102930008093770D9093780DA093790DB0937A0DD5
:102940008DEC9CECACECBEE38093730D9093740D16
:10295000A093750DB093760D80E090E0A0EAB0E40E
:1029600080936F0D9093700DA093710DB093720DC5
:1029700010928106109282061092830610928406AD
:1029800010927D0610927E0610927F0610928006AD
:102990001092790610927A0610927B0610927C06AD
:1029A0000E94E00F0E947B9120E034E244E759E46A
:1029B0000E94E09020E030E0A9010E940090609326
:1029C000660670936706809368069093690680E0B8
:1029D00090E0ACEAB1E48093A3029093A402A093A8
:1029E000A502B093A6026AE979E989E99FE30E940A
:1029F000DC8660939F027093A0028093A102909363
:102A0000A20260E070E08CE593E40E94EA866093A5
:102A10009B0270939C0280939D0290939E020E9461
:102A20004F7D80E090E0A0E8BFE380939702909311
:102A30009802A0939902B0939A02E0960FB6F89488
:102A4000DEBF0FBECDBFDF91CF911F910F91FF90E1
:102A5000EF90DF90CF90BF90AF900895CF93DF932A
:102A6000CDB7DEB768970FB6F894DEBF0FBECDBF07
:102A700084E690E0988F8F8B86E591E3A0E3B0E049
:102A800089839A83AB83BC8344E0BE016B5F7F4F35
:102A9000CE0147960E94600E43E050E0BE016B5F9E
:102AA0007F4FCE0101960E943699892B09F0ADC067
:102AB00040E167E97DE0CE0147960E94600E40E16B
:102AC00067EA7DE0CE0147960E94600E40E167E82C
:102AD0007DE0CE0147960E94600E0E94E65A44E0D7
:102AE0006FE77DE0CE0147960E94600E44E06BE701
:102AF0007DE0CE0147960E94600E44E063E87DE0F1
:102B0000CE0147960E94600E44E06BE67DE0CE0168
:102B100047960E94600E44E067EB7DE0CE01479649
:102B20000E94600E44E067E77DE0CE0147960E9478
:102B3000600E44E063E77DE0CE0147960E94600EA0
:102B400044E06FE67DE0CE0147960E94600E4CE0C7
:102B500069E776E0CE0147960E94600E42E0BE0132
:102B60006B5E7F4FCE0147960E94600E42E0BE0131
:102B70006D5E7F4FCE0147960E94600E42E0BE011F
:102B80006F5E7F4FCE0147960E94600E42E0BE010D
:102B9000615F7F4FCE0147960E94600E42E0BE010A
:102BA000635F7F4FCE0147960E94600E42E0BE01F8
:102BB000655F7F4FCE0147960E94600E44E066E657
:102BC00076E0CE0147960E94600E44E063EA72E030
:102BD000CE0147960E94600E44E06FE972E0CE019C
:102BE00047960E94600E44E06BE972E0CE01479682
:102BF0000E94600E42E0BE01675F7F4FCE014796A4
:102C00000E94600E0E944F7D02C00E94F8136896D9
:102C10000FB6F894DEBF0FBECDBFDF91CF91089500
:102C2000FC0165917591859194910895CF932091C0
:102C300024023091250237FD31C0C5E0C29FC0019A
:102C4000C39F900D112460E070E0845B9A4F0E9456
:102C5000CA6E60911E0270911F0220912402309171
:102C60002502C29FC001C39F900D1124845B9A4F1F
:102C70000E94116F6CE271E080E090E00E946B8D29
:102C80002091240230912502C29FC001C39F900D64
:102C90001124845B9A4FCF910C94D06ECF910895FC
:102CA000CF93209124023091250237FD31C0C5E039
:102CB000C29FC001C39F900D112460E070E0845B4F
:102CC0009A4F0E94CA6E60911C0270911D02209161
:102CD000240230912502C29FC001C39F900D112490
:102CE000845B9A4F0E94116F6CE271E080E090E08B
:102CF0000E946B8D2091240230912502C29FC00159
:102D0000C39F900D1124845B9A4FCF910C94D06E89
:102D1000CF910895CF92DF92EF92FF920F931F937E
:102D2000CF93DF93CDB7DEB7EC970FB6F894DEBF45
:102D30000FBECDBFFC01048115812681378130583B
:102D400040815181628173817058C12CD12C80E8FF
:102D5000E82E8FE3F82ECE010D960E94F88667EEDE
:102D600072E0CE010D960E947688CD84DE84EF84D9
:102D7000F88809891A892B893C894D895E896F8970
:102D8000788DCE0149960E94728984E2FE0179967F
:102D9000ACE5B2E001900D928A95E1F7CE01019683
:102DA0000E94125969817A818B819C81609385068A
:102DB0007093860680938706909388062D813E81C6
:102DC0004F8158852093890630938A0640938B065D
:102DD00050938C06E984FA840B851C85E0928D065D
:102DE000F0928E0600938F0610939006E1E9CE2EA6
:102DF000E6E0DE2E0E94C159EC960FB6F894DEBFD5
:102E00000FBECDBFDF91CF911F910F91FF90EF903B
:102E1000DF90CF90089580910F0290911002A091C1
:102E20001102B091120280933E0690933F06A09348
:102E30004006B093410680913A0290913B029093F4
:102E400096068093950684E690E090933B028093EB
:102E50003A020E943C8D60935F05709360058093F9
:102E600061059093620581E00C94897080E00E9476
:102E7000897080913E0690913F06A0914006B091E6
:102E8000410680930F0290931002A0931102B09319
:102E90001202809195069091960690933B02809342
:102EA0003A020E943C8D60935F05709360058093A9
:102EB00061059093620508954F925F926F927F92A1
:102EC0008F929F92AF92BF92CF92DF92EF92FF923A
:102ED0000F931F9340900F025090100260901102C8
:102EE00070901202812CF0E89F2EFBEBAF2EF5E4E0
:102EF000BF2E80920F0290921002A0921102B09207
:102F000012026093850670938606809387069093DD
:102F100088062093890630938A0640938B06509347
:102F20008C06E0928D06F0928E0600938F06109329
:102F30009006E5E6F6E0FF93EF93812C912CA8EC48
:102F4000AA2EA2E4BA2EB1E9CB2EB6E0DB2E0E9467
:102F5000C74E0E94937A40920F02509210026092E4
:102F60001102709212020F900F901F910F91FF901B
:102F7000EF90DF90CF90BF90AF909F908F907F9019
:102F80006F905F904F9008954F925F926F927F92F3
:102F90008F929F92AF92BF92CF92DF92EF92FF9269
:102FA0000F931F93CF93DF938CE592E00E944889A3
:102FB00060914402709145028091460290914702CF
:102FC00060930F027093100280931102909312028B
:102FD00020E030E040E752E40E94E0904B015C01C9
:102FE0002091890630918A0640918B0650918C067B
:102FF000609185067091860680918706909188067B
:10300000C5E6D6E0DF93CF9301E9C02E06E0D02ECF
:10301000E12CF12C00EA11EC0E94C74E0E94937A39
:10302000809109010F900F9084FF1BC0ECE1FCE040
:103030008491882341F09091C00095FFFCCF80934C
:10304000C6003196F5CFEEECF5E08491882309F4C3
:103050001EC19091C00095FFFCCF8093C6003196B1
:10306000F4CF82E00E94FA7A2B013C01209189067C
:1030700030918A0640918B0650918C0660918506AE
:1030800070918606809187069091880611E9C12E7D
:1030900016E0D12E830172010E94C15986ED9BE09A
:1030A0000E9410169B01AC01C301B2010E94009066
:1030B0002B013C0120E030E040E752E460910F0238
:1030C0007091100280911102909112020E94E09082
:1030D0004B015C012091890630918A0640918B0654
:1030E00050918C06609185067091860680918706C6
:1030F00090918806DF93CF93830172010E94C74E9F
:103100000E94937A809109010F900F9084FD2CC04A
:10311000ECE1FCE08491882341F09091C00095FFA0
:10312000FCCF8093C6003196F5CFEDE7F5E08491B2
:10313000882341F09091C00095FFFCCF8093C6009A
:103140003196F5CFDF91CF911F910F91FF90EF90C6
:10315000DF90CF90BF90AF909F908F907F906F90B7
:103160005F904F900C94827020E030E040E85EE386
:10317000609144027091450280914602909147020D
:103180000E94AE934B015C0160930F02709310029A
:10319000809311029093120286ED9BE00E9410161C
:1031A0006B017C0120E030E040E752E4C501B4014E
:1031B0000E94E0904B015C01A7019601C701B60196
:1031C0000E9400909B01AC01C301B2010E94FF8FDD
:1031D0007B018C012091890630918A0640918B06F3
:1031E00050918C06609185067091860680918706C5
:1031F00090918806DF93CF93D1E9CD2ED6E0DD2ED6
:103200000E94C74E0E94937A809109010F900F90FF
:1032100084FF1AC0ECE1FCE08491882341F0909196
:10322000C00095FFFCCF8093C6003196F5CFEDE24C
:10323000F5E08491882359F19091C00095FFFCCF6F
:103240008093C6003196F5CF82E00E94FA7A7B0126
:103250008C0160938D0670938E0680938F069093F9
:1032600090062091890630918A0640918B065091F4
:103270008C066091850670918606809187069091F4
:103280008806C1E9CC2EC6E0DC2E0E94C159DF9130
:10329000CF911F910F91FF90EF90DF90CF90BF9053
:1032A000AF909F908F907F906F905F904F90089518
:1032B0002F923F924F925F926F927F928F929F9246
:1032C000AF92BF92CF92DF92EF92FF920F931F9334
:1032D000CF93DF9300D01F92CDB7DEB71C01FC0166
:1032E000E553F44F74909C01220F331F220F331FBC
:1032F0003C832B83F901EB57F94F10821182128224
:1033000013820E94AC7B81111EC0E0908D06F0906C
:103310008E0600918F0610919006209189063091BB
:103320008A0640918B0650918C06609185067091BB
:1033300086068091870690918806E1E9CE2EE6E028
:10334000DE2E0E94C1598B819C818652944F0E942F
:1033500010164B015C01672D772767FD7095872F4D
:10336000972F0E947B912B013C010B811C810E5AEF
:10337000194F20E030E040EC5FE3C501B4010E944A
:10338000AE93A30192010E94AE93F8016083718312
:1033900082839383EB81FC81E45CFD4F808191818A
:1033A000A281B38180930F0290931002A093110227
:1033B000B09312020E94AC7B811174C020E030E017
:1033C00040E752E460910F02709110028091110267
:1033D000909112020E94E0904B015C01E0905A062D
:1033E000F0905B0600915C0610915D0620915606F8
:1033F00030915706409158065091590660915206F7
:10340000709153068091540690915506E5E6F6E0DA
:10341000FF93EF93BEE5CB2EB6E0DB2E0E94C74EA6
:103420000E94937A0E9475700F900F9081113AC09C
:10343000F2E02F163104D9F4ECE1FCE0849188230A
:1034400041F09091C00095FFFCCF8093C60031966B
:10345000F5CFE9E1F9E08491882309F41AC290914B
:10346000C00095FFFCCF8093C6003196F4CFECE10D
:10347000FCE08491882341F09091C00095FFFCCF3F
:103480008093C6003196F5CFE3EDF8E08491882370
:1034900009F4FFC19091C00095FFFCCF8093C60056
:1034A0003196F4CFEB81FC81EB57F94F10821182FA
:1034B000128213820E94AC7B81111EC0E0908D06A7
:1034C000F0908E0600918F0610919006209189064B
:1034D00030918A0640918B0650918C06609185064A
:1034E000709186068091870690918806A1E9CA2E80
:1034F000A6E0DA2E0E94C1592B813C812253344F21
:103500003A832983C9010E9410160B811C810E5A2F
:10351000194F9058A30192010E94AE93F801608365
:103520007183828393830E94AC7B81119EC020E0D3
:1035300030E040E752E460910F02709110028091F8
:103540001102909112020E94E0904B015C01E09008
:103550005A06F0905B0600915C0610915D06209182
:103560005606309157064091580650915906609181
:103570005206709153068091540690915506E5E6E7
:10358000F6E0FF93EF93FEE5CF2EF6E0DF2E0E94EC
:10359000C74E0E94937A0F900F90F1E02F163104DE
:1035A00029F122E02216310409F441C0211431042A
:1035B00009F05BC01C9959C0ECE1FCE084918823C0
:1035C00041F09091C00095FFFCCF8093C6003196EA
:1035D000F5CFE5E9F8E084918823B1F09091C0003F
:1035E00095FFFCCF8093C6003196F5CF80910901FD
:1035F00087FD3BC0ECE1FCE08491811108C0E7E568
:10360000F8E0849181110BC00E9482702EC09091CD
:10361000C00095FFFCCF8093C6003196EDCF90910E
:10362000C00095FFFCCF8093C6003196EACF809111
:10363000090185FD1AC0ECE1FCE08491882341F08A
:103640009091C00095FFFCCF8093C6003196F5CFD6
:10365000E9E1F8E084918823B9F29091C00095FFE8
:10366000FCCF8093C6003196F5CF89819A810E9464
:1036700010160B811C810E5A194F9B01AC010E9440
:103680000090A30192010E94AE93F80160837183C0
:103690008283938320E030E040E05FE3EB81FC81B4
:1036A000E45CFD4F60817181828193810E94AE93C1
:1036B00060930F0270931002809311029093120294
:1036C0000E94AC7B811134C020E030E040E752E43E
:1036D00060910F027091100280911102909112027C
:1036E0000E94E0904B015C01E0905A06F0905B066E
:1036F00000915C0610915D062091560630915706A8
:1037000040915806509159066091520670915306A7
:103710008091540690915506E5E6F6E0FF93EF930D
:10372000EEE5CE2EE6E0DE2E0E94C74E0F900F9003
:103730000E94937A0E94AC7B811149C08B819C814D
:103740008A51944F0E9410162B813C812B57394F80
:1037500079010B811C810758194FF80120813181B3
:10376000428153810E940090F701608371838283BC
:1037700093838B819C818250944F0E9410162B81E1
:103780003C812359394F7901F801208131814281EF
:1037900053810E940090F701608371838283938339
:1037A0008B819C818E50944F0E9410162B813C81FE
:1037B0002A5D3D4F7901F801208131814281538199
:1037C0000E940090F70160837183828393830E943B
:1037D000AC7B811111C0EB81FC81EE5AF94FAB81BA
:1037E000BC81AB57B94F8D919D910D90BC91A02D8F
:1037F00080839183A283B38310920F0210921002F0
:1038000010921102109212020E94AC7B811102C030
:103810000E9482700E94AC7B811105C081E0F101A1
:10382000E659F94F8083F101EE0FFF1FDF01A05E23
:10383000BD4F2D913C9137FD10C0EE0FFF1FEA5E8A
:10384000FD4F6081718145E0429FC001439F900D13
:103850001124845B9A4F0E94116FF2E02F163104FD
:10386000C1F40F900F900F900F90DF91CF911F91A7
:103870000F91FF90EF90DF90CF90BF90AF909F900F
:103880008F907F906F905F904F903F902F900C940F
:1038900016160F900F900F900F90DF91CF911F9100
:1038A0000F91FF90EF90DF90CF90BF90AF909F90DF
:1038B0008F907F906F905F904F903F902F900895E2
:1038C000FC012491222341F03091C00035FFFCCF50
:1038D0002093C6000196F4CF22E030E08BE996E019
:1038E0000C944E46FC012491222341F03091C000FB
:1038F00035FFFCCF2093C6000196F4CF2AE030E0DC
:103900008BE996E00C949D45CF93DF931F921F9215
:10391000CDB7DEB78091FE0E9091FF0E9E012F5F16
:103920003F4F009719F424503F4002C0281B390B29
:103930003A83298389819A810F900F90DF91CF91EB
:1039400008950A9A129A0895FF920F931F93CF93A6
:10395000DF9369E070E08CE495E00E94CA6EC0E2FB
:10396000D2E006E112E0A5E0FA2E2991399137FD67
:103970000CC0F80160817181F29EC001F39E900D30
:103980001124845B9A4F0E94116F0C5F1F4FF2E06D
:10399000C632DF0751F76CE271E080E090E00E94F0
:1039A0006B8D209124023091250245E0429FC00199
:1039B000439F900D1124845B9A4FDF91CF911F910B
:1039C0000F91FF900C94D06E61E082E10E94488FCD
:1039D00060E082E10E940F8F61E088E00E940F8F1B
:1039E00060E088E00E94488F41E050E062E274E2CB
:1039F00085E00E94D48A0E94A11C40E052EC61E064
:103A000070E08BE996E00E945444EEE8FBE084917C
:103A1000882341F09091C00095FFFCCF8093C600B1
:103A20003196F5CF8091C00085FFFCCF8AE080936E
:103A3000C60086E19CE0FC012491222341F03091F4
:103A4000C00035FFFCCF2093C6003196F5CF24B7D8
:103A500020FF14C0E6E8FBE03491332341F04091AD
:103A6000C00045FFFCCF3093C6003196F5CF3091B2
:103A7000C00035FFFCCF3AE03093C60021FF14C0F0
:103A8000E6E7FBE03491332341F04091C00045FF6D
:103A9000FCCF3093C6003196F5CF3091C00035FF92
:103AA000FCCF3AE03093C60022FF14C0E5E6FBE00D
:103AB0003491332341F04091C00045FFFCCF309357
:103AC000C6003196F5CF3091C00035FFFCCF3AE00B
:103AD0003093C60023FF14C0E5E5FBE034913323A7
:103AE00041F04091C00045FFFCCF3093C6003196B5
:103AF000F5CF3091C00035FFFCCF3AE03093C600DF
:103B000025FF14C0E5E4FBE02491222341F030912D
:103B1000C00035FFFCCF2093C6003196F5CF209131
:103B2000C00025FFFCCF2AE02093C60014BEEEE2C1
:103B3000FBE02491222341F03091C00035FFFCCFFF
:103B40002093C6003196F5CFE7E2FBE024912223D3
:103B500041F03091C00035FFFCCF2093C600319674
:103B6000F5CF2091C00025FFFCCF2AE02093C600AE
:103B7000FC012491E6E1FCE0222349F03091C000F1
:103B800035FFFCCF2093C60031962491F5CFE7E1B5
:103B9000FBE02491222341F03091C00035FFFCCF9F
:103BA0002093C6003196F5CFE2E0FBE0249122237A
:103BB00041F03091C00035FFFCCF2093C600319614
:103BC000F5CFE6EFFAE02491222341F03091C000D6
:103BD00035FFFCCF2093C6003196F5CFE6EDFAE035
:103BE0002491222341F03091C00035FFFCCF209377
:103BF000C6003196F5CF2091C00025FFFCCF2AE00A
:103C00002093C600EAECFAE02491222341F030919F
:103C1000C00035FFFCCF2093C6003196F5CF209130
:103C2000C00025FFFCCF2AE02093C600FC01849150
:103C3000E6E1FCE0882349F09091C00095FFFCCFBD
:103C40008093C60031968491F5CFEBEBFAE0849136
:103C5000882341F09091C00095FFFCCF8093C6006F
:103C60003196F5CF0E94841C4AE050E0BC018BE9FC
:103C700096E00E946E45E4EAFAE08491882341F0E0
:103C80009091C00095FFFCCF8093C6003196F5CF90
:103C90004AE050E060E176E08BE996E00E946E45F4
:103CA0008091C00085FFFCCF8AE08093C60010920F
:103CB0006F05109270050E942E150E9430800E94A0
:103CC000604D0E940F7A0E94A41CFFEF23ED80E359
:103CD000F15020408040E1F700C00000089580913D
:103CE00063059091640560E070E001960C944C9639
:103CF00080916305909164054AE050E060E070E0D7
:103D000001960C94BD97682F772767FD70952091D9
:103D10006D0530916E0540E6429FC001439F900DB6
:103D200011248F589A4F0E942B9990936405809389
:103D3000630521E0892B09F420E0822F08956F921A
:103D40007F928F929F92AF92BF92CF92DF92EF922B
:103D5000FF920F931F93CF93DF93CDB7DEB72C97CE
:103D60000FB6F894DEBF0FBECDBF0E94937A8CE5EC
:103D700092E00E9448890E94440F0E947B9120E0BB
:103D800034E244E759E40E94E09069837A838B83AC
:103D90009C830E946B0F0E947B9120E034E244E7F9
:103DA00059E40E94E0906D837E838F8398870E9400
:103DB000920F0E947B9120E034E244E759E40E9494
:103DC000E09069877A878B879C87CE0101960E9455
:103DD0008A160E94B90FBDE8AB2EB6E0BB2E0E943A
:103DE0007B9120E034E244E759E40E94E090209186
:103DF00066063091670640916806509169060E94F8
:103E000000909B01AC01F5016081718182819381F9
:103E10000E94FF8F7B018C01F50160837183828397
:103E2000938389E8682E86E0782EF3012081318122
:103E30004281538195E8892E96E0992EF4016081A4
:103E4000718182819381E1E9CE2EE6E0DE2E0E942F
:103E5000C15980E090E0A1E6B5E480930F02909311
:103E60001002A0931102B0931202F501E080F180DC
:103E700002811381F3012081318142815381F40158
:103E800060817181828193810E94C1592C960FB605
:103E9000F894DEBF0FBECDBFDF91CF911F910F9180
:103EA000FF90EF90DF90CF90BF90AF909F908F905A
:103EB0007F906F9008950E943C8D60935F05709392
:103EC00060058093610590936205E1E2F5E08491DD
:103ED000882341F09091C00095FFFCCF8093C600ED
:103EE0003196F5CF8091C00085FFFCCF8AE08093AA
:103EF000C60008958BE996E00E94A644E4E2F5E04E
:103F00008491882341F09091C00095FFFCCF80936D
:103F1000C6003196F5CF4091360650913706609134
:103F20003806709139064F5F5F4F6F4F7F4F2AE021
:103F300030E08BE996E00E9447458091C00085FF04
:103F4000FCCF8AE08093C6000C945B1F8F929F92F7
:103F5000AF92BF92CF92DF92EF92FF920F931F9397
:103F6000CF93DF93F7E3EF2EF4E0FF2E05E816E0A2
:103F7000C2E5D6E0A7E9CA2EA6E0DA2EF7018191C4
:103F80007F010E94831E882319F10E946F1E4B013E
:103F90005C01F6018081811103C06091310601C08E
:103FA00061E070E080E090E00E947B91F801208168
:103FB0003181428153810E94AE939B01AC01C501C6
:103FC000B4010E940090688379838A839B8309C02F
:103FD000F80180819181A281B38188839983AA832A
:103FE000BB830C5F1F4F2496FFEFCF1ADF0A8BE3D2
:103FF000E81684E0F80611F686E40E94831E882302
:10400000D9F00E946F1E6B017C0160934206709391
:104010004306809344069093450620E030E0A901D2
:104020000E94DC92181644F4C0920F02D092100243
:10403000E0921102F0921202DF91CF911F910F9145
:10404000FF90EF90DF90CF90BF90AF909F908F90B8
:1040500008950E94A61F89E40E94831E882359F0B8
:104060000E946F1E60934606709347068093480631
:104070009093490608C01092460610924706109287
:104080004806109249068AE40E94831E882359F04C
:104090000E946F1E60934A0670934B0680934C06F5
:1040A00090934D06089510924A0610924B06109276
:1040B0004C0610924D060895CF92DF92EF92FF9238
:1040C000CF93DF93EC01C0906D06D0906E06E09028
:1040D0006F06F0907006A7019601688179818A8148
:1040E0009B810E94D99087FF04C0C882D982EA824E
:1040F000FB82C0907106D0907206E0907306F0903B
:104100007406A70196016C817D818E819F810E943A
:10411000D99087FF04C0CC82DD82EE82FF82C090FE
:104120007506D0907606E0907706F090780620E04D
:1041300030E040EA50E4C701B6010E94FF8F9B01C6
:10414000AC01688579858A859B850E94D99087FF17
:1041500004C0C886D986EA86FB86C0902602D09025
:104160002702E0902802F0902902A70196016881B9
:1041700079818A819B810E94DC92181624F4C8827E
:10418000D982EA82FB82C0902A02D0902B02E09072
:104190002C02F0902D02A70196016C817D818E8109
:1041A0009F810E94DC92181624F4CC82DD82EE827C
:1041B000FF82C0902E02D0902F02E0903002F0904B
:1041C0003102A7019601688579858A859B850E94C1
:1041D000DC92181624F4C886D986EA86FB86DF911D
:1041E000CF91FF90EF90DF90CF9008952F923F9264
:1041F0004F925F926F927F928F929F92AF92BF92F7
:10420000CF92DF92EF92FF920F931F93CF93DF93A2
:10421000CDB7DEB72C970FB6F894DEBF0FBECDBF7B
:1042200082E596E00E945C2081E00E94897020E097
:1042300030E040E253E46091DB0E7091DC0E80913F
:10424000DD0E9091DE0E0E94DC9218160CF055C126
:104250002091850630918606409187065091880608
:1042600029833A834B835C83209352063093530611
:1042700040935406509355064090890650908A0604
:1042800060908B0670908C064092560650925706AE
:10429000609258067092590680918D0690918E0614
:1042A000A0918F06B09190068D839E83AF83B887CF
:1042B00080935A0690935B06A0935C06B0935D06CC
:1042C00020E030E040E85FE3609191067091920653
:1042D00080919306909194060E94FF8F60935E06F2
:1042E00070935F06809360069093610685E6282EA2
:1042F00086E0382E3F922F92812C912C90EFA92EA0
:1043000091E4B92E2EE5C22E26E0D22EED80FE805D
:104310000F811885A301920169817A818B819C812B
:104320000E94C74E609152067091530680915406C8
:104330009091550660938506709386068093870654
:10434000909388068090560690905706A090580645
:10435000B09059068092890690928A06A0928B06A8
:10436000B0928C06C0905A06D0905B06E0905C0636
:10437000F0905D06C0928D06D0928E06E0928F0678
:10438000F092900620915E0630915F0640916006A3
:104390005091610629833A834B835C832093910675
:1043A00030939206409393065093940620E030E0B9
:1043B00040E251E40E9400902B013C0160935206C0
:1043C00070935306809354069093550620E030E096
:1043D00040E251E4C501B4010E9400906D837E83E8
:1043E0008F8398876093560670935706809358067C
:1043F0009093590620E030E040E85FE3C701B60142
:104400000E94009069877A878B879C8760935A0601
:1044100070935B0680935C0690935D0620E030E02D
:1044200040EA50E469817A818B819C810E94FF8FF0
:1044300060935E0670935F068093600690936106BA
:104440003F922F92812C912C36E1A32E33E4B32E90
:104450004EE5C42E46E0D42EE984FA840B851C85F3
:104460002D813E814F815885C301B2010E94C74E04
:104470008091520690915306A0915406B091550632
:104480008093850690938606A0938706B09388064E
:104490008091560690915706A0915806B091590602
:1044A0008093890690938A06A0938B06B0938C061E
:1044B00080915A0690915B06A0915C06B0915D06D2
:1044C00080938D0690938E06A0938F06B0939006EE
:1044D00080915E0690915F06A0916006B0916106A2
:1044E0008093910690939206A0939306B0939406BE
:1044F0000F900F900F900F90B2C020E030E040E29C
:1045000051E46091850670918606809187069091AE
:1045100088060E9400902B013C0160935206709324
:104520005306809354069093550620E030E040E215
:1045300051E46091890670918A0680918B06909172
:104540008C060E94009069837A838B839C8360939E
:10455000560670935706809358069093590620E0AC
:1045600030E040E85FE360918D0670918E068091A7
:104570008F06909190060E94009060935A06709367
:104580005B0680935C0690935D0600919106109106
:104590009206209193063091940600935E06109344
:1045A0005F06209360063093610625E636E03F9370
:1045B0002F93812C912C16E1A12E13E4B12E0EE540
:1045C000C02E06E0D02E7B018C0129813A814B81DF
:1045D0005C81C301B2010E94C74E80915206909146
:1045E0005306A0915406B09155068093850690938A
:1045F0008606A0938706B093880680915606909110
:104600005706A0915806B091590680938906909359
:104610008A06A0938B06B0938C0680915A069091DF
:104620005B06A0915C06B0915D0680938D06909329
:104630008E06A0938F06B093900680915E069091AF
:104640005F06A0916006B0916106809391069093F9
:104650009206A0939306B09394060F900F909091BA
:104660002407809125079813FACF8CE592E00E94E9
:10467000488980910F0290911002A0911102B0918F
:10468000120280933E0690933F06A0934006B0939B
:10469000410680913A0290913B0290939606809356
:1046A000950684E690E090933B0280933A020E9444
:1046B0003C8D60935F0570936005809361059093D6
:1046C000620581E00E94897080918506909186063E
:1046D000A0918706B0918806809352069093530666
:1046E000A0935406B09355068091890690918A064E
:1046F000A0918B06B0918C06809356069093570636
:10470000A0935806B093590680918D0690918E061D
:10471000A0918F06B091900680935A0690935B0605
:10472000A0935C06B0935D068091910690919206ED
:10473000A0919306B091940680935E0690935F06D5
:10474000A0936006B093610610920F0210921002BF
:104750001092110210921202169A10926A06469A4C
:1047600010926B06409A10926C06139A82E090E0C9
:104770000E945819E0908D06F0908E0600918F06E9
:10478000109190062091890630918A0640918B06FF
:1047900050918C06609185067091860680918706FF
:1047A00090918806B1E9CB2EB6E0DB2E0E94C1596C
:1047B00080E00E94897080913E0690913F06A09112
:1047C0004006B091410680930F0290931002A0938F
:1047D0001102B093120280919506909196069093E3
:1047E0003B0280933A020E943C8D60935F05709378
:1047F000600580936105909362050E948270169A0D
:1048000010926A06469A10926B06409A10926C06B5
:10481000139A2C960FB6F894DEBF0FBECDBFDF9172
:10482000CF911F910F91FF90EF90DF90CF90BF90AD
:10483000AF909F908F907F906F905F904F903F9040
:104840002F90089565E070E080E090E00E946B8D0D
:1048500082E10E947E8F892B09F0FBC085E00E94D7
:10486000458B61E088E00E94488FE9EBFBE0849192
:10487000882341F09091C00095FFFCCF8093C60043
:104880003196F5CF8091C00085FFFCCF8AE0809300
:10489000C6000E94E8800E941B7BE6E1FCE0849158
:1048A000882341F09091C00095FFFCCF8093C60013
:1048B0003196F5CFE6EBFBE08491882341F09091AF
:1048C000C00095FFFCCF8093C6003196F5CF409194
:1048D000850650918606609187067091880622E0D1
:1048E00030E08BE996E00E944E46E2EBFBE08491DB
:1048F000882341F09091C00095FFFCCF8093C600C3
:104900003196F5CF4091890650918A0660918B06C9
:1049100070918C0622E030E08BE996E00E944E46D2
:10492000EEEAFBE08491882341F09091C00095FF6E
:10493000FCCF8093C6003196F5CF40918D06509103
:104940008E0660918F067091900622E030E08BE930
:1049500096E00E944E46EAEAFBE08491882341F00B
:104960009091C00095FFFCCF8093C6003196F5CFA3
:104970004091910650919206609193067091940631
:1049800022E030E08BE996E00E944E46E6EAFBE04A
:104990008491882341F09091C00095FFFCCF8093D3
:1049A000C6003196F5CFE091250781E6E89FF0013A
:1049B0001124EA5DF84F20E030E040E752E46089DE
:1049C0007189828993890E94AE93AB01BC0122E078
:1049D00030E08BE996E00E944E46E4EAFBE08491E9
:1049E000882341F09091C00095FFFCCF8093C600D2
:1049F0003196F5CF0E94A17B78940E94F620E0E1E9
:104A0000FCE08491882341F09091C00095FFFCCF99
:104A10008093C6003196F5CF41E050E062E274E247
:104A200085E00E94D48A0E94AF7BE4E9FBE0849198
:104A3000882341F09091C00095FFFCCF8093C60081
:104A40003196F5CF8091C00085FFFCCF8AE080933E
:104A5000C60008954F925F926F927F928F929F92BD
:104A6000AF92BF92CF92DF92EF92FF920F931F937C
:104A7000CF93DF93CDB7DEB728970FB6F894DEBF9C
:104A80000FBECDBF82E596E00E945C200E943C8D67
:104A900060935F0570936005809361059093620554
:104AA000209152063091530640915406509155067C
:104AB00029833A834B835C836091850670918606D7
:104AC00080918706909188060E94D9904090560662
:104AD00050905706609058067090590620915A06DB
:104AE00030915B0640915C0650915D062D833E83BC
:104AF0004F83588781118BC0A30192016091890671
:104B000070918A0680918B0690918C060E94D990B4
:104B100081117DC020E030E040E752E460910F0257
:104B20007091100280911102909112020E94E09007
:104B30004B015C0185E696E09F938F935EE5C52E61
:104B400056E0D52EED80FE800F811885A3019201DD
:104B500069817A818B819C810E94C74E0F900F9052
:104B60008091520690915306A0915406B09155063B
:104B70008093850690938606A0938706B093880657
:104B80008091560690915706A0915806B09159060B
:104B90008093890690938A06A0938B06B0938C0627
:104BA00080915A0690915B06A0915C06B0915D06DB
:104BB00080938D0690938E06A0938F06B0939006F7
:104BC00080915E0690915F06A0916006B0916106AB
:104BD0008093910690939206A0939306B0939406C7
:104BE00028960FB6F894DEBF0FBECDBFDF91CF91F0
:104BF0001F910F91FF90EF90DF90CF90BF90AF90FB
:104C00009F908F907F906F905F904F9008956091EC
:104C10003A0270913B02882777FD8095982F0E9479
:104C20007B9120910F02309110024091110250911E
:104C300012020E94AE9320E030E040E752E40E946E
:104C4000E09020E030E048EC52E470CFAF92BF92A9
:104C5000CF92DF92EF92FF920F931F93CF93DF9348
:104C6000D82F20914A0630914B0640914C06509126
:104C70004D066091460670914706809148069091D6
:104C800049060E94E992C62F172F082FF92E60912E
:104C90003A0270913B02882777FD8095982F0E94F9
:104CA0007B9120910F02309110024091110250919E
:104CB00012020E94AE9320E030E040E752E40E94EE
:104CC000E09020E030E048EC52E40E94E090209137
:104CD00065062F93DF93FF920F931F93CF935B0192
:104CE0006C0162E0E62E01E020E046E456E062E579
:104CF00076E085E896E00E945046809152069091B9
:104D00005306A0915406B091550680938506909362
:104D10008606A0938706B0938806809156069091E8
:104D20005706A0915806B091590680938906909332
:104D30008A06A0938B06B0938C0680915A069091B8
:104D40005B06A0915C06B0915D0680938D06909302
:104D50008E06A0938F06B093900680915E06909188
:104D60005F06A0916006B0916106809391069093D2
:104D70009206A0939306B09394060E943C8D609394
:104D80005F057093600580936105909362050F90B5
:104D90000F900F900F900F900F90DF91CF911F9178
:104DA0000F91FF90EF90DF90CF90BF90AF9008955C
:104DB000F8940E94E880169A10926A06469A109219
:104DC0006B06409A10926C06139A60E088E10E948C
:104DD0000F8FECE1FCE08491882341F09091C000BA
:104DE00095FFFCCF8093C6003196F5CFE2E0F5E069
:104DF0008491882341F09091C00095FFFCCF80936F
:104E0000C6003196F5CF8091C00085FFFCCF8AE0C7
:104E10008093C600FFCF2F923F925F926F927F9256
:104E20008F929F92AF92BF92CF92DF92EF92FF92BA
:104E30000F931F93CF93DF9370E6772EE2E0EE2E71
:104E4000F12CFDE52F2EF9E03F2EA1E66A2EBBE501
:104E5000CB2EB9E0DB2EC5E7AC2EC9E0BC2EDBEED5
:104E60008D2ED9E09D2E80911C0790911D072091D9
:104E70001E0730911F07821B930B8F779927892B71
:104E800009F4F1C28091690590916A0502970CF0CE
:104E9000EAC28BE996E00E948A44809368052091DB
:104EA0006605309167058A3061F08D3051F08A33A4
:104EB00021F490916505992321F02F3531050CF4EB
:104EC000F5C12115310519F410926505CCC2809108
:104ED0006B0590916C05789E8001799E100D1124D0
:104EE000F801E20FF31FEF58FA4F10822091650589
:104EF0002111D7C1FC01E159FA4F1082E801CF58C6
:104F0000DA4F6EE470E0CE010E942B990097E9F130
:104F100090936405809363058C1B9D0B800F911FFC
:104F20004AE050E060E070E08E589A4F0E94BD97D2
:104F300060933A0670933B0680933C0690933D063F
:104F40002091360630913706409138065091390647
:104F50002F5F3F4F4F4F5F4F00916B0510916C05D6
:104F6000621773078407950709F4BFC1709EC001DB
:104F7000719E900D112464E97AE08F589A4F0E9437
:104F80001199892B09F0B1C141C26AE270E0CE01EA
:104F90000E942B99892B09F444C0ECE1FCE0849138
:104FA000882341F09091C00095FFFCCF8093C6000C
:104FB0003196F5CFEEEEF9E08491882341F090919F
:104FC000C00095FFFCCF8093C6003196F5CF40918D
:104FD00036065091370660913806709139062AE0FE
:104FE00030E08BE996E00E9447458091C00085FF44
:104FF000FCCF8AE08093C600109267051092660588
:1050000032C280913A0690913B06A0913C06B09145
:105010003D068093360690933706A0933806B093EA
:10502000390680916B0590916C05789EE001799E20
:10503000D00D11248E010F581A4F67E470E0C8019B
:105040000E942B99009709F441C0909364058093C6
:105050006305801B910B8C0F9D1F60E070E08E58E4
:105060009A4F0E944C960E9448916430710570F5E9
:1050700080915105811114C0F4018491EBEEF9E0A7
:10508000882349F09091C00095FFFCCF8093C60023
:1050900031968491F5CF8091C00085FFFCCF13C07D
:1050A000F5018491E5E7F9E0882349F09091C0008B
:1050B00095FFFCCF8093C60031968491F5CF809107
:1050C000C00085FFFCCF8AE08093C60020916B056D
:1050D00030916C05729EC001739E900D112460E7A3
:1050E00079E08F589A4F0E941199892B09F4B4C026
:1050F0000E941B7BE6E1FCE08491882341F09091C3
:10510000C00095FFFCCF8093C6003196F5CFEDE649
:10511000F9E08491882341F09091C00095FFFCCF85
:105120008093C6003196F5CF409185065091860652
:10513000609187067091880622E030E08BE996E066
:105140000E944E46E9E6F9E08491882341F090916F
:10515000C00095FFFCCF8093C6003196F5CF4091FB
:10516000890650918A0660918B0670918C0622E028
:1051700030E08BE996E00E944E46E5E6F9E0849146
:10518000882341F09091C00095FFFCCF8093C6002A
:105190003196F5CF40918D0650918E0660918F0625
:1051A0007091900622E030E08BE996E00E944E4636
:1051B000E1E6F9E08491882341F09091C00095FFE9
:1051C000FCCF8093C6003196F5CF40919106509167
:1051D0009206609193067091940622E030E08BE98C
:1051E00096E00E944E46F1018491EDE5F9E08823B6
:1051F00049F09091C00095FFFCCF8093C600319696
:105200008491F5CFE09125076E9EF0011124EA5DAF
:10521000F84F20E030E040E752E4608971898289EC
:1052200093890E94AE93AB01BC0122E030E08BE990
:1052300096E00E944E46F6018491EBE5F9E0882362
:1052400049F09091C00095FFFCCF8093C600319645
:105250008491F5CF0E94A17BC0916B05D0916C0524
:105260007C9EC0017D9E900D112466E579E08F58EB
:105270009A4F0E941199892B11F00E94D826CE01D5
:105280000196B7010E94909490936C0580936B05F2
:105290008091690590916A05019690936A058093C3
:1052A00069051092670510926605DDCD8B3319F400
:1052B00091E090936505909165059111D4CD409151
:1052C0006B0550916C05B9016F5F7F4F7093670557
:1052D00060936605749EF001759EF00D1124E20F37
:1052E000F31FEF58FA4F8083BECD709EE001719E90
:1052F000D00D11248E010F581A4F6AE270E0C801D8
:105300000E942B99009791F5ECE1FCE084918823B1
:1053100041F09091C00095FFFCCF8093C60031967C
:10532000F5CFE8E1FAE08491882341F09091C00044
:1053300095FFFCCF8093C6003196F5CF409136069D
:105340005091370660913806709139062AE030E0B6
:105350008BE996E00E9447458091C00085FFFCCF15
:105360008AE08093C6000E947A1F46CE20E0512C2E
:10537000FE01E20FF11DEF58FA4F30813A3219F079
:105380002F5F5326F5CF9093640580936305801BB0
:10539000910B8C0F9D1F60E070E08E589A4F0E9419
:1053A0004C960E944891252D30E02617370709F4C6
:1053B00028CEECE1FCE08491882341F09091C0007C
:1053C00095FFFCCF8093C6003196F5CFE2E4FAE07A
:1053D0008491882341F09091C00095FFFCCF809389
:1053E000C6003196F5CF4091360650913706609150
:1053F0003806709139062AE030E08BE996E00E9489
:1054000047458091C00085FFFCCFAACFE0E1FCE0DA
:105410008491882341F09091C00095FFFCCF809348
:10542000C6003196F5CFE1E6FAE08491882341F099
:105430009091C00095FFFCCF8093C6003196F5CFC8
:1054400040913606509137066091380670913906C2
:105450002AE030E08BE996E00E9447458091C00049
:1054600085FFFCCF7DCFDF91CF911F910F91FF90F2
:10547000EF90DF90CF90BF90AF909F908F907F90F4
:105480006F905F903F902F900895CF92DF92EF92B0
:10549000FF920F931F938091690590916A051816EA
:1054A000190614F00E940B270E943C8D00915B05A9
:1054B00010915C0520915D0530915E05C0905F05FF
:1054C000D0906005E0906105F09062056C197D094F
:1054D0008E099F09061717072807390730F4012B93
:1054E000022B032B11F00E94D82680910B02909181
:1054F0000C02A0910D02B0910E02892B8A2B8B2BEE
:1055000009F10E943C8D00915F051091600520918A
:10551000610530916205601B710B820B930B00914A
:105520000B0210910C0220910D0230910E02061711
:1055300017072807390730F4909125078091240731
:10554000981741F01F910F91FF90EF90DF90CF904F
:105550000C94A94E169A10926A06469A10926B06FF
:10556000409A10926C06139AEDCF0E94E8808091C9
:105570005105811134C081E0809351058091360638
:1055800090913706A0913806B09139068093320683
:1055900090933306A0933406B0933506ECE1FCE01B
:1055A0008491882341F09091C00095FFFCCF8093B7
:1055B000C6003196F5CFECE8F4E08491882341F001
:1055C0009091C00095FFFCCF8093C6003196F5CF37
:1055D0008091C00085FFFCCF8AE08093C6000895CB
:1055E000809151050895CF93DF93EC01809165067A
:1055F0008093520584E50E94831E811102C080E0E1
:1056000075C00E946F1E0E944D91609352056623E3
:10561000B1F3E6E1FCE08491882341F09091C00071
:1056200095FFFCCF8093C6003196F5CFCD36D105DE
:10563000B9F054F4C836D105B1F0C936D10509F036
:1056400045C0E8E3F3E021C0CA3DD10531F0CD3DCE
:10565000D105E1F5E3EFF2E036C0EAE0F3E029C07E
:10566000E1E2F3E01CC0EFE4F3E08191882371F103
:105670009091C00095FFFCCF8093C600F6CF90912B
:10568000C00095FFFCCF8093C60081918111F7CFB8
:105690001DC09091C00095FFFCCF8093C600819102
:1056A0008111F7CF13C09091C00095FFFCCF80937C
:1056B000C60081918111F7CF09C09091C00095FF7C
:1056C000FCCF8093C60081918111F7CF40E050E07C
:1056D000609152058BE996E00E94A9458091C00037
:1056E00085FFFCCF8AE08093C60081E0DF91CF91F7
:1056F00008952F923F924F925F926F927F928F9276
:105700009F92AF92BF92CF92DF92EF92FF920F9350
:105710001F93CF93DF93CDB7DEB7C958D1090FB62A
:10572000F894DEBF0FBECDBF87E40E94831E88239E
:1057300011F40C94AA330E946F1E0E9448916D319F
:10574000710509F427C2ACF46230710509F458C040
:1057500024F477FF4AC00C942D426430710509F49B
:1057600064C00CF456C06C31710509F4A0C00C94EF
:105770002D426332710509F4F9C634F561327105C1
:1057800009F4E5C50CF0EEC66E31710511F00C940C
:105790002D420E9450160E94937A0E940B1780910E
:1057A000440290914502A0914602B0914702809335
:1057B0000F0290931002A0931102B09312020E9464
:1057C000C417EAE0FCE04FC56B35710509F45BC70F
:1057D0006C35710509F45CC76A35710511F00C94DC
:1057E0002D42109231060C942D4280915105811169
:1057F0000C942D420E94A61F0E942A250C94A143BE
:105800008091510581110C942D420E94292081E044
:1058100008C08091510581110C942D420E942920CD
:1058200080E00E9426260C94A14380E50E94831EFE
:10583000882339F00E946F1E0E944D914B015C013C
:1058400003C0812C912C540183E50E94831E882380
:1058500061F00E946F1E20E030E04AE754E40E94AD
:10586000AE930E944D914B015C010E94937A0E947D
:105870003C8D6B017C01C80CD91CEA1CFB1C0E94EE
:105880003C8D60935F0570936005809361059093F4
:1058900062050E943C8D6C157D058E059F0510F0FC
:1058A0000C942D420E94877D0E94452AF2CF8CE500
:1058B00092E00E94488980910F0290911002A0917D
:1058C0001102B091120280933E0690933F06A0937E
:1058D0004006B093410680913A0290913B0290932A
:1058E00096068093950684E690E090933B02809321
:1058F0003A020E943C8D60935F057093600580932F
:1059000061059093620581E00E948970809185060F
:1059100090918606A0918706B091880680935206E2
:1059200090935306A0935406B09355068091890630
:1059300090918A06A0918B06B0918C0680935606B2
:1059400090935706A0935806B093590680918D0600
:1059500090918E06A0918F06B091900680935A0682
:1059600090935B06A0935C06B0935D0680919106D0
:1059700090919206A0919306B091940680935E0652
:1059800090935F06A0936006B093610610920F0299
:1059900010921002109211021092120288E50E94D9
:1059A000831E882311F090E00AC089E50E94831EBF
:1059B0008111F9CF8AE50E94831E91E09827909388
:1059C0001302992331F00E94AC7B811107C00C9423
:1059D00030428AE50E94831E8111F5CF8091130227
:1059E000882331F00E94AC7B811107C00C943642B1
:1059F00088E50E94831E8111F5CF809113028823D0
:105A000031F00E94AC7B811107C00C943C4289E5C7
:105A10000E94831E8111F5CF88E50E94831E882392
:105A2000F1F00E94AC7B81111AC00E94781E672B96
:105A3000682B692BA1F00E946F1E2091790630918E
:105A40007A0640917B0650917C060E9400906093FC
:105A5000850670938606809387069093880689E56D
:105A60000E94831E8823F1F00E94AC7B81111AC032
:105A70000E94781E672B682B692BA1F00E946F1E75
:105A800020917D0630917E0640917F0650918006E0
:105A90000E9400906093890670938A0680938B061B
:105AA00090938C068AE50E94831E8823F1F00E9461
:105AB000AC7B81111AC00E94781E672B682B692B62
:105AC000A1F00E946F1E20918106309182064091C4
:105AD0008306509184060E94009060938D06709317
