:100000000C948E0B0C94119D0C94429D0C94739D3A
:100010000C94A49D0C94D59D0C94069E0C94379E34
:100020000C94689E0C94BF0B0C94BF0B0C94BF0BEC
:100030000C94BF0B0C94BF0B0C94BF0B0C94BF0B18
:100040000C94BF0B0C940D850C94BF0B0C94BF0B40
:100050000C94BF0B0C94BF0B0C94AE950C94999E12
:100060000C94BF0B0C94F04C0C94BF0B0C94BF0B76
:100070000C94BF0B0C94BF0B0C94BF0B0C94BF0BD8
:100080000C94BF0B0C94BF0B0C94BF0B0C94BF0BC8
:100090000C94BF0B0C94BF0B0C94BF0B0C94729B75
:1000A0000C94BF0B0C94BF0B0C94BF0B0C94BF0BA8
:1000B0000C94BF0B0C94BF0B0C94BF0B0C94BF0B98
:1000C0000C94BF0B0C94BF0B0C94BF0B0C94BF0B88
:1000D0000C94BF0B0C94BF0B0C94BF0B0C94BF0B78
:1000E0000C94BF0BF795049620962D96479649964B
:1000F0004B964D965596EB9CB59CBD9CC99CD69C49
:10010000F79C049DBC9FC19FC69FD09FDA9F53A0C0
:10011000E49FEC9FF49FFE9F08A012A021A02BA0BB
:1001200053A035A03FA049A074A077A066A06AA004
:1001300070A0AEA07BA07FA085A089A08DA093A079
:1001400097A09BA0AEA0A1A0A5A0A9A0084AD73BBC
:100150003BCE016E84BCBFFDC12F3D6C74319ABD96
:1001600056833DDA3D00C77F11BED9E4BB4C3E91BA
:100170006BAAAABE000000803F05A84CCDB2D44EA9
:10018000B93836A9020C50B9918688083CA6AAAAAB
:100190002ABE000000803F004D38342058205920EE
:1001A0005A2045004D3234004D3233202573006112
:1001B00075746F25692E67006572726F7220777291
:1001C0006974696E6720746F2066696C65004E6F94
:1001D00074205344207072696E74696E67002F003A
:1001E0005344207072696E74696E67206279746519
:1001F00020002E0044656C6574696F6E206661692D
:100200006C65642C2046696C653A200046696C6513
:100210002064656C657465643A002E006F70656ECD
:10022000206661696C65642C2046696C653A200023
:1002300057726974696E6720746F2066696C653ADD
:1002400020002E006F70656E206661696C65642CFD
:100250002046696C653A20002E006F70656E20663E
:1002600061696C65642C2046696C653A20004669BA
:100270006C652073656C6563746564002053697AEE
:10028000653A200046696C65206F70656E65643A5A
:1002900020002E006F70656E206661696C65642CAD
:1002A0002046696C653A20004E6F77206672657350
:1002B000682066696C653A20004E6F7720646F692C
:1002C0006E672066696C653A20002220706F7300AB
:1002D0002220706172656E743A2200535542524F6B
:1002E0005554494E452043414C4C2074617267651A
:1002F000743A2200747279696E6720746F206361AA
:100300006C6C207375622D67636F64652066696C21
:100310006573207769746820746F6F206D616E79E2
:10032000206C6576656C732E204D4158206C657687
:10033000656C2069733A0053442063617264206FD6
:100340006B006F70656E526F6F74206661696C65CB
:100350006400766F6C756D652E696E6974206661D8
:10036000696C656400534420696E69742066616934
:100370006C006563686F3A004572726F723A0048AC
:10038000617264636F6465642044656661756C7452
:100390002053657474696E6773204C6F6164656483
:1003A0000053746F7265642073657474696E67734B
:1003B0002072657472696576656400204400204986
:1003C000002020204D33303120500050494420730C
:1003D000657474696E67733A00205A0020590020D2
:1003E000204D323036205800486F6D65206F6666AC
:1003F00073657420286D6D293A00204500205A004D
:1004000020580020420020540020204D323035205A
:100410005300416476616E63656420766172696140
:10042000626C65733A20533D4D696E206665656464
:100430007261746520286D6D2F73292C20543D4DF9
:10044000696E2074726176656C20666565647261A0
:10045000746520286D6D2F73292C20423D6D696EC7
:10046000696D756D207365676D656E742074696D57
:100470006520286D73292C20583D6D6178696D7554
:100480006D205859206A65726B20286D6D2F732975
:100490002C20205A3D6D6178696D756D205A206A57
:1004A00065726B20286D6D2F73292C2020453D6DC2
:1004B0006178696D756D2045206A65726B20286DC5
:1004C0006D2F73290020540020204D3230342053EA
:1004D00000416363656C65726174696F6E3A2053A5
:1004E0003D616363656C65726174696F6E2C205445
:1004F0003D7265747261637420616363656C6572DB
:100500006174696F6E00204500205A002059002058
:10051000204D3230312058004D6178696D756D2065
:10052000416363656C65726174696F6E20286D6DDF
:100530002F7332293A00204500205A00205900200C
:10054000204D3230332058004D6178696D756D2033
:1005500066656564726174657320286D6D2F7329FB
:100560003A00204500205A0020590020204D393201
:1005700020580053746570732070657220756E6921
:10058000743A0053657474696E67732053746F72A4
:100590006564006563686F3A005072696E746572D5
:1005A0002073746F707065642064756520746F20AB
:1005B0006572726F72732E204669782074686520A8
:1005C0006572726F7220616E6420757365204D399B
:1005D000393920746F20726573746172742E20280B
:1005E00054656D70657261747572652069732072EF
:1005F000657365742E205365742069742061667478
:1006000065722072657374617274696E6729005037
:1006100072696E7465722068616C7465642E206BFB
:10062000696C6C28292063616C6C656421006F6BB8
:1006300000526573656E643A20000A00207A3A2001
:100640000020793A200020783A2000426564002298
:1006500000556E6B6E6F776E20636F6D6D616E64AB
:100660003A2022005A204F6666736574203A2000B3
:100670007A5F6D61783A20007A5F6D696E3A20008A
:100680005A204F6666736574005A204F666673651C
:1006900074206F6B007A5F6D61783A20007A5F6D2D
:1006A000696E3A2000795F6D61783A2000795F6D5C
:1006B000696E3A2000785F6D61783A2000785F6D4E
:1006C000696E3A2000205A3A0020593A0020436FC0
:1006D000756E7420583A200020453A00205A3A009E
:1006E00020593A00583A004649524D574152455F09
:1006F0004E414D453A4D61726C696E20666F7220B5
:100700006D6F737466756E205361696C2056312E5F
:10071000353B204D414348494E455F545950453A79
:100720006D6F737466756E205361696C2076312E1F
:10073000352045585452554445525F434F554E5409
:100740003A3120555549443A30303030303030302D
:100750002D303030302D303030302D303030302DA5
:100760003030303030303030303030300A002042DD
:100770003A0020453A00543A0020573A0020453AC2
:1007800000543A002042403A0020403A00202F0016
:100790003A00205400202F0020423A00202F006F02
:1007A0006B20543A002569206D696E2C2025692044
:1007B0007365630020573A0020453A00543A0045DB
:1007C0006E642066696C65206C69737400426567AD
:1007D000696E2066696C65206C697374000A00207C
:1007E0005A3A200020593A200020583A2000426509
:1007F000640020643A200020623A200045716E2097
:10080000636F656666696369656E74733A20613A01
:100810002000486F6D6520582F59206265666F7201
:1008200065205A005A2070726F6265206F75742EB1
:10083000206265640020636F6C6420657874727553
:1008400073696F6E2070726576656E7465640048BA
:100850006F6D6520582F59206265666F7265205A4A
:100860000020636F6C6420657874727573696F6EB5
:100870002070726576656E74656400256920686F06
:10088000757273202569206D696E757465730044F7
:100890006F6E65207072696E74696E672066696C30
:1008A00065005072696E7465722073746F70706544
:1008B000642064756520746F206572726F72732E88
:1008C0002046697820746865206572726F722061B5
:1008D0006E6420757365204D39393920746F20722C
:1008E0006573746172742E202854656D7065726131
:1008F000747572652069732072657365742E205358
:100900006574206974206166746572207265737401
:10091000617274696E6729006F6B004E6F204C69BD
:100920006E65204E756D626572207769746820630C
:100930006865636B73756D2C204C617374204C6912
:100940006E653A20004E6F20436865636B73756D6A
:100950002077697468206C696E65206E756D6265BC
:10096000722C204C617374204C696E653A200063D0
:100970006865636B73756D206D69736D6174636811
:100980002C204C617374204C696E653A20004C69D0
:100990006E65204E756D626572206973206E6F748E
:1009A000204C617374204C696E65204E756D6265D4
:1009B000722B312C204C617374204C696E653A2087
:1009C000004D31313000446F6E6520736176696E81
:1009D000672066696C652E006F6B004D3239002010
:1009E00020506C616E6E6572427566666572427902
:1009F0007465733A20002046726565204D656D6F01
:100A000072793A20004F6374203131203230313511
:100A100000436F6D70696C65643A20002869337714
:100A2000617465722C206D6F737466756E205361EE
:100A3000696C2076312E352900207C204175746840
:100A40006F723A20004F63742031312032303135DB
:100A50002032303A33313A343700204C61737420FD
:100A6000557064617465643A200020312E302E3058
:100A7000004D61726C696E20666F72206D6F7374C9
:100A800066756E205361696C2076312E35002053D7
:100A90006F667477617265205265736574002057C4
:100AA00061746368646F67205265736574002042E7
:100AB000726F776E206F75742052657365740020B5
:100AC00045787465726E616C205265736574005070
:100AD0006F776572557000737461727400220065DF
:100AE0006E717565696E672022002200656E7175F2
:100AF00065696E67202200FFFFFF0000A040000034
:100B0000A0400000404000003E43000020430000A1
:100B10002043000000000000000000000000000072
:100B20003E4300002043000020430000000000007E
:100B30000000000000006563686F3A004572726F44
:100B4000723A0020746F6F206C6F6E672065787446
:100B5000727573696F6E2070726576656E74656408
:100B60000020636F6C6420657874727573696F6EB2
:100B70002070726576656E746564006563686F3AAF
:100B8000007C3C3E5E2B3D3F2F5B5D3B2C2A225C74
:100B900000205A3A0020593A0020583A00656E6405
:100BA00073746F7073206869743A200024F4D43031
:100BB00050C38E20C2A24017828B7011127A910D01
:100BC000816CD90AA861E108C758660761514306DC
:100BD0001E4B5D05C145A7041A411104093D980348
:100BE000713931034036DB0265339102D43054024F
:100BF000802E1D02632CEE01752AC501B028A001CC
:100C0000102781018F2564012B244B01E022340140
:100C1000AC211F018D200D01801FFC00841EED0002
:100C2000971DDF00B81CD200E61BC600201BBC00CD
:100C3000641AB200B219A8000A19A0006A18990033
:100C4000D117910040178B00B516840031167E0035
:100C5000B31579003A157300C7146F0058146A0071
:100C6000EE1366008813630025135E00C7125B0055
:100C70006C12570015125400C111510070114F0031
:100C800021114B00D61049008D104700461044003A
:100C900002104200C00F4000800F3E00420F3C0097
:100CA000060F3B00CB0E3800930E37005C0E35006C
:100CB000270E3400F30D3200C10D3100900D3000CD
:100CC000600D2E00320D2D00050D2C00D90C2B00CF
:100CD000AE0C2900850C29005C0C2700350C270080
:100CE0000E0C2600E80B2400C40B2400A00B2300EC
:100CF0007D0B23005A0B2100390B2100180B20001B
:100D0000F80A1F00D90A1E00BB0A1E009D0A1D001A
:100D1000800A1D00630A1C00470A1B002C0A1B00E6
:100D2000110A1A00F7091A00DD091900C40919008F
:100D3000AB091900920917007B0918006309170015
:100D40004C09160036091600200916000A0915007C
:100D5000F5081500E0081400CC081400B8081400C9
:100D6000A4081400900813007D0812006B081300FB
:100D70005808120046081200340811002308110018
:100D80001208110001081100F0071000E007100020
:100D9000D0071000C0071000B0070F00A107100017
:100DA00091070E0083070F0074070F0065070E0000
:100DB00057070E0049070E003B070D002E070E00D7
:100DC00020070D0013070D0006070D00F9060C00A3
:100DD000ED060D00E0060C00D4060C00C8060C0061
:100DE000BC060C00B0060C00A4060B0099060C0013
:100DF0008D060B0082060B0077060B006C060B00BD
:100E000061060A0057060B004C060A0042060A005B
:100E100038060A002E060A0024060A001A060A00EE
:100E20001006090007060A00FD050900F40509007F
:100E3000EB050900E2050900D9050900D005090004
:100E4000C7050900BE050900B5050800AD05080085
:100E5000A50509009C050800940508008C050800FC
:100E6000840508007C050800740508006C0507006F
:100E7000650508005D050700560508004E050700DA
:100E80004705070040050800380507003105070041
:100E90002A050700230507001C05060016050700A4
:100EA0000F0507000805060002050700FB04060001
:100EB000F5040700EE040600E8040600E20407005B
:100EC000DB040600D5040600CF040600C9040600B2
:100ED000C3040600BD040600B7040600B104050003
:100EE000AC040600A6040600A00405009B0406004E
:100EF00095040500900406008A0405008504050099
:100F0000800406007A0405007504050070040500DD
:100F10006B04050066040500610405005C0405001F
:100F200057040500520405004D040500480405005F
:100F3000430405003E0404003A040500350405009E
:100F4000300404002C0405002704040023040500D9
:100F50001E0404001A040400160405001104040011
:100F60000D04040009040500040404000004040046
:100F7000FC030400F8030400F4030400F00304007D
:100F8000EC030400E8030400E4030400E0030400AD
:100F9000DC030400D8030400D4030400D0030400DD
:100FA000CC030400C8030300C503030024F404D9E0
:100FB000201BC40C5C0E9804C4095F026507710114
:100FC000F405F900FB04B30048048700C10369007D
:100FD0005803550003034500BE023A008402310065
:100FE00053022A002902250004022000E4011C000B
:100FF000C8011900AF011700980114008401130003
:10100000710110006101100051010E0043010D003B
:1010100036010B002B010B0020010B00150109000C
:101020000C01090003010800FB000800F3000800A0
:10103000EB000700E4000600DE000600D800060012
:10104000D2000600CC000500C7000500C200050064
:10105000BD000400B9000400B5000400B1000400A4
:10106000AD000400A9000400A5000300A2000300D5
:101070009F0004009B0003009800030095000200FD
:1010800093000300900003008D0002008B0003001A
:101090008800020086000200840003008100020034
:1010A0007F0002007D0002007B0002007900020048
:1010B0007700010076000200740002007200010057
:1010C000710002006F0002006D0001006C00020060
:1010D0006A0001006900020067000100660001006B
:1010E000650001006400020062000100610001006F
:1010F000600001005F0002005D0001005C00010073
:101100005B0001005A000100590001005800010075
:101110005700010056000100550001005400010075
:101120005300000053000100520001005100010073
:10113000500001004F0001004E0000004E00010071
:101140004D0001004C0001004B0000004B0001006D
:101150004A00010049000100480000004800010069
:101160004700010046000000460001004500000065
:10117000450001004400010043000000430001005D
:101180004200000042000100410000004100010057
:10119000400001003F0000003F0001003E00000051
:1011A0003E0001003D0000003D0001003C00000049
:1011B0003C0000003C0001003B0000003B0001003F
:1011C0003A0000003A000100390000003900010037
:1011D000380000003800000038000100370000002F
:1011E0003700010036000000360000003600010024
:1011F000350000003500000035000100340000001B
:10120000340000003400010033000000330000000F
:101210003300010032000000320000003200010003
:1012200031000000310000003100010030000000FA
:1012300030000000300001002F0000002F000000EF
:101240002F0000002F0001002E0000002E000000E3
:101250002E0001002D0000002D0000002D000000D8
:101260002D0001002C0000002C0000002C000000CC
:101270002C0001002B0000002B0000002B000000C0
:101280002B0001002A0000002A0000002A000000B4
:101290002A000100290000002900000029000000A8
:1012A000290000002900010028000000280000009B
:1012B000280000002800000028000100270000008E
:1012C0002700000027000000270000002700010081
:1012D0002600000026000000260000002600000076
:1012E0002600010025000000250000002500000068
:1012F000250000002500000025000100240000005A
:10130000240000002400000024000000240001004C
:101310002300000023000000230000002300000041
:101320002300000023000000230001002200000031
:101330002200000022000000220000002200000025
:101340002200010021000000210000002100000017
:101350002100000021000000210000002100010008
:1013600020000000200000002000000020000000FD
:1013700020000000200000002000000020000100EC
:101380001F0000001F0000001F0000001F000000E1
:101390001F0000001F0000001F0001001E000000D1
:1013A0001E0000001E0000001E0000006563686F44
:1013B0003A003A20457874727564657220737769D3
:1013C0007463686564206F66662E204D494E5445EF
:1013D0004D50207472696767657265642021003A18
:1013E00020457874727564657220737769746368D8
:1013F0006564206F66662E204D415854454D50203F
:10140000747269676765726564202100202D204928
:101410006E76616C6964206578747275646572209B
:101420006E756D62657220210050494420417574CB
:101430006F74756E652066696E69736865642120D6
:1014400050757420746865206C617374204B702C27
:10145000204B6920616E64204B6420636F6E73744F
:10146000616E74732066726F6D2061626F766520A5
:10147000696E746F20436F6E666967757261746917
:101480006F6E2E6800504944204175746F74756EFC
:1014900065206661696C6564212074696D656F758E
:1014A000740020403A006F6B20543A006F6B20426A
:1014B0003A00504944204175746F74756E6520661A
:1014C00061696C6564212054656D70657261747525
:1014D000726520746F6F206869676800204B643AFA
:1014E0002000204B693A2000204B703A2000204316
:1014F0006C61737369632050494420002054753A2D
:101500002000204B753A2000206D61783A200020A1
:101510006D696E3A200020643A2000206269617390
:101520003A20004572726F723A001000C902100131
:101530002C014001220170011801B0010E01F001DF
:1015400004015002FA00B002F0003003E600D003BC
:10155000DC009004D2007005C800A006BE000008A0
:10156000B400B009AA00D00BA000600E9600601174
:101570008C000015820020197800C01D6E00A0228A
:101580006400B0275A00902C500000314600E0342F
:101590003C0010383200903A2800603C1E00A03D0C
:1015A0001400803E0A00203F00000A00207A3A2002
:1015B0000020793A200020783A200000000A0B022F
:1015C000090C0D0E080703040100000000000000D4
:1015D000000000000000000000000000000000000B
:1015E00000000000000000121110000000000000C8
:1015F00000000000000000000000000000000000EB
:101600000001021020200808102040102040800215
:101610000102010804020101020408102040808038
:1016200040201008040201800402018040201008BC
:101630000402010804020101020408102040800194
:101640000204081020408005050505070508080864
:1016500008020202020A0A08080404040401010143
:10166000010101010103030303030303030407074B
:10167000070C0C0C0C0C0C0C0C02020202060606E9
:1016800006060606060B0B0B0B0B0B0B0B000020C4
:10169000002300260029002C002F0032000001004A
:1016A0000003010601090100002200250028002B8B
:1016B000002E003100340002010000050108010B7A
:1016C0000100002100240027002A002D00300033F3
:1016D0000001010000040107010A014E414E494E7C
:1016E000495459494E46CDCCCC3D0AD7233C17B777
:1016F000D13877CC2B329595E6241FB14F0A0000E4
:1017000020410000C84200401C4620BCBE4CCA1B01
:101710000E5AAEC59D74E94C469BED4C11241FBE7C
:10172000CFEFD1E2DEBFCDBF00E00CBF14E0A0E000
:10173000B2E0E2E8FEE501E00BBF02C007900D92C7
:10174000AC38B107D9F721E1ACE8B4E001C01D9293
:10175000AB3CB207E1F717E1CAE1D7E100E006C010
:1017600022970109FE010BBF0E947BA6C631D1075B
:1017700080E00807A9F70E9446A10C942FAF0C94B3
:101780000000FC01148217821382128287E294E027
:1017900091838083089527E234E0FC013183208324
:1017A0002781222319F004960C944A7B0895CF9246
:1017B000DF92EF92FF920F931F93CF93DF93EC0191
:1017C0008F96DFDFCE01805B9F4FDBDF7E012FE650
:1017D000E20EF11C87016E013BE5C31A3EEFD30A0E
:1017E000C801CFDF015E1F4F0C151D05C9F7FE01B3
:1017F000E955FE4F89E1818314823596178ACE011F
:1018000086539E4FBEDFFE01E558FD4F10821182C8
:1018100012821382389610821182128213821A82E7
:101820001B82188219826E0181E8C81A8DEFD80ACE
:10183000F6011082118212821382F8011182108245
:10184000FE01E751FE4F108286E391E0F7019C0113
:10185000119221503040E1F7FE01E957FD4F81E040
:1018600080831EA61DA60E94E39E68577C4E8F4F64
:101870009F4FF6016083718382839383DF91CF91C1
:101880001F910F91FF90EF90DF90CF900895FC0192
:1018900020E03EE2DB014C91403241F0283011F46F
:1018A00030833196DB014C91408331962F5F6F5F1F
:1018B0007F4F2B3079F7108208953F924F925F92BD
:1018C0006F927F928F929F92AF92BF92CF92DF9250
:1018D000EF92FF920F931F93CF93DF93CDB7DEB7B5
:1018E000C758D1090FB6F894DEBF0FBECDBF8C012B
:1018F0006B017A01312C84E0E80EF11C2801E1E152
:101900004E0E511C5801F8E7AF1AFDEFBF0A48010F
:1019100086E7881A8DEF980A80E4682E712C6C0E89
:101920007D1EE4E06E0E711CA201BE016F5F7F4F51
:10193000C7010E94B47918160CF021C12C85322FF2
:101940003871303109F09CC0F50180819181019797
:10195000029708F495C0BE016F5F7F4FCE01875894
:101960009F4F95DFA0961FAEA097F6018081811151
:1019700007C065EB72E0CE01815A9F4F0E94BEAB5B
:10198000B601CE01815A9F4F0E94BEABBE0167587F
:101990007F4FCE01815A9F4F0E94BEAB65EB72E034
:1019A000CE01815A9F4F0E94BEABCE01805C9F4FFB
:1019B000E8DE21E0AE0147585F4FB701C3010E9446
:1019C000417D811139C0F50180819181892BA1F57B
:1019D000E2E7F3E08491882341F09091C00095FF05
:1019E000FCCF8093C6003196F5CFE7EBF2E0819112
:1019F000882339F09091C00095FFFCCF8093C600FA
:101A0000F6CF8091C00085FFFCCF8AE08093C600AE
:101A1000FE01E758FF4F8191882339F09091C00073
:101A200095FFFCCF8093C600F6CF8091C00085FF64
:101A3000FCCF8AE08093C6008BE1FE01EC5BFF4F98
:101A4000DE01959601900D928A95E1F724968EAD70
:101A50009FAD24979CA38BA387E294E09AA389A3CC
:101A6000AE014F5D5F4FBE01615A7F4FC80125DF58
:101A7000CE01819690DECE01805C9F4F8CDE54CFEC
:101A80008981882309F47BC0853E09F44DCF8E32CD
:101A900009F44ACF8F3509F447CFF80181898823AB
:101AA00031F08E3209F440CF8F3509F43DCF23FD5C
:101AB0003BCF81E0303109F080E0F80184A781114B
:101AC00008C08985873409F02FCF8A858E3709F4BD
:101AD0002BCF98012C5F3F4FBE016F5F7F4FC90135
:101AE000CA57DF4F2883C658D040C957DF4F3883C5
:101AF000C758D040CCDEF50180819181CA57DF4FB5
:101B00002881C658D040C957DF4F3881C758D040C8
:101B10000097F1F4F6018191882339F09091C0008B
:101B200095FFFCCF8093C600F6CFF9018191882301
:101B300039F09091C00095FFFCCF8093C600F6CF9E
:101B40008091C00085FFFCCF8AE08093C600ECCE78
:101B50008130910539F4F40180819181019691835E
:101B60008083E2CE029709F0DFCE232D30E0F4012E
:101B7000808191812817390711F03394D5CEC95748
:101B8000DF4F0FB6F894DEBF0FBECDBFDF91CF9110
:101B90001F910F91FF90EF90DF90CF90BF90AF908B
:101BA0009F908F907F906F905F904F903F9008959F
:101BB000EF92FF920F931F93CF93DF93CDB7DEB7D2
:101BC0006F970FB6F894DEBF0FBECDBF8C01FC013E
:101BD000E857FD4F118210827C0183E3E80EF11C6F
:101BE00040E050E0BA01C7010E94677A8BE1F7013B
:101BF000DE01159601900D928A95E1F7F80181A911
:101C000092A99C838B8387E294E09A838983AE01B7
:101C10004F5F5F4F6EE374E0C8014FDECE01019667
:101C2000BADD6F960FB6F894DEBF0FBECDBFDF9161
:101C3000CF911F910F91FF90EF9008952BE1FB0141
:101C40003496DC01149601900D922A95E1F7FB0180
:101C500022813381FC01338322830895EF92FF9226
:101C60000F931F93CF93DF93EC011B828EA98823E0
:101C700021F0CE01C3960E944A7B7E0189E5E81AD5
:101C80008EEFF80A45E360E0C7010E94CB75811131
:101C90001FC0E2E7F3E08491882341F09091C000F7
:101CA00095FFFCCF8093C6003196F5CFE5E6F3E0D3
:101CB0008491882341F09091C00095FFFCCF8093E0
:101CC000C6003196F5CF8091C00085FFFCCF76C06D
:101CD0008E0104551E4F41E0B701C8010E943483B4
:101CE000811126C040E0B701C8010E9434838111F0
:101CF0001FC0E8E7F3E08491882341F09091C00091
:101D000095FFFCCF8093C6003196F5CFE2E5F3E076
:101D10008491882341F09091C00095FFFCCF80937F
:101D2000C6003196F5CF8091C00085FFFCCF46C03C
:101D3000B801CE01C3960E94587881111FC0E8E710
:101D4000F3E08491882341F09091C00095FFFCCF8F
:101D50008093C6003196F5CFE2E4F3E084918823C6
:101D600041F09091C00095FFFCCF8093C600319662
:101D7000F5CF8091C00085FFFCCF20C081E08B8330
:101D8000E2E7F3E08491882341F09091C00095FF51
:101D9000FCCF8093C6003196F5CFE7E3F3E0849162
:101DA000882341F09091C00095FFFCCF8093C6003E
:101DB0003196F5CF8091C00085FFFCCF8AE08093FB
:101DC000C6008E01015D1F4FB801CE01805B9F4FA1
:101DD00035DFC25BDF4F19830883DF91CF911F91FD
:101DE0000F91FF90EF900895FC01128213820895E5
:101DF000FC012381222311F021E022830895FC01BC
:101E000082810895FC012281222329F01282CB01D4
:101E1000BA010C9470170895AF92BF92CF92DF92DF
:101E2000EF92FF920F931F93CF93DF931F92CDB743
:101E3000DEB78C018FE2FB0181935F01D12C41E081
:101E40007801FBE5EF1AFEEFFF0A9FE1C92E2D2D69
:101E500030E0F7018081918128173907D8F4C29EBC
:101E6000C001C39E900D11248D589F4FB501800F66
:101E7000911F49830E94FF77C50149815C0101964A
:101E8000F5012081222321F04D3810F44F5FF6CF69
:101E9000D394DDCF47FD11C0B501C80182539E4FD9
:101EA0000F90DF91CF911F910F91FF90EF90DF90F6
:101EB000CF90BF90AF900C94FF77F50110820F90F8
:101EC000DF91CF911F910F91FF90EF90DF90CF9016
:101ED000BF90AF9008952F923F924F925F926F9272
:101EE0007F928F929F92AF92BF92CF92DF92EF92AA
:101EF000FF920F931F93CF93DF93CDB7DEB7AC97CD
:101F00000FB6F894DEBF0FBECDBF8C016B01342E2F
:101F1000FC018381882309F4CFC2EF52FE4F8081F8
:101F2000882309F4F8C02111C4C07801F7E1EF1A41
:101F3000FEEFFF0AF7018081882361F1E8E7F3E013
:101F40008491882341F09091C00095FFFCCF80934D
:101F5000C6003196F5CFE4EFF2E08491882341F09A
:101F60009091C00095FFFCCF8093C6003196F5CFCD
:101F70004AE050E061E070E086E698E00E943D4E65
:101F80008091C00085FFFCCF8AE08093C6000E944C
:101F90006B2992C2E2E7F3E08491882341F09091AB
:101FA000C00095FFFCCF8093C6003196F5CFEBEDD6
:101FB000F2E08491882341F09091C00095FFFCCF1E
:101FC0008093C6003196F5CFF6018191882339F0D0
:101FD0009091C00095FFFCCF8093C600F6CFE0ED56
:101FE000F2E08491882341F09091C00095FFFCCFEE
:101FF0008093C6003196F5CFF70180813DE8B32E7E
:10200000B801B89E600D711D112462517E4FC80148
:1020100003DFF7018081F801B89EE00DF11D112466
:10202000E251FE4F8191882339F09091C00095FFD5
:10203000FCCF8093C600F6CFEAECF2E084918823CF
:1020400041F09091C00095FFFCCF8093C60031967F
:10205000F5CF5801FDE7AF1AFDEFBF0AF50140814A
:102060005181628173812AE030E086E698E00E9427
:10207000694E8091C00085FFFCCF8AE08093C60046
:10208000F7012081F80184E0289FE00DF11D112463
:10209000AF0146515E4FF50180819181A281B381EC
:1020A000FA0180839183A283B3832F5FF70120839A
:1020B0002CC0E2E7F3E08491882341F09091C000C6
:1020C00095FFFCCF8093C6003196F5CFE9EBF2E0A7
:1020D0008491882341F09091C00095FFFCCF8093BC
:1020E000C6003196F5CFF6018191882339F09091A1
:1020F000C00095FFFCCF8093C600F6CF8091C00052
:1021000085FFFCCF8AE08093C600C80182539E4FB2
:102110000E944A7B32C0F801E751FE4F1082E2E78D
:10212000F3E08491882341F09091C00095FFFCCFAB
:102130008093C6003196F5CFE8EAF2E084918823D7
:1021400041F09091C00095FFFCCF8093C60031967E
:10215000F5CFF6018191882339F09091C00095FF69
:10216000FCCF8093C600F6CF8091C00085FFFCCFE6
:102170008AE08093C600C601F1D5F8011282CE0133
:1021800001965C01FEDA28019EE4490E511CC8014B
:102190008F96F20191838083F60180818F3209F05E
:1021A00084C06FE270E0C6010E94C9AB01967C0159
:1021B0002AE0222EE114F10409F47DC06FE270E000
:1021C000C7010E94C9AB4C01009709F475C0E8161D
:1021D000F90608F071C03C016E187F08A301B70131
:1021E000CE0180960E94F2ABE0E2F0E0EC0FFD1F22
:1021F000E60DF71D1082FE01B0968191882339F01B
:102200009091C00095FFFCCF8093C600F6CF8091DF
:10221000C00085FFFCCF2092C600F2016081718171
:102220006115710519F06C5F7F4F02C060E070E0CE
:1022300021E0AE01405E5F4FCE0105960E94417DD8
:1022400081112BC0E4E9F2E08491882341F0909160
:10225000C00095FFFCCF8093C6003196F5CFFE01FC
:10226000B0968191882339F09091C00095FFFCCF02
:102270008093C600F6CFE2E9F2E08491882341F032
:102280009091C00095FFFCCF8093C6003196F5CFAA
:102290008091C00085FFFCCF0AC1F201B182A0820B
:1022A0007401FFEFEF1AFF0A85CFC801805B9F4FD3
:1022B000F201918380837601C80182539E4F4C01C5
:1022C000F20160817181332009F499C061157105B3
:1022D00019F06C5F7F4F02C060E070E021E0A70161
:1022E000C4010E94417D882309F45FC0F401818903
:1022F0009289A389B489F801E558FD4F80839183C1
:10230000A283B383E4E8F2E08491D801A558BD4FDD
:10231000882349F09091C00095FFFCCF8093C600C0
:1023200031968491F5CFF7018191882339F090910E
:10233000C00095FFFCCF8093C600F6CFECE7F2E03B
:102340008491882341F09091C00095FFFCCF809349
:10235000C6003196F5CF4D915D916D917C912AE04B
:1023600030E086E698E00E94694E8091C00085FFCB
:10237000FCCF8AE08093C600F801ED57FD4F108234
:10238000118212821382EEE6F2E08491882341F0FA
:102390009091C00095FFFCCF8093C6003196F5CF99
:1023A0008091C00085FFFCCF82C0EAE5F2E0849115
:1023B000882341F09091C00095FFFCCF8093C60028
:1023C0003196F5CFF7018191882339F09091C000C3
:1023D00095FFFCCF8093C600F6CFE8E5F2E084914C
:1023E000882341F09091C00095FFFCCF8093C600F8
:1023F0003196F5CF8091C00085FFFCCF58C06115A4
:10240000710519F06C5F7F4F02C060E070E026E557
:10241000A701C4010E94417D81112AC0E4E4F2E0D9
:102420008491882341F09091C00095FFFCCF809368
:10243000C6003196F5CFF7018191882339F090914C
:10244000C00095FFFCCF8093C600F6CFE2E4F2E037
:102450008491882341F09091C00095FFFCCF809338
:10246000C6003196F5CF8091C00085FFFCCF1FC01C
:1024700081E0F8018083E0E3F2E08491882341F079
:102480009091C00095FFFCCF8093C6003196F5CFA8
:10249000F6018191882339F09091C00095FFFCCF1F
:1024A0008093C600F6CF8091C00085FFFCCF8AE004
:1024B0008093C600C5016FD9AC960FB6F894DEBF05
:1024C0000FBECDBFDF91CF911F910F91FF90EF9085
:1024D000DF90CF90BF90AF909F908F907F906F9044
:1024E0005F904F903F902F900895EF92FF920F933F
:1024F0001F93CF93DF93CDB7DEB76E970FB6F894E7
:10250000DEBF0FBECDBF8C01FC018381882391F11A
:10251000ABD5882321F081E0F80182832BC07801BC
:10252000FDE7EF1AFDEFFF0AF7014081518162815B
:102530007381389780819181A281B38148175907AF
:102540006A077B0740F3CE010196C2D521E041E046
:10255000BE016F5F7F4FC801BEDC65D6AB01BC0119
:10256000F7014083518362837383C80182539E4F76
:102570000E94677A6E960FB6F894DEBF0FBECDBF8D
:10258000DF91CF911F910F91FF90EF90089521E07F
:10259000FC01218340E09FCC3F924F925F926F926B
:1025A0007F928F929F92AF92BF92CF92DF92EF92E3
:1025B000FF920F931F93CF93DF93CDB7DEB7AC9706
:1025C0000FB6F894DEBF0FBECDBF7C015B01FC01EE
:1025D0008381882309F408C1C70182539E4F0E945A
:1025E0004A7BF7011282CE0101966C01CAD82701FD
:1025F0009EE4490E511CC7018F96F201918380839E
:10260000F50180818F3209F084C06FE270E0C5016E
:102610000E94C9AB8C010F5F1F4F4AE0342E011599
:10262000110509F47CC06FE270E0C8010E94C9ABDB
:102630004C01009709F474C00817190708F070C01E
:102640003C01601A710AA301B801CE0180960E9474
:10265000F2ABE0E2F0E0EC0FFD1FE60DF71D10829B
:10266000FE01B0968191882339F09091C00095FFCA
:10267000FCCF8093C600F6CF8091C00085FFFCCFD1
:102680003092C600F201608171816115710519F007
:102690006C5F7F4F02C060E070E021E0AE01405E01
:1026A0005F4FCE0105960E94417D81112BC0ECE168
:1026B000F2E08491882341F09091C00095FFFCCF17
:1026C0008093C6003196F5CFFE01B09681918823A4
:1026D00039F09091C00095FFFCCF8093C600F6CFF3
:1026E000EAE1F2E08491882341F09091C00095FFE7
:1026F000FCCF8093C6003196F5CF8091C00085FF56
:10270000FCCF6CC0F201D182C08284010F5F1F4FE9
:1027100086CFC701805B9F4FF20191838083850143
:10272000F20180819181009711F0049602C080E04F
:1027300090E0B8010E94177E882339F1ECE0F2E0C6
:102740008491882341F09091C00095FFFCCF809345
:10275000C6003196F5CFF8018191882339F0909128
:10276000C00095FFFCCF8093C600F6CF8091C000DB
:1027700085FFFCCF8AE08093C600F701ED57FD4F3F
:1027800010821182128213822CC0E4EFF1E0849156
:10279000882341F09091C00095FFFCCF8093C60044
:1027A0003196F5CFF8018191882339F09091C000DE
:1027B00095FFFCCF8093C600F6CFE2EFF1E0849165
:1027C000882341F09091C00095FFFCCF8093C60014
:1027D0003196F5CF8091C00085FFFCCF8AE08093D1
:1027E000C600C6010E94CB0BAC960FB6F894DEBFB4
:1027F0000FBECDBFDF91CF911F910F91FF90EF9052
:10280000DF90CF90BF90AF909F908F907F906F9010
:102810005F904F903F900895FC012381222339F06F
:10282000ED57FD4F608171818281938108950895F4
:10283000CF93DF93EC018B818823C1F1E0EEF1E0CF
:102840008491882341F09091C00095FFFCCF809344
:10285000C6003196F5CFFE01ED57FD4F4081518105
:10286000628173812AE030E086E698E00E94694E3A
:10287000EEEDF1E08491882341F09091C00095FF46
:10288000FCCF8093C6003196F5CFC558DD4F488107
:1028900059816A817B812AE030E086E698E00E94D7
:1028A000694E8091C00085FFFCCF11C0EEECF1E0D5
:1028B0008491882341F09091C00095FFFCCF8093D4
:1028C000C6003196F5CF8091C00085FFFCCF8AE02D
:1028D0008093C600DF91CF910895AF92BF92CF92BF
:1028E000DF92EF92FF920F931F93CF93DF935C01E0
:1028F000EB01FB0101900020E9F78F010150110964
:10290000061B170B6C01F2E3CF1AFEEFDF0AF6018C
:1029100010826EE470E0CE010E94C9AB7C0100978A
:1029200029F4F8013197EC0FFD1F0DC060E270E053
:102930000E94C9ABEC0121966AE270E0C7010E94D7
:10294000C9ABFC0131978DE081838AE082831382D9
:10295000BE01C50186539E4F0E94DD7FF601808136
:10296000882309F1E8E7F3E08491882341F090910E
:10297000C00095FFFCCF8093C6003196F5CFE8EB01
:10298000F1E08491882341F09091C00095FFFCCF45
:102990008093C6003196F5CF8091C00085FFFCCFB3
:1029A0008AE08093C600DF91CF911F910F91FF9035
:1029B000EF90DF90CF90BF90AF9008952F923F920D
:1029C0004F925F926F927F928F929F92AF92BF923F
:1029D000CF92DF92EF92FF920F931F93CF93DF93EB
:1029E000CDB7DEB7CC55D1090FB6F894DEBF0FBE18
:1029F000CDBF8C0189579D4F5C01662339F0F501ED
:102A00001082F801838181111DC015C0FC018081F5
:102A1000882309F4ADC0F801E158FD4FC080D18092
:102A2000E280F3800E94E39EC616D706E806F90608
:102A300008F49EC0E4CFC80111D9F801838188232E
:102A400009F496C0F80186A58F9385A58F938FEA28
:102A500091E09F938F937E01FFE3EF0EF11CFF92B5
:102A6000EF920E9444AC0F900F900F900F900F9038
:102A70000F90B12CF70101900020E9F73197EE1982
:102A8000FF09BE1684F46701CB0CD11CB7FCDA94A5
:102A9000F6018081992787FD90950E9467ABF6012A
:102AA0008083B394E7CF4801F3E38F0E911C40E09D
:102AB00050E0BA01C4010E94677A512CCE01019600
:102AC0006C0158EA652E51E0752E5E0191E2A90E67
:102AD000B11C40E050E0B601C4010E94B479181660
:102AE000DCF5412CF60101900020E9F73197EC1953
:102AF000FD094E1674F41601240C311C47FC3A945F
:102B0000F101808190E00E9467ABF10180834394E2
:102B1000E9CF8A858E37E9F245E050E0B701C6017A
:102B20000E94E4AB892BA9F6FF92EF927F926F92FD
:102B3000BF92AF920E9444ACC5010E94842384EAF4
:102B400091E00E94F7230F900F900F900F900F903D
:102B50000F9055245394BDCF511004C08FEF9FEFB9
:102B6000F80104C0F80185A596A5019696A785A74A
:102B7000C45ADF4F0FB6F894DEBF0FBECDBFDF9152
:102B8000CF911F910F91FF90EF90DF90CF90BF906A
:102B9000AF909F908F907F906F905F904F903F90FD
:102BA0002F9008950F931F93CF93DF93EC018C0127
:102BB00002531E4FC8010E94007BC8010E944A7B3D
:102BC00018821982DF91CF911F910F910895EF9292
:102BD000FF920F931F93CF93DF93EC010E94128D0E
:102BE0008E0107511E4FF80180819E0122533E4FF6
:102BF0007901882399F1C9010E944A7BF8018081FB
:102C000081508083BE01FDE88F9F600D711D1124EE
:102C100062517E4F21E041E0CE015DD9F801808113
:102C2000FE0124E0829FE00DF11D1124E651FE4FCC
:102C30004081518162817381FE01ED57FD4F4083D8
:102C4000518362837383C7010E94677ACE01DF914B
:102C5000CF911F910F91FF90EF9047CC0E94978DDD
:102C6000C7010E944A7B1A8288E991E00E94F723FB
:102C70008091C10D8823F9F01092C10DC091A20579
:102C8000D0E0CC0FDD1FC551DF4E688179818827E8
:102C900077FD8095982F0E94F8A220913E023091F6
:102CA0003F0240914002509141020E9459A41816DF
:102CB00014F419821882DF91CF911F910F91FF9028
:102CC000EF900895EF92FF920F931F93CF93DF93AE
:102CD0001F92CDB7DEB78C017B01460FF7016191E2
:102CE0007F01F8018081918149830E9468AEF801DB
:102CF0008081918101969183808349814E11EECF2D
:102D00000F90DF91CF911F910F91FF90EF90089559
:102D1000EF92FF920F931F93CF93DF931F92CDB744
:102D2000DEB78C017B01460FF801808191814983D8
:102D30000E9460AEF70181937F01F801808191814B
:102D400001969183808349814E11EECF0F90DF91E0
:102D5000CF911F910F91FF90EF900895CF93DF9344
:102D6000CDB7DEB7A4970FB6F894DEBF0FBECDBFC8
:102D700040E350E360E370E04F8F58A369A37AA368
:102D800024EF31E03CA32BA3BC01CE0101960E94AD
:102D9000DDAB44E0BE01615E7F4FCE01839692DFE2
:102DA0004EE1BE016F5F7F4FCE0183968BDFA4960D
:102DB0000FB6F894DEBF0FBECDBFDF91CF9108955F
:102DC000CF93DF93CDB7DEB72C970FB6F894DEBF65
:102DD0000FBECDBF22E632E03C872B872AE030E0F1
:102DE000AE014F5F5F4F0E9401AC4AE0BE016F5FD2
:102DF0007F4FCE010B9666DF2C960FB6F894DEBFA0
:102E00000FBECDBFDF91CF910895CF93DF93CDB7A4
:102E1000DEB72C970FB6F894DEBF0FBECDBF2CE601
:102E200032E03C872B872AE030E0AE014F5F5F4FF6
:102E30000E9401AC4AE0BE016F5F7F4FCE010B964E
:102E400041DF2C960FB6F894DEBF0FBECDBFDF91E9
:102E5000CF910895CF93DF93CDB7DEB72C970FB600
:102E6000F894DEBF0FBECDBF26E732E03C872B874C
:102E70002AE030E0AE014F5F5F4F0E9401AC4AE0B4
:102E8000BE016F5F7F4FCE010B961CDF2C960FB6F5
:102E9000F894DEBF0FBECDBFDF91CF910895CF93E1
:102EA000DF9300D000D0CDB7DEB728E532E03E8317
:102EB0002D832AE030E0AE014F5F5F4F0E9419ACD6
:102EC00044E0BE016F5F7F4FCE010596FBDE269684
:102ED0000FB6F894DEBF0FBECDBFDF91CF9108953E
:102EE0000F931F93CF93DF93CDB7DEB7C154D109B2
:102EF0000FB6F894DEBF0FBECDBF01E311E321E3AF
:102F000030E008AF19AF2AAF3BAF24EF31E0229693
:102F10003FAF2EAF22972CE132E03FAF2EAF20E340
:102F200032E03DAF2CAF2AE030E0AE01425D5F4FB2
:102F30000E9419AC20E030E04AE754E46091C205F9
:102F40007091C3058091C4059091C5050E942BA581
:102F50000E94CAA22AE030E0AE014C5D5F4F0E94A1
:102F600019ACBE016C5D7F4FCE0102960E94DDABB5
:102F700020E030E04AE754E46091C6057091C7054F
:102F80008091C8059091C9050E942BA50E94CAA2F4
:102F90002AE030E0AE014C5D5F4F0E9419ACBE01EB
:102FA0006C5D7F4FCE0109960E94DDAB20E030E0E2
:102FB0004AE754E46091CA057091CB058091CC0535
:102FC0009091CD050E942BA50E94CAA22AE030E074
:102FD000AE014C5D5F4F0E9419ACBE016C5D7F4F2E
:102FE000CE0140960E94DDAB20E030E543EC57E493
:102FF0006091CE057091CF058091D0059091D1055B
:103000000E942BA50E94CAA22AE030E0AE014C5DCE
:103010005F4F0E9419ACBE016C5D7F4FCE01479699
:103020000E94DDAB44E0BE01685C7F4FCE01805C56
:103030009F4F48DE4AE0BE01625D7F4FCE01CE96D3
:1030400041DE43E2BE016F5F7F4FCE01CC963ADE98
:10305000CF5BDF4F0FB6F894DEBF0FBECDBFDF9161
:10306000CF911F910F910895CF93DF93CDB7DEB726
:103070002A970FB6F894DEBF0FBECDBF80E390E372
:10308000A0E3B0E089839A83AB83BC8384EF91E0B3
:103090009A87898744E0BE016B5F7F4FCE01099616
:1030A00037DE43E050E0BE016B5F7F4FCE010196FB
:1030B0000E94E4AB21E0892B09F020E0822F2A96C0
:1030C0000FB6F894DEBF0FBECDBFDF91CF9108954C
:1030D0000F931F93CF93DF93CDB7DEB7A4970FB6AF
:1030E000F894DEBF0FBECDBF8C0184EF91E09CA3AE
:1030F0008BA340E350E360E370E04F8F58A369A3D4
:103100007AA344E0BE01615E7F4FCE01839600DE6C
:103110004EE1BE016F5F7F4FCE018396F9DDBE01A8
:103120006F5F7F4FC8010E94DDABC801A4960FB648
:10313000F894DEBF0FBECDBFDF91CF911F910F91ED
:103140000895CF93DF93CDB7DEB72C970FB6F894E1
:10315000DEBF0FBECDBF82E692E09C878B874AE040
:10316000BE016F5F7F4FCE010B96D2DD4AE050E08B
:1031700060E070E0CE0101960E941DA92C960FB66A
:10318000F894DEBF0FBECDBFDF91CF910895CF93EE
:10319000DF93CDB7DEB72C970FB6F894DEBF0FBE26
:1031A000CDBF8CE692E09C878B874AE0BE016F5FC3
:1031B0007F4FCE010B96ACDD4AE050E060E070E05E
:1031C000CE0101960E941DA92C960FB6F894DEBF81
:1031D0000FBECDBFDF91CF910895CF93DF93CDB7D1
:1031E000DEB72C970FB6F894DEBF0FBECDBF86E7D3
:1031F00092E09C878B874AE0BE016F5F7F4FCE01D4
:103200000B9686DD4AE050E060E070E0CE0101966A
:103210000E941DA92C960FB6F894DEBF0FBECDBF3D
:10322000DF91CF910895CF93DF93CDB7DEB72C9781
:103230000FB6F894DEBF0FBECDBF8CE192E09C8745
:103240008B874AE0BE016F5F7F4FCE010B9660DD3A
:103250004AE050E060E070E0CE0101960E944EAA84
:103260002C960FB6F894DEBF0FBECDBFDF91CF9185
:103270000895CF93DF9300D000D0CDB7DEB788E5B7
:1032800092E09E838D8344E0BE016F5F7F4FCE014D
:1032900005963EDD4AE050E060E070E0CE01019628
:1032A0000E944EAA26960FB6F894DEBF0FBECDBF81
:1032B000DF91CF910895EF92FF920F931F93CF93D9
:1032C000DF93CDB7DEB7A5970FB6F894DEBF0FBE7C
:1032D000CDBF8C0180E392E09DA38CA37E0184E2AC
:1032E000E80EF11C43E2BE016F5F7F4FC70110DDA6
:1032F000FE013196D80181918D93EE15FF05D9F726
:10330000C8018396A5960FB6F894DEBF0FBECDBF59
:10331000DF91CF911F910F91FF90EF9008950F9340
:103320001F93CF93DF93CDB7DEB768970FB6F894AE
:10333000DEBF0FBECDBF80E390E3A0E3B0E08D839E
:103340009E83AF83B88704E610E0188F0F8B44E0AC
:10335000BE016B5F7F4FCE014796B4DC40E162E275
:103360007EE0CE014796AEDC40E162E37EE0CE0136
:103370004796A8DC40E162E17EE0CE014796A2DC00
:1033800044E06AE07EE0CE0147969CDC44E066E0E3
:103390007EE0CE01479696DC44E06EE07EE0CE0112
:1033A000479690DC44E066EF7DE0CE0147968ADCEC
:1033B00044E062E47EE0CE01479684DC44E062E0D3
:1033C0007EE0CE0147967EDC44E06EEF7DE0CE01EC
:1033D000479678DC44E06AEF7DE0CE01479672DCE8
:1033E0004CE066EB75E0CE0147966CDC84EB90E038
:1033F0009E8B8D8B86E490E09C8B8B8B8FEF90E087
:103400009A8B898B20EF30E0388B2F871E870D87B2
:103410009C878B8742E0BE016B5E7F4FCE01479653
:1034200051DC42E0BE016D5E7F4FCE0147964ADC23
:1034300042E0BE016F5E7F4FCE01479643DC42E023
:10344000BE01615F7F4FCE0147963CDC42E0BE018A
:10345000635F7F4FCE01479635DC42E0BE01655F7A
:103460007F4FCE0147962EDC44E063EA75E0CE0143
:10347000479628DC44E061E872E0CE01479622DC02
:1034800044E06DE772E0CE0147961CDC44E069E75A
:1034900072E0CE01479616DC80E290E09A87898739
:1034A00042E0BE01675F7F4FCE0147960BDC86E5A9
:1034B00091E3A0E3B0E089839A83AB83BC83188F48
:1034C0000F8B44E0BE016F5F7F4FCE014796FADB62
:1034D000E3E9F5E08491882341F09091C00095FFE5
:1034E000FCCF8093C6003196F5CFE3E8F5E08491F8
:1034F000882341F09091C00095FFFCCF8093C600D7
:103500003196F5CF8091C00085FFFCCF8AE0809393
:10351000C60068960FB6F894DEBF0FBECDBFDF9130
:10352000CF911F910F910895CF93DF93C3E9D5E019
:10353000FE018491882341F09091C00095FFFCCF5B
:103540008093C6003196F5CFE3E7F5E084918823B8
:1035500041F09091C00095FFFCCF8093C60031965A
:10356000F5CF8091C00085FFFCCF8AE08093C60034
:10357000FE018491E3E9F5E0882349F09091C000D1
:1035800095FFFCCF8093C60031968491F5CF409192
:10359000220E5091230E6091240E7091250E8BE621
:1035A00095E00E9433234091260E5091270E6091A2
:1035B000280E7091290E88E695E00E9433234091F1
:1035C0002A0E50912B0E60912C0E70912D0E85E6D7
:1035D00095E00E94332340912E0E50912F0E609162
:1035E000300E7091310E82E695E00E943323809177
:1035F000C00085FFFCCF8AE08093C600FE01849165
:10360000E3E9F5E0882349F09091C00095FFFCCFF5
:103610008093C60031968491F5CFE8E4F5E084917B
:10362000882341F09091C00095FFFCCF8093C600A5
:103630003196F5CF8091C00085FFFCCF8AE0809362
:10364000C600FE018491E3E9F5E0882349F09091FA
:10365000C00095FFFCCF8093C60031968491F5CFD2
:103660004091320E5091330E6091340E7091350EB0
:103670008FE395E0F8D74091360E5091370E609168
:10368000380E7091390E8CE395E0EDD740913A0EEB
:1036900050913B0E60913C0E70913D0E89E395E098
:1036A000E2D740913E0E50913F0E6091400E7091D6
:1036B000410E86E395E0D7D78091C00085FFFCCF0F
:1036C0008AE08093C600FE018491E3E9F5E0882357
:1036D00049F09091C00095FFFCCF8093C6003196D1
:1036E0008491F5CFE8E1F5E08491882341F0909151
:1036F000C00095FFFCCF8093C6003196F5CF809136
:10370000C00085FFFCCF8AE08093C600FE01849153
:10371000E3E9F5E0882349F09091C00095FFFCCFE4
:103720008093C60031968491F5CF4091120E50914E
:10373000130E6091140E7091150E8FE095E0A5D7D1
:103740004091160E5091170E6091180E7091190E3F
:103750008CE095E09AD740911A0E50911B0E609123
:103760001C0E70911D0E89E095E08FD740911E0EC2
:1037700050911F0E6091200E7091210E86E095E011
:1037800084D78091C00085FFFCCF8AE08093C6007B
:10379000FE018491E3E9F5E0882349F09091C000AF
:1037A00095FFFCCF8093C60031968491F5CFE1ED73
:1037B000F4E08491882341F09091C00095FFFCCF04
:1037C0008093C6003196F5CF8091C00085FFFCCF75
:1037D0008AE08093C600FE018491E3E9F5E0882346
:1037E00049F09091C00095FFFCCF8093C6003196C0
:1037F0008491F5CF40910A0E50910B0E60910C0E02
:1038000070910D0E88EC94E02ED74091060E5091E9
:10381000070E6091080E7091090E85EC94E023D795
:103820008091C00085FFFCCF8AE08093C600FE0136
:103830008491E3E9F5E0882349F09091C00095FF79
:10384000FCCF8093C60031968491F5CFE2E1F4E09D
:103850008491882341F09091C00095FFFCCF809324
:10386000C6003196F5CF8091C00085FFFCCF8AE07D
:103870008093C600FE018491E3E9F5E0882349F0D6
:103880009091C00095FFFCCF8093C6003196849143
:10389000F5CF40910E0E50910F0E6091100E709169
:1038A000110E89E094E0DFD64091F60D5091F70DAE
:1038B0006091F80D7091F90D86E094E0D4D64091B6
:1038C000420E5091430E6091440E7091450E83E07C
:1038D00094E0DBD64091020E5091030E6091040EED
:1038E0007091050E80E094E0BED64091FE0D50919F
:1038F000FF0D6091000E7091010E8DEF93E0B3D635
:103900004091FA0D5091FB0D6091FC0D7091FD0DF1
:103910008AEF93E0A8D68091C00085FFFCCF8AE0B3
:103920008093C600FE018491E3E9F5E0882349F025
:103930009091C00095FFFCCF8093C6003196849192
:10394000F5CFE8EEF3E08491882341F09091C00038
:1039500095FFFCCF8093C6003196F5CF8091C000D3
:1039600085FFFCCF8AE08093C600FE018491E3E9E5
:10397000F5E0882349F09091C00095FFFCCF80933B
:10398000C60031968491F5CF4091B6055091B705A8
:103990006091B8057091B9058FED93E064D64091C0
:1039A000BA055091BB056091BC057091BD058CEDC9
:1039B00093E059D64091BE055091BF056091C00576
:1039C0007091C10589ED93E04ED68091C00085FFCE
:1039D000FCCF8AE08093C600FE018491E3E9F5E024
:1039E000882349F09091C00095FFFCCF8093C600DA
:1039F00031968491F5CFEBECF3E08491882341F08C
:103A00009091C00095FFFCCF8093C6003196F5CF12
:103A10008091C00085FFFCCF8AE08093C600FE0144
:103A2000C491E3E9F5E0CC2349F08091C00085FF23
:103A3000FCCFC093C6003196C491F5CF409181026E
:103A400050918202609183027091840281EC93E034
:103A50000AD660917D0270917E0280917F029091E2
:103A600080020E94C896AB01BC018EEB93E0FBD5AF
:103A70006091790270917A0280917B0290917C0230
:103A80000E94D496AB01BC018BEB93E0ECD5809106
:103A9000C00085FFFCCF8AE08093C600DF91CF9104
:103AA0000895AF92BF92CF92DF92EF92FF920F9361
:103AB0001F93CF93DF93CDB7DEB7E0970FB6F8949F
:103AC000DEBF0FBECDBF80E1E5E8F2E0DE019196FA
:103AD00001900D928A95E1F780E1E5E9F2E0DE01DF
:103AE000519601900D928A95E1F780E1E5EAF2E0C6
:103AF000DE01119601900D928A95E1F76E0181E247
:103B0000C80ED11C82E2E82E8EE0F82E8E010F5EE8
:103B10001F4F62E37EE0AE014F5F5F4F92E1A92E3F
:103B20009EE0B92E20E030E0F60181919191A191C3
:103B3000B1916F01F70181939193A193B1937F01AB
:103B4000F80181919191A191B1918F01FB01819334
:103B50009193A193B193BF01FA0181919191A191A8
:103B6000B191AF01F50181939193A193B1935F015D
:103B70002F5F3F4F24303105B9F60E94146380E077
:103B800090E0AAE7B4E480930A0E90930B0EA09302
:103B90000C0EB0930D0E8093060E9093070EA0931B
:103BA000080EB093090E10920E0E10920F0E109286
:103BB000100E1092110E80E29EE4A0E0B0E080931F
:103BC000420E9093430EA093440EB093450E109274
:103BD000F60D1092F70D1092F80D1092F90D80E08D
:103BE00090E0A0EAB1E48093020E9093030EA093BC
:103BF000040EB093050E8DEC9CECACECBEE3809310
:103C0000FE0D9093FF0DA093000EB093010E80E087
:103C100090E0A0EAB0E48093FA0D9093FB0DA0939E
:103C2000FC0DB093FD0D1092BE051092BF051092D1
:103C3000C0051092C1051092BA051092BB051092F2
:103C4000BC051092BD051092B6051092B7051092F2
:103C5000B8051092B9051092A3051092A405109210
:103C6000A5051092A6058AE999E9A1EBB1E4809334
:103C7000810290938202A0938302B093840261E751
:103C80007DE38AE89FE30E94C29660937D02709371
:103C90007E0280937F029093800260E070E084EE69
:103CA00092E40E94CE966093790270937A02809398
:103CB0007B0290937C020E94A58E80E090E0A0E8B9
:103CC000BFE38093750290937602A0937702B0933E
:103CD0007802E3E9F5E08491882341F09091C000F7
:103CE00095FFFCCF8093C6003196F5CFEFE7F3E068
:103CF0008491882341F09091C00095FFFCCF809380
:103D0000C6003196F5CF8091C00085FFFCCF8AE0D8
:103D10008093C600E0960FB6F894DEBF0FBECDBF0D
:103D2000DF91CF911F910F91FF90EF90DF90CF9097
:103D3000BF90AF900895CF93DF93CDB7DEB768976C
:103D40000FB6F894DEBF0FBECDBF84E690E0988F2B
:103D50008F8B86E591E3A0E3B0E089839A83AB8300
:103D6000BC8344E0BE016B5F7F4FCE0147960E944B
:103D7000881643E050E0BE016B5F7F4FCE01019695
:103D80000E94E4AB892B09F0CEC040E162E27EE004
:103D9000CE0147960E94881640E162E37EE0CE01A4
:103DA00047960E94881640E162E17EE0CE01479688
:103DB0000E9488160E94146344E06AE07EE0CE010F
:103DC00047960E94881644E066E07EE0CE01479662
:103DD0000E94881644E06EE07EE0CE0147960E9485
:103DE000881644E066EF7DE0CE0147960E94881673
:103DF00044E062E47EE0CE0147960E94881644E0EB
:103E000062E07EE0CE0147960E94881644E06EEFA5
:103E10007DE0CE0147960E94881644E06AEF7DE07F
:103E2000CE0147960E9488164CE066EB75E0CE0105
:103E300047960E94881642E0BE016B5E7F4FCE011E
:103E400047960E94881642E0BE016D5E7F4FCE010C
:103E500047960E94881642E0BE016F5E7F4FCE01FA
:103E600047960E94881642E0BE01615F7F4FCE01F7
:103E700047960E94881642E0BE01635F7F4FCE01E5
:103E800047960E94881642E0BE01655F7F4FCE01D3
:103E900047960E94881644E063EA75E0CE01479693
:103EA0000E94881644E061E872E0CE0147960E94C5
:103EB000881644E06DE772E0CE0147960E948816AE
:103EC00044E069E772E0CE0147960E94881642E01E
:103ED000BE01675F7F4FCE0147960E9488160E9401
:103EE000A58EE3E9F5E08491882341F09091C0002C
:103EF00095FFFCCF8093C6003196F5CFE1EAF3E061
:103F00008491882341F09091C00095FFFCCF80936D
:103F1000C6003196F5CF8091C00085FFFCCF8AE0C6
:103F20008093C60001C0BDDD68960FB6F894DEBF71
:103F30000FBECDBFDF91CF910895FC0165917591C2
:103F400085919491089561E088E00C94E8A08091B7
:103F50000B0290910C02A0910D02B0910E02809381
:103F60007B0590937C05A0937D05B0937E058091A1
:103F70002402909125029093D3058093D20584E684
:103F800090E090932502809324020E94E39E609328
:103F90009C0470939D0480939E0490939F0481E001
:103FA0000C94048580E00E94048580917B059091AB
:103FB0007C05A0917D05B0917E0580930B029093C6
:103FC0000C02A0930D02B0930E028091D205909145
:103FD000D30590932502809324020E94E39E609370
:103FE0009C0470939D0480939E0490939F04089575
:103FF0004F925F926F927F928F929F92AF92BF92F9
:10400000CF92DF92EF92FF920F931F9340900B029B
:1040100050900C0260900D0270900E02812CE0E82E
:104020009E2EEBEBAE2EE5E4BE2E80920B0290921C
:104030000C02A0920D02B0920E026093C205709322
:10404000C3058093C4059093C5052093C60530939E
:10405000C7054093C8055093C905E092CA05F09280
:10406000CB050093CC051093CD05E2EAF5E0FF9374
:10407000EF93812C912CF8ECAF2EF2E4BF2EAEEC36
:10408000CA2EA5E0DA2E0E945B570E94128D409244
:104090000B0250920C0260920D0270920E020F9071
:1040A0000F901F910F91FF90EF90DF90CF90BF90F6
:1040B000AF909F908F907F906F905F904F900895FA
:1040C0002F923F924F925F926F927F928F929F9228
:1040D000AF92BF92CF92DF92EF92FF920F931F9316
:1040E000CF93DF9386E492E00E942899EEE2F2E01B
:1040F000608171818281938160930B0270930C02C5
:1041000080930D0290930E0220E030E040E752E4ED
:104110000E945DA24B015C01C6ECD5E0288139818B
:104120004A815B81E2ECF5E060817181828193815B
:10413000B2EA2B2EB5E03B2E3F922F921EECC12E01
:1041400015E0D12EE12CF12C00E711EC0E945B5719
:104150000E94128D82E00E94788D4B015C012881C3
:1041600039814A815B81E2ECF5E060817181828175
:104170009381850174010E94EF6182E09BE0DDDEA6
:104180009B01AC01C501B4010E947DA12B013C0142
:1041900020E030E040E752E460910B0270910C02A5
:1041A00080910D0290910E020E945DA24B015C0174
:1041B000288139814A815B81E2ECF5E0608171817F
:1041C000828193813F922F92830172010E945B57FB
:1041D0000E94128D20E030E040E85EE3EEE2F2E083
:1041E00060817181828193810E942BA54B015C01CA
:1041F00060930B0270930C0280930D0290930E0259
:1042000082E09BE09ADE6B017C0120E030E040E739
:1042100052E4C501B4010E945DA24B015C01A701FB
:104220009601C701B6010E947DA19B01AC01C301AB
:10423000B2010E947CA17B018C01288139814A81D5
:104240005B81E2ECF5E060817181828193813F9234
:104250002F92FEECCF2EF5E0DF2E0E945B570E94DE
:10426000128D82E00E94788D7B018C016093CA05DB
:104270007093CB058093CC059093CD05288139812F
:104280004A815B81E2ECF5E06081718182819381FA
:104290000E94EF610F900F900F900F900F900F9072
:1042A000DF91CF911F910F91FF90EF90DF90CF9012
:1042B000BF90AF909F908F907F906F905F904F9046
:1042C0003F902F9008952F923F924F925F926F925E
:1042D0007F928F929F92AF92BF92CF92DF92EF9296
:1042E000FF920F931F93CF93DF93CDB7DEB72A973B
:1042F0000FB6F894DEBF0FBECDBF9E838D83FC0149
:10430000E950F54FB490880F991F880F991F9A872D
:1043100089878E539A4F9A838983DC011D921D925F
:104320001D921C921397BAEC2B2EB5E03B2EF10197
:10433000E080F18002811381A6ECB5E02D913D91E2
:104340004D915C91E2ECF5E0608171818281938115
:10435000EEECCE2EE5E0DE2E0E94EF6189859A8597
:104360008A5F944FEADD6B017C016B2D772767FD37
:104370007095872F972F0E94F8A22B013C01298569
:104380003A8521573A4F3C832B8320E030E040ECC4
:104390005FE3C701B6010E942BA5A30192010E9411
:1043A0002BA5AB81BC816D937D938D939C931397CB
:1043B000E985FA85EA5DFD4FF887EF8360817181B9
:1043C0008281938160930B0270930C0280930D02A3
:1043D00090930E0220E030E040E752E40E945DA29C
:1043E0004B015C01A7E9B5E0ED90FD900D911C91AA
:1043F000E3E9F5E02081318142815381AFE8B5E006
:104400006D917D918D919C91A2EAB5E0BF93AF93A0
:10441000FBE9CF2EF5E0DF2E0E945B570E94128D44
:10442000A981BA811D921D921D921C921397F101D0
:10443000E080F18002811381A6ECB5E02D913D91E1
:104440004D915C91E2ECF5E0608171818281938114
:10445000AEECCA2EA5E0DA2E0E94EF6129853A85DE
:104460002650354F1901C90168DD9058A30192010A
:104470000E942BA5AB81BC816D937D938D939C9302
:10448000139720E030E040E752E460910B02709116
:104490000C0280910D0290910E020E945DA24B01D0
:1044A0005C01E7E9F5E0E080F18002811381A3E996
:1044B000B5E02D913D914D915C91EFE8F5E0608183
:1044C000718182819381A2EAB5E0BF93AF93BBE98A
:1044D000CB2EB5E0DB2E0E945B570E94128DC101EE
:1044E0002CDD9B01AC010E947DA1A30192010E94E1
:1044F0002BA5AB81BC816D937D938D939C9313977A
:1045000020E030E040E05FE3EF81F8856081718179
:10451000828193810E942BA560930B0270930C0201
:1045200080930D0290930E0220E030E040E752E4C9
:104530000E945DA24B015C01A7E9B5E0ED90FD9002
:104540000D911C91E3E9F5E0208131814281538195
:10455000AFE8B5E06D917D918D919C91A2EAB5E0B7
:10456000BF93AF930E945B570E94128D89859A85F5
:104570008E5E944FE2DC09851A850A541A4FD801E1
:104580002D913D914D915C910E947DA1E981FA812F
:10459000608371838283938389859A85865D944F36
:1045A000CCDC29853A8526553A4F7901D8012D91E1
:1045B0003D914D915C910E947DA1F70160837183D3
:1045C0008283938389859A85825E944FB6DC2985A0
:1045D0003A85205F3D4F7901D8012D913D914D9154
:1045E0005C910E947DA1F701608371838283938334
:1045F000E981FA8180819181A281B381EB81FC8183
:1046000080839183A283B38310920B0210920C02D9
:1046100010920D0210920E020E94FD84ED81FE8127
:10462000E955FA4F81E080830F900F900F900F9023
:104630000F900F902A960FB6F894DEBF0FBECDBF35
:10464000DF91CF911F910F91FF90EF90DF90CF906E
:10465000BF90AF909F908F907F906F905F904F90A2
:104660003F902F900895FC012491222341F0309136
:10467000C00035FFFCCF2093C6000196F4CF22E0A6
:1046800030E086E698E00C94134FFC01249122233D
:1046900041F03091C00035FFFCCF2093C600019659
:1046A000F4CF2AE030E086E698E00C94694ECF9390
:1046B000DF931F921F92CDB7DEB78091C511909105
:1046C000C6119E012F5F3F4F009719F42B5C3141BB
:1046D00002C0281B390B3A83298389819A810F9064
:1046E0000F90DF91CF9108954091A8045091A904B3
:1046F00060E6649F9001659F300D1124BC01C901E3
:104700008D5F9A4F0C94DDAB2091A6043091A704E5
:10471000223031050CF06AC04091A8045091A904E0
:1047200060E6649F9001659F300D1124BC01C901B2
:1047300082559B4F0E94DDABE6E3FBE0849188232A
:1047400041F09091C00095FFFCCF8093C600319658
:10475000F5CFECEEFAE08491882341F09091C0000F
:1047600095FFFCCF8093C6003196F5CF8091A804C9
:104770009091A90420E6289FF001299FF00D1124B3
:10478000E255FB4F8191882339F09091C00095FF4D
:10479000FCCF8093C600F6CFEAEEFAE0849188233E
:1047A00041F09091C00095FFFCCF8093C6003196F8
:1047B000F5CF8091C00085FFFCCF8AE08093C600D2
:1047C0008091A8049091A904019662E070E00E9493
:1047D00014A69093A9048093A8048091A6049091B4
:1047E000A70401969093A7048093A60408952091AE
:1047F000A6043091A704223031050CF06AC0409124
:10480000A8045091A90460E6649F9001659F300D53
:104810001124BC01C90182559B4F0E946FABE6E396
:10482000FBE08491882341F09091C00095FFFCCF7C
:104830008093C6003196F5CFEFEDFAE0849188239E
:1048400041F09091C00095FFFCCF8093C600319657
:10485000F5CF8091A8049091A90420E6289FF0014B
:10486000299FF00D1124E255FB4F8191882339F0E7
:104870009091C00095FFFCCF8093C600F6CFEDED80
:10488000FAE08491882341F09091C00095FFFCCF1D
:104890008093C6003196F5CF8091C00085FFFCCF94
:1048A0008AE08093C6008091A8049091A9040196A3
:1048B00062E070E00E9414A69093A9048093A8047B
:1048C0008091A6049091A70401969093A7048093E9
:1048D000A60408950A9A129A089562E082E10E945D
:1048E000AFA061E088E00E94AFA060E088E00E9495
:1048F000E8A043E050E063EA7FE185E00E94A09CED
:10490000E9DF40E052EC61E070E086E698E00E946A
:10491000294DE7EDFAE08491882341F09091C000A1
:1049200095FFFCCF8093C6003196F5CF8091C000F3
:1049300085FFFCCF8AE08093C60086E39BE0FC0104
:104940002491222341F03091C00035FFFCCF209309
:10495000C6003196F5CF24B720FF14C0EFECFAE083
:104960003491332341F04091C00045FFFCCF309398
:10497000C6003196F5CF3091C00035FFFCCF3AE04C
:104980003093C60021FF14C0EFEBFAE034913323DB
:1049900041F04091C00045FFFCCF3093C6003196F6
:1049A000F5CF3091C00035FFFCCF3AE03093C60020
:1049B00022FF14C0EEEAFAE03491332341F0409133
:1049C000C00045FFFCCF3093C6003196F5CF309143
:1049D000C00035FFFCCF3AE03093C60023FF14C07F
:1049E000EEE9FAE03491332341F04091C00045FFF5
:1049F000FCCF3093C6003196F5CF3091C00035FF23
:104A0000FCCF3AE03093C60025FF14C0EEE8FAE090
:104A10002491222341F03091C00035FFFCCF209338
:104A2000C6003196F5CF2091C00025FFFCCF2AE0CB
:104A30002093C60014BEE1E7FAE02491222341F05E
:104A40003091C00035FFFCCF2093C6003196F5CFE2
:104A5000EAE6FAE02491222341F03091C00035FFCC
:104A6000FCCF2093C6003196F5CF2091C00025FFE2
:104A7000FCCF2AE02093C600FC012491E6E3FBE092
:104A8000222349F03091C00035FFFCCF2093C600AF
:104A900031962491F5CFEAE5FAE02491222341F002
:104AA0003091C00035FFFCCF2093C6003196F5CF82
:104AB000E5E4FAE02491222341F03091C00035FF73
:104AC000FCCF2093C6003196F5CFE9E3FAE02491BC
:104AD000222341F03091C00035FFFCCF2093C60067
:104AE0003196F5CFECE1FAE02491222341F03091A8
:104AF000C00035FFFCCF2093C6003196F5CF209142
:104B0000C00025FFFCCF2AE02093C600E1E1FAE0D7
:104B10002491222341F03091C00035FFFCCF209337
:104B2000C6003196F5CFE5E0FAE02491222341F06A
:104B30003091C00035FFFCCF2093C6003196F5CFF1
:104B40002091C00025FFFCCF2AE02093C600FC0185
:104B50008491E6E3FBE0882349F09091C00095FF43
:104B6000FCCF8093C60031968491F5CFE6EFF9E053
:104B70008491882341F09091C00095FFFCCF8093F1
:104B8000C6003196F5CF93DD4AE050E0BC0186E6E1
:104B900098E00E943D4EEFEDF9E08491882341F0CA
:104BA0009091C00095FFFCCF8093C6003196F5CF61
:104BB0004AE050E060ED74E086E698E00E943D4EE9
:104BC0008091C00085FFFCCF8AE08093C6001092E0
:104BD000AC041092AD04AFD80E947D900E94F555B0
:104BE0000E948E8CFFEF23ED80E3F1502040804047
:104BF000E1F700C0000008958091A0049091A10405
:104C000060E070E001960C94B5A78091A0049091AB
:104C1000A1044AE050E060E070E001960C941DA908
:104C2000682F772767FD70952091AA043091AB0417
:104C300040E6429FC001439F900D112482559B4F37
:104C40000E94C9AB9093A1048093A00421E0892B1A
:104C500009F420E0822F08950E94E39E60939C0453
:104C600070939D0480939E0490939F04E091AA0406
:104C7000F091AB04E455FB4F8081811114C0EEE24A
:104C8000F6E08491882341F09091C00095FFFCCF1D
:104C90008093C6003196F5CF8091C00085FFFCCF90
:104CA0008AE08093C600089586E698E00E947B4DD6
:104CB000E1E3F6E08491882341F09091C00095FFF4
:104CC000FCCF8093C6003196F5CF4091730550918B
:104CD000740560917505709176054F5F5F4F6F4F5A
:104CE0007F4F2AE030E086E698E00E941A4E8091DD
:104CF000C00085FFFCCF8AE08093C600ADCF8F92C5
:104D00009F92AF92BF92CF92DF92EF92FF920F935A
:104D10001F93CF93DF93CFE1EC2EC4E0FC2E02EC87
:104D200015E0CFE8D5E084EDC82E85E0D82EF70158
:104D300081917F0175DF882311F15EDF4B015C01FA
:104D4000F6018081811103C060916E0501C061E0B0
:104D500070E080E090E00E94F8A2F80120813181AB
:104D6000428153810E942BA59B01AC01C501B40176
:104D70000E947DA1688379838A839B8309C0F8019F
:104D800080819181A281B38188839983AA83BB8327
:104D90000C5F1F4F2496FFEFCF1ADF0A83E2E8165D
:104DA00084E0F80621F686E43BDF8823D1F024DF97
:104DB0006B017C0160937F05709380058093810572
:104DC0009093820520E030E0A9010E9459A41816B2
:104DD00044F4C0920B02D0920C02E0920D02F092C9
:104DE0000E02DF91CF911F910F91FF90EF90DF9016
:104DF000CF90BF90AF909F908F90089580DF89E40F
:104E00000FDF882351F0F8DE6093830570938405EB
:104E1000809385059093860508C0109283051092B3
:104E2000840510928505109286058AE4F9DE8823B0
:104E300051F0E2DE609387057093880580938905C1
:104E400090938A0508951092870510928805109214
:104E5000890510928A050895CF92DF92EF92FF9212
:104E6000CF93DF93EC01C090AA05D090AB05E09002
:104E7000AC05F090AD05A7019601688179818A8122
:104E80009B810E9456A287FF04C0C882D982EA8211
:104E9000FB82C090AE05D090AF05E090B005F090D9
:104EA000B105A70196016C817D818E819F810E9451
:104EB00056A287FF04C0CC82DD82EE82FF82C090C2
:104EC000B205D090B305E090B405F090B505A70108
:104ED0009601688579858A859B850E9456A287FF01
:104EE00004C0C886D986EA86FB86C0901002D0909E
:104EF0001102E0901202F0901302A701960168815E
:104F000079818A819B810E9459A4181624F4C88251
:104F1000D982EA82FB82C0901402D0901502E09000
:104F20001602F0901702A70196016C817D818E8197
:104F30009F810E9459A4181624F4CC82DD82EE824F
:104F4000FF82C0901802D0901902E0901A02F090EF
:104F50001B02A7019601688579858A859B850E9439
:104F600059A4181624F4C886D986EA86FB86DF91F0
:104F7000CF91FF90EF90DF90CF9008954F925F9286
:104F80006F927F928F929F92AF92BF92CF92DF9259
:104F9000EF92FF920F931F93CF93DF93CDB7DEB7BE
:104FA00028970FB6F894DEBF0FBECDBF8FE895E00F
:104FB00053DF0E94E39E60939C0470939D04809352
:104FC0009E0490939F0420918F053091900540910D
:104FD00091055091920529833A834B835C836091BC
:104FE000C2057091C3058091C4059091C5050E94CA
:104FF00056A240909305509094056090950570904E
:10500000960520919705309198054091990550910A
:105010009A052D833E834F83588781118BC0A3014E
:1050200092016091C6057091C7058091C805909165
:10503000C9050E9456A281117DC020E030E040E702
:1050400052E460910B0270910C0280910D029091DC
:105050000E020E945DA24B015C0182EA95E09F93E3
:105060008F939BE9C92E95E0D92EED80FE800F81AC
:105070001885A301920169817A818B819C810E94AC
:105080005B570F900F9080918F0590919005A091A4
:105090009105B09192058093C2059093C305A093AA
:1050A000C405B093C5058091930590919405A09196
:1050B0009505B09196058093C6059093C705A0937A
:1050C000C805B093C9058091970590919805A09166
:1050D0009905B0919A058093CA059093CB05A0934A
:1050E000CC05B093CD0580919B0590919C05A09136
:1050F0009D05B0919E058093CE059093CF05A0931A
:10510000D005B093D10528960FB6F894DEBF0FBE38
:10511000CDBFDF91CF911F910F91FF90EF90DF9066
:10512000CF90BF90AF909F908F907F906F905F9047
:105130004F9008956091240270912502882777FD91
:105140008095982F0E94F8A220910B0230910C02BA
:1051500040910D0250910E020E942BA520E030E0FC
:1051600040E752E40E945DA220E030E048EC52E4C7
:1051700070CFAF92BF92CF92DF92EF92FF920F93D8
:105180001F93CF93DF93D82F209187053091880507
:105190004091890550918A0560918305709184053D
:1051A00080918505909186050E9466A4C62F172FD1
:1051B000082FF92E6091240270912502882777FD2F
:1051C0008095982F0E94F8A220910B0230910C023A
:1051D00040910D0250910E020E942BA520E030E07C
:1051E00040E752E40E945DA220E030E048EC52E447
:1051F0000E945DA22091A2052F93DF93FF920F934F
:105200001F93CF935B016C0122E0E22E01E020E0CE
:1052100043E855E06FE875E082EC95E00E94144F9A
:1052200080918F0590919005A0919105B091920584
:105230008093C2059093C305A093C405B093C505A0
:105240008091930590919405A0919505B091960554
:105250008093C6059093C705A093C805B093C90570
:105260008091970590919805A0919905B0919A0524
:105270008093CA059093CB05A093CC05B093CD0540
:1052800080919B0590919C05A0919D05B0919E05F4
:105290008093CE059093CF05A093D005B093D10510
:1052A0000E94E39E60939C0470939D0480939E04EF
:1052B00090939F040F900F900F900F900F900F906E
:1052C000DF91CF911F910F91FF90EF90DF90CF90E2
:1052D000BF90AF900895F8940E940D91169A109285
:1052E000A705469A1092A805409A1092A905139A0C
:1052F00060E088E10E94AFA0ECE3FBE084918823AA
:1053000041F09091C00095FFFCCF8093C60031968C
:10531000F5CFEFE0F6E08491882341F09091C00052
:1053200095FFFCCF8093C6003196F5CF8091C000E9
:1053300085FFFCCF8AE08093C600FFCF2F923F927B
:105340004F925F926F927F928F929F92AF92BF9295
:10535000CF92DF92EF92FF920F931F93CF93DF9341
:10536000CDB7DEB7A8970FB6F894DEBF0FBECDBF9E
:1053700050E6952E02E010E062EAE62E68E0F62E96
:1053800078E1C72E79E0D72E882483948091E708AE
:105390009091E8082091E9083091EA08821B930B6C
:1053A0008F779927892B39F08091A6049091A704D3
:1053B00002970CF447C08091DA05882309F4BDC335
:1053C0008091A3049091A404892B09F0B6C3809125
:1053D000A6049091A704892B11F410928C043CE34D
:1053E000C32ED12CE12CF12C40E1442E4EE0542E62
:1053F000612C712C9E012F5F3F4F190100E611E0D7
:1054000040915B0850915C0860915D0870915E0866
:105410008091530890915408A0915508B091560876
:10542000481759076A077B0708F087C38091A604CD
:105430009091A70402970CF080C380918C04811195
:105440007CC34EC286E698E00E945F4D8093A5041F
:105450002091A3043091A4048A3061F08D3051F082
:105460008A3321F49091A204992321F02F3531053C
:105470000CF458C12115310509F472C18091A804BA
:105480009091A904989E5001999EB00C1124F501A9
:10549000E20FF31FE255FB4F10822091A20421116D
:1054A0003CC1FC01E455FB4F1082950122553B4F56
:1054B00039016EE470E0C9010E94C9AB0097F1F1B7
:1054C0009093A1048093A004861997098A0D9B1DCF
:1054D0004AE050E060E070E081559B4F0E941DA9BA
:1054E00060937705709378058093790590937A059A
:1054F0004090730550907405609075057090760526
:105500003FEF431A530A630A730AA090A804B090AD
:10551000A904641575058605970509F424C19A9CAC
:10552000C0019B9C900D112461EC79E082559B4F4A
:105530000E948EAB892B09F016C1A5C16AE270E00A
:10554000C3010E94C9AB892B09F444C0ECE3FBE022
:105550008491882341F09091C00095FFFCCF809307
:10556000C6003196F5CFEBE1F9E08491882341F054
:105570009091C00095FFFCCF8093C6003196F5CF87
:105580004091730550917405609175057091760591
:105590002AE030E086E698E00E941A4E8091C00032
:1055A00085FFFCCF8AE08093C6001092A40410927D
:1055B000A304C3C28091770590917805A0917905E5
:1055C000B0917A058093730590937405A093750547
:1055D000B09376058091A8049091A904989E5001FB
:1055E000999EB00C1124C50182559B4F3C0167E484
:1055F00070E00E94C9AB009709F445C09093A104E4
:105600008093A004861997098A0D9B1D60E070E0C5
:1056100081559B4F0E94B5A70E94C5A264307105B9
:1056200090F580918E04811118C08091D805811168
:105630002AC0F6018491E8E1F9E0882349F09091CD
:10564000C00095FFFCCF8093C60031968491F5CFC2
:105650008091C00085FFFCCF13C0F7018491E2EA7E
:10566000F8E0882349F09091C00095FFFCCF80932B
:10567000C60031968491F5CF8091C00085FFFCCFA4
:105680008AE08093C6002091A8043091A904929EDC
:10569000C001939E900D11246AEC72E082559B4FDD
:1056A0000E94D4AB892B09F416DE40915B0850911F
:1056B0005C0860915D0870915E088091530890913C
:1056C0005408A0915508B0915608481759076A0721
:1056D0007B0770F488ED95E00E940C142AE0AE017F
:1056E000415E5F4F0E9423ACCE014F960E9474230F
:1056F0008091A8049091A9040196B8010E9414A673
:105700009093A9048093A8048091A6049091A70483
:1057100001969093A7048093A6041092A40410927B
:10572000A30434CE8B3311F48092A2049091A2048E
:1057300091112CCE4091A8045091A904B9016F5F3A
:105740007F4F7093A4046093A304949EF001959EF0
:10575000F00D1124E20FF31FE255FB4F808316CEAC
:105760001092A204EAC19A9C30019B9C700C1124F7
:10577000C30182559B4F2C016AE270E00E94C9ABC5
:10578000009789F5ECE3FBE08491882341F0909148
:10579000C00095FFFCCF8093C6003196F5CFE5E4BD
:1057A000F9E08491882341F09091C00095FFFCCFEF
:1057B0008093C6003196F5CF4091730550917405E2
:1057C00060917505709176052AE030E086E698E0F4
:1057D0000E941A4E8091C00085FFFCCF8AE0809322
:1057E000C60062DAE2CE20E0B12CF301E20FF11D37
:1057F000E255FB4F30813A3219F02F5FB326F5CFD7
:105800009093A1048093A00484199509860D971D97
:1058100060E070E081559B4F0E94B5A70E94C5A231
:105820002B2D30E02617370709F4C4CEECE3FBE05C
:105830008491882341F09091C00095FFFCCF809324
:10584000C6003196F5CFEFE6F9E08491882341F068
:105850009091C00095FFFCCF8093C6003196F5CFA4
:1058600040917305509174056091750570917605AE
:105870002AE030E086E698E00E941A4E8091C0004F
:1058800085FFFCCFABCFECE3FBE08491882341F0B4
:105890009091C00095FFFCCF8093C6003196F5CF64
:1058A000EEE8F9E08491882341F09091C00095FFE3
:1058B000FCCF8093C6003196F5CF4091730550918F
:1058C000740560917505709176052AE030E086E6F2
:1058D00098E00E941A4E8091C00085FFFCCF7ECFD9
:1058E0008091AE079091AF07A091B007B091B1073A
:1058F00080935B0890935C08A0935D08B0935E086A
:1059000086EA97E00E949E79482F8093A5048A300A
:10591000B9F04D30A9F0433229F42091A2042111AD
:1059200003C00EC04A33C9F32091A3043091A404EC
:105930002F3531052CF48F3F5FEF950709F0DFC05D
:1059400040915B0850915C0860915D0870915E0821
:105950008091530890915408A0915508B091560831
:10596000481759076A077B0708F47EC0EFE8F8E09C
:105970008491882341F09091C00095FFFCCF8093E3
:10598000C6003196F5CF8091C00085FFFCCF8AE03C
:105990008093C6000E94E39E6093900470939104EC
:1059A0008093920490939304809094049090950433
:1059B000A0909604B0909704681979098A099B0908
:1059C00028EE33E040E050E00E9427A649015A014A
:1059D000CA01B901A70196010E9427A6CA01B9010F
:1059E000A70196010E9427A67F936F93C501B4017A
:1059F000A30192010E9427A63F932F93ABE7B8E043
:105A0000BF93AF933F922F920E9444ACE6E3FBE03A
:105A100084910FB6F894DEBF0FBECDBF882349F046
:105A20009091C00095FFFCCF8093C6003196849181
:105A3000F5CFF1018191882339F09091C00095FF55
:105A4000FCCF8093C600F6CF8091C00085FFFCCFCD
:105A50008AE08093C60088ED95E00E94E71561E03A
:105A600088ED95E00E94DE148091A504833211F444
:105A700010938C048091A3049091A404892B09F4C1
:105A80006FCE88ED95E00E940C142AE0AE01415ED5
:105A90005F4F0E9423ACCE014F960E9474238091E9
:105AA000A8049091A904089FF001099FF00D11240A
:105AB0002091A3043091A404E20FF31FE255FB4FA1
:105AC0001082FC01E455FB4F10832091A604309115
:105AD000A7042F5F3F4F3093A7042093A60401969D
