:100000000C94ED0B0C941E0C0C941E0C0C941E0CFA
:100010000C941E0C0C941E0C0C941E0C0C941E0CB8
:100020000C941E0C0C941E0C0C941E0C0C941E0CA8
:100030000C941E0C0C941E0C0C941E0C0C941E0C98
:100040000C941E0C0C947E720C941E0C0C941E0CC2
:100050000C941E0C0C941E0C0C94AE870C94B68E53
:100060000C941E0C0C942F460C941E0C0C941E0C1D
:100070000C941E0C0C941E0C0C941E0C0C941E0C58
:100080000C94696F0C941E0C0C941E0C0C941E0C9A
:100090000C941E0C0C941E0C0C941E0C0C94888D4D
:1000A0000C941E0C0C941E0C0C94966F0C941E0C4D
:1000B0000C941E0C0C941E0C0C941E0C0C94C36F10
:1000C0000C941E0C0C941E0C0C941E0C0C941E0C08
:1000D0000C941E0C0C941E0C0C941E0C0C941E0CF8
:1000E0000C941E0CF787048820882D88478849883F
:1000F0004B884D885588D98FDE8FE38FED8FF78F32
:1001000070900190099011901B9025902F903E9037
:100110004890709052905C906690919094908390EB
:1001200087908D90CB9098909C90A290A690AA904A
:10013000B090B490B890CB90BE90C290C690084A50
:10014000D73B3BCE016E84BCBFFDC12F3D6C7431EB
:100150009ABD56833DDA3D00C77F11BED9E4BB4C42
:100160003E916BAAAABE000000803F05A84CCDB20C
:10017000D44EB93836A9020C50B9918688083CA6ED
:10018000AAAA2ABE000000803F000A00454550523E
:100190004F4D204552524F5200204400204900202C
:1001A00020204D3330312050005049442073657475
:1001B00074696E67733A00205A0020590020204D60
:1001C000323036205800486F6D65206F6666736563
:1001D0007420286D6D293A00204500205A002058CF
:1001E0000020420020540020204D323035205300A2
:1001F000416476616E636564207661726961626CE8
:1002000065733A20533D4D696E2066656564726181
:10021000746520286D6D2F73292C20543D4D696E17
:100220002074726176656C206665656472617465C0
:1002300020286D6D2F73292C20423D6D696E696DEC
:10024000756D207365676D656E742074696D6520CA
:10025000286D73292C20583D6D6178696D756D206E
:100260005859206A65726B20286D6D2F73292C20D8
:10027000205A3D6D6178696D756D205A206A6572EE
:100280006B20286D6D2F73292C2020453D6D6178E2
:10029000696D756D2045206A65726B20286D6D2F24
:1002A00073290020540020204D3230342053004167
:1002B0006363656C65726174696F6E3A20533D616A
:1002C0006363656C65726174696F6E2C20543D7256
:1002D00065747261637420616363656C65726174D7
:1002E000696F6E00204500205A0020590020204DE3
:1002F0003230312058004D6178696D756D20416351
:1003000063656C65726174696F6E20286D6D2F7303
:1003100032293A00204500205A0020590020204D63
:100320003230332058004D6178696D756D206665F7
:100330006564726174657320286D6D2F73293A00AE
:10034000204500205A0020590020204D39322058E5
:100350000053746570732070657220756E69743A0D
:100360000053657474696E67732053746F726564AB
:10037000004543484F3E004552524F523E00507296
:10038000696E7465722073746F7070656420647533
:100390006520746F206572726F72732E20466978C3
:1003A00020746865206572726F7220616E642075BA
:1003B0007365204D39393920746F2072657374610B
:1003C00072742E202854656D706572617475726543
:1003D0002069732072657365742E205365742069DB
:1003E00074206166746572207265737461727469D9
:1003F0006E6729005072696E7465722068616C7452
:1004000065642E206B696C6C28292063616C6C65B7
:100410006421006F6B00526573656E643A2000457D
:100420006E6473746F70206E6F7420707265737376
:10043000656420616674657220686F6D696E6720FF
:10044000646F776E2E205A2D6D696E2073776974F4
:100450006368206F72205A2D6F66667365742D7302
:10046000656E736F722062726F6B656E3F0A004536
:100470006E6473746F70207374696C6C2070726535
:1004800073736564206166746572206261636B6971
:100490006E67206F66662E205A2D6D696E20737709
:1004A00069746368206F72205A2D6F666673657475
:1004B0002D73656E736F7220737475636B3F0A00E2
:1004C000456E6473746F70206E6F74207072657304
:1004D00073656420616674657220686F6D696E670C
:1004E00020646F776E2E205A2D6D696E20737769A8
:1004F000746368206F72205A2D6F66667365742D61
:1005000073656E736F722062726F6B656E3F0A0067
:100510000A00207A3A200020793A200020783A20F8
:1005200000426564002200556E6B6E6F776E20632B
:100530006F6D6D616E643A2022005A204F666673BB
:100540006574203A20007A5F6D61783A20007A5F06
:100550006D696E3A20005A204F6666736574005AC2
:10056000204F6666736574206F6B007A5F6D6178EB
:100570003A20007A5F6D696E3A2000795F6D61788C
:100580003A2000795F6D696E3A2000785F6D61787E
:100590003A2000785F6D696E3A2000205A3A0020B8
:1005A000593A0020436F756E7420583A2000204657
:1005B0003A0020453A00205A3A0020593A00583A69
:1005C000004649524D574152455F4E414D453A4DC7
:1005D00061726C696E20666F72206D6F73746675E0
:1005E0006E2050726F3B204D414348494E455F5449
:1005F0005950453A6D6F737466756E2050726F2056
:1006000045585452554445525F434F554E543A3124
:1006100020555549443A30303030303030302D306C
:100620003030302D303030302D303030302D3030D3
:10063000303030303030303030300A0020423A0034
:1006400020453A00543A0020573A0020453A0054D9
:100650003A002042403A0020403A00202F003A0061
:10066000205400202F0020423A00202F006F6B20E2
:10067000543A002569206D696E2C20256920736528
:1006800063000A00454550524F4D204552524F528B
:10069000000A0063757272656E745F6F66667365DB
:1006A000743A200077726974655F656570726F6D6A
:1006B0005F77726974655F666C6167000A007A70C3
:1006C000726F62655F6F66667365745F73656E7384
:1006D0006F723A20000A00205A3A200020593A202E
:1006E0000020583A2000426564000A004175746F8A
:1006F0005F6C657665696E672066696E6973680010
:1007000020643A200020623A200045716E20636F19
:10071000656666696369656E74733A20613A2000A4
:10072000486F6D6520582F59206265666F7265208D
:100730005A00456E6473746F70207374696C6C201A
:10074000707265737365642061667465722062619E
:10075000636B696E67206F66662E205A2D6D617817
:100760002073776974636820737475636B3F0A0044
:10077000456E6473746F70207374696C6C20707252
:100780006573736564206166746572206261636B72
:10079000696E67206F66662E205A2D6D696E207314
:1007A000776974636820737475636B3F0A00456EE4
:1007B0006473746F70207374696C6C2070726573ED
:1007C000736564206166746572206261636B696E33
:1007D00067206F66662E20592D6D617820737769CA
:1007E00074636820737475636B3F0A00456E6473AD
:1007F000746F70207374696C6C20707265737365AC
:1008000064206166746572206261636B696E672043
:100810006F66662E20592D6D696E2073776974633B
:100820006820737475636B3F0A00456E6473746F60
:1008300070207374696C6C207072657373656420CA
:100840006166746572206261636B696E67206F66B2
:10085000662E20582D6D6178207377697463682047
:10086000737475636B3F0A00456E6473746F702018
:100870007374696C6C207072657373656420616653
:10088000746572206261636B696E67206F66662EA5
:1008900020582D6D696E20737769746368207374B6
:1008A00075636B3F0A00456E6473746F70206E6FE2
:1008B000742070726573736564206166746572205C
:1008C000686F6D696E6720646F776E2E20582D6D8E
:1008D0006178206F7220592D6D617820737769746B
:1008E00063682062726F6B656E3F0A00456E6473C9
:1008F000746F70206E6F74207072657373656420FE
:10090000616674657220686F6D696E6720646F77C9
:100910006E2E205A2D6D617820737769746368207C
:1009200062726F6B656E3F0A000A00454550524F78
:100930004D204552524F52004D313132000A0020B5
:10094000463A0020453A00205A3A0020593A0058C9
:100950003A004D313030005072696E746572207308
:10096000746F707065642064756520746F206572A3
:10097000726F72732E2046697820746865206572E4
:10098000726F7220616E6420757365204D3939393C
:1009900020746F20726573746172742E2028546500
:1009A0006D7065726174757265206973207265730C
:1009B00065742E20536574206974206166746572B5
:1009C0002072657374617274696E6729006F6B00C1
:1009D0004E6F204C696E65204E756D626572207792
:1009E00069746820636865636B73756D2C204C6156
:1009F0007374204C696E653A20004E6F2043686521
:100A0000636B73756D2077697468206C696E6520FF
:100A10006E756D6265722C204C617374204C696E2A
:100A2000653A2000636865636B73756D206D69734B
:100A30006D617463682C204C617374204C696E6521
:100A40003A20004C696E65204E756D6265722069B2
:100A500073206E6F74204C617374204C696E652036
:100A60004E756D6265722B312C204C617374204C75
:100A7000696E653A20004D313130002020506C61A4
:100A80006E6E657242756666657242797465733A18
:100A900020002046726565204D656D6F72793A20A1
:100AA000004D6179203134203230313600286933ED
:100AB00077617465722C206D6F737466756E205348
:100AC000265420436F2E2C4C74642E2900207C2049
:100AD000417574686F723A20004D6179203134207D
:100AE000323031362031353A31333A303500204C0E
:100AF00061737420557064617465643A200020311C
:100B00002E302E30004D61726C696E20666F72203F
:100B10006D6F737466756E2050726F0020536F6630
:100B20007477617265205265736574002057617433
:100B30006368646F67205265736574002042726F4A
:100B4000776E206F75742052657365740020457848
:100B50007465726E616C20526573657400506F77B6
:100B600065725570007374617274000A0020463A11
:100B70000020453A00205A3A0020593A00583A00DD
:100B80000101010000A0400000A040000040400022
:100B9000005C430000344300002A4300005C430033
:100BA0000034430000204300005C43000034430055
:100BB0000020430000000000000000000020C149A8
:100BC0004E464F3E005741524E3E004543484F3E31
:100BD000004552524F523E0020746F6F206C6F6E72
:100BE0006720657874727573696F6E2070726576B0
:100BF000656E7465640020636F6C64206578747240
:100C00007573696F6E2070726576656E74656400C9
:100C10005741524E3E00205A3A0020593A0020587F
:100C20003A00656E6473746F7073206869743A205B
:100C30000024F4D43050C38E20C2A24017828B709F
:100C400011127A910D816CD90AA861E108C7586622
:100C500007615143061E4B5D05C145A7041A4111AA
:100C600004093D9803713931034036DB0265339145
:100C700002D4305402802E1D02632CEE01752AC569
:100C800001B028A001102781018F2564012B244B7E
:100C900001E0223401AC211F018D200D01801FFCD9
:100CA00000841EED00971DDF00B81CD200E61BC6B5
:100CB00000201BBC00641AB200B219A8000A19A0D7
:100CC000006A189900D117910040178B00B516845F
:100CD0000031167E00B31579003A157300C7146F02
:100CE0000058146A00EE1366008813630025135E33
:100CF00000C7125B006C12570015125400C111514D
:100D00000070114F0021114B00D61049008D104783
:100D1000004610440002104200C00F4000800F3E09
:100D200000420F3C00060F3B00CB0E3800930E37FD
:100D3000005C0E3500270E3400F30D3200C10D317A
:100D400000900D3000600D2E00320D2D00050D2C91
:100D500000D90C2B00AE0C2900850C29005C0C2757
:100D600000350C27000E0C2600E80B2400C40B24D1
:100D700000A00B23007D0B23005A0B2100390B210F
:100D800000180B2000F80A1F00D90A1E00BB0A1E1B
:100D9000009D0A1D00800A1D00630A1C00470A1BF3
:100DA000002C0A1B00110A1A00F7091A00DD0919A4
:100DB00000C4091900AB091900920917007B091832
:100DC00000630917004C09160036091600200916A1
:100DD000000A091500F5081500E0081400CC0814F5
:100DE00000B8081400A4081400900813007D08122D
:100DF000006B08130058081200460812003408114E
:100E000000230811001208110001081100F007105A
:100E100000E0071000D0071000C0071000B0070F57
:100E200000A107100091070E0083070F0074070F41
:100E30000065070E0057070E0049070E003B070D1F
:100E4000002E070E0020070D0013070D0006070DEA
:100E500000F9060C00ED060D00E0060C00D4060CAF
:100E600000C8060C00BC060C00B0060C00A4060B63
:100E70000099060C008D060B0082060B0077060B0E
:100E8000006C060B0061060A0057060B004C060AB0
:100E90000042060A0038060A002E060A0024060A46
:100EA000001A060A001006090007060A00FD0509D7
:100EB00000F4050900EB050900E2050900D9050960
:100EC00000D0050900C7050900BE050900B50508E1
:100ED00000AD050800A50509009C0508009405085B
:100EE000008C050800840508007C050800740508CE
:100EF000006C050700650508005D0507005605083C
:100F0000004E0507004705070040050800380507A3
:100F100000310507002A050700230507001C050608
:100F200000160507000F0507000805060002050763
:100F300000FB040600F5040700EE040600E80406C2
:100F400000E2040700DB040600D5040600CF040617
:100F500000C9040600C3040600BD040600B7040669
:100F600000B1040500AC040600A6040600A00405B8
:100F7000009B04060095040500900406008A040501
:100F80000085040500800406007A04050075040548
:100F900000700405006B040500660405006104058B
:100FA000005C04050057040500520405004D0405CB
:100FB0000048040500430405003E0404003A04050B
:100FC0000035040500300404002C04050027040447
:100FD00000230405001E0404001A0404001604057E
:100FE00000110404000D04040009040500040404B5
:100FF0000000040400FC030400F8030400F40304EC
:1010000000F0030400EC030400E8030400E403041C
:1010100000E0030400DC030400D8030400D403044C
:1010200000D0030400CC030400C8030300C503037D
:101030000024F404D9201BC40C5C0E9804C4095F7E
:101040000265077101F405F900FB04B30048048749
:1010500000C10369005803550003034500BE023A6E
:10106000008402310053022A0029022500040220D4
:1010700000E4011C00C8011900AF01170098011419
:101080000084011300710110006101100051010E74
:101090000043010D0036010B002B010B0020010B5A
:1010A00000150109000C01090003010800FB0008FC
:1010B00000F3000800EB000700E4000600DE000675
:1010C00000D8000600D2000600CC000500C70005CD
:1010D00000C2000500BD000400B9000400B5000412
:1010E00000B1000400AD000400A9000400A5000345
:1010F00000A20003009F0004009B0003009800036F
:10110000009500020093000300900003008D000290
:10111000008B0003008800020086000200840003A8
:1011200000810002007F0002007D0002007B0002BF
:1011300000790002007700010076000200740002CE
:101140000072000100710002006F0002006D0001DA
:10115000006C0002006A00010069000200670001E3
:1011600000660001006500010064000200620001E9
:101170000061000100600001005F0002005D0001ED
:10118000005C0001005B0001005A000100590001F1
:1011900000580001005700010056000100550001F1
:1011A00000540001005300000053000100520001F0
:1011B0000051000100500001004F0001004E0000EE
:1011C000004E0001004D0001004C0001004B0000EA
:1011D000004B0001004A00010049000100480000E6
:1011E00000480001004700010046000000460001E1
:1011F00000450000004500010044000100430000DC
:1012000000430001004200000042000100410000D4
:101210000041000100400001003F0000003F0001CC
:10122000003E0000003E0001003D0000003D0001C6
:10123000003C0000003C0000003C0001003B0000BE
:10124000003B0001003A0000003A000100390000B4
:1012500000390001003800000038000000380001AB
:1012600000370000003700010036000000360000A3
:101270000036000100350000003500000035000197
:10128000003400000034000000340001003300008E
:101290000033000000330001003200000032000083
:1012A0000032000100310000003100000031000177
:1012B000003000000030000000300001002F00006E
:1012C000002F0000002F0000002F0001002E000062
:1012D000002E0000002E0001002D0000002D000057
:1012E000002D0000002D0001002C0000002C00004B
:1012F000002C0000002C0001002B0000002B00003F
:10130000002B0000002B0001002A0000002A000032
:10131000002A0000002A0001002900000029000026
:101320000029000000290000002900010028000019
:10133000002800000028000000280000002800010C
:101340000027000000270000002700000027000001
:1013500000270001002600000026000000260000F3
:1013600000260000002600010025000000250000E6
:1013700000250000002500000025000000250001D8
:1013800000240000002400000024000000240000CD
:1013900000240001002300000023000000230000BF
:1013A00000230000002300000023000000230001B0
:1013B00000220000002200000022000000220000A5
:1013C0000022000000220001002100000021000096
:1013D0000021000000210000002100000021000089
:1013E000002100010020000000200000002000007B
:1013F000002000000020000000200000002000006D
:1014000000200001001F0000001F0000001F00005E
:10141000001F0000001F0000001F0000001F00014F
:10142000001E0000001E0000001E0000001E000044
:10143000004543484F3E0054656D70657261747598
:1014400072652068656174656420626564207377E5
:10145000697463686564206F66662E204D41585438
:10146000454D50207472696767657265642021215B
:10147000003A2045787472756465722073776974D8
:1014800063686564206F66662E204D494E54454D55
:1014900050207472696767657265642021003A2084
:1014A00045787472756465722073776974636865D2
:1014B00064206F66662E204D415854454D5020746F
:1014C0007269676765726564202100202D20496E6E
:1014D00076616C6964206578747275646572206EDB
:1014E000756D626572202100504944204175746F0A
:1014F00074756E652066696E697368656421205035
:10150000757420746865206C617374204B702C2096
:101510004B6920616E64204B6420636F6E7374614D
:101520006E74732066726F6D2061626F76652069DC
:101530006E746F20436F6E66696775726174696F50
:101540006E2E6800504944204175746F74756E6545
:10155000206661696C6564212074696D656F7574BE
:101560000020403A006F6B20543A006F6B20423AE3
:1015700000504944204175746F74756E6520666132
:10158000696C6564212054656D7065726174757253
:101590006520746F6F206869676800204B643A208B
:1015A00000204B693A2000204B703A200020436C09
:1015B00061737369632050494420002054753A20B8
:1015C00000204B753A2000206D61783A2000206D94
:1015D000696E3A200020643A200020626961733A03
:1015E00020004552524F523E001000C90260012CAB
:1015F00001A0012201E001180120020E0180020475
:1016000001F002FA006003F0000004E600C004DC10
:1016100000A005D200C006C8003008BE00C009B452
:1016200000C00BAA00200EA000E010960040148C11
:101630000000188200401C7800C0206E0060256405
:1016400000002A5A00702E500050324600C0353C2F
:101650000080383200C03A2800603C1E00A03D14D3
:1016600000703E0A00003F00000A00207A3A200085
:1016700020793A200020783A200000000A0B020965
:101680000C0D0E080703040100000000000000001C
:10169000000000000000000000000000000000004A
:1016A0000000000000001211100000000000000007
:1016B000000000000000000000000000000000002A
:1016C0000102102020080810204010204080020154
:1016D0000201080402010102040810204080804039
:1016E0002010080402018004020180402010080438
:1016F00002010804020101020408102040800102D6
:10170000040810204080050505050705080808089D
:10171000020202020A0A0808040404040101010189
:101720000101010103030303030303030407070784
:101730000C0C0C0C0C0C0C0C020202020606060629
:10174000060606060B0B0B0B0B0B0B0B0000200009
:101750002300260029002C002F0032000001000089
:1017600003010601090100002200250028002B00CA
:101770002E003100340002010000050108010B01B8
:1017800000002100240027002A002D003000330033
:1017900001010000040107010A014E414E494E4972
:1017A0005459494E46CDCCCC3D0AD7233C17B7D12E
:1017B0003877CC2B329595E6241FB14F0A000020D4
:1017C000410000C84200401C4620BCBE4CCA1B0E53
:1017D0005AAEC59D74002B465C8D11241FBECFEF01
:1017E000D1E2DEBFCDBF00E00CBF14E0A0E0B2E06C
:1017F000EAE1FCE301E00BBF02C007900D92A439BF
:10180000B107D9F72EE0A4E9B4E001C01D92A13FD1
:10181000B207E1F717E1CAEDD7E100E006C0229771
:101820000109FE010BBF0E94AD96C63DD10780E0C5
:101830000807A9F70E9463910C940B9E0C9400007A
:10184000EF92FF920F931F93CF93DF931F92CDB729
:10185000DEB78C017B01460FF70161917F01F80132
:101860008081918149830E94449DF801808191810A
:1018700001969183808349814E11EECF0F90DF91C5
:10188000CF911F910F91FF90EF900895EF92FF92EB
:101890000F931F93CF93DF931F92CDB7DEB78C01C9
:1018A0007B01460FF8018081918149830E943C9D14
:1018B000F70181937F01F8018081918101969183E5
:1018C000808349814E11EECF0F90DF91CF911F9110
:1018D0000F91FF90EF900895CF93DF93CDB7DEB7D0
:1018E0002C970FB6F894DEBF0FBECDBF28E532E0CF
:1018F0003C872B872AE030E0AE014F5F5F4F0E94AC
:10190000E79A4AE0BE016F5F7F4FCE010B9698DFEA
:1019100061E070E080E090E00E942F8F8B859C85D5
:101920008C599F4F9C878B874AE0BE016F5F7F4F2A
:10193000CE010B9685DF61E070E080E090E00E94D0
:101940002F8F8B859C858C599F4F9C878B874AE076
:10195000BE016F5F7F4FCE010B9672DF2C960FB6E4
:10196000F894DEBF0FBECDBFDF91CF910895CF9326
:10197000DF93CDB7DEB72C970FB6F894DEBF0FBE5E
:10198000CDBF2CE632E03C872B872AE030E0AE0169
:101990004F5F5F4F0E94E79A4AE0BE016F5F7F4F43
:1019A000CE010B964DDF61E070E080E090E00E9498
:1019B0002F8F8B859C858C599F4F9C878B874AE006
:1019C000BE016F5F7F4FCE010B963ADF61E070E0A2
:1019D00080E090E00E942F8F8B859C858C599F4FD3
:1019E0009C878B874AE0BE016F5F7F4FCE010B96CD
:1019F00027DF2C960FB6F894DEBF0FBECDBFDF9168
:101A0000CF910895CF93DF93CDB7DEB72C970FB664
:101A1000F894DEBF0FBECDBF20E832E03C872B87B5
:101A20002AE030E0AE014F5F5F4F0E94E79A4AE044
:101A3000BE016F5F7F4FCE010B9602DF61E070E069
:101A400080E090E00E942F8F8B859C858C599F4F62
:101A50009C878B874AE0BE016F5F7F4FCE010B965C
:101A6000EFDE61E070E080E090E00E942F8F8B85D8
:101A70009C858C599F4F9C878B874AE0BE016F5F86
:101A80007F4FCE010B96DCDE2C960FB6F894DEBFAE
:101A90000FBECDBFDF91CF910895CF93DF93CDB728
:101AA000DEB72C970FB6F894DEBF0FBECDBF24E98A
:101AB00032E03C872B872AE030E0AE014F5F5F4F7A
:101AC0000E94E79A4AE0BE016F5F7F4FCE010B96FE
:101AD000B7DE61E070E080E090E00E942F8F8B85A0
:101AE0009C858C599F4F9C878B874AE0BE016F5F16
:101AF0007F4FCE010B96A4DE61E070E080E090E0C5
:101B00000E942F8F8B859C858C599F4F9C878B873C
:101B10004AE0BE016F5F7F4FCE010B9691DE2C969F
:101B20000FB6F894DEBF0FBECDBFDF91CF91089501
:101B3000CF93DF93CDB7DEB72C970FB6F894DEBF07
:101B40000FBECDBF28EA32E03C872B872AE030E089
:101B5000AE014F5F5F4F0E94E79A4AE0BE016F5FA0
:101B60007F4FCE010B966CDE61E070E080E090E08C
:101B70000E942F8F8B859C858C599F4F9C878B87CC
:101B80004AE0BE016F5F7F4FCE010B9659DE61E0E8
:101B900070E080E090E00E942F8F8B859C858C59AF
:101BA0009F4F9C878B874AE0BE016F5F7F4FCE01BE
:101BB0000B9646DE2C960FB6F894DEBF0FBECDBF57
:101BC000DF91CF910895CF93DF9300D01F92CDB7CF
:101BD000DEB784E893E09A83898322E030E0AE01A7
:101BE0004D5F5F4F61E070E080E090E00E94E79A17
:101BF00042E0BE016D5F7F4FCE01019621DE0F9066
:101C00000F900F900F90DF91CF9108958F929F9238
:101C1000AF92BF92CF92DF92EF92FF92CF93DF937A
:101C2000CDB7DEB72C970FB6F894DEBF0FBECDBF91
:101C300088E592E09C878B874AE0BE016F5F7F4F0B
:101C4000CE010B9623DE4AE050E060E070E0CE016A
:101C500001960E9463996B017C0161E070E080E075
:101C600090E00E942F8F8B859C858C599F4F9C877D
:101C70008B874AE0BE016F5F7F4FCE010B9606DE79
:101C80004AE050E060E070E0CE0101960E94639966
:101C90004B015C0161E070E080E090E00E942F8FDA
:101CA0008B859C858C599F4F9C878B874AE0BE0112
:101CB0006F5F7F4FCE010B96E9DD4AE050E060E0B8
:101CC00070E0CE0101960E946399C814D904EA0419
:101CD000FB04A9F0C616D706E806F90681F08616B9
:101CE0009706A806B90649F087ECC82E85E3D82EDA
:101CF0008AE3E82E82E4F82E02C075016401C70170
:101D0000B6012C960FB6F894DEBF0FBECDBFDF91A3
:101D1000CF91FF90EF90DF90CF90BF90AF909F90CA
:101D20008F9008958F929F92AF92BF92CF92DF9241
:101D3000EF92FF92CF93DF93CDB7DEB72C970FB61C
:101D4000F894DEBF0FBECDBF8CE692E09C878B87F8
:101D50004AE0BE016F5F7F4FCE010B9697DD4AE0F0
:101D600050E060E070E0CE0101960E9463996B0143
:101D70007C0161E070E080E090E00E942F8F8B8515
:101D80009C858C599F4F9C878B874AE0BE016F5F73
:101D90007F4FCE010B967ADD4AE050E060E070E0C4
:101DA000CE0101960E9463994B015C0161E070E0F5
:101DB00080E090E00E942F8F8B859C858C599F4FEF
:101DC0009C878B874AE0BE016F5F7F4FCE010B96E9
:101DD0005DDD4AE050E060E070E0CE0101960E94D7
:101DE0006399C814D904EA04FB04A9F0C616D706FF
:101DF000E806F90681F086169706A806B90649F0A6
:101E000097ECC92E95E3D92E9AE3E92E92E4F92EA8
:101E100002C075016401C701B6012C960FB6F89493
:101E2000DEBF0FBECDBFDF91CF91FF90EF90DF906F
:101E3000CF90BF90AF909F908F9008958F929F9278
:101E4000AF92BF92CF92DF92EF92FF92CF93DF9348
:101E5000CDB7DEB72C970FB6F894DEBF0FBECDBF5F
:101E600080E892E09C878B874AE0BE016F5F7F4FDE
:101E7000CE010B960BDD4AE050E060E070E0CE0151
:101E800001960E9463996B017C0161E070E080E043
:101E900090E00E942F8F8B859C858C599F4F9C874B
:101EA0008B874AE0BE016F5F7F4FCE010B96EEDC61
:101EB0004AE050E060E070E0CE0101960E94639934
:101EC0004B015C0161E070E080E090E00E942F8FA8
:101ED0008B859C858C599F4F9C878B874AE0BE01E0
:101EE0006F5F7F4FCE010B96D1DC4AE050E060E09F
:101EF00070E0CE0101960E946399C814D904EA04E7
:101F0000FB04A9F0C616D706E806F90681F0861686
:101F10009706A806B90649F027ECC22E25E3D22E73
:101F20002AE3E22E22E4F22E02C075016401C70109
:101F3000B6012C960FB6F894DEBF0FBECDBFDF9171
:101F4000CF91FF90EF90DF90CF90BF90AF909F9098
:101F50008F9008958F929F92AF92BF92CF92DF920F
:101F6000EF92FF92CF93DF93CDB7DEB72C970FB6EA
:101F7000F894DEBF0FBECDBF84E992E09C878B87CB
:101F80004AE0BE016F5F7F4FCE010B967FDC4AE0D7
:101F900050E060E070E0CE0101960E9463996B0111
:101FA0007C0161E070E080E090E00E942F8F8B85E3
:101FB0009C858C599F4F9C878B874AE0BE016F5F41
:101FC0007F4FCE010B9662DC4AE050E060E070E0AB
:101FD000CE0101960E9463994B015C0161E070E0C3
:101FE00080E090E00E942F8F8B859C858C599F4FBD
:101FF0009C878B874AE0BE016F5F7F4FCE010B96B7
:1020000045DC4AE050E060E070E0CE0101960E94BD
:102010006399C814D904EA04FB04A9F0C616D706CC
:10202000E806F90681F086169706A806B90649F073
:1020300037ECC32E35E3D32E3AE3E32E32E4F32E0E
:1020400002C075016401C701B6012C960FB6F89461
:10205000DEBF0FBECDBFDF91CF91FF90EF90DF903D
:10206000CF90BF90AF909F908F9008958F929F9246
:10207000AF92BF92CF92DF92EF92FF92CF93DF9316
:10208000CDB7DEB72E970FB6F894DEBF0FBECDBF2B
:1020900088EA92E09E878D874AE0BE016F5F7F4F9E
:1020A000CE010D96F3DB4AE050E060E070E0CE0137
:1020B00001960E9463996B017C0161E070E080E011
:1020C00090E00E942F8F8D859E858C599F4F9E8713
:1020D0008D874AE0BE016F5F7F4FCE010D96D6DB44
:1020E0004AE050E060E070E0CE0101960E94639902
:1020F0004B015C0161E070E080E090E00E942F8F76
:102100008D859E858C599F4F9E878D874AE0BE01A5
:102110006F5F7F4FCE010D96B9DB4AE050E060E083
:1021200070E0CE0101960E946399C814D904EA04B4
:10213000FB0461F0C616D706E806F90639F08616E4
:102140009706A806B90659F47501640187ECC8160C
:1021500085E3D8068AE3E80682E4F80619F584E800
:1021600093E09E878D8742E0BE01655F7F4FCE0181
:102170000D968CDB42E050E060E070E0CE010B9603
:102180000E946399672B682B692B49F447ECC42E96
:1021900045E3D42E4AE3E42E42E4F42E03C0C12CDE
:1021A000D12C760184E893E09E878D8742E0BE01C2
:1021B000655F7F4FCE010D9669DB42E050E060E045
:1021C00070E0CE010B960E946399C701B6012E966E
:1021D0000FB6F894DEBF0FBECDBFDF91CF91FF9059
:1021E000EF90DF90CF90BF90AF909F908F90089529
:1021F000CF93DF9300D01F92CDB7DEB784E893E092
:102200009C838B8342E0BE016F5F7F4FCE010396BC
:102210003DDB42E050E060E070E0CE0101960E94BC
:10222000639921E0672B682B692B09F020E0822F4E
:102230000F900F900F900F90DF91CF9108950F9313
:102240001F93CF93DF93CDB7DEB768970FB6F8949F
:10225000DEBF0FBECDBF80E390E3A0E3B0E08D838F
:102260009E83AF83B88704E610E0188F0F8B44E09D
:10227000BE016B5F7F4FCE014796E2DA40E165ED2C
:102280007CE0CE014796DCDA40E165EE7CE0CE01F1
:102290004796D6DA40E165EC7CE0CE014796D0DA8D
:1022A00044E06DEB7CE0CE014796CADA44E069EB8E
:1022B0007CE0CE014796C4DA44E061EC7CE0CE01DC
:1022C0004796BEDA44E069EA7CE0CE014796B8DA88
:1022D00044E065EF7CE0CE014796B2DA44E065EB7E
:1022E0007CE0CE014796ACDA44E061EB7CE0CE01C5
:1022F0004796A6DA44E06DEA7CE0CE014796A0DA84
:102300004CE067EB75E0CE0147969ADA88EC90E0F6
:102310009E8B8D8B86E490E09C8B8B8B8FEF90E077
:102320009A8B898B2CED30E0388B2F871E870D8799
:102330009C878B8742E0BE016B5E7F4FCE01479644
:102340007FDA42E0BE016D5E7F4FCE01479678DABC
:1023500042E0BE016F5E7F4FCE01479671DA42E0E8
:10236000BE01615F7F4FCE0147966ADA42E0BE014F
:10237000635F7F4FCE01479663DA42E0BE01655F3F
:102380007F4FCE0147965CDA44E060EB75E0CE010A
:10239000479656DA44E06FEA72E0CE01479650DA8B
:1023A00044E06BEA72E0CE0147964ADA44E067EA1D
:1023B00072E0CE01479644DA80E290E09A878987FE
:1023C00042E0BE01675F7F4FCE01479639DA86E56E
:1023D00091E3A0E3B0E089839A83AB83BC83188F39
:1023E0000F8B44E0BE016F5F7F4FCE01479628DA26
:1023F000E1E7F3E08491882341F09091C00095FFDC
:10240000FCCF8093C6003196F5CFE1E6F3E08491EE
:10241000882341F09091C00095FFFCCF8093C600C7
:102420003196F5CF8091C00085FFFCCF8AE0809384
:10243000C60068960FB6F894DEBF0FBECDBFDF9121
:10244000CF911F910F910895CF93DF93C1E7D3E010
:10245000FE018491882341F09091C00095FFFCCF4C
:102460008093C6003196F5CFE1E5F3E084918823AF
:1024700041F09091C00095FFFCCF8093C60031964B
:10248000F5CF8091C00085FFFCCF8AE08093C60025
:10249000FE018491E1E7F3E0882349F09091C000C8
:1024A00095FFFCCF8093C60031968491F5CF409183
:1024B000D50C5091D60C6091D70C7091D80C89E452
:1024C00093E077D64091D90C5091DA0C6091DB0CF7
:1024D0007091DC0C86E493E06CD64091DD0C509159
:1024E000DE0C6091DF0C7091E00C83E493E061D628
:1024F0004091E10C5091E20C6091E30C7091E40C7E
:1025000080E493E056D68091C00085FFFCCF8AE03E
:102510008093C600FE018491E1E7F3E0882349F04F
:102520009091C00095FFFCCF8093C60031968491B6
:10253000F5CFE6E2F3E08491882341F09091C0006A
:1025400095FFFCCF8093C6003196F5CF8091C000F7
:1025500085FFFCCF8AE08093C600FE018491E1E70D
:10256000F3E0882349F09091C00095FFFCCF809361
:10257000C60031968491F5CF4091E50C5091E60C60
:102580006091E70C7091E80C8DE193E012D64091D8
:10259000E90C5091EA0C6091EB0C7091EC0C8AE123
:1025A00093E007D64091ED0C5091EE0C6091EF0C4A
:1025B0007091F00C87E193E0FCD54091F10C5091C3
:1025C000F20C6091F30C7091F40C84E193E0F1D57E
:1025D0008091C00085FFFCCF8AE08093C600FE0199
:1025E0008491E1E7F3E0882349F09091C00095FFE2
:1025F000FCCF8093C60031968491F5CFE6EFF2E0F0
:102600008491882341F09091C00095FFFCCF809386
:10261000C6003196F5CF8091C00085FFFCCF8AE0DF
:102620008093C600FE018491E1E7F3E0882349F03E
:102630009091C00095FFFCCF8093C60031968491A5
:10264000F5CF4091C50C5091C60C6091C70C7091AC
:10265000C80C8DEE92E0BFD54091C90C5091CA0CC8
:102660006091CB0C7091CC0C8AEE92E0B4D5409185
:10267000CD0C5091CE0C6091CF0C7091D00C87EEA8
:1026800092E0A9D54091D10C5091D20C6091D30C1D
:102690007091D40C84EE92E09ED58091C00085FFAD
:1026A000FCCF8AE08093C600FE018491E1E7F3E06D
:1026B000882349F09091C00095FFFCCF8093C6001D
:1026C00031968491F5CFEFEAF2E08491882341F0CE
:1026D0009091C00095FFFCCF8093C6003196F5CF56
:1026E0008091C00085FFFCCF8AE08093C600FE0188
:1026F0008491E1E7F3E0882349F09091C00095FFD1
:10270000FCCF8093C60031968491F5CF4091BD0CEB
:102710005091BE0C6091BF0C7091C00C86EA92E0A3
:1027200048D54091B90C5091BA0C6091BB0C709196
:10273000BC0C83EA92E03DD58091C00085FFFCCFC0
:102740008AE08093C600FE018491E1E7F3E08823EC
:1027500049F09091C00095FFFCCF8093C600319660
:102760008491F5CFE0EFF1E08491882341F09091DE
:10277000C00095FFFCCF8093C6003196F5CF8091C5
:10278000C00085FFFCCF8AE08093C600FE018491E3
:10279000E1E7F3E0882349F09091C00095FFFCCF7A
:1027A0008093C60031968491F5CF4091C10C509131
:1027B000C20C6091C30C7091C40C87EE91E0F9D407
:1027C0004091A90C5091AA0C6091AB0C7091AC0C8B
:1027D00084EE91E0EED44091F50C5091F60C6091AE
:1027E000F70C7091F80C81EE91E0F5D44091B50CA6
:1027F0005091B60C6091B70C7091B80C8EED91E0D1
:10280000D8D44091B10C5091B20C6091B30C70913E
:10281000B40C8BED91E0CDD44091AD0C5091AE0C49
:102820006091AF0C7091B00C88ED91E0C2D48091B2
:10283000C00085FFFCCF8AE08093C600FE01849132
:10284000E1E7F3E0882349F09091C00095FFFCCFC9
:102850008093C60031968491F5CFE6ECF1E0849147
:10286000882341F09091C00095FFFCCF8093C60073
:102870003196F5CF8091C00085FFFCCF8AE0809330
:10288000C600FE018491E1E7F3E0882349F09091CE
:10289000C00095FFFCCF8093C60031968491F5CFA0
:1028A0004091B7055091B8056091B9057091BA058E
:1028B0008DEB91E07ED44091BB055091BC056091B9
:1028C000BD057091BE058AEB91E073D44091BF05C0
:1028D0005091C0056091C1057091C20587EB91E0F0
:1028E00068D48091C00085FFFCCF8AE08093C60049
:1028F000FE018491E1E7F3E0882349F09091C00064
:1029000095FFFCCF8093C60031968491F5CFE9EA1C
:10291000F1E08491882341F09091C00095FFFCCFB5
:102920008093C6003196F5CF8091C00085FFFCCF23
:102930008AE08093C600FE01C491E1E7F3E0CC2376
:1029400049F08091C00085FFFCCFC093C60031964E
:10295000C491F5CF4091AF025091B0026091B102A5
:102960007091B2028FE991E024D46091AB02709132
:10297000AC028091AD029091AE020E94D888AB016A
:10298000BC018CE991E015D46091A7027091A80276
:102990008091A9029091AA020E94E488AB01BC0137
:1029A00089E991E006D48091C00085FFFCCF8AE0E0
:1029B0008093C600DF91CF910895AF92BF92CF92DE
:1029C000DF92EF92FF920F931F93CF93DF93CDB7D8
:1029D000DEB7E0970FB6F894DEBF0FBECDBF80E143
:1029E000E3EBF2E0DE01919601900D928A95E1F71A
:1029F00080E1E3ECF2E0DE01519601900D928A95C0
:102A0000E1F780E1E3EDF2E0DE01119601900D9235
:102A10008A95E1F76E0121E2C20ED11C55EDE52E3B
:102A20005CE0F52E8E010F5E1F4F65EE7CE0AE017F
:102A30004F5F5F4FE5ECAE2EECE0BE2E20E030E0C5
:102A4000F60181919191A191B1916F01F70181936B
:102A50009193A193B1937F01F80181919191A191FB
:102A6000B1918F01FB0181939193A193B193BF0128
:102A7000FA0181919191A191B191AF01F5018193F9
:102A80009193A193B1935F012F5F3F4F24303105A4
:102A9000B9F60E94DE5C80E090EAACE0B6E4809398
:102AA000BD0C9093BE0CA093BF0CB093C00C809350
:102AB000B90C9093BA0CA093BB0CB093BC0C1092C1
:102AC000C10C1092C20C1092C30C1092C40C80E284
:102AD0009EE4A0E0B0E08093F50C9093F60CA093F8
:102AE000F70CB093F80C1092A90C1092AA0C10924B
:102AF000AB0C1092AC0C80E090E0A0EAB1E48093C3
:102B0000B50C9093B60CA093B70CB093B80C8DECA9
:102B10009CECACECBEE38093B10C9093B20CA09310
:102B2000B30CB093B40C80E090E0A0EAB0E48093E2
:102B3000AD0C9093AE0CA093AF0CB093B00C109270
:102B4000BF051092C0051092C1051092C2051092E7
:102B5000BB051092BC051092BD051092BE051092E7
:102B6000B7051092B8051092B9051092BA057EDA31
:102B7000673CF5E37F07FAE38F07F2E49F07B1F0C4
:102B80000E94329320E034E244E759E40E94979295
:102B900020E030E0A9010E94B7916093B0057093E6
:102BA000B1058093B2059093B30527C04FEF5FEF57
:102BB000BA0187E793E00FD38091C00085FFFCCF77
:102BC0008AE38093C600ECE8F1E08491882341F029
:102BD0009091C00095FFFCCF8093C6003196F5CF51
:102BE000EAE8F1E08491882341F09091C00095FFDC
:102BF000FCCF8093C6003196F5CF80E090E0ACEA40
:102C0000B1E48093AF029093B002A093B102B0936D
:102C1000B2026AE979E989E99FE30E94D288609368
:102C2000AB027093AC028093AD029093AE0260E071
:102C300070E08CE593E40E94DE886093A7027093B5
:102C4000A8028093A9029093AA020E944A7F80E082
:102C500090E0A0E8BFE38093A3029093A402A09326
:102C6000A502B093A602E0960FB6F894DEBF0FBEA1
:102C7000CDBFDF91CF911F910F91FF90EF90DF902B
:102C8000CF90BF90AF900895CF93DF93CDB7DEB7CD
:102C900068970FB6F894DEBF0FBECDBF84E690E014
:102CA000988F8F8B86E591E3A0E3B0E089839A83C8
:102CB000AB83BC8344E0BE016B5F7F4FCE01479680
:102CC0000E94460C43E050E0BE016B5F7F4FCE0197
:102CD00001960E94D99A892B09F0ADC040E165EDBB
:102CE0007CE0CE0147960E94460C40E165EE7CE018
:102CF000CE0147960E94460C40E165EC7CE0CE0197
:102D000047960E94460C0E94DE5C44E06DEB7CE03E
:102D1000CE0147960E94460C44E069EB7CE0CE0170
:102D200047960E94460C44E061EC7CE0CE01479659
:102D30000E94460C44E069EA7CE0CE0147960E947E
:102D4000460C44E065EF7CE0CE0147960E94460CBD
:102D500044E065EB7CE0CE0147960E94460C44E0DF
:102D600061EB7CE0CE0147960E94460C44E06DEAA0
:102D70007CE0CE0147960E94460C4CE067EB75E084
:102D8000CE0147960E94460C42E0BE016B5E7F4F2B
:102D9000CE0147960E94460C42E0BE016D5E7F4F19
:102DA000CE0147960E94460C42E0BE016F5E7F4F07
:102DB000CE0147960E94460C42E0BE01615F7F4F04
:102DC000CE0147960E94460C42E0BE01635F7F4FF2
:102DD000CE0147960E94460C42E0BE01655F7F4FE0
:102DE000CE0147960E94460C44E060EB75E0CE01B0
:102DF00047960E94460C44E06FEA72E0CE01479687
:102E00000E94460C44E06BEA72E0CE0147960E94B5
:102E1000460C44E067EA72E0CE0147960E94460CF9
:102E200042E0BE01675F7F4FCE0147960E94460C8D
:102E30000E944A7F01C0C1DD68960FB6F894DEBFDC
:102E40000FBECDBFDF91CF910895FC0165917591C3
:102E5000859194910895CF93209124023091250279
:102E600037FD31C0C5E0C29FC001C39F900D112442
:102E700060E070E08B569B4F0E94B17060911E0223
:102E800070911F022091240230912502C29FC0013F
:102E9000C39F900D11248B569B4F0E94F7706CE2DC
:102EA00071E080E090E00E942F8F20912402309109
:102EB0002502C29FC001C39F900D11248B569B4FCA
:102EC000CF910C94B670CF910895CF9320912402A6
:102ED0003091250237FD31C0C5E0C29FC001C39FBC
:102EE000900D112460E070E08B569B4F0E94B170F2
:102EF00060911C0270911D022091240230912502E4
:102F0000C29FC001C39F900D11248B569B4F0E94FE
:102F1000F7706CE271E080E090E00E942F8F2091CA
:102F2000240230912502C29FC001C39F900D11243D
:102F30008B569B4FCF910C94B670CF910895CF9242
:102F4000DF92EF92FF920F931F93CF93DF93CDB752
:102F5000DEB7EC970FB6F894DEBF0FBECDBFFC0115
:102F600004811581268137813058408151816281E9
:102F700073817058C12CD12C80E8E82E8FE3F82E95
:102F8000CE010D960E94EA8863EE72E0CE010D96A6
:102F90000E94618ACD84DE84EF84F88809891A89C9
:102FA0002B893C894D895E896F89788DCE01499640
:102FB0000E945C8B84E2FE017996A8E6B2E0019063
:102FC0000D928A95E1F7CE0101960E940A5B698114
:102FD0007A818B819C816093C3057093C405809333
:102FE000C5059093C6052D813E814F81588520935C
:102FF000C7053093C8054093C9055093CA05E984B5
:10300000FA840B851C85E092CB05F092CC050093E9
:10301000CD051093CE05EFECCE2EE5E0DE2E0E941E
:10302000B95BEC960FB6F894DEBF0FBECDBFDF9153
:10303000CF911F910F91FF90EF90DF90CF90089567
:1030400080910F0290911002A0911102B091120292
:103050008093870590938805A0938905B0938A058E
:1030600080914602909147029093D4058093D305B6
:1030700084E690E090934702809346020E94008F7E
:103080006093A8047093A9048093AA049093AB045E
:1030900081E00C946D7280E00E946D7280918705D2
:1030A00090918805A0918905B0918A0580930F02BF
:1030B00090931002A0931102B09312028091D30555
:1030C0009091D40590934702809346020E94008F0E
:1030D0006093A8047093A9048093AA049093AB040E
:1030E00008954F925F926F927F928F929F92AF92CC
:1030F000BF92CF92DF92EF92FF920F931F93409077
:103100000F02509010026090110270901202812CF8
:10311000F0E89F2EFBEBAF2EF5E4BF2E80920F025E
:1031200090921002A0921102B09212026093C30515
:103130007093C4058093C5059093C6052093C70579
:103140003093C8054093C9055093CA05E092CB055A
:10315000F092CC050093CD051093CE05EFEAF5E093
:10316000FF93EF93812C912CA8ECAA2EA2E4BA2E07
:10317000BFECCB2EB5E0DB2E0E94BF500E94497CF5
:1031800040920F025092100260921102709212024D
:103190000F900F901F910F91FF90EF90DF90CF90C5
:1031A000BF90AF909F908F907F906F905F904F9067
:1031B0000895FC012491222341F03091C00035FF95
:1031C000FCCF2093C6000196F4CF22E030E089EDD9
:1031D00095E00C945248FC012491222341F0309157
:1031E000C00035FFFCCF2093C6000196F4CF2AE043
:1031F00030E089ED95E00C94A847CF93DF931F92C0
:103200001F92CDB7DEB78091EB0E9091EC0E9E0130
:103210002F5F3F4F009719F4215F3E4002C0281BEB
:10322000390B3A83298389819A810F900F90DF911E
:10323000CF9108950A9A129A0895FF920F931F93BF
:10324000CF93DF9369E070E085E994E00E94B1706C
:10325000C0E2D2E006E112E085E0F82E2991399132
:1032600037FD0CC0F80160817181F29EC001F39EB0
:10327000900D11248B569B4F0E94F7700C5F1F4FCF
:10328000F2E0C632DF0751F76CE271E080E090E0D7
:103290000E942F8F209124023091250245E0429F09
:1032A000C001439F900D11248B569B4FDF91CF910E
:1032B0001F910F91FF900C94B6700E94DF820E94C4
:1032C000CE7CEBECFBE08491882341F09091C00030
:1032D00095FFFCCF8093C6003196F5CFEDE7FBE07C
:1032E0008491882341F09091C00095FFFCCF80939A
:1032F000C6003196F5CF4091C3055091C405609149
:10330000C5057091C60522E030E089ED95E00E9488
:103310005248E9E7FBE08491882341F09091C00096
:1033200095FFFCCF8093C6003196F5CF4091C7053D
:103330005091C8056091C9057091CA0522E030E03E
:1033400089ED95E00E945248E5E7FBE084918823EF
:1033500041F09091C00095FFFCCF8093C60031965C
:10336000F5CF4091CB055091CC056091CD05709182
:10337000CE0522E030E089ED95E00E945248E1E779
:10338000FBE08491882341F09091C00095FFFCCF31
:103390008093C6003196F5CF4091CF055091D0056E
:1033A0006091D1057091D20522E030E089ED95E081
:1033B0000E945248EDE6FBE08491882341F0909111
:1033C000C00095FFFCCF8093C6003196F5CFE09109
:1033D000630681E6E89FF0011124EC59F94F20E0E3
:1033E00030E040E752E460897189828993890E94C4
:1033F0006595AB01BC0122E030E089ED95E00E94CB
:103400005248EBE6FBE08491882341F09091C000A4
:1034100095FFFCCF8093C6003196F5CF0E94547D76
:1034200078940C945F7D2F923F924F925F926F92AF
:103430007F928F929F92AF92BF92CF92DF92EF9244
:10344000FF920F931F93CF93DF9300D01F92CDB7BE
:10345000DEB71C01FC01E058F44F74909C01220F70
:10346000331F220F331F3C832B83F901ED53FA4F97
:1034700010821182128213820E945C7D81111EC013
:10348000E090CB05F090CC050091CD051091CE05D4
:103490002091C7053091C8054091C9055091CA05D2
:1034A0006091C3057091C4058091C5059091C605D2
:1034B000EFECCE2EE5E0DE2E0E94B95B8B819C8185
:1034C0008157944FC2DC4B015C01672D772767FD64
:1034D0007095872F972F0E9432932B013C010B810F
:1034E0001C8105561A4F20E030E040EC5FE3C50137
:1034F000B4010E946595A30192010E946595F801AF
:103500006083718382839383EB81FC81E85BFD4F51
:1035100080819181A281B38180930F0290931002E8
:10352000A0931102B09312020E945C7D81113FC0F2
:1035300020E030E040E752E460910F027091100209
:1035400080911102909112020E9497924B015C01AE
:10355000E090A305F090A4050091A5051091A605A3
:1035600020919F053091A0054091A1055091A205A1
:1035700060919B0570919C0580919D0590919E05A1
:10358000EFEAF5E0FF93EF93B7EACB2EB5E0DB2E41
:103590000E94BF500E94497C0E9459720F900F9068
:1035A000811105C00E945C7D882309F45DC2EB8116
:1035B000FC81ED53FA4F10821182128213820E9415
:1035C0005C7D81111EC0E090CB05F090CC05009190
:1035D000CD051091CE052091C7053091C8054091C9
:1035E000C9055091CA056091C3057091C4058091C9
:1035F000C5059091C605AFECCA2EA5E0DA2E0E9453
:10360000B95B2B813C812D57344F3A832983C90103
:103610001CDC0B811C8105561A4F9058A3019201A6
:103620000E946595F80160837183828393830E9471
:103630005C7D811109C120E030E040E752E46091F7
:103640000F027091100280911102909112020E945B
:1036500097924B015C01E090A305F090A4050091C6
:10366000A5051091A60520919F053091A0054091D8
:10367000A1055091A20560919B0570919C058091D8
:103680009D0590919E05EFEAF5E0FF93EF93F7EA31
:10369000CF2EF5E0DF2E0E94BF500E94497C0F9094
:1036A0000F90F1E02F16310409F447C022E02216F2
:1036B000310409F487C02114310409F0C5C01D99F3
:1036C0001EC040E554E060E070E081ED9BE083DDEA
:1036D0008091C00085FFFCCF8AE38093C600E8E6B6
:1036E000F8E08491882341F09091C00095FFFCCFD1
:1036F0008093C6003196F5CF0E946672DEDD1C997C
:10370000A3C041E554E060E070E081ED9BE063DD43
:103710008091C00085FFFCCF8AE38093C600EAE277
:10372000F8E08491882309F439C09091C00095FF96
:10373000FCCF8093C6003196F4CF8091090186FDBD
:1037400016C042E554E060E070E081ED9BE043DDAF
:103750008091C00085FFFCCF8AE38093C600ECEE29
:10376000F7E0849181111EC00E946672A6DD8091EF
:10377000090187FD69C043E554E060E070E081ED38
:103780009BE029DD8091C00085FFFCCF8AE3809318
:10379000C600EEEAF7E0849181110CC00E946672C7
:1037A0008CDD52C09091C00095FFFCCF8093C60085
:1037B0003196D7CF9091C00095FFFCCF8093C60083
:1037C0003196E9CF8091090184FD1EC044E554E0A3
:1037D00060E070E081ED9BE0FEDC8091C00085FF41
:1037E000FCCF8AE38093C600E0E7F7E0849188236A
:1037F00041F09091C00095FFFCCF8093C6003196B8
:10380000F5CF0E94667259DD8091090185FD1CC0CB
:1038100045E554E060E070E081ED9BE0DCDC809108
:10382000C00085FFFCCF8AE38093C600E2E3F7E0A7
:103830008491882309F4B2CF9091C00095FFFCCF0A
:103840008093C6003196F4CF89819A81FEDA0B818C
:103850001C8105561A4F9B01AC010E94B791A30130
:1038600092010E946595F80160837183828393833E
:1038700020E030E040E05FE3EB81FC81E85BFD4F5E
:1038800060817181828193810E94659560930F02AE
:103890007093100280931102909312020E945C7D3B
:1038A000811136C020E030E040E752E460910F0221
:1038B0007091100280911102909112020E949792D1
:1038C0004B015C01E090A305F090A4050091A505D3
:1038D0001091A60520919F053091A0054091A1056A
:1038E0005091A20560919B0570919C0580919D056A
:1038F00090919E05EFEAF5E0FF93EF93E7EACE2E75
:10390000E5E0DE2E0E94BF500E94497C0F900F9090
:103910000E945C7D811146C08B819C818556944FAD
:1039200094DA2B813C812D533A4F79010B811C8114
:1039300009541A4FF80120813181428153810E943C
:10394000B791F70160837183828393838B819C811C
:103950008D54944F7ADA2B813C812E5C3D4F790156
:10396000F80120813181428153810E94B791F70192
:1039700060837183828393838B819C818955944F6B
:1039800064DA2B813C812A5D3D4F7901F801208169
:103990003181428153810E94B791F7016083718325
:1039A000828393830E945C7D811111C0EB81FC8135
:1039B000E556FA4FAB81BC81AD53BA4F8D919D91C5
:1039C0000D90BC91A02D80839183A283B38310922C
:1039D0000F021092100210921102109212020E9415
:1039E0005C7D811102C00E9466720E945C7D811123
:1039F00005C081E0F101EC54FA4F8083F101EE0F34
:103A0000FF1FDF01A05EBD4F2D913C9137FD10C01F
:103A1000EE0FFF1FEA5EFD4F6081718145E0429F1E
:103A2000C001439F900D11248B569B4F0E94F7704D
:103A3000F2E02F16310409F068C00F900F900F903C
:103A40000F90DF91CF911F910F91FF90EF90DF903A
:103A5000CF90BF90AF909F908F907F906F905F902E
:103A60004F903F902F90F7C922E022163104D9F4ED
:103A700045E554E060E070E081ED9BE0ACDB8091D7
:103A8000C00085FFFCCF8AE38093C600ECEEF8E02F
:103A900084918823D9F09091C00095FFFCCF80934A
:103AA000C6003196F5CF4FE454E060E070E081ED60
:103AB0009BE091DB8091C00085FFFCCF8AE380937F
:103AC000C600E6EAF8E08491811117C00F900F90CC
:103AD0000F900F90DF91CF911F910F91FF90EF907A
:103AE000DF90CF90BF90AF909F908F907F906F901E
:103AF0005F904F903F902F90E0CB9091C00095FF4A
:103B0000FCCF8093C6003196DECF0F900F900F90C0
:103B10000F90DF91CF911F910F91FF90EF90DF9069
:103B2000CF90BF90AF909F908F907F906F905F905D
:103B30004F903F902F9008954F925F926F927F9297
:103B40008F929F92AF92BF92CF92DF92EF92FF92AD
:103B50000F931F93CF93DF9388E692E00E94328BFE
:103B600060915002709151028091520290915302E3
:103B700060930F02709310028093110290931202CF
:103B800020E030E040E752E40E9497924B015C0154
:103B90002091C7053091C8054091C9055091CA05CB
:103BA0006091C3057091C4058091C5059091C605CB
:103BB000CFEAD5E0DF93CF930FECC02E05E0D02EF7
:103BC000E12CF12C00EA11EC0E94BF500E94497CCC
:103BD000809109010F900F9084FF1CC04DE454E0C8
:103BE00060E070E081ED9BE0F6DA8091C00085FF37
:103BF000FCCF8AE38093C600E0ECF4E08491882354
:103C000009F47BC09091C00095FFFCCF8093C60063
:103C10003196F4CF82E00E94AF7C2B013C012091D1
:103C2000C7053091C8054091C9055091CA056091FA
:103C3000C3057091C4058091C5059091C6051FEC20
:103C4000C12E15E0D12E830172010E94B95B8BE871
:103C50009BE0FBD89B01AC01C301B2010E94B7916C
:103C60002B013C0120E030E040E752E460910F027C
:103C70007091100280911102909112020E9497920D
:103C80004B015C012091C7053091C8054091C905E1
:103C90005091CA056091C3057091C4058091C50516
:103CA0009091C605DF93CF93830172010E94BF50AC
:103CB0000E94497C809109010F900F9084FD2EC0D5
:103CC0004EE454E060E070E081ED9BE084DA8091A6
:103CD000C00085FFFCCF8AE38093C600EFE6F4E0E6
:103CE0008491882341F09091C00095FFFCCF809390
:103CF000C6003196F5CF0E946672DF91CF911F9179
:103D00000F91FF90EF90DF90CF90BF90AF909F907A
:103D10008F907F906F905F904F90CFCA20E030E0FF
:103D200040E85EE36091500270915102809152022E
:103D3000909153020E9465954B015C0160930F02C4
:103D40007093100280931102909312028BE89BE013
:103D50007CD86B017C0120E030E040E752E4C501F3
:103D6000B4010E9497924B015C01A7019601C70123
:103D7000B6010E94B7919B01AC01C301B2010E9440
:103D8000B6917B018C012091C7053091C805409107
:103D9000C9055091CA056091C3057091C405809111
:103DA000C5059091C605DF93CF93BFECCB2EB5E050
:103DB000DB2E0E94BF500E94497C809109010F9028
:103DC0000F9084FF1CC04DE454E060E070E081ED92
:103DD0009BE001DA8091C00085FFFCCF8AE38093ED
:103DE000C600EFE1F4E08491882309F486CF909136
:103DF000C00095FFFCCF8093C6003196F4CF82E0DF
:103E00000E94AF7C7B018C016093CB057093CC0545
:103E10008093CD059093CE052091C7053091C805BC
:103E20004091C9055091CA056091C3057091C405C0
:103E30008091C5059091C605AFECCA2EA5E0DA2E9B
:103E40000E94B95BDF91CF911F910F91FF90EF908E
:103E5000DF90CF90BF90AF909F908F907F906F90AA
:103E60005F904F900895E6D940E052EC61E070E039
:103E700089ED95E00E946846E5E6FBE084918823A1
:103E800041F09091C00095FFFCCF8093C600319621
:103E9000F5CF8091C00085FFFCCF8AE08093C600FB
:103EA0008BEC9BE0FC012491222341F03091C00077
:103EB00035FFFCCF2093C6003196F5CF24B720FF05
:103EC00014C0EDE5FBE03491332341F04091C00094
:103ED00045FFFCCF3093C6003196F5CF3091C0003E
:103EE00035FFFCCF3AE03093C60021FF14C0EDE46B
:103EF000FBE03491332341F04091C00045FFFCCFFB
:103F00003093C6003196F5CF3091C00035FFFCCF1D
:103F10003AE03093C60022FF14C0ECE3FBE034919A
:103F2000332341F04091C00045FFFCCF3093C600E1
:103F30003196F5CF3091C00035FFFCCF3AE0309399
:103F4000C60023FF14C0ECE2FBE03491332341F0C0
:103F50004091C00045FFFCCF3093C6003196F5CFAD
:103F60003091C00035FFFCCF3AE03093C60025FF0A
:103F700014C0ECE1FBE02491222341F03091C00019
:103F800035FFFCCF2093C6003196F5CF2091C000BD
:103F900025FFFCCF2AE02093C60014BEE5E0FBE03D
:103FA0002491222341F03091C00035FFFCCF2093B3
:103FB000C6003196F5CFEEEFFAE02491222341F0CE
:103FC0003091C00035FFFCCF2093C6003196F5CF6D
:103FD0002091C00025FFFCCF2AE02093C600FC0101
:103FE0002491EBECFBE0222349F03091C00035FF37
:103FF000FCCF2093C60031962491F5CFEEEEFAE087
:104000002491222341F03091C00035FFFCCF209352
:10401000C6003196F5CFE9EDFAE02491222341F074
:104020003091C00035FFFCCF2093C6003196F5CF0C
:10403000EDECFAE02491222341F03091C00035FFED
:10404000FCCF2093C6003196F5CFEDEAFAE024913B
:10405000222341F03091C00035FFFCCF2093C600F1
:104060003196F5CF2091C00025FFFCCF2AE02093A8
:10407000C600E1EAFAE02491222341F03091C00029
:1040800035FFFCCF2093C6003196F5CF2091C000BC
:1040900025FFFCCF2AE02093C600FC018491EBECC5
:1040A000FBE0882349F09091C00095FFFCCF8093FE
:1040B000C60031968491F5CFE2E9FAE08491882335
:1040C00041F09091C00095FFFCCF8093C6003196DF
:1040D000F5CF93D84AE050E0BC0189ED95E00E940D
:1040E0007C47EBE7FAE08491882341F09091C0008F
:1040F00095FFFCCF8093C6003196F5CF4AE050E0A3
:1041000060E176E089ED95E00E947C478091C000F7
:1041100085FFFCCF8AE08093C6001092B80410920D
:10412000B9040E9444160E942A820E94594F0E949C
:10413000B98C0E94C57B81C88091AC049091AD047C
:1041400060E070E001960C94FB978091AC04909134
:10415000AD044AE050E060E070E001960C94639991
:10416000682F772767FD70952091B6043091B704CA
:1041700040E6429FC001439F900D112486549B4FFF
:104180000E94CE9A9093AD048093AC0421E0892BD9
:1041900009F420E0822F08954F925F926F927F92F0
:1041A0008F929F92AF92BF92CF92DF92EF92FF9247
:1041B0000F931F93CF93DF93CDB7DEB760970FB602
:1041C000F894DEBF0FBECDBF0E94060E6D877E87BE
:1041D0008F87988B0E94920E2B013C010E941E0F2C
:1041E0004B015C010E94AA0F6B017C018D859E85AD
:1041F000AF85B889873C9543AA43B24409F4BBC054
:1042000087EC481685E358068AE3680682E4780658
:1042100009F4B1C097EC891695E399069AE3A906CB
:1042200092E4B90609F4A7C0A7ECCA16A5E3DA061A
:10423000AAE3EA06A2E4FA0609F49DC00E94497CBA
:1042400088E692E00E94328B6D857E858F85988905
:104250000E94329320E034E244E759E40E949792AE
:1042600069837A838B839C83C301B2010E9432935A
:1042700020E034E244E759E40E9497926D837E8304
:104280008F839887C501B4010E94329320E034E205
:1042900044E759E40E94979269877A878B879C87C5
:1042A000CE0101960E949F17C701B6010E9432936A
:1042B00020E034E244E759E40E9497922091B0054F
:1042C0003091B1054091B2055091B3050E94B7916C
:1042D0009B01AC016091CB057091CC058091CD051F
:1042E0009091CE050E94B6917B018C016093CB0525
:1042F0007093CC058093CD059093CE052091C70592
:104300003091C8054091C9055091CA056091C30517
:104310007091C4058091C5059091C605FFECCF2E24
:10432000F5E0DF2E0E94B95B80E090E0A1E6B5E405
:1043300080930F0290931002A0931102B093120287
:10434000E090CB05F090CC050091CD051091CE0505
:104350002091C7053091C8054091C9055091CA0503
:104360006091C3057091C4058091C5059091C60503
:104370000E94B95B2AC04FEF5FEFBA0181ED9BE06D
:104380000E94EB188091C00085FFFCCF8AE38093E8
:10439000C600EBE2F9E08491882341F09091C000DF
:1043A00095FFFCCF8093C6003196F5CFE9E2F9E0A6
:1043B0008491882341F09091C00095FFFCCF8093B9
:1043C000C6003196F5CF0E945D1960960FB6F8943D
:1043D000DEBF0FBECDBFDF91CF911F910F91FF9038
:1043E000EF90DF90CF90BF90AF909F908F907F9095
:1043F0006F905F904F9008950E94008F6093A80483
:104400007093A9048093AA049093AB04E3E1F4E0D1
:104410008491882341F09091C00095FFFCCF809358
:10442000C6003196F5CF8091C00085FFFCCF8AE0B1
:104430008093C600089589ED95E00E94BA46E6E1B2
:10444000F4E08491882341F09091C00095FFFCCF67
:104450008093C6003196F5CF40917F05509180053D
:1044600060918105709182054F5F5F4F6F4F7F4F65
:104470002AE030E089ED95E00E9459478091C00024
:1044800085FFFCCF8AE08093C600B6CF8F929F92C3
:10449000AF92BF92CF92DF92EF92FF920F931F9352
:1044A000CF93DF93AFE2EA2EA4E0FA2E03EC15E0FF
:1044B000CBE9D5E0B5EDCB2EB5E0DB2EF701819150
:1044C0007F014EDE882311F137DE4B015C01F601DE
:1044D0008081811103C060917A0501C061E070E0C4
:1044E00080E090E00E943293F80120813181428186
:1044F00053810E9465959B01AC01C501B4010E94E6
:10450000B791688379838A839B8309C0F80180818E
:104510009181A281B38188839983AA83BB830C5F35
:104520001F4F2496FFEFCF1ADF0A83E3E81684E0DB
:10453000F80621F686E414DE8823D1F0FDDD6B0158
:104540007C0160938B0570938C0580938D0590930F
:104550008E0520E030E0A9010E949394181644F4DF
:10456000C0920F02D0921002E0921102F092120259
:10457000DF91CF911F910F91FF90EF90DF90CF903F
:10458000BF90AF909F908F90089580DF89E4E8DD21
:10459000882351F0D1DD60938F057093900580934F
:1045A00091059093920508C010928F051092900586
:1045B00010929105109292058AE4D2DD882351F081
:1045C000BBDD60939305709394058093950590935C
:1045D00096050895109293051092940510929505F2
:1045E000109296050895CF92DF92EF92FF92CF93AB
:1045F000DF93EC01C0903202D0903302E09034029D
:10460000F0903502A7019601688179818A819B81AA
:104610000E94909287FF04C0C882D982EA82FB82FE
:10462000C0903602D0903702E0903802F090390204
:10463000A70196016C817D818E819F810E9490925D
:1046400087FF04C0CC82DD82EE82FF82C0903A02F6
:10465000D0903B02E0903C02F0903D02A701960111
:10466000688579858A859B850E94909287FF04C022
:10467000C886D986EA86FB86C0902602D09027029B
:10468000E0902802F0902902A701960168817981C3
:104690008A819B810E949394181624F4C882D9823F
:1046A000EA82FB82C0902A02D0902B02E0902C027A
:1046B000F0902D02A70196016C817D818E819F81F2
:1046C0000E949394181624F4CC82DD82EE82FF823D
:1046D000C0902E02D0902F02E0903002F090310274
:1046E000A7019601688579858A859B850E949394A8
:1046F000181624F4C886D986EA86FB86DF91CF9106
:10470000FF90EF90DF90CF9008952F923F924F92BD
:104710005F926F927F928F929F92AF92BF92CF9251
:10472000DF92EF92FF920F931F93CF93DF93CDB75A
:10473000DEB72C970FB6F894DEBF0FBECDBF8BE966
:1047400095E051DF81E00E946D7220E030E040E2B0
:1047500053E46091190E70911A0E80911B0E909186
:104760001C0E0E94939418160CF055C12091C3059D
:104770003091C4054091C5055091C60529833A83FF
:104780004B835C8320939B0530939C0540939D0550
:1047900050939E054090C7055090C8056090C9058C
:1047A0007090CA0540929F055092A0056092A105A5
:1047B0007092A2058091CB059091CC05A091CD057A
:1047C000B091CE058D839E83AF83B8878093A30578
:1047D0009093A405A093A505B093A60520E030E032
:1047E00040E85FE36091CF057091D0058091D105DD
:1047F0009091D2050E94B6916093A7057093A80589
:104800008093A9059093AA05BFEA2B2EB5E03B2E15
:104810003F922F92812C912C10EFA12E11E4B12EFA
:1048200007EAC02E05E0D02EED80FE800F811885AE
:10483000A301920169817A818B819C810E94BF5082
:1048400060919B0570919C0580919D0590919E05BE
:104850006093C3057093C4058093C5059093C60506
:1048600080909F059090A005A090A105B090A20512
:104870008092C7059092C805A092C905B092CA055A
:10488000C090A305D090A405E090A505F090A605E2
:10489000C092CB05D092CC05E092CD05F092CE052A
:1048A0002091A7053091A8054091A9055091AA052E
:1048B00029833A834B835C832093CF053093D005C3
:1048C0004093D1055093D20520E030E040E251E41E
:1048D0000E94B7912B013C0160939B0570939C054E
:1048E00080939D0590939E0520E030E040E251E4E6
:1048F000C501B4010E94B7916D837E838F83988731
:1049000060939F057093A0058093A1059093A205E5
:1049100020E030E040E85FE3C701B6010E94B791B4
:1049200069877A878B879C876093A3057093A4051A
:104930008093A5059093A60520E030E040EA50E47E
:1049400069817A818B819C810E94B6916093A705D1
:104950007093A8058093A9059093AA053F922F9282
:10496000812C912C86E1A82E83E4B82E97EAC92EDB
:1049700095E0D92EE984FA840B851C852D813E8132
:104980004F815885C301B2010E94BF5080919B05A1
:1049900090919C05A0919D05B0919E058093C305C3
:1049A0009093C405A093C505B093C60580919F055B
:1049B0009091A005A091A105B091A2058093C70593
:1049C0009093C805A093C905B093CA058091A3052B
:1049D0009091A405A091A505B091A6058093CB0563
:1049E0009093CC05A093CD05B093CE058091A705FB
:1049F0009091A805A091A905B091AA058093CF0533
:104A00009093D005A093D105B093D2050F900F904D
:104A10000F900F90B2C020E030E040E251E460918E
:104A2000C3057091C4058091C5059091C6050E948B
:104A3000B7912B013C0160939B0570939C0580937B
:104A40009D0590939E0520E030E040E251E46091A6
:104A5000C7057091C8058091C9059091CA050E944B
:104A6000B79169837A838B839C8360939F0570934E
:104A7000A0058093A1059093A20520E030E040E8D6
:104A80005FE36091CB057091CC058091CD0590914D
:104A9000CE050E94B7916093A3057093A4058093FF
:104AA000A5059093A6050091CF051091D005209102
:104AB000D1053091D2050093A7051093A805209346
:104AC000A9053093AA052FEA35E03F932F93812C57
:104AD000912CF6E1AF2EF3E4BF2EA7EACA2EA5E093
:104AE000DA2E7B018C0129813A814B815C81C301E3
:104AF000B2010E94BF5080919B0590919C05A091AE
:104B00009D05B0919E058093C3059093C405A09325
:104B1000C505B093C60580919F059091A005A09111
:104B2000A105B091A2058093C7059093C805A093F5
:104B3000C905B093CA058091A3059091A405A091E1
:104B4000A505B091A6058093CB059093CC05A093C5
:104B5000CD05B093CE058091A7059091A805A091B1
:104B6000A905B091AA058093CF059093D005A09395
:104B7000D105B093D2050F900F909091620680916D
:104B800063069813FACF88E692E00E94328B8091F8
:104B90000F0290911002A0911102B0911202809325
:104BA000870590938805A0938905B0938A05809125
:104BB0004602909147029093D4058093D30584E6F2
:104BC00090E090934702809346020E94008F60938A
:104BD000A8047093A9048093AA049093AB0481E085
:104BE0000E946D728091C3059091C405A091C50586
:104BF000B091C60580939B0590939C05A0939D055D
:104C0000B0939E058091C7059091C805A091C905F4
:104C1000B091CA0580939F059093A005A093A1052C
:104C2000B093A2058091CB059091CC05A091CD05C4
:104C3000B091CE058093A3059093A405A093A505FC
:104C4000B093A6058091CF059091D005A091D10594
:104C5000B091D2058093A7059093A805A093A905CC
:104C6000B093AA0510920F02109210021092110236
:104C700010921202169A1092B405469A1092B50537
:104C8000409A1092B605139A82E090E00E94131A9F
:104C9000E090CB05F090CC050091CD051091CE05AC
:104CA0002091C7053091C8054091C9055091CA05AA
:104CB0006091C3057091C4058091C5059091C605AA
:104CC000EFECCE2EE5E0DE2E0E94B95B80E00E9484
:104CD0006D728091870590918805A0918905B091AA
:104CE0008A0580930F0290931002A0931102B09353
:104CF00012028091D3059091D4059093470280933E
:104D000046020E94008F6093A8047093A9048093C8
:104D1000AA049093AB040E946672169A1092B4058E
:104D2000469A1092B505409A1092B605139A2C96A1
:104D30000FB6F894DEBF0FBECDBFDF91CF911F91AC
:104D40000F91FF90EF90DF90CF90BF90AF909F902A
:104D50008F907F906F905F904F903F902F9008952D
:104D60004F925F926F927F928F929F92AF92BF927B
:104D7000CF92DF92EF92FF920F931F93CF93DF9327
:104D8000CDB7DEB728970FB6F894DEBF0FBECDBF04
:104D90008BE995E028DC0E94008F6093A804709353
:104DA000A9048093AA049093AB0420919B053091B1
:104DB0009C0540919D0550919E0529833A834B8324
:104DC0005C836091C3057091C4058091C505909185
:104DD000C6050E94909240909F055090A00560905B
:104DE000A1057090A2052091A3053091A4054091E2
:104DF000A5055091A6052D833E834F8358878111C9
:104E00008BC0A30192016091C7057091C805809184
:104E1000C9059091CA050E94909281117DC020E041
:104E200030E040E752E460910F02709110028091EF
:104E30001102909112020E9497924B015C018FEA3D
:104E400095E09F938F9327EAC22E25E0D22EED8026
:104E5000FE800F811885A301920169817A818B817F
:104E60009C810E94BF500F900F9080919B05909164
:104E70009C05A0919D05B0919E058093C3059093DC
:104E8000C405A093C505B093C60580919F05909178
:104E9000A005A091A105B091A2058093C7059093AC
:104EA000C805A093C905B093CA058091A305909148
:104EB000A405A091A505B091A6058093CB0590937C
:104EC000CC05A093CD05B093CE058091A705909118
:104ED000A805A091A905B091AA058093CF0590934C
:104EE000D005A093D105B093D20528960FB6F894BB
:104EF000DEBF0FBECDBFDF91CF911F910F91FF900D
:104F0000EF90DF90CF90BF90AF909F908F907F9069
:104F10006F905F904F9008956091460270914702A4
:104F2000882777FD8095982F0E94329320910F0259
:104F30003091100240911102509112020E94659529
:104F400020E030E040E752E40E94979220E030E019
:104F500048EC52E470CFAF92BF92CF92DF92EF92C3
:104F6000FF920F931F93CF93DF93D82F2091930538
:104F700030919405409195055091960560918F056B
:104F80007091900580919105909192050E94A09456
:104F9000C62F172F082FF92E6091460270914702F5
:104FA000882777FD8095982F0E94329320910F02D9
:104FB0003091100240911102509112020E946595A9
:104FC00020E030E040E752E40E94979220E030E099
:104FD00048EC52E40E9497922091AF052F93DF9303
:104FE000FF920F931F93CF935B016C0132E0E32E8E
:104FF00001E020E04FE855E06BE975E083EC95E0D7
:105000000E94534880919B0590919C05A0919D051D
:10501000B0919E058093C3059093C405A093C505E8
:10502000B093C60580919F059091A005A091A10520
:10503000B091A2058093C7059093C805A093C905B8
:10504000B093CA058091A3059091A405A091A505F0
:10505000B091A6058093CB059093CC05A093CD0588
:10506000B093CE058091A7059091A805A091A905C0
:10507000B091AA058093CF059093D005A093D10558
:10508000B093D2050E94008F6093A8047093A90486
:105090008093AA049093AB040F900F900F900F9001
:1050A0000F900F90DF91CF911F910F91FF90EF9094
:1050B000DF90CF90BF90AF900895F8940E94DF8268
:1050C000169A1092B405469A1092B505409A10921D
:1050D000B605139A60E088E10E94CC9041EB54E061
:1050E00060E070E081ED9BE00E94EB188091C000D1
:1050F00085FFFCCF8AE38093C600E4EFF3E0849160
:10510000882341F09091C00095FFFCCF8093C600AA
:105110003196F5CF8091C00085FFFCCF8AE0809367
:10512000C600FFCF2F923F925F926F927F928F9235
:105130009F92AF92BF92CF92DF92EF92FF920F9326
:105140001F93CF93DF9340E6742E52E0E52EF12CAF
:105150006FE3262E69E0362E71E6672EEDE3CE2E44
:10516000E9E0DE2EF7E5AF2EF9E0BF2EADEC8A2E9A
:10517000A9E09A2E80915A0690915B0620915C06D8
:1051800030915D06821B930B8F779927892B09F449
:10519000F0C28091B2049091B30402970CF0E9C27E
:1051A00089ED95E00E949E468093B1042091AF0462
:1051B0003091B0048A3061F08D3051F08A3321F49F
:1051C0009091AE04992321F02F3531050CF4F4C1F0
:1051D0002115310519F41092AE04CBC28091B404AC
:1051E0009091B504789E8001799E100D1124F801EC
:1051F000E20FF31FE654FB4F10822091AE04211101
:10520000D6C1FC01E854FB4F1082E801C654DB4FC5
:105210006EE470E0CE010E94CE9A0097E9F190937F
:10522000AD048093AC048C1B9D0B800F911F4AE052
:1052300050E060E070E085549B4F0E94639960935A
:10524000830570938405809385059093860520914E
:105250007F053091800540918105509182052F5F37
:105260003F4F4F4F5F4F0091B4041091B504621748
:1052700073078407950709F4BEC1709EC001719E33
:10528000900D112466E77AE086549B4F0E94B49AF1
:10529000892B09F0B0C140C26AE270E0CE010E94E1
:1052A000CE9A892B09F444C0E5ECFBE08491882375
:1052B00041F09091C00095FFFCCF8093C6003196DD
:1052C000F5CFE0EDF9E08491882341F09091C000A2
:1052D00095FFFCCF8093C6003196F5CF40917F05B6
:1052E0005091800560918105709182052AE030E03F
:1052F00089ED95E00E9459478091C00085FFFCCF61
:105300008AE08093C6001092B0041092AF0431C2BC
:105310008091830590918405A0918505B0918605C3
:1053200080937F0590938005A0938105B0938205BB
:105330008091B4049091B504789EE001799ED00DDF
:1053400011248E0106541B4F67E470E0C8010E94CF
:10535000CE9A009709F441C09093AD048093AC04B9
:10536000801B910B8C0F9D1F60E070E085549B4F5C
:105370000E94FB970E94FF926430710570F5809146
:105380009A04811114C0F4018491EDECF9E08823B2
:1053900049F09091C00095FFFCCF8093C6003196F4
:1053A0008491F5CF8091C00085FFFCCF13C0F5013B
:1053B0008491E7E5F9E0882349F09091C00095FFDA
:1053C000FCCF8093C60031968491F5CF8091C000C8
:1053D00085FFFCCF8AE08093C6002091B404309111
:1053E000B504729EC001739E900D112462E579E0B0
:1053F00086549B4F0E94B49A892B09F4B4C00E9432
:10540000CE7CEBECFBE08491882341F09091C000CE
:1054100095FFFCCF8093C6003196F5CFEFE4F9E01D
:105420008491882341F09091C00095FFFCCF809338
:10543000C6003196F5CF4091C3055091C4056091E7
:10544000C5057091C60522E030E089ED95E00E9427
:105450005248EBE4F9E08491882341F09091C00038
:1054600095FFFCCF8093C6003196F5CF4091C705DC
:105470005091C8056091C9057091CA0522E030E0DD
:1054800089ED95E00E945248E7E4F9E08491882391
:1054900041F09091C00095FFFCCF8093C6003196FB
:1054A000F5CF4091CB055091CC056091CD05709121
:1054B000CE0522E030E089ED95E00E945248E3E419
:1054C000F9E08491882341F09091C00095FFFCCFD2
:1054D0008093C6003196F5CF4091CF055091D0050D
:1054E0006091D1057091D20522E030E089ED95E020
:1054F0000E945248F1018491EFE3F9E0882349F0DA
:105500009091C00095FFFCCF8093C60031968491A6
:10551000F5CFE09163066E9EF0011124EC59F94F2E
:1055200020E030E040E752E4608971898289938904
:105530000E946595AB01BC0122E030E089ED95E069
:105540000E945248F6018491EDE3F9E0882349F086
:105550009091C00095FFFCCF8093C6003196849156
:10556000F5CF0E94547DC091B404D091B5047C9EC7
:10557000C0017D9E900D112468E379E086549B4F15
:105580000E94B49A892B09F098DDCE010196B701EB
:105590000E9446969093B5048093B4048091B2041F
:1055A0009091B30401969093B3048093B204109247
:1055B000B0041092AF04DECD8B3319F491E09093D8
:1055C000AE049091AE049111D5CD4091B4045091A8
:1055D000B504B9016F5F7F4F7093B0046093AF045F
:1055E000749EF001759EF00D1124E20FF31FE65436
:1055F000FB4F8083BFCD709EE001719ED00D1124C2
:105600008E0106541B4F6AE270E0C8010E94CE9AD8
:10561000009791F5E5ECFBE08491882341F09091AF
:10562000C00095FFFCCF8093C6003196F5CFEAEF1E
:10563000F9E08491882341F09091C00095FFFCCF60
:105640008093C6003196F5CF40917F05509180053B
:1056500060918105709182052AE030E089ED95E046
:105660000E9459478091C00085FFFCCF8AE080935B
:10567000C6000E941B2247CE20E0512CFE01E20F03
:10568000F11DE654FB4F30813A3219F02F5F53265B
:10569000F5CF9093AD048093AC04801B910B8C0FDD
:1056A0009D1F60E070E085549B4F0E94FB970E9415
:1056B000FF92252D30E02617370709F429CEE5ECB7
:1056C000FBE08491882341F09091C00095FFFCCFCE
:1056D0008093C6003196F5CFE4E2FAE08491882306
:1056E00041F09091C00095FFFCCF8093C6003196A9
:1056F000F5CF40917F0550918005609181057091B3
:1057000082052AE030E089ED95E00E9459478091BA
:10571000C00085FFFCCFAACFE5ECFBE08491882395
:1057200041F09091C00095FFFCCF8093C600319668
:10573000F5CFE3E4FAE08491882341F09091C00032
:1057400095FFFCCF8093C6003196F5CF40917F0541
:105750005091800560918105709182052AE030E0CA
:1057600089ED95E00E9459478091C00085FFFCCFEC
:105770007DCFDF91CF911F910F91FF90EF90DF9040
:10578000CF90BF90AF909F908F907F906F905F90E1
:105790003F902F900895CF92DF92EF92FF920F9358
:1057A0001F938091B2049091B304181619060CF05F
:1057B000B9DC0E94008F0091A4041091A5042091EF
:1057C000A6043091A704C090A804D090A904E0904A
:1057D000AA04F090AB046C197D098E099F09061785
:1057E00017072807390728F4012B022B032B09F090
:1057F00064DC80910B0290910C02A0910D02B0919B
:105800000E02892B8A2B8B2B09F10E94008F0091AD
:10581000A8041091A9042091AA043091AB04601B44
:10582000710B820B930B00910B0210910C022091D3
:105830000D0230910E02061717072807390730F4BA
:105840009091630680916206981741F01F910F9125
:10585000FF90EF90DF90CF900C94A250169A109288
:10586000B405469A1092B505409A1092B605139A5F
:10587000EDCF0E94DF8280919A04811136C081E0D1
:1058800080939A0480917F0590918005A091810575
:10589000B091820580937B0590937C05A0937D0554
:1058A000B0937E0542EB54E060E070E081ED9BE058
:1058B0000E94EB188091C00085FFFCCF8AE38093A3
:1058C000C600EEE7F3E08491882341F09091C00098
:1058D00095FFFCCF8093C6003196F5CF8091C00034
:1058E00085FFFCCF8AE08093C600089580919A04DA
:1058F0000895CF93DF93EC018091AF0580939B04D3
:1059000084E50E94B020811102C080E075C00E9431
:105910009C200E94049360939B046623B1F3EBECFC
:10592000FBE08491882341F09091C00095FFFCCF6B
:105930008093C6003196F5CFCD36D105B9F054F439
:10594000C836D105B1F0C936D10509F045C0E4E348
:10595000F3E021C0CA3DD10531F0CD3DD105E1F5DF
:10596000EFEEF2E036C0E6E0F3E029C0EDE1F3E06F
:105970001CC0EBE4F3E08191882371F19091C000A9
:1059800095FFFCCF8093C600F6CF9091C00095FFA5
:10599000FCCF8093C60081918111F7CF1DC09091FB
:1059A000C00095FFFCCF8093C60081918111F7CF95
:1059B00013C09091C00095FFFCCF8093C6008191E9
:1059C0008111F7CF09C09091C00095FFFCCF809363
:1059D000C60081918111F7CF40E050E060919B04B7
:1059E00089ED95E00E94B3478091C00085FFFCCF10
:1059F0008AE08093C60081E0DF91CF9108952F92D5
:105A00003F924F925F926F927F928F929F92AF924E
:105A1000BF92CF92DF92EF92FF920F931F93CF939B
:105A2000DF93CDB7DEB7CB58D1090FB6F894DEBF00
:105A30000FBECDBF87E40E94B020882309F42CC29A
:105A40000E949C200E94FF926D31710509F4A9C04B
:105A5000ACF46230710509F43FC024F477FF30C024
:105A60000C94CA3D6430710509F44EC00CF440C07A
:105A70006C31710509F489C00C94CA3D633271051B
:105A800009F4B7C064F46132710509F4A2C00CF0E6
:105A9000ACC06E31710509F490C00C94CA3D6B35F1
:105AA000710509F490C16C35710509F491C16A352D
:105AB000710511F00C94CA3D10927A050C94CA3D00
:105AC00080919A0481110C94CA3D0E945C7D8111E1
:105AD0000C94CA3D0C94CE3D80919A0481110C9493
