:100000000C94450C0C94760C0C94760C0C94760C99
:100010000C94760C0C94760C0C94760C0C94760C58
:100020000C94760C0C94760C0C94760C0C94760C48
:100030000C94760C0C94760C0C94760C0C94760C38
:100040000C94760C0C9485730C94760C0C94760CB2
:100050000C94760C0C94760C0C946F880C949C8DFC
:100060000C94760C0C9406470C94760C0C94760C3D
:100070000C94760C0C94760C0C94760C0C94760CF8
:100080000C946A700C94760C0C94760C0C94760C90
:100090000C94760C0C94760C0C94760C0C94760CD8
:1000A0000C94760C0C94760C0C9498700C94760C42
:1000B0000C94760C0C94760C0C94760C0C94C67004
:1000C0000C94760C0C94760C0C94760C0C94760CA8
:1000D0000C94760C0C94760C0C94760C0C94760C98
:1000E0000C94760CB888C588E188EE8808890A895E
:1000F0000C890E891689C58ECA8ECF8ED98EE38E55
:100100005C8FED8EF58EFD8E078F118F1B8F2A8FE2
:10011000348F5C8F3E8F488F528F7E8F818F708F90
:10012000748F7A8FB88F858F898F8F8F938F978FEA
:100130009D8FA18FA58FB88FAB8FAF8FB38F084ADC
:10014000D73B3BCE016E84BCBFFDC12F3D6C7431EB
:100150009ABD56833DDA3D00C77F11BED9E4BB4C42
:100160003E916BAAAABE000000803F05A84CCDB20C
:10017000D44EB93836A9020C50B9918688083CA6ED
:10018000AAAA2ABE000000803F000C9402470C94EB
:100190008F8F0C94AB8F0C94C5880C94CF8E0C94DD
:1001A000898F0C94078F0C947E8F0C941B8F0C946A
:1001B000AF8F0C94ED8E0C94118F0C940A890C94D3
:1001C0003E8F0C94C58E0C949D8F0C94978F0C943D
:1001D000E1880C942A8F0C94748F0C94938F0C9458
:1001E000818F0C94CA8E0C94B8880C947A8F0C94DE
:1001F000488F0C940C890C9408890C940E890C94EB
:10020000B88F0C94EE880C94A18F0C94348F0C94BE
:10021000A58F0C94858F0C94FD8E0C94F58E0C9408
:10022000D98E0C945C8F0C9416890C94708F0C945E
:10023000B38F0C94528F0C94E38E0A0045455052B4
:100240004F4D204552524F5200204400204900207B
:1002500020204D33303120500050494420736574C4
:1002600074696E67733A00205A0020590020204DAF
:10027000323036205800486F6D65206F66667365B2
:100280007420286D6D293A00204500205A0020581E
:100290000020420020540020204D323035205300F1
:1002A000416476616E636564207661726961626C37
:1002B00065733A20533D4D696E20666565647261D1
:1002C000746520286D6D2F73292C20543D4D696E67
:1002D0002074726176656C20666565647261746510
:1002E00020286D6D2F73292C20423D6D696E696D3C
:1002F000756D207365676D656E742074696D65201A
:10030000286D73292C20583D6D6178696D756D20BD
:100310005859206A65726B20286D6D2F73292C2027
:10032000205A3D6D6178696D756D205A206A65723D
:100330006B20286D6D2F73292C2020453D6D617831
:10034000696D756D2045206A65726B20286D6D2F73
:1003500073290020540020204D32303420530041B6
:100360006363656C65726174696F6E3A20533D61B9
:100370006363656C65726174696F6E2C20543D72A5
:1003800065747261637420616363656C6572617426
:10039000696F6E00204500205A0020590020204D32
:1003A0003230312058004D6178696D756D204163A0
:1003B00063656C65726174696F6E20286D6D2F7353
:1003C00032293A00204500205A0020590020204DB3
:1003D0003230332058004D6178696D756D20666547
:1003E0006564726174657320286D6D2F73293A00FE
:1003F000204500205A0020590020204D3932205835
:100400000053746570732070657220756E69743A5C
:100410000053657474696E67732053746F726564FA
:10042000004543484F3E004552524F523E005072E5
:10043000696E7465722073746F7070656420647582
:100440006520746F206572726F72732E2046697812
:1004500020746865206572726F7220616E64207509
:100460007365204D39393920746F2072657374615A
:1004700072742E202854656D706572617475726592
:100480002069732072657365742E2053657420692A
:100490007420616674657220726573746172746928
:1004A0006E6729005072696E7465722068616C74A1
:1004B00065642E206B696C6C28292063616C6C6507
:1004C0006421006F6B00526573656E643A200045CD
:1004D0006E6473746F70206E6F74207072657373C6
:1004E000656420616674657220686F6D696E67204F
:1004F000646F776E2E205A2D6D696E207377697444
:100500006368206F72205A2D6F66667365742D7351
:10051000656E736F722062726F6B656E3F310A0099
:10052000456E6473746F70207374696C6C207072A4
:100530006573736564206166746572206261636BC4
:10054000696E67206F66662E205A2D6D696E207366
:100550007769746368206F72205A2D6F66667365C1
:10056000742D73656E736F7220737475636B3F3295
:100570000A00456E6473746F70206E6F7420707221
:10058000657373656420616674657220686F6D6958
:100590006E6720646F776E2E205A2D6D696E207302
:1005A0007769746368206F72205A2D6F6666736571
:1005B000742D73656E736F722062726F6B656E3F20
:1005C000310A000A00207A3A200020793A200020DF
:1005D000783A2000426564002200556E6B6E6F779A
:1005E0006E20636F6D6D616E643A2022005A204F59
:1005F0006666736574203A20007A5F6D61783A20F0
:10060000007A5F6D696E3A20005A204F6666736506
:1006100074005A204F6666736574206F6B007A5FB2
:100620006D61783A20007A5F6D696E3A2000795FDB
:100630006D61783A2000795F6D696E3A2000785FCD
:100640006D61783A2000785F6D696E3A2000205A1B
:100650003A0020593A0020436F756E7420583A20B2
:100660000020463A0020453A00205A3A0020593AE4
:1006700000583A004649524D574152455F4E414D50
:10068000453A4D61726C696E20666F72206D6F73B2
:100690007466756E2050726F3B204D414348494E41
:1006A000455F545950453A6D6F737466756E2050AE
:1006B000726F2045585452554445525F434F554E32
:1006C000543A3120555549443A303030303030308A
:1006D000302D303030302D303030302D3030303023
:1006E0002D3030303030303030303030300A002073
:1006F000423A0020453A00543A0020573A0020453B
:100700003A00543A002042403A0020403A00202F5C
:10071000003A00205400202F0020423A00202F00F1
:100720006F6B20543A002569206D696E2C20256975
:1007300020736563000A00454550524F4D204552D5
:10074000524F52000A0063757272656E745F6F6675
:10075000667365743A200077726974655F656570C9
:10076000726F6D5F77726974655F666C6167000AAE
:10077000007A70726F62655F6F66667365745F732F
:10078000656E736F723A20000A00205A3A200020EA
:10079000593A200020583A2000426564000A00417E
:1007A00075746F5F6C657665696E672066696E69E2
:1007B00073680020643A200020623A200045716E80
:1007C00020636F656666696369656E74733A20615C
:1007D0003A2000486F6D6520582F59206265666F7A
:1007E0007265205A00456E6473746F70207374696B
:1007F0006C6C2070726573736564206166746572D9
:10080000206261636B696E67206F66662E205A2DC9
:100810006D61782073776974636820737475636B96
:100820003F0A00456E6473746F70207374696C6C5A
:1008300020707265737365642061667465722062EE
:1008400061636B696E67206F66662E205A2D6D6935
:100850006E2073776974636820737475636B3F0AE5
:1008600000456E6473746F70207374696C6C2070D3
:10087000726573736564206166746572206261637A
:100880006B696E67206F66662E20592D6D6178202A
:1008900073776974636820737475636B3F0A0045EE
:1008A0006E6473746F70207374696C6C2070726501
:1008B00073736564206166746572206261636B693D
:1008C0006E67206F66662E20592D6D696E207377D6
:1008D0006974636820737475636B3F0A00456E64C6
:1008E00073746F70207374696C6C207072657373AD
:1008F0006564206166746572206261636B696E670E
:10090000206F66662E20582D6D617820737769748C
:10091000636820737475636B3F0A00456E6473747B
:100920006F70207374696C6C20707265737365648A
:10093000206166746572206261636B696E67206F07
:1009400066662E20582D6D696E2073776974636812
:1009500020737475636B3F0A00456E6473746F7027
:10096000206E6F74207072657373656420616674A5
:10097000657220686F6D696E6720646F776E2E20D8
:10098000582D6D6178206F7220592D6D617820731C
:1009900077697463682062726F6B656E3F0A004509
:1009A0006E6473746F70206E6F74207072657373F1
:1009B000656420616674657220686F6D696E67207A
:1009C000646F776E2E205A2D6D617820737769746D
:1009D00063682062726F6B656E3F0A000A004545CE
:1009E00050524F4D204552524F52004D313132003E
:1009F0000A0020463A0020453A00205A3A00205981
:100A00003A00583A004D313030005072696E7465CA
:100A1000722073746F707065642064756520746FE4
:100A2000206572726F72732E204669782074686533
:100A3000206572726F7220616E6420757365204D3F
:100A400039393920746F20726573746172742E2085
:100A50002854656D706572617475726520697320C4
:100A600072657365742E2053657420697420616605
:100A70007465722072657374617274696E6729009F
:100A80006F6B004E6F204C696E65204E756D626510
:100A900072207769746820636865636B73756D2C69
:100AA000204C617374204C696E653A20004E6F20B3
:100AB000436865636B73756D2077697468206C6932
:100AC0006E65206E756D6265722C204C61737420AA
:100AD0004C696E653A2000636865636B73756D20C1
:100AE0006D69736D617463682C204C617374204C64
:100AF000696E653A20004C696E65204E756D6265C1
:100B000072206973206E6F74204C617374204C697D
:100B10006E65204E756D6265722B312C204C6173B1
:100B200074204C696E653A20004D31313000202030
:100B3000506C616E6E65724275666665724279745C
:100B400065733A20002046726565204D656D6F72B1
:100B5000793A20004D61792032332032303136002D
:100B600028693377617465722C206D6F73746675B4
:100B70006E2053265420436F2E2C4C74642E290073
:100B8000207C20417574686F723A20004D61792095
:100B9000323320323031362031313A31343A32304A
:100BA00000204C61737420557064617465643A2050
:100BB0000020312E302E30004D61726C696E20663F
:100BC0006F72206D6F737466756E2050726F0020A7
:100BD000536F667477617265205265736574002087
:100BE0005761746368646F67205265736574002091
:100BF00042726F776E206F75742052657365740052
:100C00002045787465726E616C205265736574005E
:100C1000506F7765725570007374617274000A00CA
:100C200020463A0020453A00205A3A0020593A001E
:100C3000583A000101010000A0400000A04000005F
:100C4000404000005C430000384300002A4300009D
:100C50005C43000038430000204300005C43000078
:100C600038430000204300000000000000000000A6
:100C700020C1494E464F3E005741524E3E0045432B
:100C8000484F3E004552524F523E0020746F6F2035
:100C90006C6F6E6720657874727573696F6E207003
:100CA000726576656E7465640020636F6C642065A0
:100CB0007874727573696F6E2070726576656E7484
:100CC0006564005741524E3E00205A3A0020593A7E
:100CD0000020583A00656E6473746F707320686901
:100CE000743A200024F4D43050C38E20C2A240179E
:100CF000828B7011127A910D816CD90AA861E1087A
:100D0000C7586607615143061E4B5D05C145A704E0
:100D10001A411104093D9803713931034036DB0251
:100D200065339102D4305402802E1D02632CEE01F3
:100D3000752AC501B028A001102781018F25640103
:100D40002B244B01E0223401AC211F018D200D0129
:100D5000801FFC00841EED00971DDF00B81CD20030
:100D6000E61BC600201BBC00641AB200B219A80022
:100D70000A19A0006A189900D117910040178B003A
:100D8000B516840031167E00B31579003A1573004C
:100D9000C7146F0058146A00EE13660088136300CE
:100DA00025135E00C7125B006C1257001512540029
:100DB000C111510070114F0021114B00D610490094
:100DC0008D1047004610440002104200C00F400042
:100DD000800F3E00420F3C00060F3B00CB0E380058
:100DE000930E37005C0E3500270E3400F30D3200F1
:100DF000C10D3100900D3000600D2E00320D2D0020
:100E0000050D2C00D90C2B00AE0C2900850C2900F7
:100E10005C0C2700350C27000E0C2600E80B240084
:100E2000C40B2400A00B23007D0B23005A0B2100D0
:100E3000390B2100180B2000F80A1F00D90A1E00E8
:100E4000BB0A1E009D0A1D00800A1D00630A1C00CB
:100E5000470A1B002C0A1B00110A1A00F7091A0086
:100E6000DD091900C4091900AB091900920917001E
:100E70007B091800630917004C0916003609160093
:100E8000200916000A091500F5081500E0081400ED
:100E9000CC081400B8081400A4081400900813002B
:100EA0007D0812006B081300580812004608120053
:100EB0003408110023081100120811000108110064
:100EC000F0071000E0071000D0071000C007100066
:100ED000B0070F00A107100091070E0083070F0055
:100EE00074070F0065070E0057070E0049070E0034
:100EF0003B070D002E070E0020070D0013070D0005
:100F000006070D00F9060C00ED060D00E0060C00CA
:100F1000D4060C00C8060C00BC060C00B0060C0081
:100F2000A4060B0099060C008D060B0082060B0030
:100F300077060B006C060B0061060A0057060B00D3
:100F40004C060A0042060A0038060A002E060A006D
:100F500024060A001A060A001006090007060A00FD
:100F6000FD050900F4050900EB050900E20509008B
:100F7000D9050900D0050900C7050900BE0509000B
:100F8000B5050800AD050800A50509009C05080089
:100F9000940508008C050800840508007C050800FD
:100FA000740508006C050700650508005D0507006D
:100FB000560508004E0507004705070040050800D4
:100FC00038050700310507002A050700230507003B
:100FD0001C050600160507000F050700080506009A
:100FE00002050700FB040600F5040700EE040600F6
:100FF000E8040600E2040700DB040600D50406004E
:10100000CF040600C9040600C3040600BD040600A0
:10101000B7040600B1040500AC040600A6040600EF
:10102000A00405009B04060095040500900406003A
:101030008A04050085040500800406007A04050082
:1010400075040500700405006B04050066040500C6
:10105000610405005C040500570405005204050006
:101060004D04050048040500430405003E04040047
:101070003A04050035040500300404002C04050082
:1010800027040400230405001E0404001A040400BD
:1010900016040500110404000D04040009040500F1
:1010A0000404040000040400FC030400F80304002A
:1010B000F4030400F0030400EC030400E80304005C
:1010C000E4030400E0030400DC030400D80304008C
:1010D000D4030400D0030400CC030400C8030300BD
:1010E000C503030024F404D9201BC40C5C0E98042F
:1010F000C4095F0265077101F405F900FB04B30040
:1011000048048700C10369005803550003034500E4
:10111000BE023A008402310053022A00290225004F
:1011200004022000E4011C00C8011900AF011700EF
:101130009801140084011300710110006101100076
:1011400051010E0043010D0036010B002B010B0075
:1011500020010B00150109000C0109000301080022
:10116000FB000800F3000800EB000700E4000600A5
:10117000DE000600D8000600D2000600CC00050004
:10118000C7000500C2000500BD000400B90004004E
:10119000B5000400B1000400AD000400A900040083
:1011A000A5000300A20003009F0004009B000300B1
:1011B00098000300950002009300030090000300D4
:1011C0008D0002008B0003008800020086000200F0
:1011D00084000300810002007F0002007D00020005
:1011E0007B00020079000200770001007600020017
:1011F0007400020072000100710002006F00020022
:101200006D0001006C0002006A000100690002002C
:101210006700010066000100650001006400020033
:101220006200010061000100600001005F00020037
:101230005D0001005C0001005B0001005A0001003C
:10124000590001005800010057000100560001003C
:10125000550001005400010053000000530001003C
:101260005200010051000100500001004F00010038
:101270004E0000004E0001004D0001004C00010036
:101280004B0000004B0001004A0001004900010032
:10129000480000004800010047000100460000002F
:1012A0004600010045000000450001004400010027
:1012B0004300000043000100420000004200010022
:1012C0004100000041000100400001003F0000001B
:1012D0003F0001003E0000003E0001003D00000014
:1012E0003D0001003C0000003C0000003C0001000B
:1012F0003B0000003B0001003A0000003A00010002
:1013000039000000390001003800000038000000FA
:1013100038000100370000003700010036000000EF
:1013200036000000360001003500000035000000E6
:1013300035000100340000003400000034000100DA
:1013400033000000330000003300010032000000D1
:1013500032000000320001003100000031000000C6
:1013600031000100300000003000000030000100BA
:101370002F0000002F0000002F0000002F000100B0
:101380002E0000002E0000002E0001002D000000A5
:101390002D0000002D0000002D0001002C00000099
:1013A0002C0000002C0000002C0001002B0000008D
:1013B0002B0000002B0000002B0001002A00000081
:1013C0002A0000002A0000002A0001002900000075
:1013D0002900000029000000290000002900010068
:1013E000280000002800000028000000280000005D
:1013F000280001002700000027000000270000004F
:101400002700000027000100260000002600000041
:101410002600000026000000260001002500000034
:101420002500000025000000250000002500000028
:10143000250001002400000024000000240000001A
:10144000240000002400010023000000230000000D
:101450002300000023000000230000002300000000
:1014600023000100220000002200000022000000F2
:1014700022000000220000002200010021000000E4
:1014800021000000210000002100000021000000D8
:1014900021000000210001002000000020000000C9
:1014A00020000000200000002000000020000000BC
:1014B00020000000200001001F0000001F000000AD
:1014C0001F0000001F0000001F0000001F000000A0
:1014D0001F0001001E0000001E0000001E00000092
:1014E0001E0000004543484F3E0054656D70657214
:1014F00061747572652068656174656420626564F5
:10150000207377697463686564206F66662E204D6A
:10151000415854454D50207472696767657265641F
:10152000202121003A204578747275646572207319
:1015300077697463686564206F66662E204D494E36
:1015400054454D5020747269676765726564202147
:10155000003A2045787472756465722073776974F7
:1015600063686564206F66662E204D415854454D72
:101570005020747269676765726564202100202DB0
:1015800020496E76616C6964206578747275646553
:1015900072206E756D6265722021005049442041B1
:1015A00075746F74756E652066696E6973686564BD
:1015B000212050757420746865206C617374204B11
:1015C000702C204B6920616E64204B6420636F6E29
:1015D0007374616E74732066726F6D2061626F76D2
:1015E0006520696E746F20436F6E666967757261FE
:1015F00074696F6E2E6800504944204175746F7491
:10160000756E65206661696C6564212074696D651D
:101610006F75740020403A006F6B20543A006F6B76
:1016200020423A00504944204175746F74756E65CC
:10163000206661696C6564212054656D7065726116
:101640007475726520746F6F206869676800204B3D
:10165000643A2000204B693A2000204B703A200069
:1016600020436C6173736963205049442000205407
:10167000753A2000204B753A2000206D61783A20A1
:1016800000206D696E3A200020643A2000206269D3
:1016900061733A20004552524F523E001000C90279
:1016A00060012C01A0012201E001180120020E01BD
:1016B00080020401F002FA006003F0000004E6007A
:1016C000C004DC00A005D200C006C8003008BE007F
:1016D000C009B400C00BAA00200EA000E0109600C4
:1016E00040148C0000188200401C7800C0206E005E
:1016F00060256400002A5A00702E500050324600C7
:10170000C0353C0080383200C03A2800603C1E00E2
:10171000A03D1400703E0A00003F00000A00207A3D
:101720003A200020793A200020783A200000000A70
:101730000B02090C0D0E0807030401000000000055
:101740000000000000000000000000000000000099
:101750000000000000000000001211100000000056
:101760000000000000000000000000000000000079
:101770000000000102102020080810204010204026
:101780008002010201080402010102040810204045
:101790008080402010080402018004020180402063
:1017A000100804020108040201010204081020408C
:1017B0008001020408102040800505050507050882
:1017C000080808020202020A0A08080404040401C4
:1017D00001010101010101030303030303030304E6
:1017E0000707070C0C0C0C0C0C0C0C020202020676
:1017F000060606060606060B0B0B0B0B0B0B0B0067
:101800000020002300260029002C002F00320000B9
:101810000100000301060109010000220025002843
:10182000002B002E003100340002010000050108E9
:10183000010B0100002100240027002A002D0030A8
:1018400000330001010000040107010A014E414E6E
:10185000494E495459494E46CDCCCC3D0AD7233C3C
:1018600017B7D13877CC2B329595E6241FB14F0AA4
:10187000000020410000C84200401C4620BCBE4C75
:10188000CA1B0E5AAEC59D74024711241FBECFEF6E
:10189000D1E2DEBFCDBF00E00CBF14E0A0E0B2E0BB
:1018A000E4E3FAE301E00BBF02C007900D92A43815
:1018B000B107D9F72EE0A4E8B4E001C01D92A2332D
:1018C000B207E1F718E1CAE8D8E100E006C02297C4
:1018D0000109FE010BBF0E94A895C838D10780E01E
:1018E0000807A9F70E9452900C94189D0C940000D0
:1018F000EF92FF920F931F93CF93DF931F92CDB779
:10190000DEB78C017B01460FF70161917F01F80181
:101910008081918149830E94519CF801808191814D
:1019200001969183808349814E11EECF0F90DF9114
:10193000CF911F910F91FF90EF900895EF92FF923A
:101940000F931F93CF93DF931F92CDB7DEB78C0118
:101950007B01460FF8018081918149830E94499C57
:10196000F70181937F01F801808191810196918334
:10197000808349814E11EECF0F90DF91CF911F915F
:101980000F91FF90EF900895CF93DF93CDB7DEB71F
:101990002C970FB6F894DEBF0FBECDBF28E532E01E
:1019A0003C872B872AE0AE014F5F5F4F0E94EE9984
:1019B0004AE0BE016F5F7F4FCE010B960E94780C0C
:1019C00061E070E080E090E00E94158E8B859C8540
:1019D0008C599F4F9C878B874AE0BE016F5F7F4F7A
:1019E000CE010B960E94780C61E070E080E090E000
:1019F0000E94158E8B859C858C599F4F9C878B8769
:101A00004AE0BE016F5F7F4FCE010B960E94780CBB
:101A10002C960FB6F894DEBF0FBECDBFDF91CF91ED
:101A20000895CF93DF93CDB7DEB72C970FB6F89418
:101A3000DEBF0FBECDBF2CE632E03C872B872AE00D
:101A4000AE014F5F5F4F0E94EE994AE0BE016F5FAB
:101A50007F4FCE010B960E94780C61E070E080E031
:101A600090E00E94158E8B859C858C599F4F9C879A
:101A70008B874AE0BE016F5F7F4FCE010B960E94BD
:101A8000780C61E070E080E090E00E94158E8B851C
:101A90009C858C599F4F9C878B874AE0BE016F5F66
:101AA0007F4FCE010B960E94780C2C960FB6F894BF
:101AB000DEBF0FBECDBFDF91CF910895CF93DF93EF
:101AC000CDB7DEB72C970FB6F894DEBF0FBECDBFF3
:101AD00020E832E03C872B872AE0AE014F5F5F4F62
:101AE0000E94EE994AE0BE016F5F7F4FCE010B96D8
:101AF0000E94780C61E070E080E090E00E94158E1A
:101B00008B859C858C599F4F9C878B874AE0BE01B3
:101B10006F5F7F4FCE010B960E94780C61E070E002
:101B200080E090E00E94158E8B859C858C599F4F9C
:101B30009C878B874AE0BE016F5F7F4FCE010B967B
:101B40000E94780C2C960FB6F894DEBF0FBECDBF66
:101B5000DF91CF910895CF93DF93CDB7DEB72C9768
:101B60000FB6F894DEBF0FBECDBF24E932E03C874C
:101B70002B872AE0AE014F5F5F4F0E94EE994AE04B
:101B8000BE016F5F7F4FCE010B960E94780C61E023
:101B900070E080E090E00E94158E8B859C858C59CA
:101BA0009F4F9C878B874AE0BE016F5F7F4FCE01BE
:101BB0000B960E94780C61E070E080E090E00E945B
:101BC000158E8B859C858C599F4F9C878B874AE00F
:101BD000BE016F5F7F4FCE010B960E94780C2C9652
:101BE0000FB6F894DEBF0FBECDBFDF91CF91089541
:101BF000CF93DF93CDB7DEB72C970FB6F894DEBF47
:101C00000FBECDBF28EA32E03C872B872AE0AE0129
:101C10004F5F5F4F0E94EE994AE0BE016F5F7F4FBA
:101C2000CE010B960E94780C61E070E080E090E0BD
:101C30000E94158E8B859C858C599F4F9C878B8726
:101C40004AE0BE016F5F7F4FCE010B960E94780C79
:101C500061E070E080E090E00E94158E8B859C85AD
:101C60008C599F4F9C878B874AE0BE016F5F7F4FE7
:101C7000CE010B960E94780C2C960FB6F894DEBF1E
:101C80000FBECDBFDF91CF910895CF93DF9300D0EA
:101C90001F92CDB7DEB784E893E09A83898322E070
:101CA000AE014D5F5F4F61E070E080E090E00E9428
:101CB000EE9942E0BE016D5F7F4FCE0101960E941A
:101CC000780C0F900F900F900F90DF91CF910895A7
:101CD0008F929F92AF92BF92CF92DF92EF92FF923C
:101CE000CF93DF93CDB7DEB72C970FB6F894DEBF56
:101CF0000FBECDBF88E592E09C878B874AE0BE018E
:101D00006F5F7F4FCE010B960E949E0C4AE050E021
:101D100060E070E0CE0101960E9467986B017C0143
:101D200061E070E080E090E00E94158E8B859C85DC
:101D30008C599F4F9C878B874AE0BE016F5F7F4F16
:101D4000CE010B960E949E0C4AE050E060E070E0ED
:101D5000CE0101960E9467984B015C0161E070E042
:101D600080E090E00E94158E8B859C858C599F4F5A
:101D70009C878B874AE0BE016F5F7F4FCE010B9639
:101D80000E949E0C4AE050E060E070E0CE010196B7
:101D90000E946798C814D904EA04FB04A9F0C61687
:101DA000D706E806F90681F086169706A806B90652
:101DB00049F087ECC82E85E3D82E8AE3E82E82E42A
:101DC000F82E02C075016401C701B6012C960FB64A
:101DD000F894DEBF0FBECDBFDF91CF91FF90EF90A3
:101DE000DF90CF90BF90AF909F908F9008958F928B
:101DF0009F92AF92BF92CF92DF92EF92FF92CF93DA
:101E0000DF93CDB7DEB72C970FB6F894DEBF0FBEC9
:101E1000CDBF8CE692E09C878B874AE0BE016F5F66
:101E20007F4FCE010B960E949E0C4AE050E060E08E
:101E300070E0CE0101960E9467986B017C0161E021
:101E400070E080E090E00E94158E8B859C858C5917
:101E50009F4F9C878B874AE0BE016F5F7F4FCE010B
:101E60000B960E949E0C4AE050E060E070E0CE01CC
:101E700001960E9467984B015C0161E070E080E090
:101E800090E00E94158E8B859C858C599F4F9C8776
:101E90008B874AE0BE016F5F7F4FCE010B960E9499
:101EA0009E0C4AE050E060E070E0CE0101960E9496
:101EB0006798C814D904EA04FB04A9F0C616D7062B
:101EC000E806F90681F086169706A806B90649F0D5
:101ED00097ECC92E95E3D92E9AE3E92E92E4F92ED8
:101EE00002C075016401C701B6012C960FB6F894C3
:101EF000DEBF0FBECDBFDF91CF91FF90EF90DF909F
:101F0000CF90BF90AF909F908F9008958F929F92A7
:101F1000AF92BF92CF92DF92EF92FF92CF93DF9377
:101F2000CDB7DEB72C970FB6F894DEBF0FBECDBF8E
:101F300080E892E09C878B874AE0BE016F5F7F4F0D
:101F4000CE010B960E949E0C4AE050E060E070E0EB
:101F5000CE0101960E9467986B017C0161E070E000
:101F600080E090E00E94158E8B859C858C599F4F58
:101F70009C878B874AE0BE016F5F7F4FCE010B9637
:101F80000E949E0C4AE050E060E070E0CE010196B5
:101F90000E9467984B015C0161E070E080E090E096
:101FA0000E94158E8B859C858C599F4F9C878B87B3
:101FB0004AE0BE016F5F7F4FCE010B960E949E0CE0
:101FC0004AE050E060E070E0CE0101960E94679820
:101FD000C814D904EA04FB04A9F0C616D706E8061B
:101FE000F90681F086169706A806B90649F027EC8F
:101FF000C22E25E3D22E2AE3E22E22E4F22E02C0E4
:1020000075016401C701B6012C960FB6F894DEBFC6
:102010000FBECDBFDF91CF91FF90EF90DF90CF90BB
:10202000BF90AF909F908F9008958F929F92AF92A4
:10203000BF92CF92DF92EF92FF92CF93DF93CDB713
:10204000DEB72C970FB6F894DEBF0FBECDBF84E984
:1020500092E09C878B874AE0BE016F5F7F4FCE0185
:102060000B960E949E0C4AE050E060E070E0CE01CA
:1020700001960E9467986B017C0161E070E080E04E
:1020800090E00E94158E8B859C858C599F4F9C8774
:102090008B874AE0BE016F5F7F4FCE010B960E9497
:1020A0009E0C4AE050E060E070E0CE0101960E9494
:1020B00067984B015C0161E070E080E090E00E9475
:1020C000158E8B859C858C599F4F9C878B874AE00A
:1020D000BE016F5F7F4FCE010B960E949E0C4AE0BF
:1020E00050E060E070E0CE0101960E946798C8144D
:1020F000D904EA04FB04A9F0C616D706E806F906D7
:1021000081F086169706A806B90649F037ECC32E6B
:1021100035E3D32E3AE3E32E32E4F32E02C0750109
:102120006401C701B6012C960FB6F894DEBF0FBE4E
:10213000CDBFDF91CF91FF90EF90DF90CF90BF9018
:10214000AF909F908F9008958F929F92AF92BF9281
:10215000CF92DF92EF92FF92CF93DF93CDB7DEB7AE
:102160002E970FB6F894DEBF0FBECDBF88EA92E07F
:102170009E878D874AE0BE016F5F7F4FCE010D962F
:102180000E949E0C4AE050E060E070E0CE010196B3
:102190000E9467986B017C0161E070E080E090E054
:1021A0000E94158E8D859E858C599F4F9E878D87A9
:1021B0004AE0BE016F5F7F4FCE010D960E949E0CDC
:1021C0004AE050E060E070E0CE0101960E9467981E
:1021D0004B015C0161E070E080E090E00E94158EB0
:1021E0008D859E858C599F4F9E878D874AE0BE01C5
:1021F0006F5F7F4FCE010D960E949E0C4AE050E02B
:1022000060E070E0CE0101960E946798C814D9047E
:10221000EA04FB0461F0C616D706E806F90639F0B1
:1022200086169706A806B90659F47501640187EC6D
:10223000C81685E3D8068AE3E80682E4F80621F5A5
:1022400084E893E09E878D8742E0BE01655F7F4F03
:10225000CE010D960E949E0C42E050E060E070E0DE
:10226000CE010B960E946798672B682B692B49F467
:1022700047ECC42E45E3D42E4AE3E42E42E4F42E88
:1022800003C0C12CD12C760184E893E09E878D8712
:1022900042E0BE01655F7F4FCE010D960E949E0C0D
:1022A00042E050E060E070E0CE010B960E9467983B
:1022B000C701B6012E960FB6F894DEBF0FBECDBF94
:1022C000DF91CF91FF90EF90DF90CF90BF90AF90D4
:1022D0009F908F900895CF93DF9300D01F92CDB73A
:1022E000DEB784E893E09C838B8342E0BE016F5F9E
:1022F0007F4FCE0103960E949E0C42E050E060E0CA
:1023000070E0CE0101960E94679821E0672B682B50
:10231000692B09F020E0822F0F900F900F900F9003
:10232000DF91CF9108950F931F93CF93DF93CDB794
:10233000DEB768970FB6F894DEBF0FBECDBF80E35F
:1023400090E3A0E3B0E08D839E83AF83B88704E67B
:1023500010E0188F0F8B44E0BE016B5F7F4FCE0102
:1023600047960E94780C40E165ED7CE0CE014796EF
:102370000E94780C40E165EE7CE0CE0147960E9419
:10238000780C40E165EC7CE0CE0147960E94780C29
:1023900044E06DEB7CE0CE0147960E94780C44E06F
:1023A00069EB7CE0CE0147960E94780C44E061EC3A
:1023B0007CE0CE0147960E94780C44E069EA7CE01C
:1023C000CE0147960E94780C44E065EF7CE0CE0198
:1023D00047960E94780C44E065EB7CE0CE0147967E
:1023E0000E94780C44E061EB7CE0CE0147960E94AD
:1023F000780C44E06DEA7CE0CE0147960E94780CB0
:102400004CE067EA75E0CE0147960E94780C88ECB4
:1024100090E09E8B8D8B86E490E09C8B8B8B8FEF76
:1024200090E09A8B898B2CED30E0388B2F871E87BC
:102430000D879C878B8742E0BE016B5E7F4FCE018C
:1024400047960E94780C42E0BE016D5E7F4FCE0140
:1024500047960E94780C42E0BE016F5E7F4FCE012E
:1024600047960E94780C42E0BE01615F7F4FCE012B
:1024700047960E94780C42E0BE01635F7F4FCE0119
:1024800047960E94780C42E0BE01655F7F4FCE0107
:1024900047960E94780C44E060EA75E0CE014796CA
:1024A0000E94780C44E06FEA72E0CE0147960E94E9
:1024B000780C44E06BEA72E0CE0147960E94780CFB
:1024C00044E067EA72E0CE0147960E94780C80E211
:1024D00090E09A87898742E0BE01675F7F4FCE0117
:1024E00047960E94780C86E591E3A0E3B0E08983EB
:1024F0009A83AB83BC83188F0F8B44E0BE016F5F60
:102500007F4FCE0147960E94780CE1E2F4E084917F
:10251000882341F09091C00095FFFCCF8093C600C6
:102520003196F5CFE1E1F4E08491882341F0909178
:10253000C00095FFFCCF8093C6003196F5CF809107
:10254000C00085FFFCCF8AE08093C60068960FB676
:10255000F894DEBF0FBECDBFDF91CF911F910F91D9
:102560000895CF93DF93C1E2D4E0FE0184918823E4
:1025700041F09091C00095FFFCCF8093C60031964A
:10258000F5CFE1E0F4E08491882341F09091C00020
:1025900095FFFCCF8093C6003196F5CF8091C000A7
:1025A00085FFFCCF8AE08093C600FE018491E1E2C2
:1025B000F4E0882349F09091C00095FFFCCF809310
:1025C000C60031968491F5CF4091D50C5091D60C30
:1025D0006091D70C7091D80C89EF93E00E94831919
:1025E0004091D90C5091DA0C6091DB0C7091DC0CAD
:1025F00086EF93E00E9483194091DD0C5091DE0C30
:102600006091DF0C7091E00C83EF93E00E948319DE
:102610004091E10C5091E20C6091E30C7091E40C5C
:1026200080EF93E00E9483198091C00085FFFCCF6A
:102630008AE08093C600FE018491E1E2F4E0882301
:1026400049F09091C00095FFFCCF8093C600319671
:102650008491F5CFE6EDF3E08491882341F09091E9
:10266000C00095FFFCCF8093C6003196F5CF8091D6
:10267000C00085FFFCCF8AE08093C600FE018491F4
:10268000E1E2F4E0882349F09091C00095FFFCCF8F
:102690008093C60031968491F5CF4091E50C50911E
:1026A000E60C6091E70C7091E80C8DEC93E00E94D1
:1026B00083194091E90C5091EA0C6091EB0C7091F8
:1026C000EC0C8AEC93E00E9483194091ED0C509140
:1026D000EE0C6091EF0C7091F00C87EC93E00E948F
:1026E00083194091F10C5091F20C6091F30C7091B0
:1026F000F40C84EC93E00E9483198091C00085FF64
:10270000FCCF8AE08093C600FE018491E1E2F4E010
:10271000882349F09091C00095FFFCCF8093C600BC
:1027200031968491F5CFE6EAF3E08491882341F075
:102730009091C00095FFFCCF8093C6003196F5CFF5
:102740008091C00085FFFCCF8AE08093C600FE0127
:102750008491E1E2F4E0882349F09091C00095FF74
:10276000FCCF8093C60031968491F5CF4091C50C83
:102770005091C60C6091C70C7091C80C8DE993E024
:102780000E9495194091C90C5091CA0C6091CB0CD4
:102790007091CC0C8AE993E00E9495194091CD0C80
:1027A0005091CE0C6091CF0C7091D00C87E993E0E2
:1027B0000E9495194091D10C5091D20C6091D30C8C
:1027C0007091D40C84E993E00E9495198091C00027
:1027D00085FFFCCF8AE08093C600FE018491E1E290
:1027E000F4E0882349F09091C00095FFFCCF8093DE
:1027F000C60031968491F5CFEFE5F3E0849188230C
:1028000041F09091C00095FFFCCF8093C6003196B7
:10281000F5CF8091C00085FFFCCF8AE08093C60091
:10282000FE018491E1E2F4E0882349F09091C00038
:1028300095FFFCCF8093C60031968491F5CF4091EF
:10284000BD0C5091BE0C6091BF0C7091C00C86E520
:1028500093E00E9483194091B90C5091BA0C609199
:10286000BB0C7091BC0C83E593E00E9483198091AE
:10287000C00085FFFCCF8AE08093C600FE018491F2
:10288000E1E2F4E0882349F09091C00095FFFCCF8D
:102890008093C60031968491F5CFE0EAF2E084910E
:1028A000882341F09091C00095FFFCCF8093C60033
:1028B0003196F5CF8091C00085FFFCCF8AE08093F0
:1028C000C600FE018491E1E2F4E0882349F0909192
:1028D000C00095FFFCCF8093C60031968491F5CF60
:1028E0004091C10C5091C20C6091C30C7091C40C0A
:1028F00087E992E00E9483194091A90C5091AA0C9B
:102900006091AB0C7091AC0C84E992E00E94831949
:102910004091F50C5091F60C6091F70C7091F80C09
:1029200081E992E00E9495194091B50C5091B60C46
:102930006091B70C7091B80C8EE892E00E948319F8
:102940004091B10C5091B20C6091B30C7091B40CE9
:102950008BE892E00E9483194091AD0C5091AE0C2F
:102960006091AF0C7091B00C88E892E00E948319DE
:102970008091C00085FFFCCF8AE08093C600FE01F5
:102980008491E1E2F4E0882349F09091C00095FF42
:10299000FCCF8093C60031968491F5CFE6E7F2E054
:1029A0008491882341F09091C00095FFFCCF8093E3
:1029B000C6003196F5CF8091C00085FFFCCF8AE03C
:1029C0008093C600FE018491E1E2F4E0882349F09F
:1029D0009091C00095FFFCCF8093C6003196849102
:1029E000F5CF4091A7055091A8056091A905709178
:1029F000AA058DE692E00E9483194091AB055091A3
:102A0000AC056091AD057091AE058AE692E00E943A
:102A100083194091AF055091B0056091B105709157
:102A2000B20587E692E00E9483198091C00085FF7D
:102A3000FCCF8AE08093C600FE018491E1E2F4E0DD
:102A4000882349F09091C00095FFFCCF8093C60089
:102A500031968491F5CFE9E5F2E08491882341F045
:102A60009091C00095FFFCCF8093C6003196F5CFC2
:102A70008091C00085FFFCCF8AE08093C600FE01F4
:102A8000C491E1E2F4E0CC2349F08091C00085FFDD
:102A9000FCCFC093C6003196C491F5CF4091AF02F0
:102AA0005091B0026091B1027091B2028FE492E055
:102AB0000E9483196091AB027091AC028091AD02CB
:102AC0009091AE020E949D89AB01BC018CE492E022
:102AD0000E9483196091A7027091A8028091A902B7
:102AE0009091AA020E94AB89AB01BC0189E492E0FB
:102AF0000E9483198091C00085FFFCCF8AE08093FB
:102B0000C600DF91CF910895AF92BF92CF92DF922E
:102B1000EF92FF920F931F93CF93DF93CDB7DEB762
:102B2000E0970FB6F894DEBF0FBECDBF80E1E3EBB8
:102B3000F2E0DE01919601900D928A95E1F780E135
:102B4000E3ECF2E0DE01519601900D928A95E1F7F7
:102B500080E1E3EDF2E0DE01119601900D928A959D
:102B6000E1F76E0121E2C20ED11C55EDE52E5CE0CD
:102B7000F52E8E010F5E1F4F65EE7CE0AE014F5FBC
:102B80005F4FE5ECAE2EECE0BE2E20E030E0F6012B
:102B900081919191A191B1916F01F70181939193ED
:102BA000A193B1937F01F80181919191A191B1918C
:102BB0008F01FB0181939193A193B193BF01FA011E
:102BC00081919191A191B191AF01F501819391937F
:102BD000A193B1935F012F5F3F4F24303105B9F6C8
:102BE0000E94D15D80E090EAACE0B6E48093BD0C39
:102BF0009093BE0CA093BF0CB093C00C8093B90C03
:102C00009093BA0CA093BB0CB093BC0C1092C10C67
:102C10001092C20C1092C30C1092C40C80E29EE47D
:102C2000A0E0B0E08093F50C9093F60CA093F70C25
:102C3000B093F80C1092A90C1092AA0C1092AB0C45
:102C40001092AC0C80E090E0A0EAB1E48093B50C67
:102C50009093B60CA093B70CB093B80C8DEC9CEC91
:102C6000ACECBEE38093B10C9093B20CA093B30C88
:102C7000B093B40C80E090E0A0EAB0E48093AD0C97
:102C80009093AE0CA093AF0CB093B00C1092AF0524
:102C90001092B0051092B1051092B2051092AB05DA
:102CA0001092AC051092AD051092AE051092A705DA
:102CB0001092A8051092A9051092AA050E94A410CE
:102CC000673CF5E37F07FAE38F07F2E49F07B1F073
:102CD0000E94259220E034E244E759E40E948A9160
:102CE00020E030E0A9010E94AA906093A0057093B3
:102CF000A1058093A2059093A30528C04FEF5FEF35
:102D0000BA0187E294E00E9495198091C00085FF86
:102D1000FCCF8AE38093C600ECE3F2E08491882341
:102D200041F09091C00095FFFCCF8093C600319692
:102D3000F5CFEAE3F2E08491882341F09091C0005E
:102D400095FFFCCF8093C6003196F5CF80E090E0F0
:102D5000ACEAB1E48093AF029093B002A093B102C9
:102D6000B093B2026AE979E989E99FE30E94968902
:102D70006093AB027093AC028093AD029093AE026D
:102D800060E070E08CE593E40E94A4896093A70260
:102D90007093A8028093A9029093AA020E940380D4
:102DA00080E090E0A0E8BFE38093A3029093A402A8
:102DB000A093A502B093A602E0960FB6F894DEBFEA
:102DC0000FBECDBFDF91CF911F910F91FF90EF907C
:102DD000DF90CF90BF90AF900895CF93DF93CDB7A2
:102DE000DEB768970FB6F894DEBF0FBECDBF84E69E
:102DF00090E0988F8F8B86E591E3A0E3B0E0898324
:102E00009A83AB83BC8344E0BE016B5F7F4FCE01EE
:102E100047960E949E0C43E050E0BE016B5F7F4FDF
:102E2000CE0101960E94E099892B09F0ADC040E1E6
:102E300065ED7CE0CE0147960E949E0C40E165EE78
:102E40007CE0CE0147960E949E0C40E165EC7CE060
:102E5000CE0147960E949E0C0E94D15D44E06DEB2E
:102E60007CE0CE0147960E949E0C44E069EB7CE03A
:102E7000CE0147960E949E0C44E061EC7CE0CE01BE
:102E800047960E949E0C44E069EA7CE0CE0147969A
:102E90000E949E0C44E065EF7CE0CE0147960E94C4
:102EA0009E0C44E065EB7CE0CE0147960E949E0CB0
:102EB00044E061EB7CE0CE0147960E949E0C44E02A
:102EC0006DEA7CE0CE0147960E949E0C4CE067EADA
:102ED00075E0CE0147960E949E0C42E0BE016B5EFB
:102EE0007F4FCE0147960E949E0C42E0BE016D5E70
:102EF0007F4FCE0147960E949E0C42E0BE016F5E5E
:102F00007F4FCE0147960E949E0C42E0BE01615F5A
:102F10007F4FCE0147960E949E0C42E0BE01635F48
:102F20007F4FCE0147960E949E0C42E0BE01655F36
:102F30007F4FCE0147960E949E0C44E060EA75E008
:102F4000CE0147960E949E0C44E06FEA72E0CE01EB
:102F500047960E949E0C44E06BEA72E0CE014796D1
:102F60000E949E0C44E067EA72E0CE0147960E9400
:102F70009E0C42E0BE01675F7F4FCE0147960E94E4
:102F80009E0C0E94038002C00E94841568960FB6B2
:102F9000F894DEBF0FBECDBFDF91CF910895FC0145
:102FA00065917591859194910895CF932091240214
:102FB0003091250237FD31C0C5E0C29FC001C39FDB
:102FC000900D112460E070E08B579B4F0E94B5710B
:102FD00060911E0270911F022091240230912502FF
:102FE000C29FC001C39F900D11248B579B4F0E941D
:102FF000FC716CE271E080E090E00E94158E2091FF
:10300000240230912502C29FC001C39F900D11245C
:103010008B579B4FCF910C94BB71CF910895CF9359
:10302000209124023091250237FD31C0C5E0C29FB6
:10303000C001C39F900D112460E070E08B579B4F3F
:103040000E94B57160911C0270911D0220912402B2
:1030500030912502C29FC001C39F900D11248B5750
:103060009B4F0E94FC716CE271E080E090E00E9456
:10307000158E2091240230912502C29FC001C39F6A
:10308000900D11248B579B4FCF910C94BB71CF9116
:103090000895CF92DF92EF92FF920F931F93CF93F9
:1030A000DF93CDB7DEB7EC970FB6F894DEBF0FBE57
:1030B000CDBFFC01048115812681378130584081C4
:1030C0005181628173817058C12CD12C80E8E82E27
:1030D0008FE3F82ECE010D960E94B28963EE72E066
:1030E000CE010D960E94308BCD84DE84EF84F8886B
:1030F00009891A892B893C894D895E896F89788D68
:10310000CE0149960E942C8C84E2FE017996A8E6B5
:10311000B2E001900D928A95E1F7CE0101960E94EE
:10312000FD5B69817A818B819C816093B30570938B
:10313000B4058093B5059093B6052D813E814F81EE
:1031400058852093B7053093B8054093B90550933F
:10315000BA05E984FA840B851C85E092BB05F092E0
:10316000BC050093BD051093BE05EFEBCE2EE5E048
:10317000DE2E0E94AC5CEC960FB6F894DEBF0FBE5C
:10318000CDBFDF91CF911F910F91FF90EF90DF9016
:10319000CF90089580910F0290911002A09111029A
:1031A000B09112028093770590937805A0937905EA
:1031B000B0937A0580914602909147029093C4059E
:1031C0008093C30584E690E0909347028093460283
:1031D0000E94E68D609398047093990480939A04FA
:1031E00090939B0481E00C94747380E00E9474734C
:1031F0008091770590917805A0917905B0917A0535
:1032000080930F0290931002A0931102B0931202C8
:103210008091C3059091C405909347028093460224
:103220000E94E68D609398047093990480939A04A9
:1032300090939B0408954F925F926F927F928F922A
:103240009F92AF92BF92CF92DF92EF92FF920F9335
:103250001F9340900F0250901002609011027090E6
:103260001202812CF0E89F2EFBEBAF2EF5E4BF2E6F
:1032700080920F0290921002A0921102B09212025C
:103280006093B3057093B4058093B5059093B6052C
:103290002093B7053093B8054093B9055093BA050C
:1032A000E092BB05F092BC050093BD051093BE05EE
:1032B000EFE9F5E0FF93EF93812C912CA8ECAA2E77
:1032C000A2E4BA2EBFEBCB2EB5E0DB2E0E94B251AA
:1032D0000E94517D40920F025092100260921102A2
:1032E000709212020F900F901F910F91FF90EF902C
:1032F000DF90CF90BF90AF909F908F907F906F9016
:103300005F904F900895FC012491222341F0309169
:10331000C00035FFFCCF2093C6000196F4CF22E019
:1033200030E089EC95E00C943949FC01249122238A
:1033300041F03091C00035FFFCCF2093C6000196CC
:10334000F4CF2AE030E089EC95E00C948848CF93E4
:10335000DF931F921F92CDB7DEB780912C0E909114
:103360002D0E9E012F5F3F4F009719F422533E40D0
:1033700002C0281B390B3A83298389819A810F90D7
:103380000F90DF91CF9108950A9A129A0895FF92B3
:103390000F931F93CF93DF9369E070E085E894E08B
:1033A0000E94B571C0E2D2E006E112E085E0F82E9D
:1033B0002991399137FD0CC0F80160817181F29E2D
:1033C000C001F39E900D11248B579B4F0E94FC71FE
:1033D0000C5F1F4FF2E0C632DF0751F76CE271E07D
:1033E00080E090E00E94158E209124023091250209
:1033F00045E0429FC001439F900D11248B579B4F86
:10340000DF91CF911F910F91FF900C94BB710E949F
:103410009C830E94D97DEEE7FCE08491882341F0F3
:103420009091C00095FFFCCF8093C6003196F5CFF8
:10343000E0E3FCE08491882341F09091C00095FF87
:10344000FCCF8093C6003196F5CF4091B3055091E3
:10345000B4056091B5057091B60522E030E089ECC5
:1034600095E00E943949ECE2FCE08491882341F028
:103470009091C00095FFFCCF8093C6003196F5CFA8
:103480004091B7055091B8056091B9057091BA05A2
:1034900022E030E089EC95E00E943949E8E2FCE066
:1034A0008491882341F09091C00095FFFCCF8093D8
:1034B000C6003196F5CF4091BB055091BC05609197
:1034C000BD057091BE0522E030E089EC95E00E94D8
:1034D0003949E4E2FCE08491882341F09091C000F6
:1034E00095FFFCCF8093C6003196F5CF4091BF0584
:1034F0005091C0056091C1057091C20522E030E095
:1035000089EC95E00E943949E0E2FCE0849188234F
:1035100041F09091C00095FFFCCF8093C60031969A
:10352000F5CFE091530682E6E89FF0011124EC5AB2
:10353000F94F20E030E040E752E4608971898289E8
:1035400093890E945894AB01BC0122E030E089ECE1
:1035500095E00E943949EEE1FCE08491882341F036
:103560009091C00095FFFCCF8093C6003196F5CFB7
:103570007894FFCF2F923F924F925F926F927F92FB
:103580008F929F92AF92BF92CF92DF92EF92FF9273
:103590000F931F93CF93DF9300D01F92CDB7DEB769
:1035A0001C01FC01ED5CF34F74909C01220F331F52
:1035B000220F331F3C832B83F901ED54FA4F108205
:1035C0001182128213820E94677E81111EC0E090D8
:1035D000BB05F090BC050091BD051091BE05209182
:1035E000B7053091B8054091B9055091BA05609181
:1035F000B3057091B4058091B5059091B605EFEBD8
:10360000CE2EE5E0DE2E0E94AC5C8B819C818E5B31
:10361000934F0E94CF174B015C01672D772767FD01
:103620007095872F972F0E9425922B013C010B81CB
:103630001C8105571A4F20E030E040EC5FE3C501E4
:10364000B4010E945894A30192010E945894F80179
:103650006083718382839383EB81FC81E85BFD4F00
:1036600080819181A281B38180930F029093100297
:10367000A0931102B09312020E94677E81113FC095
:1036800020E030E040E752E460910F0270911002B8
:1036900080911102909112020E948A914B015C016B
:1036A000E0909305F0909405009195051091960592
:1036B00020918F0530919005409191055091920590
:1036C00060918B0570918C0580918D0590918E0590
:1036D000EFE9F5E0FF93EF93B7E9CB2EB5E0DB2EF2
:1036E0000E94B2510E94517D0E9460730F900F9012
:1036F000811105C00E94677E882309F461C2EB81B5
:10370000FC81ED54FA4F10821182128213820E94C2
:10371000677E81111EC0E090BB05F090BC05009152
:10372000BD051091BE052091B7053091B8054091B7
:10373000B9055091BA056091B3057091B4058091B7
:10374000B5059091B605AFEBCA2EA5E0DA2E0E9422
:10375000AC5C2B813C812A5C334F3A832983C901BD
:103760000E94CF170B811C8105571A4F9058A30157
:1037700092010E945894F80160837183828393833D
:103780000E94677E811107C120E030E040E752E4EB
:1037900060910F02709110028091110290911202BB
:1037A0000E948A914B015C01E0909305F090940592
:1037B000009195051091960520918F053091900507
:1037C000409191055091920560918B0570918C0507
:1037D00080918D0590918E05EFE9F5E0FF93EF93D1
:1037E000F7E9CF2EF5E0DF2E0E94B2510E94517D05
:1037F0000F900F90F1E02F16310409F449C022E038
:103800002216310409F485C02114310409F0C3C023
:103810001D991CC040E554E060E070E084E89CE045
:103820000E9495198091C00085FFFCCF8AE38093A8
:10383000C600EBE1F9E084918823F1F09091C0009B
:1038400095FFFCCF8093C6003196F5CF1C99A3C09D
:1038500041E554E060E070E084E89CE00E94951946
:103860008091C00085FFFCCF8AE38093C600EDED18
:10387000F8E08491811104C00E946D730E94071AC0
:103880009091C00095FFFCCF8093C6003196F1CF98
:103890008091090186FD1CC042E554E060E070E0C3
:1038A00084E89CE00E9495198091C00085FFFCCFC0
:1038B0008AE38093C600EFE9F8E084918823E1F27F
:1038C0009091C00095FFFCCF8093C6003196F5CF54
:1038D0008091090187FD5FC043E554E060E070E03E
:1038E00084E89CE00E9495198091C00085FFFCCF80
:1038F0008AE38093C600E1E6F8E08491882309F426
:10390000BBCF9091C00095FFFCCF8093C60031964D
:10391000F4CF8091090184FD1DC044E554E060E0CE
:1039200070E084E89CE00E9495198091C00085FFBA
:10393000FCCF8AE38093C600E3E2F8E08491882319
:1039400009F49ACF9091C00095FFFCCF8093C600F8
:103950003196F4CF8091090185FD1DC045E554E005
:1039600060E070E084E89CE00E9495198091C000BE
:1039700085FFFCCF8AE38093C600E5EEF7E08491F3
:10398000882309F479CF9091C00095FFFCCF8093F4
:10399000C6003196F4CF89819A810E94CF170B819E
:1039A0001C8105571A4F9B01AC010E94AA90A301EC
:1039B00092010E945894F8016083718382839383FB
:1039C00020E030E040E05FE3EB81FC81E85BFD4F0D
:1039D00060817181828193810E94589460930F026B
:1039E0007093100280931102909312020E94677EDE
:1039F000811136C020E030E040E752E460910F02D0
:103A00007091100280911102909112020E948A918D
:103A10004B015C01E0909305F090940500919505B1
:103A20001091960520918F05309190054091910558
:103A30005091920560918B0570918C0580918D0558
:103A400090918E05EFE9F5E0FF93EF93E7E9CE2E35
:103A5000E5E0DE2E0E94B2510E94517D0F900F9042
:103A60000E94677E811149C08B819C81825B934F4C
:103A70000E94CF172B813C812D543A4F79010B8145
:103A80001C8109551A4FF8012081318142815381EF
:103A90000E94AA90F70160837183828393838B8154
:103AA0009C818A59934F0E94CF172B813C812E5CB9
:103AB0003D4F7901F80120813181428153810E947B
:103AC000AA90F70160837183828393838B819C81A9
:103AD000865A934F0E94CF172B813C812A5D3D4F20
:103AE0007901F80120813181428153810E94AA909D
:103AF000F70160837183828393830E94677E8111C3
:103B000011C0EB81FC81E557FA4FAB81BC81AD540C
:103B1000BA4F8D919D910D90BC91A02D8083918382
:103B2000A283B38310920F0210921002109211021E
:103B3000109212020E94677E811102C00E946D7372
:103B40000E94677E811105C081E0F101EC55FA4FBA
:103B50008083F101EE0FFF1FDF01A05EBD4F2D91AD
:103B60003C9137FD10C0EE0FFF1FEA5EFD4F6081F4
:103B7000718145E0429FC001439F900D11248B57F6
:103B80009B4F0E94FC71F2E02F16310409F056C0E1
:103B90000F900F900F900F90DF91CF911F910F9189
:103BA000FF90EF90DF90CF90BF90AF909F908F905D
:103BB0007F906F905F904F903F902F900C94D5170F
:103BC00022E022163104E9F445E554E060E070E0BB
:103BD00084E89CE00E9495198091C00085FFFCCF8D
:103BE0008AE38093C600EFE9F9E08491882309F421
:103BF00045CE9091C00095FFFCCF8093C6003196D2
:103C0000F4CF4FE454E060E070E084E89CE00E9470
:103C100095198091C00085FFFCCF8AE38093C60090
:103C2000E9E5F9E08491882309F428CE9091C00059
:103C300095FFFCCF8093C6003196F4CF0F900F9084
:103C40000F900F90DF91CF911F910F91FF90EF9008
:103C5000DF90CF90BF90AF909F908F907F906F90AC
:103C60005F904F903F902F9008954F925F926F9288
:103C70007F928F929F92AF92BF92CF92DF92EF92FC
:103C8000FF920F931F9388E692E00E94028C60914E
:103C900050027091510280915202909153026093B0
:103CA0000F0270931002809311029093120220E091
:103CB00030E040E752E40E948A914B015C01209180
:103CC000B7053091B8054091B9055091BA0560919A
:103CD000B3057091B4058091B5059091B605EFE9F3
:103CE000F5E0FF93EF930FEBC02E05E0D02EE12C13
:103CF000F12C00EA11EC0E94B2510E94517D80919A
:103D000009010F900F9084FF25C0E091B40DF09150
:103D1000B50D848981111DC04DE454E060E070E070
:103D200084E89CE00E9495198091C00085FFFCCF3B
:103D30008AE38093C600E2E7F5E08491882309F4E2
:103D40008AC09091C00095FFFCCF8093C600319649
:103D5000F4CF148A82E00E94B87D2B013C012091AF
:103D6000B7053091B8054091B9055091BA056091F9
:103D7000B3057091B4058091B5059091B6051FEB20
:103D8000C12E15E0D12E830172010E94AC5C8EE33E
:103D90009CE00E94CF179B01AC01C301B2010E94BD
:103DA000AA902B013C0120E030E040E752E4609112
:103DB0000F027091100280911102909112020E94E4
:103DC0008A914B015C012091B7053091B805409173
:103DD000B9055091BA056091B3057091B405809111
:103DE000B5059091B605EFE9F5E0FF93EF938301F8
:103DF00072010E94B2510E94517D809109010F9081
:103E00000F9084FD2AC061E070E080E090E00E94A5
:103E1000158E8091090184FD20C04EE454E060E0DD
:103E200070E084E89CE00E9495198091C00085FFB5
:103E3000FCCF8AE38093C600E0E2F5E0849188231A
:103E400041F09091C00095FFFCCF8093C600319661
:103E5000F5CF0E946D730E94071A20E030E040E821
:103E60005EE36091500270915102809152029091F4
:103E700053020E9458944B015C0160930F027093AF
:103E8000100280931102909312028EE39CE00E9434
:103E9000CF176B017C0120E030E040E752E4C50120
:103EA000B4010E948A914B015C01A7019601C701F0
:103EB000B6010E94AA909B01AC01C301B2010E940D
:103EC000A9907B018C012091B7053091B8054091F4
:103ED000B9055091BA056091B3057091B405809110
:103EE000B5059091B605EFE9F5E0FF93EF93BFEBD1
:103EF000CB2EB5E0DB2E0E94B2510E94517D809105
:103F000009010F900F9084FF25C0E091B40DF0914E
:103F1000B50D848981111DC04DE454E060E070E06E
:103F200084E89CE00E9495198091C00085FFFCCF39
:103F30008AE38093C600EFECF4E08491882309F4CF
:103F40008ACF9091C00095FFFCCF8093C600319638
:103F5000F4CF148A82E00E94B87D7B018C016093CB
:103F6000BB057093BC058093BD059093BE05209161
:103F7000B7053091B8054091B9055091BA056091E7
:103F8000B3057091B4058091B5059091B605AFEB7E
:103F9000CA2EA5E0DA2E0E94AC5C1F910F91FF9013
:103FA000EF90DF90CF90BF90AF909F908F907F90D9
:103FB0006F905F904F9008950E94C41940E052ECBA
:103FC00061E070E089EC95E00E943F47E8E1FCE0A9
:103FD0008491882341F09091C00095FFFCCF80939D
:103FE000C6003196F5CF8091C00085FFFCCF8AE0F6
:103FF0008093C6008EE79CE0FC012491222341F0CF
:104000003091C00035FFFCCF2093C6003196F5CF2C
:1040100024B720FF14C0E0E1FCE03491332341F0E9
:104020004091C00045FFFCCF3093C6003196F5CFDC
:104030003091C00035FFFCCF3AE03093C60021FF3D
:1040400014C0E0E0FCE03491332341F04091C00023
:1040500045FFFCCF3093C6003196F5CF3091C000BC
:1040600035FFFCCF3AE03093C60022FF14C0EFEEDC
:10407000FBE03491332341F04091C00045FFFCCF79
:104080003093C6003196F5CF3091C00035FFFCCF9C
:104090003AE03093C60023FF14C0EFEDFBE034910B
:1040A000332341F04091C00045FFFCCF3093C60060
:1040B0003196F5CF3091C00035FFFCCF3AE0309318
:1040C000C60025FF14C0EFECFBE02491222341F051
:1040D0003091C00035FFFCCF2093C6003196F5CF5C
:1040E0002091C00025FFFCCF2AE02093C60014BE1B
:1040F000E8EBFBE02491222341F03091C00035FF32
:10410000FCCF2093C6003196F5CFE1EBFBE0249184
:10411000222341F03091C00035FFFCCF2093C60030
:104120003196F5CF2091C00025FFFCCF2AE02093E7
:10413000C600FC012491EEE7FCE0222349F0309117
:10414000C00035FFFCCF2093C60031962491F5CFF7
:10415000E1EAFBE02491222341F03091C00035FFD9
:10416000FCCF2093C6003196F5CFECE8FBE024911C
:10417000222341F03091C00035FFFCCF2093C600D0
:104180003196F5CFE0E8FBE02491222341F0309115
:10419000C00035FFFCCF2093C6003196F5CFE0E696
:1041A000FBE02491222341F03091C00035FFFCCF89
:1041B0002093C6003196F5CF2091C00025FFFCCF9B
:1041C0002AE02093C600E4E5FBE02491222341F09D
:1041D0003091C00035FFFCCF2093C6003196F5CF5B
:1041E0002091C00025FFFCCF2AE02093C600FC01EF
:1041F0008491EEE7FCE0882349F09091C00095FFA0
:10420000FCCF8093C60031968491F5CFE5E4FBE0C6
:104210008491882341F09091C00095FFFCCF80935A
:10422000C6003196F5CF0E94A7194AE050E0BC01C4
:1042300089EC95E00E945948EEE2FBE084918823E6
:1042400041F09091C00095FFFCCF8093C60031965D
:10425000F5CF4AE050E060E276E089EC95E00E941C
:1042600059488091C00085FFFCCF8AE08093C6004A
:104270001092A8041092A9040E94ED160E94E482F4
:104280000E944B500E948E8D0E94CD7C0C94C719C9
:1042900080919C0490919D0460E070E001960C94E4
:1042A000F69680919C0490919D044AE050E060E075
:1042B00070E001960C946798682F772767FD7095DA
:1042C0002091A6043091A70440E6429FC001439F7D
:1042D000900D112486559B4F0E94D59990939D0473
:1042E00080939C0421E0892B09F420E0822F08951B
:1042F0004F925F926F927F928F929F92AF92BF92F6
:10430000CF92DF92EF92FF920F931F93CF93DF93A1
:10431000CDB7DEB760970FB6F894DEBF0FBECDBF46
:104320000E94680E6D877E878F87988B0E94F70E9C
:104330002B013C010E94860F4B015C010E9415106D
:104340006B017C018D859E85AF85B889873C95433F
:10435000AA43B24409F4D1C087EC481685E3580655
:104360008AE3680682E4780609F4C7C097EC8916E8
:1043700095E399069AE3A90692E4B90609F4BDC04B
:10438000A7ECCA16A5E3DA06AAE3EA06A2E4FA064F
:1043900009F4B3C00E94517D88E692E00E94028C2D
:1043A0006D857E858F8598890E94259220E034E274
:1043B00044E759E40E948A9169837A838B839C83C2
:1043C000C301B2010E94259220E034E244E759E49F
:1043D0000E948A916D837E838F839887C501B40183
:1043E0000E94259220E034E244E759E40E948A9139
:1043F00069877A878B879C87CE0101960E9449182E
:10440000C701B6010E94259220E034E244E759E456
:104410000E948A912091A0053091A1054091A205AA
:104420005091A3050E94AA909B01AC016091BB052D
:104430007091BC058091BD059091BE050E94A99028
:104440007B018C016093BB057093BC058093BD0517
:104450009093BE052091B7053091B8054091B905FC
:104460005091BA056091B3057091B4058091B5057E
:104470009091B605FFEBCF2EF5E0DF2E0E94AC5CED
:1044800080E090E0A1E6B5E480930F0290931002E3
:10449000A0931102B0931202E090BB05F090BC050E
:1044A0000091BD051091BE052091B7053091B8056A
:1044B0004091B9055091BA056091B3057091B4056A
:1044C0008091B5059091B6050E94AC5C60960FB6E0
:1044D000F894DEBF0FBECDBFDF91CF911F910F913A
:1044E000FF90EF90DF90CF90BF90AF909F908F9014
:1044F0007F906F905F904F9008954FEF5FEFBA01FC
:1045000084E89CE00E9495198091C00085FFFCCF53
:104510008AE38093C600EEEDF9E08491882341F0B0
:104520009091C00095FFFCCF8093C6003196F5CFE7
:10453000ECEDF9E08491882341F09091C00095FF63
:10454000FCCF8093C6003196F5CF0E94071A0E94D7
:10455000E68D609398047093990480939A049093E5
:104560009B04E3ECF4E08491882341F09091C00037
:1045700095FFFCCF8093C6003196F5CF8091C000A7
:1045800085FFFCCF8AE08093C600089589EC95E012
:104590000E949147E6ECF4E08491882341F09091E9
:1045A000C00095FFFCCF8093C6003196F5CF4091B7
:1045B0006F055091700560917105709172054F5FA4
:1045C0005F4F6F4F7F4F2AE030E089EC95E00E940B
:1045D00032488091C00085FFFCCF8AE08093C600FE
:1045E0000C94A7228F929F92AF92BF92CF92DF92AC
:1045F000EF92FF920F931F93CF93DF93AFE2EA2ED8
:10460000A4E0FA2E03EB15E0CBE8D5E0B5ECCB2E19
:10461000B5E0DB2EF70181917F010E945C218823A8
:1046200019F10E9448214B015C01F6018081811142
:1046300003C060916A0501C061E070E080E090E035
:104640000E942592F80120813181428153810E948C
:1046500058949B01AC01C501B4010E94AA906883E3
:1046600079838A839B8309C0F80180819181A2812B
:10467000B38188839983AA83BB830C5F1F4F2496E1
:10468000FFEFCF1ADF0A83E3E81684E0F80611F69D
:1046900086E40E945C218823D9F00E9448216B01A6
:1046A0007C0160937B0570937C0580937D059093DE
:1046B0007E0520E030E0A9010E948693181644F49C
:1046C000C0920F02D0921002E0921102F0921202F8
:1046D000DF91CF911F910F91FF90EF90DF90CF90DE
:1046E000BF90AF909F908F9008950E94F22289E42E
:1046F0000E945C21882359F00E94482160937F0525
:1047000070938005809381059093820508C0109274
:104710007F051092800510928105109282058AE42F
:104720000E945C21882359F00E94482160938305F0
:104730007093840580938505909386050895109263
:1047400083051092840510928505109286050895C0
:10475000CF92DF92EF92FF92CF93DF93EC01C09064
:104760003202D0903302E0903402F0903502A7017B
:104770009601688179818A819B810E94839187FF5C
:1047800004C0C882D982EA82FB82C0903602D090EF
:104790003702E0903802F0903902A70196016C814F
:1047A0007D818E819F810E94839187FF04C0CC828E
:1047B000DD82EE82FF82C0903A02D0903B02E09010
:1047C0003C02F0903D02A7019601688579858A85B3
:1047D0009B850E94839187FF04C0C886D986EA869C
:1047E000FB86C0902602D0902702E0902802F0902D
:1047F0002902A7019601688179818A819B810E94A3
:104800008693181624F4C882D982EA82FB82C0906B
:104810002A02D0902B02E0902C02F0902D02A701EA
:1048200096016C817D818E819F810E9486931816EE
:1048300024F4CC82DD82EE82FF82C0902E02D090E2
:104840002F02E0903002F0903102A70196016885B6
:1048500079858A859B850E948693181624F4C886DC
:10486000D986EA86FB86DF91CF91FF90EF90DF90AB
:10487000CF9008952F923F924F925F926F927F92C6
:104880008F929F92AF92BF92CF92DF92EF92FF9260
:104890000F931F93CF93DF93CDB7DEB72C970FB64F
:1048A000F894DEBF0FBECDBF8BE895E00E94A82331
:1048B00081E00E94747320E030E040E253E46091B4
:1048C000190E70911A0E80911B0E90911C0E0E9471
:1048D000869318160CF055C12091B3053091B4059C
:1048E0004091B5055091B60529833A834B835C838B
:1048F00020938B0530938C0540938D0550938E0546
:104900004090B7055090B8056090B9057090BA0511
:1049100040928F0550929005609291057092920599
:104920008091BB059091BC05A091BD05B091BE05DD
:104930008D839E83AF83B88780939305909394056E
:10494000A0939505B093960520E030E040E85FE342
:104950006091BF057091C0058091C1059091C2051D
:104960000E94A9906093970570939805809399058C
:1049700090939A05BFE92B2EB5E03B2E3F922F92E4
:10498000812C912C10EFA12E11E4B12E07E9C02E3D
:1049900005E0D02EED80FE800F811885A3019201E5
:1049A00069817A818B819C810E94B25160918B05D3
:1049B00070918C0580918D0590918E056093B30563
:1049C0007093B4058093B5059093B60580908F05DC
:1049D00090909005A0909105B09092058092B705B7
:1049E0009092B805A092B905B092BA05C09093050F
:1049F000D0909405E0909505F0909605C092BB0587
:104A0000D092BC05E092BD05F092BE0520919705BD
:104A1000309198054091990550919A0529833A83E0
:104A20004B835C832093BF053093C0054093C10541
:104A30005093C20520E030E040E251E40E94AA9089
:104A40002B013C0160938B0570938C0580938D0541
:104A500090938E0520E030E040E251E4C501B401BE
:104A60000E94AA906D837E838F83988760938F05C1
:104A700070939005809391059093920520E030E02B
:104A800040E85FE3C701B6010E94AA9069877A8770
:104A90008B879C876093930570939405809395050D
:104AA0009093960520E030E040EA50E469817A81F5
:104AB0008B819C810E94A9906093970570939805C3
:104AC0008093990590939A053F922F92812C912C77
:104AD00086E1A82E83E4B82E97E9C92E95E0D92E59
:104AE000E984FA840B851C852D813E814F81588590
:104AF000C301B2010E94B25180918B0590918C0547
:104B0000A0918D05B0918E058093B3059093B40567
:104B1000A093B505B093B60580918F05909190054F
:104B2000A0919105B09192058093B7059093B80537
:104B3000A093B905B093BA0580919305909194051F
:104B4000A0919505B09196058093BB059093BC0507
:104B5000A093BD05B093BE058091970590919805EF
:104B6000A0919905B0919A058093BF059093C005D7
:104B7000A093C105B093C2050F900F900F900F90B6
:104B8000B2C020E030E040E251E46091B3057091A2
:104B9000B4058091B5059091B6050E94AA902B01AD
:104BA0003C0160938B0570938C0580938D059093E9
:104BB0008E0520E030E040E251E46091B70570914D
:104BC000B8058091B9059091BA050E94AA906983B1
:104BD0007A838B839C8360938F0570939005809379
:104BE00091059093920520E030E040E85FE360910A
:104BF000BB057091BC058091BD059091BE050E94DA
:104C0000AA90609393057093940580939505909373
:104C100096050091BF051091C0052091C105309106
:104C2000C20500939705109398052093990530933A
:104C30009A052FE935E03F932F93812C912CF6E1D3
:104C4000AF2EF3E4BF2EA7E9CA2EA5E0DA2E7B0132
:104C50008C0129813A814B815C81C301B2010E94A0
:104C6000B25180918B0590918C05A0918D05B091EA
:104C70008E058093B3059093B405A093B505B093CA
:104C8000B60580918F0590919005A0919105B09106
:104C900092058093B7059093B805A093B905B0939A
:104CA000BA058091930590919405A0919505B091D6
:104CB00096058093BB059093BC05A093BD05B0936A
:104CC000BE058091970590919805A0919905B091A6
:104CD0009A058093BF059093C005A093C105B0933A
:104CE000C2050F900F909091520680915306981331
:104CF000FACF88E692E00E94028C80910F02909198
:104D00001002A0911102B091120280937705909346
:104D10007805A0937905B0937A0580914602909129
:104D200047029093C4058093C30584E690E0909376
:104D30004702809346020E94E68D60939804709328
:104D4000990480939A0490939B0481E00E94747369
:104D50008091B3059091B405A091B505B091B605C9
:104D600080938B0590938C05A0938D05B0938E0551
:104D70008091B7059091B805A091B905B091BA0599
:104D800080938F0590939005A0939105B093920521
:104D90008091BB059091BC05A091BD05B091BE0569
:104DA0008093930590939405A0939505B0939605F1
:104DB0008091BF059091C005A091C105B091C20539
:104DC0008093970590939805A0939905B0939A05C1
:104DD00010920F0210921002109211021092120201
:104DE000169A1092A405469A1092A505409A109220
:104DF000A605139A82E090E00E94BA1AE090BB05E3
:104E0000F090BC050091BD051091BE052091B7053D
:104E10003091B8054091B9055091BA056091B3053C
:104E20007091B4058091B5059091B605EFEBCE2E4B
:104E3000E5E0DE2E0E94AC5C80E00E9474738091FD
:104E4000770590917805A0917905B0917A058093C6
:104E50000F0290931002A0931102B093120280915E
:104E6000C3059091C40590934702809346020E9427
:104E7000E68D609398047093990480939A049093BC
:104E80009B040E946D73169A1092A405469A109284
:104E9000A505409A1092A605139A2C960FB6F89481
:104EA000DEBF0FBECDBFDF91CF911F910F91FF905D
:104EB000EF90DF90CF90BF90AF909F908F907F90BA
:104EC0006F905F904F903F902F9008954F925F9218
:104ED0006F927F928F929F92AF92BF92CF92DF920A
:104EE000EF92FF920F931F93CF93DF93CDB7DEB76F
:104EF00028970FB6F894DEBF0FBECDBF8BE895E0C4
:104F00000E94A8230E94E68D6093980470939904F0
:104F100080939A0490939B0420918B0530918C058B
:104F200040918D0550918E0529833A834B835C8394
:104F30006091B3057091B4058091B5059091B60567
:104F40000E94839140908F0550909005609091054C
:104F500070909205209193053091940540919505AC
:104F6000509196052D833E834F83588781118BC0C6
:104F7000A30192016091B7057091B8058091B905C0
:104F80009091BA050E94839181117DC020E030E0AC
:104F900040E752E460910F0270911002809111027B
:104FA000909112020E948A914B015C018FE995E079
:104FB0009F938F9327E9C22E25E0D22EED80FE80AD
:104FC0000F811885A301920169817A818B819C816F
:104FD0000E94B2510F900F9080918B0590918C059B
:104FE000A0918D05B0918E058093B3059093B40583
:104FF000A093B505B093B60580918F05909190056B
:10500000A0919105B09192058093B7059093B80552
:10501000A093B905B093BA0580919305909194053A
:10502000A0919505B09196058093BB059093BC0522
:10503000A093BD05B093BE0580919705909198050A
:10504000A0919905B0919A058093BF059093C005F2
:10505000A093C105B093C20528960FB6F894DEBFA1
:105060000FBECDBFDF91CF911F910F91FF90EF90B9
:10507000DF90CF90BF90AF909F908F907F906F9078
:105080005F904F9008956091460270914702882783
:1050900077FD8095982F0E94259220910F023091E4
:1050A000100240911102509112020E94589420E087
:1050B00030E040E752E40E948A9120E030E048EC82
:1050C00052E470CFAF92BF92CF92DF92EF92FF92F5
:1050D0000F931F93CF93DF93D82F209183053091A7
:1050E0008405409185055091860560917F057091FA
:1050F000800580918105909182050E949393C62F2F
:10510000172F082FF92E60914602709147028827C9
:1051100077FD8095982F0E94259220910F02309163
:10512000100240911102509112020E94589420E006
:1051300030E040E752E40E948A9120E030E048EC01
:1051400052E40E948A9120919F052F93DF93FF9252
:105150000F931F93CF935B016C0132E0E32E01E0CC
:1051600020E04FE755E06BE875E083EB95E00E94A7
:105170003B4980918B0590918C05A0918D05B09154
:105180008E058093B3059093B405A093B505B093B5
:10519000B60580918F0590919005A0919105B091F1
:1051A00092058093B7059093B805A093B905B09385
:1051B000BA058091930590919405A0919505B091C1
:1051C00096058093BB059093BC05A093BD05B09355
:1051D000BE058091970590919805A0919905B09191
:1051E0009A058093BF059093C005A093C105B09325
:1051F000C2050E94E68D6093980470939904809391
:105200009A0490939B040F900F900F900F900F9023
:105210000F90DF91CF911F910F91FF90EF90DF9052
:10522000CF90BF90AF900895F8940E949C83169AF7
:105230001092A405469A1092A505409A1092A605D0
:10524000139A60E088E10E94B98F41EB54E060E07E
:1052500070E084E89CE00E9495198091C00085FF71
:10526000FCCF8AE38093C600E4EAF4E084918823CB
:1052700041F09091C00095FFFCCF8093C60031961D
:10528000F5CF8091C00085FFFCCF8AE08093C600F7
:10529000FFCF2F923F925F926F927F928F929F9259
:1052A000AF92BF92CF92DF92EF92FF920F931F9334
:1052B000CF93DF9340E6742E52E0E52EF12C62EF9F
:1052C000262E69E0362E72E6672EE0EFCE2EE9E05C
:1052D000DE2EFAE0AF2EFAE0BF2EA0E88A2EAAE07A
:1052E0009A2E80914A0690914B0620914C0630915F
:1052F0004D06821B930B8F779927892B09F4F1C2F6
:105300008091A2049091A30402970CF0EAC289EC68
:1053100095E00E9475478093A10420919F043091ED
:10532000A0048A3061F08D3051F08A3321F49091DD
:105330009E04992321F02F3531050CF4F5C1211578
:10534000310519F410929E04CCC28091A40490916E
:10535000A504789E8001799E100D1124F801E20FBA
:10536000F31FE655FB4F108220919E042111D7C1F7
:10537000FC01E855FB4F1082E801C655DB4F6EE497
:1053800070E0CE010E94D5990097E9F190939D04B9
:1053900080939C048C1B9D0B800F911F4AE050E072
:1053A00060E070E085559B4F0E946798609373059D
:1053B00070937405809375059093760520916F0521
:1053C0003091700540917105509172052F5F3F4FEC
:1053D0004F4F5F4F0091A4041091A504621773070B
:1053E0008407950709F4BFC1709EC001719E900D9E
:1053F000112469E27BE086559B4F0E94BB99892B63
:1054000009F0B1C141C26AE270E0CE010E94D599B3
:10541000892B09F444C0E8E7FCE08491882341F03B
:105420009091C00095FFFCCF8093C6003196F5CFD8
:10543000E3E8FAE08491882341F09091C00095FF61
:10544000FCCF8093C6003196F5CF40916F05509107
:10545000700560917105709172052AE030E089EC69
:1054600095E00E9432488091C00085FFFCCF8AE021
:105470008093C6001092A00410929F0432C28091C3
:10548000730590917405A0917505B0917605809390
:105490006F0590937005A0937105B093720580918C
:1054A000A4049091A504789EE001799ED00D11246A
:1054B0008E0106551B4F67E470E0C8010E94D59924
:1054C000009709F441C090939D0480939C04801B35
:1054D000910B8C0F9D1F60E070E085559B4F0E94E3
:1054E000F6960E94F2916430710570F580918A04FD
:1054F000811114C0F4018491E0E8FAE0882349F0B6
:105500009091C00095FFFCCF8093C60031968491A6
:10551000F5CF8091C00085FFFCCF13C0F5018491C9
:10552000EAE0FAE0882349F09091C00095FFFCCFB3
:105530008093C60031968491F5CF8091C00085FF9D
:10554000FCCF8AE08093C6002091A4043091A5048A
:10555000729EC001739E900D112465E07AE086551D
:105560009B4F0E94BB99892B09F4B4C00E94D97D3E
:10557000EEE7FCE08491882341F09091C00095FF14
:10558000FCCF8093C6003196F5CFE2E0FAE084913B
:10559000882341F09091C00095FFFCCF8093C60016
:1055A0003196F5CF4091B3055091B4056091B505A2
:1055B0007091B60522E030E089EC95E00E9439490F
:1055C000EEEFF9E08491882341F09091C00095FFBF
:1055D000FCCF8093C6003196F5CF4091B70550912E
:1055E000B8056091B9057091BA0522E030E089EC08
:1055F00095E00E943949EAEFF9E08491882341F06F
:105600009091C00095FFFCCF8093C6003196F5CFF6
:105610004091BB055091BC056091BD057091BE05E0
:1056200022E030E089EC95E00E943949E6EFF9E0AC
:105630008491882341F09091C00095FFFCCF809326
:10564000C6003196F5CF4091BF055091C0056091DD
:10565000C1057091C20522E030E089EC95E00E941E
:105660003949F1018491E2EFF9E0882349F0909102
:10567000C00095FFFCCF8093C60031968491F5CF92
:10568000E09153066E9EF0011124EC5AF94F20E090
:1056900030E040E752E460897189828993890E94F1
:1056A0005894AB01BC0122E030E089EC95E00E9407
:1056B0003949F6018491E0EFF9E0882349F09091AF
:1056C000C00095FFFCCF8093C60031968491F5CF42
:1056D0000E945F7EC091A404D091A5047C9EC0016D
:1056E0007D9E900D11246BEE79E086559B4F0E94B4
:1056F000BB99892B11F00E941429CE010196B701A4
:105700000E943A959093A5048093A4048091A204EA
:105710009091A30401969093A3048093A204109205
:10572000A00410929F04DDCD8B3319F491E0909387
:105730009E0490919E049111D4CD4091A404509167
:10574000A504B9016F5F7F4F7093A00460939F041D
:10575000749EF001759EF00D1124E20FF31FE655C3
:10576000FB4F8083BECD709EE001719ED00D112451
:105770008E0106551B4F6AE270E0C8010E94D59960
:10578000009791F5E8E7FCE08491882341F090913F
:10579000C00095FFFCCF8093C6003196F5CFEDEAAF
:1057A000FAE08491882341F09091C00095FFFCCFEE
:1057B0008093C6003196F5CF40916F0550917005EA
:1057C00060917105709172052AE030E089EC95E0F6
:1057D0000E9432488091C00085FFFCCF8AE0809310
:1057E000C6000E94C62246CE20E0512CFE01E20FE8
:1057F000F11DE655FB4F30813A3219F02F5F5326E9
:10580000F5CF90939D0480939C04801B910B8C0F8B
:105810009D1F60E070E085559B4F0E94F6960E94A8
:10582000F291252D30E02617370709F428CEE8E756
:10583000FCE08491882341F09091C00095FFFCCF5B
:105840008093C6003196F5CFE7EDFAE08491882386
:1058500041F09091C00095FFFCCF8093C600319637
:10586000F5CF40916F055091700560917105709171
:1058700072052AE030E089EC95E00E943248809180
:10588000C00085FFFCCFAACFE8E7FCE08491882325
:1058900041F09091C00095FFFCCF8093C6003196F7
:1058A000F5CFE6EFFAE08491882341F09091C000B3
:1058B00095FFFCCF8093C6003196F5CF40916F05E0
:1058C0005091700560917105709172052AE030E089
:1058D00089EC95E00E9432488091C00085FFFCCFA2
:1058E0007DCFDF91CF911F910F91FF90EF90DF90CF
:1058F000CF90BF90AF909F908F907F906F905F9070
:105900003F902F900895CF92DF92EF92FF920F93E6
:105910001F938091A2049091A3041816190614F005
:105920000E9449290E94E68D0091940410919504EB
:105930002091960430919704C0909804D0909904D7
:10594000E0909A04F0909B046C197D098E099F09E0
:10595000061717072807390730F4012B022B032BF2
:1059600011F00E94142980910B0290910C02A091D9
:105970000D02B0910E02892B8A2B8B2B09F10E940C
:10598000E68D009198041091990420919A04309129
:105990009B04601B710B820B930B00910B02109107
:1059A0000C0220910D0230910E02061717072807EE
:1059B000390730F49091530680915206981741F0C0
:1059C0001F910F91FF90EF90DF90CF900C94945126
:1059D000169A1092A405469A1092A505409A109224
:1059E000A605139AEDCF0E949C8380918A048111B1
:1059F00036C081E080938A0480916F059091700594
:105A0000A0917105B091720580936B0590936C0520
:105A1000A0936D05B0936E0542EB54E060E070E03A
:105A200084E89CE00E9495198091C00085FFFCCF1E
:105A30008AE38093C600EEE2F4E08491882341F08B
:105A40009091C00095FFFCCF8093C6003196F5CFB2
:105A50008091C00085FFFCCF8AE08093C600089546
:105A600080918A040895CF93DF93EC0180919F0584
:105A700080938B0484E50E945C21811102C080E048
:105A800075C00E9448210E94F79160938B046623A1
:105A9000B1F3EEE7FCE08491882341F09091C000DF
:105AA00095FFFCCF8093C6003196F5CFCD36D1055A
:105AB000B9F054F4C836D105B1F0C936D10509F0B2
:105AC00045C0E4E3F3E021C0CA3DD10531F0CD3D4E
:105AD000D105E1F5EFEEF2E036C0E6E0F3E029C0F3
