:100000000C94620C0C94930C0C94930C0C94930C25
:100010000C94930C0C94930C0C94930C0C94930CE4
:100020000C94930C0C94930C0C94930C0C94930CD4
:100030000C94930C0C94930C0C94930C0C94930CC4
:100040000C94930C0C943B750C94930C0C94930CA3
:100050000C94930C0C94930C0C94298A0C94568F4A
:100060000C94930C0C94BC480C94930C0C94930C2F
:100070000C94930C0C94930C0C94930C0C94930C84
:100080000C9420720C94930C0C94930C0C94930C81
:100090000C94930C0C94930C0C94930C0C94930C64
:1000A0000C94930C0C94930C0C944E720C94930C33
:1000B0000C94930C0C94930C0C94930C0C947C72F5
:1000C0000C94930C0C94930C0C94930C0C94930C34
:1000D0000C94930C0C94930C0C94930C0C94930C24
:1000E0000C94930C728A7F8A9B8AA88AC28AC48ADB
:1000F000C68AC88AD08A7F908490899093909D9078
:100100001691A790AF90B790C190CB90D590E49006
:10011000EE901691F89002910C9138913B912A91B2
:100120002E91349172913F91439149914D9151910A
:1001300057915B915F917291659169916D91084AB8
:10014000D73B3BCE016E84BCBFFDC12F3D6C7431EB
:100150009ABD56833DDA3D00C77F11BED9E4BB4C42
:100160003E916BAAAABE000000803F05A84CCDB20C
:10017000D44EB93836A9020C50B9918688083CA6ED
:10018000AAAA2ABE000000803F000C945F910C9444
:1001900038910C949D900C94C68A0C9451910C94B7
:1001A000C88A0C94C48A0C94AF900C94D5900C948B
:1001B0009B8A0C9402910C940C910C947F900C945B
:1001C00065910C942A910C94B8480C9457910C9416
:1001D000E4900C9416910C9493900C9434910C949C
:1001E0005B910C94728A0C942E910C943F910C9418
:1001F00089900C9443910C94A88A0C944D910C9482
:10020000B7900C94A7900C9449910C943B910C944A
:10021000CB900C947F8A0C94D08A0C94C28A0C9454
:100220006D910C9469910C9472910C94C1900C9402
:10023000EE900C94F8900C9484900A00454550522E
:100240004F4D204552524F5200204400204900207B
:1002500020204D33303120500050494420736574C4
:1002600074696E67733A00205A0020590020204DAF
:10027000323036205800486F6D65206F66667365B2
:100280007420286D6D293A00204500205A0020581E
:100290000020420020540020204D323035205300F1
:1002A000416476616E636564207661726961626C37
:1002B00065733A20533D4D696E20666565647261D1
:1002C000746520286D6D2F73292C20543D4D696E67
:1002D0002074726176656C20666565647261746510
:1002E00020286D6D2F73292C20423D6D696E696D3C
:1002F000756D207365676D656E742074696D65201A
:10030000286D73292C20583D6D6178696D756D20BD
:100310005859206A65726B20286D6D2F73292C2027
:10032000205A3D6D6178696D756D205A206A65723D
:100330006B20286D6D2F73292C2020453D6D617831
:10034000696D756D2045206A65726B20286D6D2F73
:1003500073290020540020204D32303420530041B6
:100360006363656C65726174696F6E3A20533D61B9
:100370006363656C65726174696F6E2C20543D72A5
:1003800065747261637420616363656C6572617426
:10039000696F6E00204500205A0020590020204D32
:1003A0003230312058004D6178696D756D204163A0
:1003B00063656C65726174696F6E20286D6D2F7353
:1003C00032293A00204500205A0020590020204DB3
:1003D0003230332058004D6178696D756D20666547
:1003E0006564726174657320286D6D2F73293A00FE
:1003F000204500205A0020590020204D3932205835
:100400000053746570732070657220756E69743A5C
:100410000053657474696E67732053746F726564FA
:10042000004543484F3E004552524F523E005072E5
:10043000696E7465722073746F7070656420647582
:100440006520746F206572726F72732E2046697812
:1004500020746865206572726F7220616E64207509
:100460007365204D39393920746F2072657374615A
:1004700072742E202854656D706572617475726592
:100480002069732072657365742E2053657420692A
:100490007420616674657220726573746172746928
:1004A0006E6729005072696E7465722068616C74A1
:1004B00065642E206B696C6C28292063616C6C6507
:1004C0006421006F6B00526573656E643A200045CD
:1004D0006E6473746F70206E6F74207072657373C6
:1004E000656420616674657220686F6D696E67204F
:1004F000646F776E2E205A2D6D696E207377697444
:100500006368206F72205A2D6F66667365742D7351
:10051000656E736F722062726F6B656E3F310A0099
:10052000456E6473746F70207374696C6C207072A4
:100530006573736564206166746572206261636BC4
:10054000696E67206F66662E205A2D6D696E207366
:100550007769746368206F72205A2D6F66667365C1
:10056000742D73656E736F7220737475636B3F3295
:100570000A00456E6473746F70206E6F7420707221
:10058000657373656420616674657220686F6D6958
:100590006E6720646F776E2E205A2D6D696E207302
:1005A0007769746368206F72205A2D6F6666736571
:1005B000742D73656E736F722062726F6B656E3F20
:1005C000310A000A00207A3A200020793A200020DF
:1005D000783A2000426564002200556E6B6E6F779A
:1005E0006E20636F6D6D616E643A2022005A204F59
:1005F0006666736574203A20007A5F6D61783A20F0
:10060000007A5F6D696E3A20005A204F6666736506
:1006100074005A204F6666736574206F6B007A5FB2
:100620006D61783A20007A5F6D696E3A2000795FDB
:100630006D61783A2000795F6D696E3A2000785FCD
:100640006D61783A2000785F6D696E3A2000205A1B
:100650003A0020593A0020436F756E7420583A20B2
:100660000020463A0020453A00205A3A0020593AE4
:1006700000583A004649524D574152455F4E414D50
:10068000453A4D61726C696E20666F72206D6F73B2
:100690007466756E2050726F3B204D414348494E41
:1006A000455F545950453A6D6F737466756E2050AE
:1006B000726F2045585452554445525F434F554E32
:1006C000543A3120555549443A303030303030308A
:1006D000302D303030302D303030302D3030303023
:1006E0002D3030303030303030303030300A002073
:1006F000423A0020453A00543A0020573A0020453B
:100700003A00543A002042403A0020403A00202F5C
:10071000003A00205400202F0020423A00202F00F1
:100720006F6B20543A002569206D696E2C20256975
:1007300020736563000A00454550524F4D204552D5
:10074000524F52000A0063757272656E745F6F6675
:10075000667365743A200077726974655F656570C9
:10076000726F6D5F77726974655F666C6167000AAE
:10077000007A70726F62655F6F66667365745F732F
:10078000656E736F723A20005A2050524F424520D6
:100790004F4646534554204552524F520A000A00D4
:1007A000205A3A200020593A200020583A2000428E
:1007B0006564000A004175746F5F6C657665696EEB
:1007C000672066696E6973680020643A20002062C1
:1007D0003A200045716E20636F65666669636965DE
:1007E0006E74733A20613A20004155544F204C45B5
:1007F00056454C494E47204552524F520A00486FC9
:100800006D6520582F59206265666F7265205A0009
:10081000456E6473746F70207374696C6C207072B1
:100820006573736564206166746572206261636BD1
:10083000696E67206F66662E205A2D6D6178207371
:10084000776974636820737475636B3F0A00456E43
:100850006473746F70207374696C6C20707265734C
:10086000736564206166746572206261636B696E92
:1008700067206F66662E205A2D6D696E207377692A
:1008800074636820737475636B3F0A00456E64730C
:10089000746F70207374696C6C207072657373650B
:1008A00064206166746572206261636B696E6720A3
:1008B0006F66662E20592D6D617820737769746399
:1008C0006820737475636B3F0A00456E6473746FC0
:1008D00070207374696C6C2070726573736564202A
:1008E0006166746572206261636B696E67206F6612
:1008F000662E20592D6D696E2073776974636820A8
:10090000737475636B3F0A00456E6473746F702077
:100910007374696C6C2070726573736564206166B2
:10092000746572206261636B696E67206F66662E04
:1009300020582D6D61782073776974636820737413
:1009400075636B3F0A00456E6473746F7020737437
:10095000696C6C2070726573736564206166746580
:1009600072206261636B696E67206F66662E205825
:100970002D6D696E20737769746368207374756375
:100980006B3F0A00456E6473746F70206E6F742045
:100990007072657373656420616674657220686F38
:1009A0006D696E6720646F776E2E20582D6D6178AB
:1009B000206F7220592D6D61782073776974636898
:1009C0002062726F6B656E3F0A00456E6473746FD0
:1009D00070206E6F74207072657373656420616639
:1009E00074657220686F6D696E6720646F776E2E14
:1009F000205A2D6D61782073776974636820627264
:100A00006F6B656E3F0A000A00454550524F4D20FE
:100A10004552524F52000A00454550524F4D204515
:100A200052524F52004D313132000A0020463A00F6
:100A300020453A00205A3A0020593A00583A004DD1
:100A4000313030005072696E7465722073746F704B
:100A50007065642064756520746F206572726F72B2
:100A6000732E2046697820746865206572726F72F3
:100A700020616E6420757365204D39393920746F9B
:100A800020726573746172742E202854656D7065D0
:100A90007261747572652069732072657365742E56
:100AA00020536574206974206166746572207265D4
:100AB0007374617274696E6729006F6B004E6F20EA
:100AC0004C696E65204E756D626572207769746839
:100AD00020636865636B73756D2C204C61737420A3
:100AE0004C696E653A20004E6F20436865636B73F6
:100AF000756D2077697468206C696E65206E756D00
:100B00006265722C204C617374204C696E653A20CA
:100B100000636865636B73756D206D69736D6174D7
:100B200063682C204C617374204C696E653A200018
:100B30004C696E65204E756D626572206973206E1A
:100B40006F74204C617374204C696E65204E756D16
:100B50006265722B312C204C617374204C696E6578
:100B60003A20004D313130002020506C616E6E65AE
:100B70007242756666657242797465733A20002028
:100B800046726565204D656D6F72793A20004A7531
:100B90006E2020332032303136002869337761747B
:100BA00065722C206D6F737466756E205326542009
:100BB000436F2E2C4C74642E2900207C20417574C8
:100BC000686F723A20004A756E202033203230312F
:100BD000362031303A35393A313800204C6173745F
:100BE00020557064617465643A200020312E302EE7
:100BF00030004D61726C696E20666F72206D6F738C
:100C00007466756E2050726F0020536F6674776142
:100C1000726520526573657400205761746368645F
:100C20006F67205265736574002042726F776E2083
:100C30006F75742052657365740020457874657211
:100C40006E616C20526573657400506F77657255E4
:100C500070007374617274000A0020463A002045E7
:100C60003A00205A3A0020593A00583A000101014E
:100C70000000A0400000A0400000404000005C4395
:100C80000000364300002A4300005C430000364366
:100C90000000204300005C43000036430000204376
:100CA0000000000000000000000020C1494E464F37
:100CB0003E005741524E3E004543484F3E0045528C
:100CC000524F523E0020746F6F206C6F6E6720652C
:100CD0007874727573696F6E2070726576656E7464
:100CE00065640020636F6C64206578747275736945
:100CF0006F6E2070726576656E7465640057415240
:100D00004E3E00205A3A0020593A0020583A0065D9
:100D10006E6473746F7073206869743A200024F4F1
:100D2000D43050C38E20C2A24017828B7011127A29
:100D3000910D816CD90AA861E108C7586607615115
:100D400043061E4B5D05C145A7041A411104093D28
:100D50009803713931034036DB0265339102D43098
:100D60005402802E1D02632CEE01752AC501B028A5
:100D7000A001102781018F2564012B244B01E02263
:100D80003401AC211F018D200D01801FFC00841E49
:100D9000ED00971DDF00B81CD200E61BC600201B2B
:100DA000BC00641AB200B219A8000A19A0006A189F
:100DB0009900D117910040178B00B51684003116A9
:100DC0007E00B31579003A157300C7146F005814EC
:100DD0006A00EE1366008813630025135E00C712D5
:100DE0005B006C12570015125400C11151007011B4
:100DF0004F0021114B00D61049008D1047004610BE
:100E0000440002104200C00F4000800F3E00420F1D
:100E10003C00060F3B00CB0E3800930E37005C0EF3
:100E20003500270E3400F30D3200C10D3100900D56
:100E30003000600D2E00320D2D00050D2C00D90C58
:100E40002B00AE0C2900850C29005C0C2700350C0A
:100E500027000E0C2600E80B2400C40B2400A00B76
:100E600023007D0B23005A0B2100390B2100180BA6
:100E70002000F80A1F00D90A1E00BB0A1E009D0AA6
:100E80001D00800A1D00630A1C00470A1B002C0A73
:100E90001B00110A1A00F7091A00DD091900C4091C
:100EA0001900AB091900920917007B0918006309A2
:100EB00017004C09160036091600200916000A0909
:100EC0001500F5081500E0081400CC081400B80857
:100ED0001400A4081400900813007D0812006B0889
:100EE00013005808120046081200340811002308A5
:100EF00011001208110001081100F0071000E007AE
:100F00001000D0071000C0071000B0070F00A107A5
:100F1000100091070E0083070F0074070F0065078C
:100F20000E0057070E0049070E003B070D002E0765
:100F30000E0020070D0013070D0006070D00F9062F
:100F40000C00ED060D00E0060C00D4060C00C806EF
:100F50000C00BC060C00B0060C00A4060B009906A1
:100F60000C008D060B0082060B0077060B006C064A
:100F70000B0061060A0057060B004C060A004206E9
:100F80000A0038060A002E060A0024060A001A067D
:100F90000A001006090007060A00FD050900F4050D
:100FA0000900EB050900E2050900D9050900D00593
:100FB0000900C7050900BE050900B5050800AD0513
:100FC0000800A50509009C050800940508008C058B
:100FD0000800840508007C050800740508006C05FD
:100FE0000700650508005D050700560508004E0569
:100FF00007004705070040050800380507003105D0
:1010000007002A050700230507001C050600160532
:1010100007000F0507000805060002050700FB048E
:101020000600F5040700EE040600E8040600E204EA
:101030000700DB040600D5040600CF040600C9043F
:101040000600C3040600BD040600B7040600B10490
:101050000500AC040600A6040600A00405009B04DD
:10106000060095040500900406008A040500850426
:101070000500800406007A0405007504050070046C
:1010800005006B04050066040500610405005C04AE
:10109000050057040500520405004D0405004804EE
:1010A0000500430405003E0404003A04050035042D
:1010B0000500300404002C04050027040400230468
:1010C00005001E0404001A0404001604050011049F
:1010D00004000D04040009040500040404000004D5
:1010E0000400FC030400F8030400F4030400F0030C
:1010F0000400EC030400E8030400E4030400E0033C
:101100000400DC030400D8030400D4030400D0036B
:101110000400CC030400C8030300C503030024F447
:1011200004D9201BC40C5C0E9804C4095F02650737
:101130007101F405F900FB04B30048048700C10302
:1011400069005803550003034500BE023A008402BB
:10115000310053022A002902250004022000E40184
:101160001C00C8011900AF01170098011400840188
:101170001300710110006101100051010E004301C4
:101180000D0036010B002B010B0020010B00150197
:1011900009000C01090003010800FB000800F3002E
:1011A0000800EB000700E4000600DE000600D8009F
:1011B0000600D2000600CC000500C7000500C200F2
:1011C0000500BD000400B9000400B5000400B10032
:1011D0000400AD000400A9000400A5000300A20063
:1011E00003009F0004009B0003009800030095008B
:1011F000020093000300900003008D0002008B00AA
:1012000003008800020086000200840003008100C1
:1012100002007F0002007D0002007B0002007900D6
:1012200002007700010076000200740002007200E4
:101230000100710002006F0002006D0001006C00EF
:1012400002006A00010069000200670001006600F8
:1012500001006500010064000200620001006100FD
:101260000100600001005F0002005D0001005C0001
:1012700001005B0001005A00010059000100580004
:101280000100570001005600010055000100540004
:101290000100530000005300010052000100510002
:1012A0000100500001004F0001004E0000004E0000
:1012B00001004D0001004C0001004B0000004B00FC
:1012C00001004A00010049000100480000004800F8
:1012D00001004700010046000000460001004500F3
:1012E00000004500010044000100430000004300ED
:1012F00001004200000042000100410000004100E6
:101300000100400001003F0000003F0001003E00DE
:1013100000003E0001003D0000003D0001003C00D7
:1013200000003C0000003C0001003B0000003B00CE
:1013300001003A0000003A000100390000003900C5
:1013400001003800000038000000380001003700BC
:1013500000003700010036000000360000003600B3
:1013600001003500000035000000350001003400A8
:10137000000034000000340001003300000033009E
:101380000000330001003200000032000000320093
:101390000100310000003100000031000100300088
:1013A000000030000000300001002F0000002F007E
:1013B00000002F0000002F0001002E0000002E0072
:1013C00000002E0001002D0000002D0000002D0067
:1013D00000002D0001002C0000002C0000002C005B
:1013E00000002C0001002B0000002B0000002B004F
:1013F00000002B0001002A0000002A0000002A0043
:1014000000002A0001002900000029000000290036
:101410000000290000002900010028000000280029
:10142000000028000000280000002800010027001C
:101430000000270000002700000027000000270010
:101440000100260000002600000026000000260003
:1014500000002600010025000000250000002500F6
:1014600000002500000025000000250001002400E8
:1014700000002400000024000000240000002400DC
:1014800001002300000023000000230000002300CF
:1014900000002300000023000000230001002200C0
:1014A00000002200000022000000220000002200B4
:1014B00000002200010021000000210000002100A6
:1014C0000000210000002100000021000000210098
:1014D000010020000000200000002000000020008B
:1014E000000020000000200000002000000020007C
:1014F00001001F0000001F0000001F0000001F006F
:1015000000001F0000001F0000001F0001001E005F
:1015100000001E0000001E0000001E0000004543E9
:10152000484F3E0054656D70657261747572652038
:1015300068656174656420626564207377697463AB
:10154000686564206F66662E204D415854454D50A5
:1015500020747269676765726564202121003A20F2
:101560004578747275646572207377697463686511
:1015700064206F66662E204D494E54454D502074B0
:1015800072696767657265642021003A2045787446
:101590007275646572207377697463686564206F1F
:1015A00066662E204D415854454D5020747269672F
:1015B0006765726564202100202D20496E76616C7C
:1015C0006964206578747275646572206E756D62E9
:1015D0006572202100504944204175746F74756E06
:1015E000652066696E697368656421205075742092
:1015F000746865206C617374204B702C204B6920DB
:10160000616E64204B6420636F6E7374616E7473DB
:101610002066726F6D2061626F766520696E746FEF
:1016200020436F6E66696775726174696F6E2E68AC
:1016300000504944204175746F74756E6520666171
:10164000696C6564212074696D656F757400204054
:101650003A006F6B20543A006F6B20423A005049B9
:1016600044204175746F74756E65206661696C65A0
:1016700064212054656D70657261747572652074A3
:101680006F6F206869676800204B643A2000204B28
:10169000693A2000204B703A200020436C6173733C
:1016A00069632050494420002054753A2000204BA3
:1016B000753A2000206D61783A2000206D696E3AFD
:1016C000200020643A200020626961733A200045BE
:1016D00052524F523E001000C90260012C01A0017D
:1016E0002201E001180120020E0180020401F00233
:1016F000FA006003F0000004E600C004DC00A0056E
:10170000D200C006C8003008BE00C009B400C00B3B
:10171000AA00200EA000E010960040148C000018D3
:101720008200401C7800C0206E0060256400002A02
:101730005A00702E500050324600C0353C008038B0
:101740003200C03A2800603C1E00A03D1400703EEC
:101750000A00003F00000A00207A3A200020793A6F
:10176000200020783A200000000A0B02090C0D0E20
:101770000807030401000000000000000000000052
:101780000000000000000000000000000000000059
:101790000000001211100000000000000000000016
:1017A0000000000000000000000000000001021026
:1017B000202008081020401020408002010201086B
:1017C000040201010204081020408080402010081B
:1017D0000402018004020180402010080402010874
:1017E00004020101020408102040800102040810D4
:1017F00020408005050505070508080808020202C3
:10180000020A0A080804040404010101010101019B
:10181000010303030303030303040707070C0C0C72
:101820000C0C0C0C0C02020202060606060606064A
:10183000060B0B0B0B0B0B0B0B00002000230026E1
:101840000029002C002F00320000010000030106D7
:1018500001090100002200250028002B002E003184
:1018600000340002010000050108010B0100002105
:1018700000240027002A002D003000330001010061
:1018800000040107010A014E414E494E495459498D
:101890004E46CDCCCC3D0AD7233C17B7D13877CCB8
:1018A0002B329595E6241FB14F0A0000204100001D
:1018B000C84200401C4620BCBE4CCA1B0E5AAEC5D6
:1018C0009D74B84811241FBECFEFD1E2DEBFCDBF5B
:1018D00000E00CBF14E0A0E0B2E0E8EAFDE301E0C4
:1018E0000BBF02C007900D92AC39B107D9F72EE0BB
:1018F000ACE9B4E001C01D92AB34B207E1F718E1E6
:10190000C4ECD8E100E006C022970109FE010BBF3C
:101910000E946297C23CD10780E00807A9F70E94A5
:101920000C920C94D29E0C940000EF92FF920F93B5
:101930001F93CF93DF931F92CDB7DEB78C017B014E
:10194000460FF70161917F01F80180819181498300
:101950000E940B9EF8018081918101969183808382
:1019600049814E11EECF0F90DF91CF911F910F91D2
:10197000FF90EF900895EF92FF920F931F93CF93F4
:10198000DF931F92CDB7DEB78C017B01460FF801C4
:101990008081918149830E94039EF70181937F0199
:1019A000F8018081918101969183808349814E1154
:1019B000EECF0F90DF91CF911F910F91FF90EF909D
:1019C0000895CF93DF93CDB7DEB72C970FB6F89479
:1019D000DEBF0FBECDBF28E532E03C872B872AE073
:1019E000AE014F5F5F4F0E94A89B4AE0BE016F5F50
:1019F0007F4FCE010B960E94950C61E070E080E075
:101A000090E00E94CF8F8B859C858C599F4F9C873F
:101A10008B874AE0BE016F5F7F4FCE010B960E941D
:101A2000950C61E070E080E090E00E94CF8F8B85A4
:101A30009C858C599F4F9C878B874AE0BE016F5FC6
:101A40007F4FCE010B960E94950C2C960FB6F89402
:101A5000DEBF0FBECDBFDF91CF910895CF93DF934F
:101A6000CDB7DEB72C970FB6F894DEBF0FBECDBF53
:101A70002CE632E03C872B872AE0AE014F5F5F4FB8
:101A80000E94A89B4AE0BE016F5F7F4FCE010B967C
:101A90000E94950C61E070E080E090E00E94CF8FA2
:101AA0008B859C858C599F4F9C878B874AE0BE0114
:101AB0006F5F7F4FCE010B960E94950C61E070E046
:101AC00080E090E00E94CF8F8B859C858C599F4F42
:101AD0009C878B874AE0BE016F5F7F4FCE010B96DC
:101AE0000E94950C2C960FB6F894DEBF0FBECDBFAA
:101AF000DF91CF910895CF93DF93CDB7DEB72C97C9
:101B00000FB6F894DEBF0FBECDBF20E832E03C87B1
:101B10002B872AE0AE014F5F5F4F0E94A89B4AE0EF
:101B2000BE016F5F7F4FCE010B960E94950C61E066
:101B300070E080E090E00E94CF8F8B859C858C596F
:101B40009F4F9C878B874AE0BE016F5F7F4FCE011E
:101B50000B960E94950C61E070E080E090E00E949E
:101B6000CF8F8B859C858C599F4F9C878B874AE0B4
:101B7000BE016F5F7F4FCE010B960E94950C2C9695
:101B80000FB6F894DEBF0FBECDBFDF91CF910895A1
:101B9000CF93DF93CDB7DEB72C970FB6F894DEBFA7
:101BA0000FBECDBF24E932E03C872B872AE0AE018F
:101BB0004F5F5F4F0E94A89B4AE0BE016F5F7F4F5F
:101BC000CE010B960E94950C61E070E080E090E001
:101BD0000E94CF8F8B859C858C599F4F9C878B87CC
:101BE0004AE0BE016F5F7F4FCE010B960E94950CBD
:101BF00061E070E080E090E00E94CF8F8B859C8553
:101C00008C599F4F9C878B874AE0BE016F5F7F4F47
:101C1000CE010B960E94950C2C960FB6F894DEBF61
:101C20000FBECDBFDF91CF910895CF93DF93CDB796
:101C3000DEB72C970FB6F894DEBF0FBECDBF28EAF3
:101C400032E03C872B872AE0AE014F5F5F4F0E9456
:101C5000A89B4AE0BE016F5F7F4FCE010B960E94AA
:101C6000950C61E070E080E090E00E94CF8F8B8562
:101C70009C858C599F4F9C878B874AE0BE016F5F84
:101C80007F4FCE010B960E94950C61E070E080E0E2
:101C900090E00E94CF8F8B859C858C599F4F9C87AD
:101CA0008B874AE0BE016F5F7F4FCE010B960E948B
:101CB000950C2C960FB6F894DEBF0FBECDBFDF910A
:101CC000CF910895CF93DF9300D01F92CDB7DEB7A9
:101CD00084E893E09A83898322E0AE014D5F5F4FF1
:101CE00061E070E080E090E00E94A89B42E0BE01CD
:101CF0006D5F7F4FCE0101960E94950C0F900F9063
:101D00000F900F90DF91CF9108958F929F92AF9295
:101D1000BF92CF92DF92EF92FF92CF93DF93CDB736
:101D2000DEB72C970FB6F894DEBF0FBECDBF88E5A7
:101D300092E09C878B874AE0BE016F5F7F4FCE01A8
:101D40000B960E94BB0C4AE050E060E070E0CE01D0
:101D500001960E94219A6B017C0161E070E080E0B5
:101D600090E00E94CF8F8B859C858C599F4F9C87DC
:101D70008B874AE0BE016F5F7F4FCE010B960E94BA
:101D8000BB0C4AE050E060E070E0CE0101960E949A
:101D9000219A4B015C0161E070E080E090E00E94DC
:101DA000CF8F8B859C858C599F4F9C878B874AE072
:101DB000BE016F5F7F4FCE010B960E94BB0C4AE0C5
:101DC00050E060E070E0CE0101960E94219AC814B4
:101DD000D904EA04FB04A9F0C616D706E806F906FA
:101DE00081F086169706A806B90649F087ECC82E3A
:101DF00085E3D82E8AE3E82E82E4F82E02C075012E
:101E00006401C701B6012C960FB6F894DEBF0FBE71
:101E1000CDBFDF91CF91FF90EF90DF90CF90BF903B
:101E2000AF909F908F9008958F929F92AF92BF92A4
:101E3000CF92DF92EF92FF92CF93DF93CDB7DEB7D1
:101E40002C970FB6F894DEBF0FBECDBF8CE692E0A4
:101E50009C878B874AE0BE016F5F7F4FCE010B9658
:101E60000E94BB0C4AE050E060E070E0CE010196B9
:101E70000E94219A6B017C0161E070E080E090E0BB
:101E80000E94CF8F8B859C858C599F4F9C878B8719
:101E90004AE0BE016F5F7F4FCE010B960E94BB0CE4
:101EA0004AE050E060E070E0CE0101960E94219A85
:101EB0004B015C0161E070E080E090E00E94CF8F18
:101EC0008B859C858C599F4F9C878B874AE0BE01F0
:101ED0006F5F7F4FCE010B960E94BB0C4AE050E033
:101EE00060E070E0CE0101960E94219AC814D904E6
:101EF000EA04FB04A9F0C616D706E806F90681F045
:101F000086169706A806B90649F097ECC92E95E300
:101F1000D92E9AE3E92E92E4F92E02C075016401EC
:101F2000C701B6012C960FB6F894DEBF0FBECDBF29
:101F3000DF91CF91FF90EF90DF90CF90BF90AF9067
:101F40009F908F9008958F929F92AF92BF92CF9261
:101F5000DF92EF92FF92CF93DF93CDB7DEB72C974E
:101F60000FB6F894DEBF0FBECDBF80E892E09C872D
:101F70008B874AE0BE016F5F7F4FCE010B960E94B8
:101F8000BB0C4AE050E060E070E0CE0101960E9498
:101F9000219A6B017C0161E070E080E090E00E949A
:101FA000CF8F8B859C858C599F4F9C878B874AE070
:101FB000BE016F5F7F4FCE010B960E94BB0C4AE0C3
:101FC00050E060E070E0CE0101960E94219A4B0142
:101FD0005C0161E070E080E090E00E94CF8F8B8533
:101FE0009C858C599F4F9C878B874AE0BE016F5F11
:101FF0007F4FCE010B960E94BB0C4AE050E060E0A0
:1020000070E0CE0101960E94219AC814D904EA0416
:10201000FB04A9F0C616D706E806F90681F0861675
:102020009706A806B90649F027ECC22E25E3D22E62
:102030002AE3E22E22E4F22E02C075016401C701F8
:10204000B6012C960FB6F894DEBF0FBECDBFDF9160
:10205000CF91FF90EF90DF90CF90BF90AF909F9087
:102060008F9008958F929F92AF92BF92CF92DF92FE
:10207000EF92FF92CF93DF93CDB7DEB72C970FB6D9
:10208000F894DEBF0FBECDBF84E992E09C878B87BA
:102090004AE0BE016F5F7F4FCE010B960E94BB0CE2
:1020A0004AE050E060E070E0CE0101960E94219A83
:1020B0006B017C0161E070E080E090E00E94CF8FD6
:1020C0008B859C858C599F4F9C878B874AE0BE01EE
:1020D0006F5F7F4FCE010B960E94BB0C4AE050E031
:1020E00060E070E0CE0101960E94219A4B015C01F4
:1020F00061E070E080E090E00E94CF8F8B859C854E
:102100008C599F4F9C878B874AE0BE016F5F7F4F42
:10211000CE010B960E94BB0C4AE050E060E070E0FC
:10212000CE0101960E94219AC814D904EA04FB0446
:10213000A9F0C616D706E806F90681F086169706B6
:10214000A806B90649F037ECC32E35E3D32E3AE39F
:10215000E32E32E4F32E02C075016401C701B6011B
:102160002C960FB6F894DEBF0FBECDBFDF91CF9196
:10217000FF90EF90DF90CF90BF90AF909F908F90A7
:1021800008958F929F92AF92BF92CF92DF92EF927B
:10219000FF92CF93DF93CDB7DEB72E970FB6F894AB
:1021A000DEBF0FBECDBF88EA92E09E878D874AE0F2
:1021B000BE016F5F7F4FCE010D960E94BB0C4AE0BF
:1021C00050E060E070E0CE0101960E94219A6B0120
:1021D0007C0161E070E080E090E00E94CF8F8D850F
:1021E0009E858C599F4F9E878D874AE0BE016F5F09
:1021F0007F4FCE010D960E94BB0C4AE050E060E09C
:1022000070E0CE0101960E94219A4B015C0161E0D1
:1022100070E080E090E00E94CF8F8D859E858C5984
:102220009F4F9E878D874AE0BE016F5F7F4FCE0133
:102230000D960E94BB0C4AE050E060E070E0CE01D9
:1022400001960E94219AC814D904EA04FB0461F0A3
:10225000C616D706E806F90639F086169706A806C8
:10226000B90659F47501640187ECC81685E3D806F0
:102270008AE3E80682E4F80621F584E893E09E8785
:102280008D8742E0BE01655F7F4FCE010D960E94B3
:10229000BB0C42E050E060E070E0CE010B960E9483
:1022A000219A672B682B692B49F447ECC42E45E330
:1022B000D42E4AE3E42E42E4F42E03C0C12CD12CE8
:1022C000760184E893E09E878D8742E0BE01655FDA
:1022D0007F4FCE010D960E94BB0C42E050E060E0C3
:1022E00070E0CE010B960E94219AC701B6012E968E
:1022F0000FB6F894DEBF0FBECDBFDF91CF91FF9038
:10230000EF90DF90CF90BF90AF909F908F90089507
:10231000CF93DF9300D01F92CDB7DEB784E893E070
:102320009C838B8342E0BE016F5F7F4FCE0103969B
:102330000E94BB0C42E050E060E070E0CE010196EC
:102340000E94219A21E0672B682B692B09F020E07D
:10235000822F0F900F900F900F90DF91CF910895E3
:102360000F931F93CF93DF93CDB7DEB768970FB668
:10237000F894DEBF0FBECDBF80E390E3A0E3B0E0F2
:102380008D839E83AF83B88704E610E0188F0F8B90
:1023900044E0BE016B5F7F4FCE0147960E94950CD3
:1023A00040E16EEE7CE0CE0147960E94950C40E144
:1023B0006EEF7CE0CE0147960E94950C40E16EEDF9
:1023C0007CE0CE0147960E94950C44E066ED7CE0EF
:1023D000CE0147960E94950C44E062ED7CE0CE0170
:1023E00047960E94950C44E06AED7CE0CE0147964A
:1023F0000E94950C44E062EC7CE0CE0147960E947E
:10240000950C44E06EE07DE0CE0147960E94950C6D
:1024100044E06EEC7CE0CE0147960E94950C44E0CF
:102420006AEC7CE0CE0147960E94950C44E066EC95
:102430007CE0CE0147960E94950C4CE060EC75E084
:10244000CE0147960E94950C88EC90E09E8B8D8B78
:1024500086E490E09C8B8B8B8FEF90E09A8B898B3E
:102460002CED30E0388B2F871E870D879C878B875C
:1024700042E0BE016B5E7F4FCE0147960E94950CF5
:1024800042E0BE016D5E7F4FCE0147960E94950CE3
:1024900042E0BE016F5E7F4FCE0147960E94950CD1
:1024A00042E0BE01615F7F4FCE0147960E94950CCE
:1024B00042E0BE01635F7F4FCE0147960E94950CBC
:1024C00042E0BE01655F7F4FCE0147960E94950CAA
:1024D00044E069EB75E0CE0147960E94950C44E01C
:1024E0006FEA72E0CE0147960E94950C44E06BEAD9
:1024F00072E0CE0147960E94950C44E067EA72E0D4
:10250000CE0147960E94950C80E290E09A878987D9
:1025100042E0BE01675F7F4FCE0147960E94950C57
:1025200086E591E3A0E3B0E089839A83AB83BC8323
:10253000188F0F8B44E0BE016F5F7F4FCE0147962F
:102540000E94950CE1E2F4E08491882341F090919F
:10255000C00095FFFCCF8093C6003196F5CFE1E136
:10256000F4E08491882341F09091C00095FFFCCF66
:102570008093C6003196F5CF8091C00085FFFCCFD7
:102580008AE08093C60068960FB6F894DEBF0FBE4F
:10259000CDBFDF91CF911F910F910895CF93DF931E
:1025A000C1E2D4E0FE018491882341F09091C00003
:1025B00095FFFCCF8093C6003196F5CFE1E0F4E0C3
:1025C0008491882341F09091C00095FFFCCF8093C7
:1025D000C6003196F5CF8091C00085FFFCCF8AE020
:1025E0008093C600FE018491E1E2F4E0882349F083
:1025F0009091C00095FFFCCF8093C60031968491E6
:10260000F5CF4091EE0C5091EF0C6091F00C709171
:10261000F10C89EF93E00E94A0194091F20C5091C7
:10262000F30C6091F40C7091F50C86EF93E00E942E
:10263000A0194091F60C5091F70C6091F80C709134
:10264000F90C83EF93E00E94A0194091FA0C50918D
:10265000FB0C6091FC0C7091FD0C80EF93E00E94EC
:10266000A0198091C00085FFFCCF8AE08093C6004E
:10267000FE018491E1E2F4E0882349F09091C000EA
:1026800095FFFCCF8093C60031968491F5CFE6ED9F
:10269000F3E08491882341F09091C00095FFFCCF36
:1026A0008093C6003196F5CF8091C00085FFFCCFA6
:1026B0008AE08093C600FE018491E1E2F4E0882381
:1026C00049F09091C00095FFFCCF8093C6003196F1
:1026D0008491F5CF4091FE0C5091FF0C6091000D5C
:1026E0007091010D8DEC93E00E94A0194091020DB4
:1026F0005091030D6091040D7091050D8AEC93E0EB
:102700000E94A0194091060D5091070D6091080D8F
:102710007091090D87EC93E00E94A01940910A0D79
:1027200050910B0D60910C0D70910D0D84EC93E0A8
:102730000E94A0198091C00085FFFCCF8AE08093A1
:10274000C600FE018491E1E2F4E0882349F0909113
:10275000C00095FFFCCF8093C60031968491F5CFE1
:10276000E6EAF3E08491882341F09091C00095FF60
:10277000FCCF8093C6003196F5CF8091C00085FFD5
:10278000FCCF8AE08093C600FE018491E1E2F4E090
:10279000882349F09091C00095FFFCCF8093C6003C
:1027A00031968491F5CF4091DE0C5091DF0C609111
:1027B000E00C7091E10C8DE993E00E94B219409118
:1027C000E20C5091E30C6091E40C7091E50C8AE905
:1027D00093E00E94B2194091E60C5091E70C609191
:1027E000E80C7091E90C87E993E00E94B2194091DE
:1027F000EA0C5091EB0C6091EC0C7091ED0C84E9BB
:1028000093E00E94B2198091C00085FFFCCF8AE05E
:102810008093C600FE018491E1E2F4E0882349F050
:102820009091C00095FFFCCF8093C60031968491B3
:10283000F5CFEFE5F3E08491882341F09091C0005B
:1028400095FFFCCF8093C6003196F5CF8091C000F4
:1028500085FFFCCF8AE08093C600FE018491E1E20F
:10286000F4E0882349F09091C00095FFFCCF80935D
:10287000C60031968491F5CF4091D60C5091D70C7B
:102880006091D80C7091D90C86E593E00E94A01954
:102890004091D20C5091D30C6091D40C7091D50C16
:1028A00083E593E00E94A0198091C00085FFFCCFD2
:1028B0008AE08093C600FE018491E1E2F4E088237F
:1028C00049F09091C00095FFFCCF8093C6003196EF
:1028D0008491F5CFE0EAF2E08491882341F0909171
:1028E000C00095FFFCCF8093C6003196F5CF809154
:1028F000C00085FFFCCF8AE08093C600FE01849172
:10290000E1E2F4E0882349F09091C00095FFFCCF0C
:102910008093C60031968491F5CF4091DA0C5091A6
:10292000DB0C6091DC0C7091DD0C87E992E00E9479
:10293000A0194091C20C5091C30C6091C40C7091CD
:10294000C50C84E992E00E94A01940910E0D5091AF
:102950000F0D6091100D7091110D81E992E00E94B0
:10296000B2194091CE0C5091CF0C6091D00C709167
:10297000D10C8EE892E00E94A0194091CA0C5091AF
:10298000CB0C6091CC0C7091CD0C8BE892E00E9446
:10299000A0194091C60C5091C70C6091C80C709161
:1029A000C90C88E892E00E94A0198091C00085FFC0
:1029B000FCCF8AE08093C600FE018491E1E2F4E05E
:1029C000882349F09091C00095FFFCCF8093C6000A
:1029D00031968491F5CFE6E7F2E08491882341F0C7
:1029E0009091C00095FFFCCF8093C6003196F5CF43
:1029F0008091C00085FFFCCF8AE08093C600FE0175
:102A00008491E1E2F4E0882349F09091C00095FFC1
:102A1000FCCF8093C60031968491F5CF4091C005DC
:102A20005091C1056091C2057091C3058DE692E099
:102A30000E94A0194091C4055091C5056091C6053A
:102A40007091C7058AE692E00E94A0194091C805DE
:102A50005091C9056091CA057091CB0587E692E057
:102A60000E94A0198091C00085FFFCCF8AE080936E
:102A7000C600FE018491E1E2F4E0882349F09091E0
:102A8000C00095FFFCCF8093C60031968491F5CFAE
:102A9000E9E5F2E08491882341F09091C00095FF30
:102AA000FCCF8093C6003196F5CF8091C00085FFA2
:102AB000FCCF8AE08093C600FE01C491E1E2F4E01D
:102AC000CC2349F08091C00085FFFCCFC093C600A5
:102AD0003196C491F5CF4091AF025091B002609110
:102AE000B1027091B2028FE492E00E94A01960914D
:102AF000AB027091AC028091AD029091AE020E9447
:102B0000578BAB01BC018CE492E00E94A01960914C
:102B1000A7027091A8028091A9029091AA020E9436
:102B2000658BAB01BC0189E492E00E94A019809101
:102B3000C00085FFFCCF8AE08093C600DF91CF9173
:102B40000895AF92BF92CF92DF92EF92FF920F93D0
:102B50001F93CF93DF93CDB7DEB7E0970FB6F8940E
:102B6000DEBF0FBECDBF80E1E3EBF2E0DE01919668
:102B700001900D928A95E1F780E1E3ECF2E0DE014D
:102B8000519601900D928A95E1F780E1E3EDF2E034
:102B9000DE01119601900D928A95E1F76E0121E216
:102BA000C20ED11C5EEEE52E5CE0F52E8E010F5EAE
:102BB0001F4F6EEF7CE0AE014F5F5F4FEEEDAE2E2C
:102BC000ECE0BE2E20E030E0F60181919191A191E0
:102BD000B1916F01F70181939193A193B1937F011B
:102BE000F80181919191A191B1918F01FB018193A4
:102BF0009193A193B193BF01FA0181919191A19118
:102C0000B191AF01F50181939193A193B1935F01CC
:102C10002F5F3F4F24303105B9F60E94875F80E077
:102C200090EAACE0B6E48093D60C9093D70CA093D6
:102C3000D80CB093D90C8093D20C9093D30CA09362
:102C4000D40CB093D50C1092DA0C1092DB0C1092CD
:102C5000DC0C1092DD0C80E29EE4A0E0B0E08093FA
:102C60000E0D90930F0DA093100DB093110D1092B7
:102C7000C20C1092C30C1092C40C1092C50C80E0D0
:102C800090E0A0EAB1E48093CE0C9093CF0CA09397
:102C9000D00CB093D10C8DEC9CECACECBEE38093EB
:102CA000CA0C9093CB0CA093CC0CB093CD0C80E0CD
:102CB00090E0A0EAB0E48093C60C9093C70CA09378
:102CC000C80CB093C90C1092C8051092C905109297
:102CD000CA051092CB051092C4051092C50510923A
:102CE000C6051092C7051092C0051092C10510923A
:102CF000C2051092C3050E94C110673CF5E37F072F
:102D0000FAE38F07F2E49F07B1F00E94DF9320E01F
:102D100034E244E759E40E94449320E030E0A90102
:102D20000E9464926093B9057093BA058093BB05C5
:102D30009093BC0528C04FEF5FEFBA0187E294E0A3
:102D40000E94B2198091C00085FFFCCF8AE3809376
:102D5000C600ECE3F2E08491882341F09091C0003A
:102D600095FFFCCF8093C6003196F5CFEAE3F2E001
:102D70008491882341F09091C00095FFFCCF80930F
:102D8000C6003196F5CF80E090E0ACEAB1E48093E4
:102D9000AF029093B002A093B102B093B2026AE97D
:102DA00079E989E99FE30E94508B6093AB027093AD
:102DB000AC028093AD029093AE0260E070E08CE5CF
:102DC00093E40E945E8B6093A7027093A8028093A5
:102DD000A9029093AA020E94B98180E090E0A0E845
:102DE000BFE38093A3029093A402A093A502B093A3
:102DF000A602E0960FB6F894DEBF0FBECDBFDF91FE
:102E0000CF911F910F91FF90EF90DF90CF90BF90E7
:102E1000AF900895CF93DF93CDB7DEB768970FB625
:102E2000F894DEBF0FBECDBF84E690E0988F8F8B05
:102E300086E591E3A0E3B0E089839A83AB83BC830A
:102E400044E0BE016B5F7F4FCE0147960E94BB0CF2
:102E500043E050E0BE016B5F7F4FCE0101960E94C0
:102E60009A9B892B09F0ADC040E16EEE7CE0CE016B
:102E700047960E94BB0C40E16EEF7CE0CE01479686
:102E80000E94BB0C40E16EED7CE0CE0147960E94B3
:102E9000BB0C0E94875F44E066ED7CE0CE01479664
:102EA0000E94BB0C44E062ED7CE0CE0147960E949C
:102EB000BB0C44E06AED7CE0CE0147960E94BB0C5F
:102EC00044E062EC7CE0CE0147960E94BB0C44E0FB
:102ED0006EE07DE0CE0147960E94BB0C44E06EECB4
:102EE0007CE0CE0147960E94BB0C44E06AEC7CE09B
:102EF000CE0147960E94BB0C44E066EC7CE0CE011C
:102F000047960E94BB0C4CE060EC75E0CE01479602
:102F10000E94BB0C42E0BE016B5E7F4FCE01479624
:102F20000E94BB0C42E0BE016D5E7F4FCE01479612
:102F30000E94BB0C42E0BE016F5E7F4FCE01479600
:102F40000E94BB0C42E0BE01615F7F4FCE014796FD
:102F50000E94BB0C42E0BE01635F7F4FCE014796EB
:102F60000E94BB0C42E0BE01655F7F4FCE014796D9
:102F70000E94BB0C44E069EB75E0CE0147960E94CD
:102F8000BB0C44E06FEA72E0CE0147960E94BB0C96
:102F900044E06BEA72E0CE0147960E94BB0C44E02D
:102FA00067EA72E0CE0147960E94BB0C42E0BE0188
:102FB000675F7F4FCE0147960E94BB0C0E94B9818C
:102FC00002C00E94A11568960FB6F894DEBF0FBE2E
:102FD000CDBFDF91CF910895FC01659175918591E9
:102FE00094910895CF93209124023091250237FDCA
:102FF00031C0C5E0C29FC001C39F900D112460E0A5
:1030000070E083569B4F0E946B7360911E0270911B
:103010001F022091240230912502C29FC001C39F4C
:10302000900D112483569B4F0E94B2736CE271E0A5
:1030300080E090E00E94CF8F209124023091250201
:10304000C29FC001C39F900D112483569B4FCF9107
:103050000C947173CF910895CF93209124023091F5
:10306000250237FD31C0C5E0C29FC001C39F900D4E
:10307000112460E070E083569B4F0E946B73609157
:103080001C0270911D022091240230912502C29FE2
:10309000C001C39F900D112483569B4F0E94B273B1
:1030A0006CE271E080E090E00E94CF8F20912402DA
:1030B00030912502C29FC001C39F900D11248356F9
:1030C0009B4FCF910C947173CF910895CF92DF9263
:1030D000EF92FF920F931F93CF93DF93CDB7DEB79D
:1030E000EC970FB6F894DEBF0FBECDBFFC01048194
:1030F00015812681378130584081518162817381E9
:103100007058C12CD12C80E8E82E8FE3F82ECE0128
:103110000D960E946C8B63EE72E0CE010D960E94BC
:10312000EA8CCD84DE84EF84F88809891A892B899A
:103130003C894D895E896F89788DCE0149960E94C0
:10314000E68D84E2FE017996A8E6B2E001900D9248
:103150008A95E1F7CE0101960E94B35D69817A817B
:103160008B819C816093CC057093CD058093CE05B7
:103170009093CF052D813E814F8158852093D005B6
:103180003093D1054093D2055093D305E984FA8456
:103190000B851C85E092D405F092D5050093D605E9
:1031A0001093D705E8EDCE2EE5E0DE2E0E94625E9C
:1031B000EC960FB6F894DEBF0FBECDBFDF91CF9176
:1031C0001F910F91FF90EF90DF90CF900895809125
:1031D0000F0290911002A0911102B09112028093FF
:1031E0008F0590939005A0939105B09392058091DF
:1031F0004602909147029093DD058093DC0584E6BA
:1032000090E090934702809346020E94A08F6093C3
:10321000B0047093B1048093B2049093B30481E03E
:103220000C942A7580E00E942A7580918F059091F8
:103230009005A0919105B091920580930F02909313
:103240001002A0931102B09312028091DC059091BC
:10325000DD0590934702809346020E94A08F609301
:10326000B0047093B1048093B2049093B3040895B2
:103270004F925F926F927F928F929F92AF92BF9286
:10328000CF92DF92EF92FF920F931F9340900F0225
:10329000509010026090110270901202812CF0E8A0
:1032A0009F2EFBEBAF2EF5E4BF2E80920F02909283
:1032B0001002A0921102B09212026093CC0570939A
:1032C000CD058093CE059093CF052093D005309304
:1032D000D1054093D2055093D305E092D405F092E6
:1032E000D5050093D6051093D705E8EBF5E0FF93DD
:1032F000EF93812C912CA8ECAA2EA2E4BA2EB8ED63
:10330000CB2EB5E0DB2E0E9468530E94077F4092CF
:103310000F025092100260921102709212020F90EE
:103320000F901F910F91FF90EF90DF90CF90BF9083
:10333000AF909F908F907F906F905F904F90089587
:10334000FC012491222341F03091C00035FFFCCFD5
:103350002093C6000196F4CF22E030E082EE95E0A3
:103360000C94EF4AFC012491222341F03091C000DB
:1033700035FFFCCF2093C6000196F4CF2AE030E061
:1033800082EE95E00C943E4ACF93DF931F921F92FA
:10339000CDB7DEB78091450E9091460E9E012F5F0E
:1033A0003F4F009719F42B543E4002C0281B390BA5
:1033B0003A83298389819A810F900F90DF91CF9171
:1033C00008950A9A129A0895FF920F931F93CF932C
:1033D000DF9369E070E08DE994E00E946B73C0E2D6
:1033E000D2E006E112E085E0F82E2991399137FD0F
:1033F0000CC0F80160817181F29EC001F39E900DB6
:10340000112483569B4F0E94B2730C5F1F4FF2E052
:10341000C632DF0751F76CE271E080E090E00E9475
:10342000CF8F209124023091250245E0429FC001B8
:10343000439F900D112483569B4FDF91CF911F9195
:103440000F91FF900C9471730E9456850E948F7F9C
:10345000E8EBFCE08491882341F09091C00095FF57
:10346000FCCF8093C6003196F5CFEAE6FCE084916C
:10347000882341F09091C00095FFFCCF8093C60057
:103480003196F5CF4091CC055091CD056091CE0598
:103490007091CF0522E030E082EE95E00E94EF4A85
:1034A000E6E6FCE08491882341F09091C00095FF0E
:1034B000FCCF8093C6003196F5CF4091D005509156
:1034C000D1056091D2057091D30522E030E082EE03
:1034D00095E00E94EF4AE2E6FCE08491882341F007
:1034E0009091C00095FFFCCF8093C6003196F5CF38
:1034F0004091D4055091D5056091D6057091D705BE
:1035000022E030E082EE95E00E94EF4AEEE5FCE03A
:103510008491882341F09091C00095FFFCCF809367
:10352000C6003196F5CF4091D8055091D9056091EC
:10353000DA057091DB0522E030E082EE95E00E9432
:10354000EF4AEAE5FCE08491882341F09091C000C5
:1035500095FFFCCF8093C6003196F5CFE0916C06C5
:1035600082E6E89FF0011124E359F94F20E030E0B2
:1035700040E752E460897189828993890E9412969A
:10358000AB01BC0122E030E082EE95E00E94EF4A00
:10359000E8E5FCE08491882341F09091C00095FF1C
:1035A000FCCF8093C6003196F5CF7894FFCF2F9251
:1035B0003F924F925F926F927F928F929F92AF92C3
:1035C000BF92CF92DF92EF92FF920F931F93CF9310
:1035D000DF9300D01F92CDB7DEB71C01FC01E35989
:1035E000F34F74909C01220F331F220F331F3C8333
:1035F0002B83F901E453FA4F108211821282138255
:103600000E941D8081111EC0E090D405F090D50568
:103610000091D6051091D7052091D0053091D105A4
:103620004091D2055091D3056091CC057091CD05A4
:103630008091CE059091CF05E8EDCE2EE5E0DE2E0F
:103640000E94625E8B819C818458934F0E94EC178C
:103650004B015C01672D772767FD7095872F972FAA
:103660000E94DF932B013C010B811C810D551A4FE9
:1036700020E030E040EC5FE3C501B4010E94129607
:10368000A30192010E941296F801608371838283E4
:103690009383EB81FC81E85BFD4F80819181A28166
:1036A000B38180930F0290931002A0931102B09304
:1036B00012020E941D8081113FC020E030E040E7EF
:1036C00052E460910F02709110028091110290916A
:1036D00012020E9444934B015C01E090AB05F09014
:1036E000AC050091AD051091AE052091A705309174
:1036F000A8054091A9055091AA056091A305709174
:10370000A4058091A5059091A605E8EBF5E0FF934F
:10371000EF93BFEACB2EB5E0DB2E0E9468530E94E8
:10372000077F0E9416750F900F90811105C00E94AF
:103730001D80882309F461C2EB81FC81E453FA4FB8
:1037400010821182128213820E941D8081111EC07C
:10375000E090D405F090D5050091D6051091D705DD
:103760002091D0053091D1054091D2055091D305DB
:103770006091CC057091CD058091CE059091CF05DB
:10378000A8EDCA2EA5E0DA2E0E94625E2B813C8154
:103790002059334F3A832983C9010E94EC170B81CA
:1037A0001C810D551A4F9058A30192010E94129648
:1037B000F80160837183828393830E941D8081114D
:1037C00007C120E030E040E752E460910F027091C1
:1037D000100280911102909112020E9444934B01B9
:1037E0005C01E090AB05F090AC050091AD05109147
:1037F000AE052091A7053091A8054091A9055091EB
:10380000AA056091A3057091A4058091A5059091EA
:10381000A605E8EBF5E0FF93EF93FFEACF2EF5E086
:10382000DF2E0E9468530E94077F0F900F90F1E0F7
:103830002F16310409F449C022E02216310409F49C
:1038400085C02114310409F0C3C01D991CC040E596
:1038500054E060E070E08EEB9CE00E94B219809131
:10386000C00085FFFCCF8AE38093C600E6E4F9E060
:1038700084918823F1F09091C00095FFFCCF809354
:10388000C6003196F5CF1C99A3C041E554E060E035
:1038900070E08EEB9CE00E94B2198091C00085FF21
:1038A000FCCF8AE38093C600E8E0F9E084918111BF
:1038B00004C00E9423750E94241A9091C00095FFB5
:1038C000FCCF8093C6003196F1CF8091090186FD2F
:1038D0001CC042E554E060E070E08EEB9CE00E948A
:1038E000B2198091C00085FFFCCF8AE38093C600A7
:1038F000EAECF8E084918823E1F29091C00095FF12
:10390000FCCF8093C6003196F5CF8091090187FDE9
:103910005FC043E554E060E070E08EEB9CE00E9405
:10392000B2198091C00085FFFCCF8AE38093C60066
:10393000ECE8F8E08491882309F4BBCF9091C000B3
:1039400095FFFCCF8093C6003196F4CF809109019A
:1039500084FD1DC044E554E060E070E08EEB9CE027
:103960000E94B2198091C00085FFFCCF8AE380934A
:10397000C600EEE4F8E08491882309F49ACF909190
:10398000C00095FFFCCF8093C6003196F4CF8091A4
:10399000090185FD1DC045E554E060E070E08EEB57
:1039A0009CE00E94B2198091C00085FFFCCF8AE3A1
:1039B0008093C600E0E1F8E08491882309F479CF90
:1039C0009091C00095FFFCCF8093C6003196F4CF54
:1039D00089819A810E94EC170B811C810D551A4F29
:1039E0009B01AC010E946492A30192010E94129675
:1039F000F801608371838283938320E030E040E0AC
:103A00005FE3EB81FC81E85BFD4F60817181828126
:103A100093810E94129660930F027093100280931C
:103A20001102909312020E941D80811136C020E085
:103A300030E040E752E460910F02709110028091F3
:103A40001102909112020E9444934B015C01E0909C
:103A5000AB05F090AC050091AD051091AE0520913D
:103A6000A7053091A8054091A9055091AA0560913C
:103A7000A3057091A4058091A5059091A605E8EB9A
:103A8000F5E0FF93EF93EFEACE2EE5E0DE2E0E9405
:103A900068530E94077F0F900F900E941D80811134
:103AA00049C08B819C818857934F0E94EC172B81D2
:103AB0003C8124533A4F79010B811C8100541A4FE9
:103AC000F80120813181428153810E946492F70183
:103AD00060837183828393838B819C818056934F13
:103AE0000E94EC172B813C812E5C3D4F7901F8013F
:103AF00020813181428153810E946492F701608369
:103B00007183828393838B819C818C56934F0E9417
:103B1000EC172B813C812A5D3D4F7901F801208112
:103B20003181428153810E946492F70160837183E5
:103B3000828393830E941D80811111C0EB81FC81DF
:103B4000ED55FA4FAB81BC81A453BA4F8D919D9135
:103B50000D90BC91A02D80839183A283B38310929A
:103B60000F021092100210921102109212020E9483
:103B70001D80811102C00E9423750E941D80811149
:103B800005C081E0F101E354FA4F8083F101EE0FAB
:103B9000FF1FDF01A05EBD4F2D913C9137FD10C08E
:103BA000EE0FFF1FEA5EFD4F6081718145E0429F8D
:103BB000C001439F900D112483569B4F0E94B27306
:103BC000F2E02F16310409F056C00F900F900F90BD
:103BD0000F90DF91CF911F910F91FF90EF90DF90A9
:103BE000CF90BF90AF909F908F907F906F905F909D
:103BF0004F903F902F900C94F21722E02216310440
:103C0000E9F445E554E060E070E08EEB9CE00E9452
:103C1000B2198091C00085FFFCCF8AE38093C60073
:103C2000EAECF9E08491882309F445CE9091C00034
:103C300095FFFCCF8093C6003196F4CF4FE454E05B
:103C400060E070E08EEB9CE00E94B2198091C000B1
:103C500085FFFCCF8AE38093C600E4E8F9E0849115
:103C6000882309F428CE9091C00095FFFCCF809363
:103C7000C6003196F4CF0F900F900F900F90DF9108
:103C8000CF911F910F91FF90EF90DF90CF90BF9059
:103C9000AF909F908F907F906F905F904F903F90EC
:103CA0002F9008954F925F926F927F928F929F9282
:103CB000AF92BF92CF92DF92EF92FF920F931F933A
:103CC00088E692E00E94BC8D609150027091510292
:103CD000809152029091530260930F0270931002F0
:103CE000809311029093120220E030E040E752E40A
:103CF0000E9444934B015C012091D0053091D10585
:103D00004091D2055091D3056091CC057091CD05BD
:103D10008091CE059091CF05E8EBF5E0FF93EF930E
:103D200008EDC02E05E0D02EE12CF12C00EA11ECBC
:103D30000E9468530E94077F809109010F900F90A5
:103D400084FF25C0E091CD0DF091CE0D84898111C5
:103D50001DC04DE454E060E070E08EEB9CE00E94FA
:103D6000B2198091C00085FFFCCF8AE38093C60022
:103D7000E2E7F5E08491882309F48AC09091C000BD
:103D800095FFFCCF8093C6003196F4CF148A82E071
:103D90000E946E7F2B013C012091D0053091D1050E
:103DA0004091D2055091D3056091CC057091CD051D
:103DB0008091CE059091CF0518EDC12E15E0D12E42
:103DC000830172010E94625E88E79CE00E94EC170A
:103DD0009B01AC01C301B2010E9464922B013C0122
:103DE00020E030E040E752E460910F027091100251
:103DF00080911102909112020E9444934B015C0148
:103E00002091D0053091D1054091D2055091D30534
:103E10006091CC057091CD058091CE059091CF0534
:103E2000E8EBF5E0FF93EF93830172010E94685382
:103E30000E94077F809109010F900F9084FD2AC096
:103E400061E070E080E090E00E94CF8F80910901F6
:103E500084FD20C04EE454E060E070E08EEB9CE016
:103E60000E94B2198091C00085FFFCCF8AE3809345
:103E7000C600E0E2F5E08491882341F09091C00013
:103E800095FFFCCF8093C6003196F5CF0E94237535
:103E90000E94241A20E030E040E85EE36091500286
:103EA0007091510280915202909153020E94129699
:103EB0004B015C0160930F0270931002809311021A
:103EC0009093120288E79CE00E94EC176B017C0142
:103ED00020E030E040E752E4C501B4010E94449381
:103EE0004B015C01A7019601C701B6010E946492D3
:103EF0009B01AC01C301B2010E9463927B018C0162
:103F00002091D0053091D1054091D2055091D30533
:103F10006091CC057091CD058091CE059091CF0533
:103F2000E8EBF5E0FF93EF93B8EDCB2EB5E0DB2E99
:103F30000E9468530E94077F809109010F900F90A3
:103F400084FF25C0E091CD0DF091CE0D84898111C3
:103F50001DC04DE454E060E070E08EEB9CE00E94F8
:103F6000B2198091C00085FFFCCF8AE38093C60020
:103F7000EFECF4E08491882309F48ACF9091C0009B
:103F800095FFFCCF8093C6003196F4CF148A82E06F
:103F90000E946E7F7B018C016093D4057093D505E0
:103FA0008093D6059093D7052091D0053091D10507
:103FB0004091D2055091D3056091CC057091CD050B
:103FC0008091CE059091CF05A8EDCA2EA5E0DA2EFE
:103FD0000E94625E1F910F91FF90EF90DF90CF9053
:103FE000BF90AF909F908F907F906F905F904F9019
:103FF00008950E94E11940E052EC61E070E082EE29
:1040000095E00E94F548E2E5FCE08491882341F0C8
:104010009091C00095FFFCCF8093C6003196F5CFFC
:104020008091C00085FFFCCF8AE08093C60088EBBA
:104030009CE0FC012491222341F03091C00035FF27
:10404000FCCF2093C6003196F5CF24B720FF14C0D3
:10405000EAE4FCE03491332341F04091C00045FF95
:10406000FCCF3093C6003196F5CF3091C00035FFBC
:10407000FCCF3AE03093C60021FF14C0EAE3FCE035
:104080003491332341F04091C00045FFFCCF309381
:10409000C6003196F5CF3091C00035FFFCCF3AE035
:1040A0003093C60022FF14C0E9E2FCE034913323D0
:1040B00041F04091C00045FFFCCF3093C6003196DF
:1040C000F5CF3091C00035FFFCCF3AE03093C60009
:1040D00023FF14C0E9E1FCE03491332341F0409127
:1040E000C00045FFFCCF3093C6003196F5CF30912C
:1040F000C00035FFFCCF3AE03093C60025FF14C066
:10410000E9E0FCE02491222341F03091C00035FF2A
:10411000FCCF2093C6003196F5CF2091C00025FF3B
:10412000FCCF2AE02093C60014BEE2EFFBE024910E
:10413000222341F03091C00035FFFCCF2093C60010
:104140003196F5CFEBEEFBE02491222341F0309144
:10415000C00035FFFCCF2093C6003196F5CF2091EB
:10416000C00025FFFCCF2AE02093C600FC0124916B
:10417000E8EBFCE0222349F03091C00035FFFCCF92
:104180002093C60031962491F5CFEBEDFBE024910E
:10419000222341F03091C00035FFFCCF2093C600B0
:1041A0003196F5CFE6ECFBE02491222341F03091EB
:1041B000C00035FFFCCF2093C6003196F5CFEAEB67
:1041C000FBE02491222341F03091C00035FFFCCF69
:1041D0002093C6003196F5CFEAE9FBE02491222333
:1041E00041F03091C00035FFFCCF2093C6003196DE
:1041F000F5CF2091C00025FFFCCF2AE02093C60018
:10420000EEE8FBE02491222341F03091C00035FF1D
:10421000FCCF2093C6003196F5CF2091C00025FF3A
:10422000FCCF2AE02093C600FC018491E8EBFCE07F
:10423000882349F09091C00095FFFCCF8093C60081
:1042400031968491F5CFEFE7FBE08491882341F02C
:104250009091C00095FFFCCF8093C6003196F5CFBA
:104260000E94C4194AE050E0BC0182EE95E00E9431
:104270000F4AE8E6FBE08491882341F09091C0006A
:1042800095FFFCCF8093C6003196F5CF4AE050E011
:1042900060E276E082EE95E00E940F4A8091C000D5
:1042A00085FFFCCF8AE08093C6001092C004109274
:1042B000C1040E940A170E949E840E9401520E941B
:1042C000488F0E94837E0C94E4198091B4049091ED
:1042D000B50460E070E001960C94B0988091B4044D
:1042E0009091B5044AE050E060E070E001960C94D3
:1042F000219A682F772767FD70952091BE04309131
:10430000BF0440E6429FC001439F900D11248E538D
:104310009B4F0E948F9B9093B5048093B40421E03F
:10432000892B09F420E0822F08954F925F926F92BB
:104330007F928F929F92AF92BF92CF92DF92EF9235
:10434000FF920F931F93CF93DF93CDB7DEB76097A4
:104350000FB6F894DEBF0FBECDBF0E94850E2B01B5
:104360003C010E94140F4B015C010E94A30F6B01E2
:104370007C010E9432106D877E878F87988B0E9408
:10438000C110673C25E372072AE3820722E4920703
:10439000F9F00E94DF9320E034E244E759E40E9400
:1043A000449320E030E0A9010E9464926093B90533
:1043B0007093BA058093BB059093BC0587EC4816B3
:1043C00085E358068AE3680682E4780649F531C039
:1043D0004FEF5FEFBA018EEB9CE00E94B219809123
:1043E000C00085FFFCCF8AE38093C600E8E1FAE0D5
:1043F0008491882341F09091C00095FFFCCF809379
:10440000C6003196F5CFE6E1FAE08491882349F1C0
:104410009091C00095FFFCCF8093C6003196F5CFF8
:1044200097EC891695E399069AE3A90692E4B906F2
:10443000D1F44FEF5FEFBA018EEB9CE00E94B2190E
:104440008091C00085FFFCCF8AE38093C600E9E03D
:10445000FAE084918111EFC0E7E0FAE084918111E4
:10446000F2C00E94241AA7ECCA16A5E3DA06AAE352
:10447000EA06A2E4FA06E9F28D859E85AF85B88941
:10448000873C9543AA43B244A1F20E94077F88E685
:1044900092E00E94BC8DC301B2010E94DF9320E034
:1044A00034E244E759E40E94449369837A838B831E
:1044B0009C83C501B4010E94DF9320E034E244E70D
:1044C00059E40E9444936D837E838F839887C7014C
:1044D000B6010E94DF9320E034E244E759E40E94F1
:1044E000449369877A878B879C87CE0101960E94C7
:1044F00066186D857E858F8598890E94DF9320E000
:1045000034E244E759E40E9444932091B905309184
:10451000BA054091BB055091BC050E9464926B01A5
:104520007C019B01AC016091D4057091D50580910F
:10453000D6059091D7050E9463926093D40570933D
:10454000D5058093D6059093D705EFEEF2E08191E3
:10455000882339F09091C00095FFFCCF8093C6006E
:10456000F6CF22E030E0B701A60182EE95E00E948E
:10457000EF4A8091C00085FFFCCF8AE08093C6009F
:10458000E090D405F090D5050091D6051091D7059F
:104590002091D0053091D1054091D2055091D3059D
:1045A0006091CC057091CD058091CE059091CF059D
:1045B000F8EDCF2EF5E0DF2E0E94625E80E090E005
:1045C000A1E6B5E480930F0290931002A09311022C
:1045D000B0931202E090D405F090D5050091D60575
:1045E0001091D7052091D0053091D1054091D20589
:1045F0005091D3056091CC057091CD058091CE0589
:104600009091CF050E94625E60960FB6F894DEBF6F
:104610000FBECDBFDF91CF911F910F91FF90EF9013
:10462000DF90CF90BF90AF909F908F907F906F90D2
:104630005F904F9008959091C00095FFFCCF8093BC
:10464000C600319606CF9091C00095FFFCCF8093B5
:10465000C600319603CF0E94A08F6093B004709380
:10466000B1048093B2049093B304E3ECF4E084913A
:10467000882341F09091C00095FFFCCF8093C60045
:104680003196F5CF8091C00085FFFCCF8AE0809302
:10469000C600089582EE95E00E944749E6ECF4E0FA
:1046A0008491882341F09091C00095FFFCCF8093C6
:1046B000C6003196F5CF40918705509188056091ED
:1046C000890570918A054F5F5F4F6F4F7F4F2AE0DA
:1046D00030E082EE95E00E94E8498091C00085FFBD
:1046E000FCCF8AE08093C6000C942B238F929F927C
:1046F000AF92BF92CF92DF92EF92FF920F931F93F0
:10470000CF93DF93A6E4EA2EA4E0FA2E0CEC15E09A
:10471000C3EAD5E0BEEDCB2EB5E0DB2EF7018191EB
:104720007F010E947921882319F10E9465214B01A4
:104730005C01F6018081811103C06091820501C096
:1047400061E070E080E090E00E94DF93F80120815A
:104750003181428153810E9412969B01AC01C501B7
:10476000B4010E946492688379838A839B8309C021
:10477000F80180819181A281B38188839983AA8382
:10478000BB830C5F1F4F2496FFEFCF1ADF0A8AE42A
:10479000E81684E0F80611F686E40E947921882361
:1047A000D9F00E9465216B017C01609393057093A1
:1047B0009405809395059093960520E030E0A9013B
:1047C0000E944095181644F4C0920F02D092100235
:1047D000E0921102F0921202DF91CF911F910F919E
:1047E000FF90EF90DF90CF90BF90AF909F908F9011
:1047F00008950E94762389E40E947921882359F044
:104800000E946521609397057093980580939905A0
:1048100090939A0508C010929705109298051092EF
:10482000990510929A058AE40E947921882359F00B
:104830000E94652160939B0570939C0580939D0564
:1048400090939E05089510929B0510929C051092DE
:104850009D0510929E050895CF92DF92EF92FF92F0
:10486000CF93DF93EC01C0903202D0903302E090FE
:104870003402F0903502A7019601688179818A811E
:104880009B810E943D9387FF04C0C882D982EA823F
:10489000FB82C0903602D0903702E0903802F09050
:1048A0003902A70196016C817D818E819F810E94D2
:1048B0003D9387FF04C0CC82DD82EE82FF82C090F0
:1048C0003A02D0903B02E0903C02F0903D02A701FA
:1048D0009601688579858A859B850E943D9387FF2F
:1048E00004C0C886D986EA86FB86C0902602D0908E
:1048F0002702E0902802F0902902A7019601688122
:1049000079818A819B810E944095181624F4C8827F
:10491000D982EA82FB82C0902A02D0902B02E090DA
:104920002C02F0902D02A70196016C817D818E8171
:104930009F810E944095181624F4CC82DD82EE827D
:10494000FF82C0902E02D0902F02E0903002F090B3
:104950003102A7019601688579858A859B850E9429
:104960004095181624F4C886D986EA86FB86DF911E
:10497000CF91FF90EF90DF90CF9008952F923F92CC
:104980004F925F926F927F928F929F92AF92BF925F
:10499000CF92DF92EF92FF920F931F93CF93DF930B
:1049A000CDB7DEB72C970FB6F894DEBF0FBECDBFE4
:1049B00083EA95E00E942C2481E00E942A7520E081
:1049C00030E040E253E46091320E7091330E8091FA
:1049D000340E9091350E0E94409518160CF055C17A
:1049E0002091CC053091CD054091CE055091CF0559
:1049F00029833A834B835C832093A3053093A405DA
:104A00004093A5055093A6054090D0055090D10540
:104A10006090D2057090D3054092A7055092A805EA
:104A20006092A9057092AA058091D4059091D50550
:104A3000A091D605B091D7058D839E83AF83B887AB
:104A40008093AB059093AC05A093AD05B093AE05F4
:104A500020E030E040E85FE36091D8057091D9052F
:104A60008091DA059091DB050E9463926093AF0517
:104A70007093B0058093B1059093B205B8EB2B2EDF
:104A8000B5E03B2E3F922F92812C912C10EFA12E5E
:104A900011E4B12E0FEAC02E05E0D02EED80FE808D
:104AA0000F811885A301920169817A818B819C8194
:104AB0000E9468536091A3057091A4058091A5059B
:104AC0009091A6056093CC057093CD058093CE059B
:104AD0009093CF058090A7059090A805A090A90578
:104AE000B090AA058092D0059092D105A092D205EF
:104AF000B092D305C090AB05D090AC05E090AD0569
:104B0000F090AE05C092D405D092D505E092D605BE
:104B1000F092D7052091AF053091B0054091B105D5
:104B20005091B20529833A834B835C832093D80547
:104B30003093D9054093DA055093DB0520E030E04F
:104B400040E251E40E9464922B013C016093A30572
:104B50007093A4058093A5059093A60520E030E00E
:104B600040E251E4C501B4010E9464926D837E83EA
:104B70008F8398876093A7057093A8058093A905F4
:104B80009093AA0520E030E040E85FE3C701B6015A
:104B90000E94649269877A878B879C876093AB05B4
:104BA0007093AC058093AD059093AE0520E030E0A6
:104BB00040EA50E469817A818B819C810E946392F2
:104BC0006093AF057093B0058093B1059093B205E3
:104BD0003F922F92812C912C86E1A82E83E4B82E4F
:104BE0009FEAC92E95E0D92EE984FA840B851C85AD
:104BF0002D813E814F815885C301B2010E946853C7
:104C00008091A3059091A405A091A505B091A6055A
:104C10008093CC059093CD05A093CE05B093CF059E
:104C20008091A7059091A805A091A905B091AA052A
:104C30008093D0059093D105A093D205B093D3056E
:104C40008091AB059091AC05A091AD05B091AE05FA
:104C50008093D4059093D505A093D605B093D7053E
:104C60008091AF059091B005A091B105B091B205CA
:104C70008093D8059093D905A093DA05B093DB050E
:104C80000F900F900F900F90B2C020E030E040E204
:104C900051E46091CC057091CD058091CE05909145
:104CA000CF050E9464922B013C016093A305709391
:104CB000A4058093A5059093A60520E030E040E28E
:104CC00051E46091D0057091D1058091D205909109
:104CD000D3050E94649269837A838B839C8360935B
:104CE000A7057093A8058093A9059093AA0520E0D5
:104CF00030E040E85FE36091D4057091D505809184
:104D0000D6059091D7050E9464926093AB0570938D
:104D1000AC058093AD059093AE050091D805109138
:104D2000D9052091DA053091DB050093AF0510938A
:104D3000B0052093B1053093B20528EB35E03F93E1
:104D40002F93812C912CF6E1AF2EF3E4BF2EAFEA26
:104D5000CA2EA5E0DA2E7B018C0129813A814B8194
:104D60005C81C301B2010E9468538091A3059091B8
:104D7000A405A091A505B091A6058093CC059093BC
:104D8000CD05A093CE05B093CF058091A705909156
:104D9000A805A091A905B091AA058093D00590938C
:104DA000D105A093D205B093D3058091AB05909126
:104DB000AC05A091AD05B091AE058093D40590935C
:104DC000D505A093D605B093D7058091AF059091F6
:104DD000B005A091B105B091B2058093D80590932C
:104DE000D905A093DA05B093DB050F900F90909151
:104DF0006B0680916C069813FACF88E692E00E94C9
:104E0000BC8D80910F0290911002A0911102B0917F
:104E1000120280938F0590939005A0939105B09313
:104E2000920580914602909147029093DD05809310
:104E3000DC0584E690E090934702809346020E944E
:104E4000A08F6093B0047093B1048093B2049093E8
:104E5000B30481E00E942A758091CC059091CD0524
:104E6000A091CE05B091CF058093A3059093A405A2
:104E7000A093A505B093A6058091D0059091D1058A
:104E8000A091D205B091D3058093A7059093A80572
:104E9000A093A905B093AA058091D4059091D5055A
:104EA000A091D605B091D7058093AB059093AC0542
:104EB000A093AD05B093AE058091D8059091D9052A
:104EC000A091DA05B091DB058093AF059093B00512
:104ED000A093B105B093B20510920F021092100288
:104EE0001092110210921202169A1092BD05469A63
:104EF0001092BE05409A1092BF05139A82E090E08E
:104F00000E94D71AE090D405F090D5050091D605FF
:104F10001091D7052091D0053091D1054091D2054F
:104F20005091D3056091CC057091CD058091CE054F
:104F30009091CF05E8EDCE2EE5E0DE2E0E94625E78
:104F400080E00E942A7580918F0590919005A09134
:104F50009105B091920580930F0290931002A09357
:104F60001102B09312028091DC059091DD059093BF
:104F70004702809346020E94A08F6093B004709312
:104F8000B1048093B2049093B3040E942375169ADF
:104F90001092BD05469A1092BE05409A1092BF0528
:104FA000139A2C960FB6F894DEBF0FBECDBFDF91DB
:104FB000CF911F910F91FF90EF90DF90CF90BF9016
:104FC000AF909F908F907F906F905F904F903F90A9
:104FD0002F9008954F925F926F927F928F929F923F
:104FE000AF92BF92CF92DF92EF92FF920F931F93F7
:104FF000CF93DF93CDB7DEB728970FB6F894DEBF17
:105000000FBECDBF83EA95E00E942C240E94A08FA2
:105010006093B0047093B1048093B2049093B3048E
:105020002091A3053091A4054091A5055091A605B6
:1050300029833A834B835C836091CC057091CD05C5
:105040008091CE059091CF050E943D934090A70599
:105050005090A8056090A9057090AA052091AB0515
:105060003091AC054091AD055091AE052D833E8346
:105070004F83588781118BC0A30192016091D005A5
:105080007091D1058091D2059091D3050E943D93F6
:1050900081117DC020E030E040E752E460910F02D2
:1050A0007091100280911102909112020E9444931B
:1050B0004B015C0188EB95E09F938F932FEAC22E02
:1050C00025E0D22EED80FE800F811885A30192018C
:1050D00069817A818B819C810E9468530F900F9027
:1050E0008091A3059091A405A091A505B091A60576
:1050F0008093CC059093CD05A093CE05B093CF05BA
:105100008091A7059091A805A091A905B091AA0545
:105110008093D0059093D105A093D205B093D30589
:105120008091AB059091AC05A091AD05B091AE0515
:105130008093D4059093D505A093D605B093D70559
:105140008091AF059091B005A091B105B091B205E5
:105150008093D8059093D905A093DA05B093DB0529
:1051600028960FB6F894DEBF0FBECDBFDF91CF916A
:105170001F910F91FF90EF90DF90CF90BF90AF9075
:105180009F908F907F906F905F904F900895609167
:10519000460270914702882777FD8095982F0E94DC
:1051A000DF9320910F023091100240911102509133
:1051B00012020E94129620E030E040E752E40E9482
:1051C000449320E030E048EC52E470CFAF92BF92BD
:1051D000CF92DF92EF92FF920F931F93CF93DF93C3
:1051E000D82F20919B0530919C0540919D055091B1
:1051F0009E05609197057091980580919905909111
:105200009A050E944D95C62F172F082FF92E6091F1
:10521000460270914702882777FD8095982F0E945B
:10522000DF9320910F0230911002409111025091B2
:1052300012020E94129620E030E040E752E40E9401
:10524000449320E030E048EC52E40E9444932091E3
:10525000B8052F93DF93FF920F931F93CF935B01BA
:105260006C0132E0E32E01E020E047E955E063EA1B
:1052700075E08CEC95E00E94F14A8091A305909135
:10528000A405A091A505B091A6058093CC059093A7
:10529000CD05A093CE05B093CF058091A705909141
:1052A000A805A091A905B091AA058093D005909377
:1052B000D105A093D205B093D3058091AB05909111
:1052C000AC05A091AD05B091AE058093D405909347
:1052D000D505A093D605B093D7058091AF059091E1
:1052E000B005A091B105B091B2058093D805909317
:1052F000D905A093DA05B093DB050E94A08F6093D7
:10530000B0047093B1048093B2049093B3040F90EF
:105310000F900F900F900F900F90DF91CF911F91F2
:105320000F91FF90EF90DF90CF90BF90AF900895D6
:10533000F8940E945685169A1092BD05469A1092CE
:10534000BE05409A1092BF05139A60E088E10E9462
:10535000739141EB54E060E070E08EEB9CE00E94C2
:10536000B2198091C00085FFFCCF8AE38093C6000C
:10537000E4EAF4E08491882341F09091C00095FF25
:10538000FCCF8093C6003196F5CF8091C00085FF99
:10539000FCCF8AE08093C600FFCF2F923F925F92AE
:1053A0006F927F928F929F92AF92BF92CF92DF9235
:1053B000EF92FF920F931F93CF93DF9340E6742EEB
:1053C00052E0E52EF12C6CE2262E6AE0362E72E6D3
:1053D000672EEAE2CE2EEAE0DE2EF4E4AF2EFAE00B
:1053E000BF2EAAEB8A2EAAE09A2E80916306909196
:1053F00064062091650630916606821B930B8F77B9
:105400009927892B09F4F1C28091BA049091BB04C9
:1054100002970CF0EAC282EE95E00E942B4980933D
:10542000B9042091B7043091B8048A3061F08D300E
:1054300051F08A3321F49091B604992321F02F354D
:1054400031050CF4F5C12115310519F41092B6049B
:10545000CCC28091BC049091BD04789E8001799E5D
:10546000100D1124F801E20FF31FEE53FB4F1082D1
:105470002091B6042111D7C1FC01E054FB4F1082EA
:10548000E801CE53DB4F6EE470E0CE010E948F9BAB
:105490000097E9F19093B5048093B4048C1B9D0BA5
:1054A000800F911F4AE050E060E070E08D539B4F09
:1054B0000E94219A60938B0570938C0580938D05D3
:1054C00090938E052091870530918805409189053C
:1054D00050918A052F5F3F4F4F4F5F4F0091BC04A3
:1054E0001091BD04621773078407950709F4BFC1C3
:1054F000709EC001719E900D112463E67BE08E5377
:105500009B4F0E94759B892B09F0B1C141C26AE291
:1055100070E0CE010E948F9B892B09F444C0E2EB1E
:10552000FCE08491882341F09091C00095FFFCCF6E
:105530008093C6003196F5CFEDEBFAE08491882395
:1055400041F09091C00095FFFCCF8093C60031964A
:10555000F5CF40918705509188056091890570913C
:105560008A052AE030E082EE95E00E94E8498091C9
:10557000C00085FFFCCF8AE08093C6001092B8047B
:105580001092B70432C280918B0590918C05A09146
:105590008D05B0918E058093870590938805A09323
:1055A0008905B0938A058091BC049091BD04789ED2
:1055B000E001799ED00D11248E010E531B4F67E43C
:1055C00070E0C8010E948F9B009709F441C090933E
:1055D000B5048093B404801B910B8C0F9D1F60E079
:1055E00070E08D539B4F0E94B0980E94AC93643042
:1055F000710570F58091A204811114C0F4018491A9
:10560000EAEBFAE0882349F09091C00095FFFCCFC7
:105610008093C60031968491F5CF8091C00085FFBC
:10562000FCCF13C0F5018491E4E4FAE0882349F04B
:105630009091C00095FFFCCF8093C6003196849175
:10564000F5CF8091C00085FFFCCF8AE08093C60033
:105650002091BC043091BD04729EC001739E900DD8
:1056600011246FE37AE08E539B4F0E94759B892B28
:1056700009F4B4C00E948F7FE8EBFCE0849188239A
:1056800041F09091C00095FFFCCF8093C600319609
:10569000F5CFECE3FAE08491882341F09091C000CB
:1056A00095FFFCCF8093C6003196F5CF4091CC0595
:1056B0005091CD056091CE057091CF0522E030E08C
:1056C00082EE95E00E94EF4AE8E3FAE084918823B5
:1056D00041F09091C00095FFFCCF8093C6003196B9
:1056E000F5CF4091D0055091D1056091D2057091D0
:1056F000D30522E030E082EE95E00E94EF4AE4E339
:10570000FAE08491882341F09091C00095FFFCCF8E
:105710008093C6003196F5CF4091D4055091D505C0
:105720006091D6057091D70522E030E082EE95E0D9
:105730000E94EF4AE0E3FAE08491882341F09091DF
:10574000C00095FFFCCF8093C6003196F5CF409105
:10575000D8055091D9056091DA057091DB0522E0FA
:1057600030E082EE95E00E94EF4AF1018491ECE294
:10577000FAE0882349F09091C00095FFFCCF809318
:10578000C60031968491F5CFE0916C066E9EF001D3
:105790001124E359F94F20E030E040E752E46089FA
:1057A0007189828993890E941296AB01BC0122E023
:1057B00030E082EE95E00E94EF4AF6018491EAE241
:1057C000FAE0882349F09091C00095FFFCCF8093C8
:1057D000C60031968491F5CF0E941580C091BC041B
:1057E000D091BD047C9EC0017D9E900D112465E288
:1057F0007AE08E539B4F0E94759B892B11F00E947B
:105800009829CE010196B7010E94F4969093BD04A9
:105810008093BC048091BA049091BB04019690934C
:10582000BB048093BA041092B8041092B704DDCD83
:105830008B3319F491E09093B6049091B6049111D2
:10584000D4CD4091BC045091BD04B9016F5F7F4F2E
:105850007093B8046093B704749EF001759EF00DC8
:105860001124E20FF31FEE53FB4F8083BECD709ED9
:10587000E001719ED00D11248E010E531B4F6AE280
:1058800070E0C8010E948F9B009791F5E2EBFCE06D
:105890008491882341F09091C00095FFFCCF8093C4
:1058A000C6003196F5CFE7EEFAE08491882341F007
:1058B0009091C00095FFFCCF8093C6003196F5CF44
:1058C00040918705509188056091890570918A05FE
:1058D0002AE030E082EE95E00E94E8498091C00025
:1058E00085FFFCCF8AE08093C6000E944A2346CE03
:1058F00020E0512CFE01E20FF11DEE53FB4F3081F1
:105900003A3219F02F5F5326F5CF9093B504809368
:10591000B404801B910B8C0F9D1F60E070E08D53D1
:105920009B4F0E94B0980E94AC93252D30E0261723
:10593000370709F428CEE2EBFCE08491882341F09C
:105940009091C00095FFFCCF8093C6003196F5CFB3
:10595000E1E1FBE08491882341F09091C00095FF44
:10596000FCCF8093C6003196F5CF409187055091CA
:1059700088056091890570918A052AE030E082EE01
:1059800095E00E94E8498091C00085FFFCCFAACF36
:10599000E2EBFCE08491882341F09091C00095FFF8
:1059A000FCCF8093C6003196F5CFE0E3FBE0849115
:1059B000882341F09091C00095FFFCCF8093C600F2
:1059C0003196F5CF40918705509188056091890502
:1059D00070918A052AE030E082EE95E00E94E84965
:1059E0008091C00085FFFCCF7DCFDF91CF911F91CB
:1059F0000F91FF90EF90DF90CF90BF90AF909F906E
:105A00008F907F906F905F903F902F900895CF92EE
:105A1000DF92EF92FF920F931F938091BA049091BF
:105A2000BB041816190614F00E94CD290E94A08FFD
:105A30000091AC041091AD042091AE043091AF04FC
:105A4000C090B004D090B104E090B204F090B304E0
:105A50006C197D098E099F09061717072807390752
:105A600030F4012B022B032B11F00E949829809116
:105A70000B0290910C02A0910D02B0910E02892BA5
:105A80008A2B8B2B09F10E94A08F0091B0041091FA
:105A9000B1042091B2043091B304601B710B820BEE
:105AA000930B00910B0210910C0220910D0230918A
:105AB0000E02061717072807390730F490916C0675
:105AC00080916B06981741F01F910F91FF90EF9016
:105AD000DF90CF900C944A53169A1092BD05469AC7
